:100000000EEF00F0FF00FF0024EF04F0FF00FF0000
:10001000FF00FF00FF00FF002CEF04F0C3EF03F030
:100020005B5245545F424F4F545F5631305D000084
:100030000020476F6F640D0A00204261640D0A00C2
:100040004572617365200057726974652000202D28
:100050003E200000196E600E216E000E226E190403
:1000600005E01D6A040E1E6E010E04D01D6A080E06
:100070001E6E000E1F6E206A00D01DC001F01EC053
:1000800002F01FC003F020C004F0066A400E056EA7
:10009000600E076E000E086E57EC03F01C6A3F0EF0
:1000A0001C6401D00ED01C50010D600EF324D96EDB
:1000B000000EF420DA6EDE2804E101D002D01C2A02
:1000C000EED7400E1C1802E1000E120021C0D9FF2D
:1000D00022C0DAFF430EDE1801E0ACD020EE01F0C2
:1000E0002150D9262250DA22DF5001E1A3D020EEA0
:1000F00002F02150D9262250DA22410EDE1801E00A
:1001000099D020EE03F02150D9262250DA22DF5078
:1001100001E190D020EE04F02150D9262250DA22BD
:10012000500EDE1801E086D020EE06F02150D926D0
:100130002250DA22DE50DE10DE10DE107BE00C0EE4
:100140002124116E000E2220126E11C001F012C087
:1001500002F001500210D8A4200E036EA4EC03F0AC
:10016000400E1D26000E1E221F22202220EE06F029
:100170002150D9262250DA22DECF11F0DECF12F044
:10018000DECF13F0DECF14F01D501124156E1E507B
:100190001220166E1F501320176E20501420186E58
:1001A00020EE3EF02150D9262250DA22DECF1AF07E
:1001B000DDCF1BF022D01DC001F01EC002F01FC019
:1001C00003F020C004F0066A400E056E600E076E54
:1001D000000E086E57EC03F0400E1D26000E1E2286
:1001E0001F222022600E016E000E026E85EC03F0CD
:1001F00001501A2602501B22040015501D5C165097
:100200001E5817501F5818502058D5E35A0E1A1868
:1002100011E15A0E1B18D8A40DD0310E016E000E3C
:10022000026E0110D8A4000E036EA4EC03F0010EC0
:10023000120000D0390E016E000E026E0110D8A41B
:10024000000E036EA4EC03F0020C1200166A040EFA
:10025000176E010E186E196ABF0E126E1368010E2A
:10026000146E156A470E016E000E026E0110D8A4BE
:10027000000E036EA4EC03F016C001F017C002F0EC
:1002800018C003F019C004F0F3EC02F000D0ADA2E6
:10029000FED73A0EAE6E1228016E000E1320026ECB
:1002A000000E1420036E000E1520046EF3EC02F015
:1002B0004E0E016E000E026E0110D8A4000E036EE9
:1002C000A4EC03F0000E1624016E040E1720026E3B
:1002D000FF0E1820036EFF0E1920046EF3EC02F0DF
:1002E00000D0ADA2FED73A0EAE6E1228016E040EFB
:1002F0001320026EFF0E1420036EFF0E1520046EF5
:10030000F3EC02F03D0E016E000E026E0110D8A457
:10031000000E036EA4EC03F02DD016C001F017C040
:1003200002F018C003F019C004F0066A400E056E12
:10033000600E076E000E086E57EC03F0000E1624D8
:10034000016E040E1720026EFF0E1820036EFF0EC2
:100350001920046E010E056E600E066E000E076E0B
:1003600095EC02F0400E1626000E172218221922D4
:10037000040000D01250165C13501758145018582F
:1003800015501958CAE31200480ED36E400E9B6EEA
:10039000A06A100EA16EC090948E949C260EAD6E35
:1003A000900EAC6E480E7E6E7F6A560EB06E246A5A
:1003B000236AE80E235C030E245806E201D004D021
:1003C0000400234A242AF5D7200E016E026A036A2C
:1003D000A4EC03F03D0E016E000E026E0110D8A4D5
:1003E000000E036EA4EC03F033D03BD00E6A080E6F
:1003F0000F6E106A116A1268030E136E010E146EEE
:10040000156A35EC02F026EC01F0010E2AEC00F042
:10041000E80627E10E6A040E0F6E010E106E116AD7
:100420001268FB0E136E010E146E156A35EC02F0A5
:1004300018D00E6A040E0F6E010E106E116A12684B
:10044000FB0E136E010E146E156A35EC02F009D026
:10045000000E2AEC00F0000A04E0010AC7E0030ADB
:10046000E8E020EF04F00EEF00F0400E016E000E09
:10047000026E0110D8A4000E036EA4EC03F00EC0AF
:1004800001F00FC002F010C003F011C004F0F3EC53
:1004900002F04E0E016E000E026E0110D8A4000E86
:1004A000036EA4EC03F01228016E000E1320026EFE
:1004B000000E1420036E000E1520046EF3EC02F003
:1004C0003D0E016E000E026E0110D8A4000E036EE8
:1004D000A4EC03F020D01228016EFC0E1320026E53
:1004E000FF0E1420036EFF0E1520046E1228056EF9
:1004F000000E1320066E000E1420076E000E15204D
:10050000086E27EC03F0D880040E135A000E145A1C
:10051000155A040000D012500E5C13500F5814509E
:10052000105815501158D7E312000C6A0D6A060EC8
:10053000086ED8900432033202320132082EF9D705
:10054000060ED8900136023603360436E82EF9D767
:1005500001C00EF002C00FF003C010F004C011F093
:100560003ED00EC009F00FC00AF010C00BF0400ED4
:100570000C6E14D006C0D9FF07C0DAFFDF5009C0E7
:10058000F6FF0AC0F7FF0BC0F8FFF56E0C00064A35
:10059000072A092A000E0A220B2200D00C060C287A
:1005A000E9E10EC009F00FC00AF010C00BF0A684FC
:1005B000F2AE03D0F29E010E0D6E550EA76EAA0E7E
:1005C000A76EA682A6940D5003E0F28E0D6A00D0AD
:1005D000400E0E26000E0F221022112200D005061A
:1005E0000528BFE11200080E096E00D0ADA2FED7AB
:1005F000300EAE6E00D0ADA2FED7780EAE6E00D03B
:1006000009060950040DF35001C005F002C006F0C0
:1006100003C007F004C008F0E82A05D0D8900832DB
:10062000073206320532E82EF9D705500F0B0A6E55
:100630000A0E0A6002D0300E01D0370E0A2600D012
:10064000ADA2FED70AC0AEFF0950DAE11200096A76
:1006500001C00AF002C00BF003C00CF004C00DF0A2
:100660001CD00CC0F8FF0BC0F7FF0AC0F6FFA68431
:10067000A688F2AE03D0F29E010E096E550EA76E4B
:10068000AA0EA76EA682095002E0F28E00D0D89082
:10069000040E0B26000E0C220D2205500A5C06509B
:1006A0000B5807500C5808500D58DBE3120001C0DE
:1006B00009F002C00AF003C00BF004C00CF0F8CF40
:1006C0000FF0F7CF0EF0F6CF0DF00BC0F8FF0AC019
:1006D000F7FF09C0F6FF0AD0090007C0D9FF08C01C
:1006E000DAFFF5CFDFFF074A082A00D00506D8A0B9
:1006F00006060528F1E10628D8A4EED70FC0F8FFBA
:100700000EC0F7FF0DC0F6FF120001C003F002C0DB
:1007100004F0066A056A076A0FD011D003C0D9FF3A
:1007200004C0DAFFDE500526DD500622020E032645
:10073000000E0422020E07263F0E0764EFD705C005
:1007400001F006C002F0120006D000D0ADA2FED724
:1007500004C0AEFF00D001C0F6FF02C0F7FF03C027
:10076000F8FF012A000E02220322F8BA03D0080083
:10077000F55005D0F6CFE9FFF7CFEAFFEF50046E52
:100780000450E4E1120000EE60F0400EEE6AE8066C
:10079000FDE10001C4EF01F0FF00FF00FF00FF00DA
:020000040001F9
:08FFF000FF00FF00FF00FF000D
:04FFF800A0F4C5F6B6
:00000001FF
