:020000040000FA
:100000000EEF00F0FF00FF0024EF04F0FF00FF0000
:10001000FF00FF00FF00FF002CEF04F0C7EF03F02C
:100020005B5245545F424F4F545F5632305D000083
:100030000020476F6F640D0A00204261640D0A00C2
:100040004572617365200057726974652000202D28
:100050003E200000196E600E216E000E226E190403
:1000600005E01D6A040E1E6E010E04D01D6A080E06
:100070001E6E000E1F6E206A00D01DC001F01EC053
:1000800002F01FC003F020C004F0066A400E056EA7
:10009000600E076E000E086E5BEC03F01C6A3F0EEC
:1000A0001C6401D00ED01C50010D600EF324D96EDB
:1000B000000EF420DA6EDE2804E101D002D01C2A02
:1000C000EED7400E1C1802E1000E120021C0D9FF2D
:1000D00022C0DAFF430EDE1801E0ACD020EE01F0C2
:1000E0002150D9262250DA22DF5001E1A3D020EEA0
:1000F00002F02150D9262250DA22410EDE1801E00A
:1001000099D020EE03F02150D9262250DA22DF5078
:1001100001E190D020EE04F02150D9262250DA22BD
:10012000500EDE1801E086D020EE06F02150D926D0
:100130002250DA22DE50DE10DE10DE107BE00C0EE4
:100140002124116E000E2220126E11C001F012C087
:1001500002F001500210D8A4200E036EA8EC03F0A8
:10016000400E1D26000E1E221F22202220EE06F029
:100170002150D9262250DA22DECF11F0DECF12F044
:10018000DECF13F0DECF14F01D501124156E1E507B
:100190001220166E1F501320176E20501420186E58
:1001A00020EE3EF02150D9262250DA22DECF1AF07E
:1001B000DDCF1BF022D01DC001F01EC002F01FC019
:1001C00003F020C004F0066A400E056E600E076E54
:1001D000000E086E5BEC03F0400E1D26000E1E2282
:1001E0001F222022600E016E000E026E89EC03F0C9
:1001F00001501A2602501B22040015501D5C165097
:100200001E5817501F5818502058D5E35A0E1A1868
:1002100011E15A0E1B18D8A40DD0310E016E000E3C
:10022000026E0110D8A4000E036EA8EC03F0010EBC
:10023000120000D0390E016E000E026E0110D8A41B
:10024000000E036EA8EC03F0020C1200166A040EF6
:10025000176E010E186E196ABF0E126E1368010E2A
:10026000146E156A470E016E000E026E0110D8A4BE
:10027000000E036EA8EC03F016C001F017C002F0E8
:1002800018C003F019C004F0F7EC02F000D0ADA2E2
:10029000FED73A0EAE6E1228016E000E1320026ECB
:1002A000000E1420036E000E1520046EF7EC02F011
:1002B0004E0E016E000E026E0110D8A4000E036EE9
:1002C000A8EC03F0000E1624016E040E1720026E37
:1002D000FF0E1820036EFF0E1920046EF7EC02F0DB
:1002E00000D0ADA2FED73A0EAE6E1228016E040EFB
:1002F0001320026EFF0E1420036EFF0E1520046EF5
:10030000F7EC02F03D0E016E000E026E0110D8A453
:10031000000E036EA8EC03F02DD016C001F017C03C
:1003200002F018C003F019C004F0066A400E056E12
:10033000600E076E000E086E5BEC03F0000E1624D4
:10034000016E040E1720026EFF0E1820036EFF0EC2
:100350001920046E010E056E600E066E000E076E0B
:1003600099EC02F0400E1626000E172218221922D0
:10037000040000D01250165C13501758145018582F
:1003800015501958CAE31200480ED36E400E9B6EEA
:10039000A06A100EA16EC0908F6A986AFE0E866EDB
:1003A000948E949C260EAD6E900EAC6E480E7E6EB2
:1003B0007F6A560EB06E246A236AE80E235C030E31
:1003C000245806E201D004D00400234A242AF5D799
:1003D000200E016E026A036AA8EC03F03D0E016E66
:1003E000000E026E0110D8A4000E036EA8EC03F0FC
:1003F00033D03BD00E6A080E0F6E106A116A126875
:10040000030E136E010E146E156A39EC02F026EC21
:1004100001F0010E2AEC00F0E80627E10E6A040E56
:100420000F6E010E106E116A1268FB0E136E010E34
:10043000146E156A39EC02F018D00E6A040E0F6EB5
:10044000010E106E116A1268FB0E136E010E146E0F
:10045000156A39EC02F009D0000E2AEC00F0000A0F
:1004600004E0010AC7E0030AE8E020EF04F00EEF21
:1004700000F0400E016E000E026E0110D8A4000EB6
:10048000036EA8EC03F00EC001F00FC002F010C024
:1004900003F011C004F0F7EC02F04E0E016E000EF6
:1004A000026E0110D8A4000E036EA8EC03F012280F
:1004B000016E000E1320026E000E1420036E000E5B
:1004C0001520046EF7EC02F03D0E016E000E026E78
:1004D0000110D8A4000E036EA8EC03F020D012285F
:1004E000016EFC0E1320026EFF0E1420036EFF0E31
:1004F0001520046E1228056E000E1320066E000EE5
:100500001420076E000E1520086E2BEC03F0D88027
:10051000040E135A000E145A155A040000D012503B
:100520000E5C13500F581450105815501158D7E343
:1005300012000C6A0D6A060E086ED890043203325F
:1005400002320132082EF9D7060ED8900136023653
:1005500003360436E82EF9D701C00EF002C00FF0C2
:1005600003C010F004C011F03ED00EC009F00FC05F
:100570000AF010C00BF0400E0C6E14D006C0D9FF6C
:1005800007C0DAFFDF5009C0F6FF0AC0F7FF0BC053
:10059000F8FFF56E0C00064A072A092A000E0A2207
:1005A0000B2200D00C060C28E9E10EC009F00FC0A8
:1005B0000AF010C00BF0A684F2AE03D0F29E010E3A
:1005C0000D6E550EA76EAA0EA76EA682A6940D50AC
:1005D00003E0F28E0D6A00D0400E0E26000E0F22B0
:1005E0001022112200D005060528BFE11200080ED6
:1005F000096E00D0ADA2FED7300EAE6E00D0ADA217
:10060000FED7780EAE6E00D009060950040DF350E7
:1006100001C005F002C006F003C007F004C008F0F6
:10062000E82A05D0D8900832073206320532E82E83
:10063000F9D705500F0B0A6E0A0E0A6002D0300E71
:1006400001D0370E0A2600D0ADA2FED70AC0AEFFF9
:100650000950DAE11200096A01C00AF002C00BF089
:1006600003C00CF004C00DF01CD00CC0F8FF0BC090
:10067000F7FF0AC0F6FFA684A688F2AE03D0F29E6A
:10068000010E096E550EA76EAA0EA76EA68209501E
:1006900002E0F28E00D0D890040E0B26000E0C2241
:1006A0000D2205500A5C06500B5807500C58085094
:1006B0000D58DBE3120001C009F002C00AF003C0CC
:1006C0000BF004C00CF0F8CF0FF0F7CF0EF0F6CF20
:1006D0000DF00BC0F8FF0AC0F7FF09C0F6FF0AD003
:1006E000090007C0D9FF08C0DAFFF5CFDFFF074ACE
:1006F000082A00D00506D8A006060528F1E106283C
:10070000D8A4EED70FC0F8FF0EC0F7FF0DC0F6FF5C
:10071000120001C003F002C004F0066A056A076A0D
:100720000FD011D003C0D9FF04C0DAFFDE50052678
:10073000DD500622020E0326000E0422020E0726BA
:100740003F0E0764EFD705C001F006C002F01200AB
:1007500006D000D0ADA2FED704C0AEFF00D001C0CD
:10076000F6FF02C0F7FF03C0F8FF012A000E0222C5
:100770000322F8BA03D00800F55005D0F6CFE9FF00
:10078000F7CFEAFFEF50046E0450E4E1120000EEF0
:1007900060F0400EEE6AE806FDE10001C4EF01F0F2
:1007A000FFFFFFFFFFFFFFFFFFFFFFFFFFFFFFFF59
:1007B000FFFFFFFFFFFFFFFFFFFFFFFFFFFFFFFF49
:1007C000FFFFFFFFFFFFFFFFFFFFFFFFFFFFFFFF39
:1007D000FFFFFFFFFFFFFFFFFFFFFFFFFFFFFFFF29
:1007E000FFFFFFFFFFFFFFFFFFFFFFFFFFFFFFFF19
:1007F000FFFFFFFFFFFFFFFFFFFFFFFFFFFFFFFF09
:1008000043434150500180C60000000046575F56E8
:10081000312E322E3000FFFFFFFFFFFFFFFFFFFFF3
:10082000FFFFFFFFFFFFFFFFFFFFFFFFFFFFFFFFD8
:10083000FFFFFFFFFFFFFFFFFFFFFFFFFFFFE4835F
:1008400071EF04F0FFFFFFFFFACF63F0FBCF64F01E
:10085000E9CF65F0B0EF54F0D8CF2FF0E8CF30F00B
:10086000E0CF31F0FACF32F0FBCF33F0E9CF34F004
:10087000EACF35F0E1CF36F0E2CF37F0D9CF38F01C
:10088000DACF39F0F3CF3AF0F4CF3BF0F6CF3CF0CB
:10089000F7CF3DF0F8CF3EF0F5CF3FF03FC0F5FF8A
:1008A0003EC0F8FF3DC0F7FF3CC0F6FF3BC0F4FF81
:1008B0003AC0F3FF39C0DAFF38C0D9FF37C0E2FFD2
:1008C00036C0E1FF35C0EAFF34C0E9FF33C0FBFFAB
:1008D00032C0FAFF31C0E0FF30C0E8FF2FC0D8FFC0
:1008E00010009EEF4AF0FFFFFFFFFFFFFFFFFFFF3B
:1008F00020202020202046575F56312E322E3000F7
:10090000FFFFFFFFFFFFFFFFFFFFFFFFFFFFFFFFF7
:10091000FFFFFFFFFFFFFFFFFFFFFFFFFFFFFFFFE7
:10092000FFFFFFFFFFFFFFFFFFFFFFFFFFFFFFFFD7
:10093000FFFFFFFFFFFFFFFFFFFFFFFFFFFFFFFFC7
:1009400000010000000A00000064000000E803004D
:100950000010270000A086010040420F00809698FA
:100960000000E1F50500CA9A3B01000000100000FC
:100970000000010000001000000000010000001055
:100980000000000001000000104D4F544F523A206B
:100990004D6F766520746F20756E77696E642020C8
:1009A00020205B543D25332E3364204D3D25372ECA
:1009B000356C6420503D25372E356C6420443D2530
:1009C000372E356C645D0D0A004D4F544F523A205E
:1009D0004D6F766520746F206D61782074696C743A
:1009E00020205B543D25332E3364204D3D25372E8A
:1009F000356C6420503D25372E356C6420443D25F0
:100A0000372E356C645D0D0A004D4F544F523A201D
:100A10004D6F766520746F206C6173742074696CFF
:100A200074205B543D25332E3364204D3D25372EF5
:100A3000356C6420503D25372E356C6420443D25AF
:100A4000372E356C645D0D0A004D4F544F523A20DD
:100A50004D6F766520746F206E65772074696C74B5
:100A6000205B543D25332E3364204D3D25372E35F4
:100A70006C6420503D25372E356C6420443D25376D
:100A80002E356C645D0D0A004D4F544F523A204D87
:100A90006F766520746F20656E642073746F7020AC
:100AA000205B543D454E44204D3D25372E356C642A
:100AB00020503D25372E356C6420443D25372E359A
:100AC0006C645D0D0A002323232323232323232384
:100AD00023232323232323232323232323232323E6
:100AE00023232323232323232323232323232323D6
:100AF00023232323232323232323232323232323C6
:100B0000230D0A0076616C6964206669726D7761F5
:100B10007265206865616465723A204E616D653A60
:100B20002025732C204C656E3A20256C642C2063A4
:100B30006865636B73756D3A20307825780D0A000F
:100B40005052494D415259204E5328256429203C8A
:100B50003D3E205345434F4E44415259204E52286A
:100B600025642920202020203E204D49534D41540A
:100B700043482025735D0D0A005052494D4152599A
:100B8000204E5228256429203C3D3E205345434FAA
:100B90004E44415259204E532825642920202020BC
:100BA000203E204D49534D415443482025730D0AA2
:100BB00000504152414D3A204672657175656E6331
:100BC000792042616E645B335D20202020202573F4
:100BD000203078252E3478203078252E3478203037
:100BE00078252E34780D0A00504152414D3A206349
:100BF0006865636B73756D2063616C3A203078258E
:100C0000312E31582C206578703A20307825312EDD
:100C100031582025730D0A00656570726F6D20775D
:100C2000726974652063686B3A20616464723A206B
:100C30003078252E32582C20646174613A20307847
:100C4000252E32580D0A00656570726F6D2077721F
:100C50006974652076616C3A20616464723A203070
:100C600078252E32582C20646174613A2030782522
:100C70002E32580D0A00504152414D3A20476169C9
:100C80006E5B345D2020202020202020202020208A
:100C9000202020257320256420256420256420251C
:100CA000640D0A00504152414D3A204265616D7712
:100CB000696474685B345D2020202020202020207F
:100CC0002025732025642025642025642025640DBB
:100CD0000A005461736B5F446F776E6C6F616420C0
:100CE00020202845726173696E6720636F72727588
:100CF0007074656420666C617368290D0A00546124
:100D0000736B5F506172616D657465727320202032
:100D10002853454E4420434F4E46494720444154B2
:100D20004120444F4E45290D0A00504152414D3A51
:100D3000204C61737420446972656374696F6E201E
:100D400020202020202020257320444F574E57413B
:100D50005244530D0A006164643A20307825382EDD
:100D6000386C782C206C656E3A20252E356C642CFE
:100D70002063686B3A20307825342E34780D0A00D1
:100D80005B524554204D4953534553204120465210
:100D9000414D452053454E542046524F4D20434F20
:100DA0004E54524F4C4C45525D005B434F4E545293
:100DB0004F4C4C4552204D495353455320412046FA
:100DC00052414D452053454E542046524F4D2052DE
:100DD00045545D00504152414D3A204C617374209E
:100DE000446972656374696F6E2020202020202082
:100DF00020257320555057415244530D0A004D4F42
:100E0000544F523A2063757272656E745F706F73DF
:100E10006974696F6E20256C642C205354455020F2
:100E200055502025640D0A004D4F544F523A20630F
:100E3000757272656E745F706F736974696F6E201E
:100E4000256C642C20535445502044572025640DB4
:100E50000A0044454255473A20414D49535F3330DB
:100E60003632345F4765745F48575F5374617475F9
:100E7000732866616C7365290D0A00444542554725
:100E80003A20414D49535F33303632345F47657401
:100E90005F48575F53746174757328747275652960
:100EA0000D0A00436C656172696E6720656570723A
:100EB0006F6D20636F6E74656E7420616E64207256
:100EC0006573657474696E670D0A0068646C635FAE
:100ED00070726F636573735F7869645F7265717553
:100EE00065737420666F726D6174206572726F72C3
:100EF0000D0A004D4F544F523A204D4F56494E4720
:100F000020205B25362E35642C2061637475616C5E
:100F10003A25372E356C645D0D0A004D4F544F5203
:100F20003A205354414C4C4544205B25362E3564C1
:100F30002C2061637475616C3A25372E356C645DC5
:100F40000D0A004D4F544F523A2053544F505045C4
:100F500044205B25362E35642C2061637475616CEA
:100F60003A25372E356C645D0D0A004445425547DD
:100F70003A20414D49535F33303632345F52657306
:100F800065745F546F5F44656661756C7428290DE4
:100F90000A0044454255473A20414D49535F33309A
:100FA0003632345F5365745F5374616C6C5F5061AB
:100FB00072616D28290D0A0044454255473A204187
:100FC0004D49535F33303632345F5365745F4D6F34
:100FD000746F725F506172616D28290D0A00504173
:100FE00052414D3A2043616C6962726174656420BC
:100FF000202020202020202020202025732059453B
:10100000530D0A00504152414D3A2054696C7420EE
:10101000436F6E76657273696F6E202020202020EA
:1010200020257320256C640D0A0044454255473A3B
:1010300020414D49535F33303632345F526573651A
:10104000745F506F736974696F6E28290D0A0050C0
:101050004152414D3A2043616C696272617465642A
:101060002020202020202020202020202573204EFA
:101070004F0D0A00504152414D3A20556E77696E2E
:10108000642020202020202020202020202020201C
:101090002025732025640D0A00504152414D3A200D
:1010A0004261636B6C617368202020202020202027
:1010B00020202020202025732025640D0A00504187
:1010C00052414D3A204D696E2054696C74202020A5
:1010D000202020202020202020202025732025646F
:1010E0000D0A00504152414D3A204D61782054691B
:1010F0006C74202020202020202020202020202050
:1011000025732025640D0A00504152414D3A205468
:10111000696C7420506F736974696F6E2020202091
:10112000202020202025732025640D0A00504152E4
:10113000414D3A20416E74656E6E61204265617268
:10114000696E672020202020202025732025640D33
:101150000A00504152414D3A204D656368616E6905
:1011600063616C2054696C7420202020202020258D
:10117000732025640D0A00504152414D3A205365B9
:1011800063746F72204964202020202020202020BA
:101190002020202025732025730D0A005041524144
:1011A0004D3A20496E7374616C6C20496420202094
:1011B00020202020202020202025732025730D0AA8
:1011C00000504152414D3A20496E7374616C6C205D
:1011D00044617465202020202020202020202573B9
:1011E0002025730D0A00504152414D3A204261734F
:1011F0006573746174696F6E20496420202020201B
:1012000020202025732025730D0A00504152414DA6
:101210003A2048617264776172652056657273691D
:101220006F6E20202020202025732025730D0A00BA
:10123000504152414D3A20416E74656E6E61204DB1
:101240006F64656C204E756D626572202025732079
:1012500025730D0A00504152414D3A2050726F647F
:10126000756374204D6F64656C204E756D62657298
:10127000202025732025730D0A00504152414D3A1C
:1012800020416E74656E6E612053657269616C20D9
:101290004E756D6265722025732025730D0A00500E
:1012A0004152414D3A2050726F647563742053650A
:1012B0007269616C204E756D626572202573202500
:1012C000730D0A0054435020434F4D504C45544534
:1012D00044202E2E2E2053454E44494E4720414E49
:1012E000535745520D0A0053656E645F436F6E6637
:1012F00069675F4461746120646F6E65205B30785C
:10130000252E32785D0D0A0044454255473A20416A
:101310004D49535F33303632345F486172645F53F6
:10132000746F7028290D0A00416E74656E6E61201D
:101330004672657175656E63792042616E64204501
:101340007874203078303800416E74656E6E61209C
:101350004672657175656E63792042616E642045E1
:101360007874203078303900636865636B73756D0D
:10137000202020202020202020202020203A203043
:1013800078252E34780D0A004672657175656E6396
:10139000792042616E645B305D202020203A20304D
:1013A00078252E34780D0A004672657175656E6376
:1013B000792042616E645B315D202020203A20302C
:1013C00078252E34780D0A004672657175656E6356
:1013D000792042616E645B325D202020203A20300B
:1013E00078252E34780D0A004552524F523A204942
:1013F0006E61637469766974792074696D657220B1
:1014000072657365740D0A0045726173696E6720B9
:10141000307825382E386C78202D3E2030782538CD
:101420002E386C780D0A00414C41524D3A203078EC
:10143000252E3178203078252E3178203078252ED1
:1014400031780D0A005365745F54696C74206E6FB7
:10145000206368616E6765205B3078252E32785D89
:101460000D0A004765745F4465766963655F446192
:101470007461202573205B3078252E32785D0D0A4B
:10148000005365745F4465766963655F44617461A8
:10149000202573205B3078252E32785D0D0A0053AD
:1014A000544152543A2053746570706572206472CE
:1014B0006976657220696E69740D0A005443502084
:1014C00041424F52544544202E2E2E2053454E4427
:1014D000494E472052520D0A005475726E205261D7
:1014E00074696F20202020202020202020203A20F6
:1014F000256C640D0A0053656E645F436F6E666908
:10150000675F64617461205B3078252E32785D0DF1
:101510000A00416C61726D5F496E64696361746950
:101520006F6E205B3078252E32785D0D0A00537582
:10153000627363726962655F416C61726D73205B97
:101540003078252E32785D0D0A00556E77696E640D
:101550002020202020202020202020202020203A71
:101560002025640D0A006C656E67746820202020B9
:1015700020202020202020202020203A2025640D1B
:101580000A004761696E5B305D202020202020200A
:10159000202020202020203A2025640D0A004761C9
:1015A000696E5B315D20202020202020202020201B
:1015B0002020203A2025640D0A004761696E5B32C5
:1015C0005D20202020202020202020202020203AC4
:1015D0002025640D0A004761696E5B335D20202081
:1015E00020202020202020202020203A2025640DAB
:1015F0000A004261636B6C61736820202020202008
:10160000202020202020203A2025640D0A004D694A
:101610006E2054696C74202020202020202020205F
:101620002020203A2025640D0A004D61782054695D
:101630006C74202020202020202020202020203AF0
:101640002025640D0A004265616D77696474685BEA
:10165000305D2020202020202020203A2025640DED
:101660000A004265616D77696474685B315D2020B2
:10167000202020202020203A2025640D0A004265E9
:10168000616D77696474685B325D202020202020C2
:101690002020203A2025640D0A004265616D77699B
:1016A0006474685B335D2020202020202020203AB5
:1016B0002025640D0A00416E74656E6E61204D6FC9
:1016C00064656C204E756D626572203A2025730D3D
:1016D0000A0050726F64756374204D6F64656C20EE
:1016E0004E756D626572203A2025730D0A0057729F
:1016F0006974655F557365725F44617461205B3026
:1017000078252E32785D0D0A0056656E646F725F23
:101710005370656369666963205B3078252E327883
:101720005D0D0A004D4F544F523A20526561636877
:101730006564206C6173742074696C740D0A0052C6
:10174000455345543A20524553455420494E53542D
:1017500052554354494F4E0D0A0053544152543A86
:10176000205363686564756C65722073746172746C
:1017700065640D0A004552524F523A2049324320C7
:10178000726561642074696D656F75740D0A00542B
:1017900061736B5F446F776E6C6F616420202028EB
:1017A0005354415254290D0A00526561645F5573C8
:1017B00065725F44617461205B3078252E32785DFC
:1017C0000D0A0043616C69627261746520646F6E1A
:1017D00065205B3078252E32785D0D0A00446F77E6
:1017E0006E6C6F61645F5374617274205B30782536
:1017F0002E32785D0D0A00506572666F726D696EEB
:1018000067204C61796572322072657365740D0AC8
:10181000004D4F544F523A20526561636865642011
:10182000656E642073746F700D0A004D4F544F52F3
:101830003A2052656163686564206D61782074693F
:101840006C740D0A0052455345543A205741544395
:1018500048444F472054494D454F55540D0A0041C7
:1018600063747561746F725F4A616D5F5065726D0C
:10187000616E656E740D0A004163747561746F72F8
:101880005F4A616D5F54656D706F726172790D0AA8
:10189000005461736B5F446F776E6C6F61642020DE
:1018A000202853544F50290D0A005365745F546922
:1018B0006C7420646F6E65205B3078252E32785D05
:1018C0000D0A00446F776E6C6F61645F4170706CDD
:1018D000205B3078252E32785D0D0A004F706572DE
:1018E00061746F7220416E74656E6E612042656135
:1018F00072696E67004F70657261746F72204D651A
:101900006368616E6963616C2054696C7400535440
:101910004152543A20504152414D45544552532072
:10192000696E69740D0A0053544152543A204D6F48
:10193000746F72207461736B20696E69740D0A0094
:1019400053434845443A204D61696E2052756E6E8E
:10195000696E672025640D0A005461736B5F446FE4
:10196000776E6C6F616420202028424144290D0A63
:1019700000446F776E6C6F61645F456E64205B300E
:1019800078252E32785D0D0A00507265706172659F
:101990004572726F72205B3078252E32785D0D0AA9
:1019A00000436C6561725F416C61726D73205B30E6
:1019B00078252E32785D0D0A004F70657261746F64
:1019C00072204261736573746174696F6E2049643B
:1019D000004D4F544F523A20526561636865642050
:1019E000756E77696E640D0A00416E74656E6E6186
:1019F000204672657175656E63792042616E640080
:101A00005B252E32643A252E32643A252E32642E1E
:101A1000252E33645D2000504152414D3A205570CF
:101A200064617465642025732025640D0A00777253
:101A30006F6E672070726F64756374206E756D626F
:101A400065720D0A00504152414D3A2056616C6951
:101A5000646174696E672025730D0A004F706572AA
:101A600061746F72416E74656E6E61426561726918
:101A70006E67004F70657261746F724D6563686167
:101A80006E6963616C54696C740041637475617450
:101A90006F725F4A616D5F5065726D616E656E74E5
:101AA000004163747561746F725F4A616D5F546564
:101AB0006D706F72617279004765745F416C61721D
:101AC0006D73205B3078252E32785D0D0A00416EF3
:101AD00074656E6E612053657269616C204E756D20
:101AE000626572004F70657261746F7242617365F6
:101AF00073746174696F6E49640048575F49443A72
:101B0000202564256425642564256425640D0A0068
:101B100053544152543A20454550524F4D20696E1E
:101B200069740D0A0043616C696272617465205BBF
:101B30003078252E32785D0D0A0053656C665F544F
:101B4000657374205B3078252E32785D0D0A004174
:101B50006E74656E6E6120496E7374616C6C2044A6
:101B600061746500416E74656E6E61204D6F6465D1
:101B70006C204E756D62657200416E74656E6E61AB
:101B80004672657175656E637942616E6400476582
:101B9000745F496E666F205B3078252E32785D0D5C
:101BA0000A004765745F54696C74205B3078252E99
:101BB00032785D0D0A005365745F54696C74205B64
:101BC0003078252E32785D0D0A004F706572617491
:101BD0006F72496E7374616C6C4461746500416E20
:101BE00074656E6E6153657269616C4E756D626588
:101BF000720050726F6475637453657269616C4EE4
:101C0000756D6265720052455345543A20504F57E6
:101C1000455220444F574E0D0A0053544152543AF6
:101C2000204149534720696E69740D0A00416E7462
:101C3000656E6E6120496E7374616C6C204964003E
:101C40004F70657261746F7220536563746F722098
:101C50004964004672616D65206E6F7420666F7214
:101C6000206D650D0A004E6F206D61736B20584921
:101C700044207363616E0D0A0053544152543A205C
:101C800048444C4320696E69740D0A00416E7465C6
:101C90006E6E614D6F64656C4E756D62657200505D
:101CA000726F647563744D6F64656C4E756D6265BB
:101CB000720052455345543A2042524F574E204FDE
:101CC00055540D0A0053544152543A205350492060
:101CD000696E69740D0A0053544152543A204932D6
:101CE0004320696E69740D0A00556E6B6E6F776ED6
:101CF00020446174616669656C6400416E74656E50
:101D00006E61204265616D7769647468004F70652B
:101D10007261746F72496E7374616C6C49640052C5
:101D2000455345543A20504F5745522D4F4E0D0ABA
:101D30000030313233343536373839414243444547
:101D400046003031323334353637383961626364B6
:101D50006566005265736574205B3078252E327895
:101D60005D0D0A00416E74656E6E61204D696E20D6
:101D700054696C7400416E74656E6E61204D6178BB
:101D80002054696C740077726F6E672063686563B6
:101D90006B73756D0D0A004F70657261746F7253CD
:101DA0006563746F72496400416E74656E6E614262
:101DB00065616D7769647468004D4F544F523A20E5
:101DC00054494D454F55540D0A0052455345543A18
:101DD00020554E4B4E4F574E0D0A004255494C442C
:101DE0003A20257320402025730D0A006275665F36
:101DF000636F756E743D2025750D0A00494E56417E
:101E00004C49445F4652414D450D0A0077726F6E52
:101E1000672076657273696F6E0D0A00554E4B4EE2
:101E20004F574E5F48575F5645525300414C415201
:101E30004D3A20436C722025730D0A00414C4152EB
:101E40004D3A205365742025730D0A0044454255D0
:101E5000473A204143544956450D0A00486172648F
:101E6000776172655F4572726F72004E6F742043C6
:101E70006F6E66696775726564004E6F745F436F5D
:101E80006E6669677572656400416E74656E6E6139
:101E90004D696E54696C7400416E74656E6E614D6F
:101EA000617854696C74004E6F745F43616C696251
:101EB00072617465640056455253493A20252E31AB
:101EC00036730D0A004E6F7443616C6962726174FF
:101ED0006564004C617374446972656374696F6E04
:101EE00000416E74656E6E61204761696E007772A5
:101EF0006F6E6720747970650D0A00545241434536
:101F00003A204442470D0A0054524143453A204C7E
:101F10004F470D0A0054524143453A204552520D55
:101F20000A00416E74656E6E614761696E004A61B8
:101F30006E203136203230313800525820252E3272
:101F4000643A2000545820252E32643A2000487705
:101F500056657273696F6E005475726E5261746962
:101F60006F004261636B6C6173680031333A3530E6
:101F70003A333200696E76616C696400286E756C64
:101F80006C2900556E77696E6400434341505000E0
:101F90002530325820000D0A2020004343000D0058
:101FA000000021EEB2F010EED4F0050EDBCFE3FF1F
:101FB000E806FCE221EEB8F010EEDAF0050EDBCF19
:101FC000E3FFE806FCE2000E05B0010E0001E06F41
:101FD0000001E00504E0DA0EE16F000E04D0D40E3B
:101FE0000001E16F000E0001E26F00D00001E36B21
:101FF000100E0001E36501D038D00001E351010D5E
:10200000000EF324D96E020EF420DA6EDF500AE0DF
:10201000E351010D000EF324D96E020EF420DA6EA6
:10202000DE280CE10001E351010DB30EF324D96E5B
:10203000000EF420DA6E200EDF6E14D00001E351A2
:10204000010D000EF324D96E020EF420DA6EE35176
:10205000010DB30EF324E16E000EF420E26EDFCF2B
:10206000E7FF00D00001E32BC3D70001E351010DCE
:10207000B30EF324D96E000EF420DA6EDF6A00018D
:10208000E32B00D0010E0001ED651BD075EC63F071
:102090009F0E0001876F120E886FE1C089F0E2C0C9
:1020A0008AF089518A11D8A4200E8B6FB30E8C6FE1
:1020B000000E8D6F8C11D8A4200E8E6F18EC24F0BA
:1020C00000D0000E05B2010E0001E06F0001E00536
:1020D00004E0DA0EE16F000E04D0D40E0001E16FCF
:1020E000000E0001E26F00D00001E36B0E0E000154
:1020F000E36501D038D00001E351010D110EF32446
:10210000D96E020EF420DA6EDF500AE0E351010DC1
:10211000110EF324D96E020EF420DA6EDE280CE1E3
:102120000001E351010DB30EF324D96E000EF4202B
:10213000DA6E200EDF6E14D00001E351010D110E96
:10214000F324D96E020EF420DA6EE351010DB30EC2
:10215000F324E16E000EF420E26EDFCFE7FF00D043
:102160000001E32BC3D70001E351010DB30EF324AB
:10217000D96E000EF420DA6EDF6A0001E32B00D086
:10218000010E0001ED651BD075EC63F0550E0001EA
:10219000876F120E886FE1C089F0E2C08AF0895122
:1021A0008A11D8A4200E8B6FB30E8C6F000E8D6F2A
:1021B0008C11D8A4200E8E6F18EC24F000D0000EE5
:1021C00005B4010E0001E06F0001E00504E0DA0E45
:1021D000E16F000E04D0D40E0001E16F000E00018B
:1021E000E26F00D00001E36B100E0001E36501D047
:1021F00038D00001E351010D200EF324D96E020EF8
:10220000F420DA6EDF500AE0E351010D200EF324D2
:10221000D96E020EF420DA6EDE280CE10001E351E3
:10222000010DB30EF324D96E000EF420DA6E200EE9
:10223000DF6E14D00001E351010D200EF324D96E9E
:10224000020EF420DA6EE351010DB30EF324E16EB9
:10225000000EF420E26EDFCFE7FF00D00001E32B99
:10226000C3D70001E351010DB30EF324D96E000E64
:10227000F420DA6EDF6A0001E32B00D0010E0001CA
:10228000ED651BD075EC63F07A0E0001876F120EBE
:10229000886FE1C089F0E2C08AF089518A11D8A420
:1022A000200E8B6FB30E8C6F000E8D6F8C11D8A427
:1022B000200E8E6F18EC24F000D0000E05B6010E33
:1022C0000001E06F0001E00504E0DA0EE16F000EAE
:1022D00004D0D40E0001E16F000E0001E26F00D0C7
:1022E0000001E36B0E0E0001E36501D038D0000160
:1022F000E351010D310EF324D96E020EF420DA6E93
:10230000DF500AE0E351010D310EF324D96E020EC5
:10231000F420DA6EDE280CE10001E351010DB30E6A
:10232000F324D96E000EF420DA6E200EDF6E14D086
:102330000001E351010D310EF324D96E020EF42099
:10234000DA6EE351010DB30EF324E16E000EF420BA
:10235000E26EDFCFE7FF00D00001E32BC3D700011F
:10236000E351010DB30EF324D96E000EF420DA6EA2
:10237000DF6A0001E32B00D0010E0001ED651BD0E8
:1023800075EC63F0300E0001876F120E886FE1C0AC
:1023900089F0E2C08AF089518A11D8A4200E8B6F8F
:1023A000B30E8C6F000E8D6F8C11D8A4200E8E6F23
:1023B00018EC24F000D0000E05B8010E0001E06F0B
:1023C0000001E00504E0DA0EE16F000E04D0D40E47
:1023D0000001E16F000E0001E26F00D00001E36B2D
:1023E000050E0001E36501D038D00001E351010D75
:1023F000400EF324D96E020EF420DA6EDF500AE0AC
:10240000E351010D400EF324D96E020EF420DA6E72
:10241000DE280CE10001E351010DB30EF324D96E67
:10242000000EF420DA6E200EDF6E14D00001E351AE
:10243000010D400EF324D96E020EF420DA6EE35142
:10244000010DB30EF324E16E000EF420E26EDFCF37
:10245000E7FF00D00001E32BC3D70001E351010DDA
:10246000B30EF324D96E000EF420DA6EDF6A000199
:10247000E32B00D0010E0001ED651BD075EC63F07D
:10248000C10E0001876F110E886FE1C089F0E2C0B4
:102490008AF089518A11D8A4200E8B6FB30E8C6FED
:1024A000000E8D6F8C11D8A4200E8E6F18EC24F0C6
:1024B00000D0000E05BA010E0001E06F0001E0053A
:1024C00004E0DA0EE16F000E04D0D40E0001E16FDB
:1024D000000E0001E26F00D00001E36B040E00016A
:1024E000E36501D038D00001E351010D460EF3241D
:1024F000D96E020EF420DA6EDF500AE0E351010DCE
:10250000460EF324D96E020EF420DA6EDE280CE1BA
:102510000001E351010DB30EF324D96E000EF42037
:10252000DA6E200EDF6E14D00001E351010D460E6D
:10253000F324D96E020EF420DA6EE351010DB30ECE
:10254000F324E16E000EF420E26EDFCFE7FF00D04F
:102550000001E32BC3D70001E351010DB30EF324B7
:10256000D96E000EF420DA6EDF6A0001E32B00D092
:10257000010E0001ED651BD075EC63F09C0E0001AF
:10258000876F110E886FE1C089F0E2C08AF089512F
:102590008A11D8A4200E8B6FB30E8C6F000E8D6F36
:1025A0008C11D8A4200E8E6F18EC24F000D0000EF1
:1025B00005BC010E0001E06F0001E00504E0DA0E49
:1025C000E16F000E04D0D40E0001E16F000E000197
:1025D000E26F00D00001E36B1F0E0001E36501D044
:1025E00038D00001E351010D4B0EF324D96E020ED9
:1025F000F420DA6EDF500AE0E351010D4B0EF324B4
:10260000D96E020EF420DA6EDE280CE10001E351EF
:10261000010DB30EF324D96E000EF420DA6E200EF5
:10262000DF6E14D00001E351010D4B0EF324D96E7F
:10263000020EF420DA6EE351010DB30EF324E16EC5
:10264000000EF420E26EDFCFE7FF00D00001E32BA5
:10265000C3D70001E351010DB30EF324D96E000E70
:10266000F420DA6EDF6A0001E32B00D0010E0001D6
:10267000ED651BD075EC63F0E60E0001876F110E5F
:10268000886FE1C089F0E2C08AF089518A11D8A42C
:10269000200E8B6FB30E8C6F000E8D6F8C11D8A433
:1026A000200E8E6F18EC24F000D0000E05BE010E37
:1026B0000001E06F0001E00504E0DA0EE16F000EBA
:1026C00004D0D40E0001E16F000E0001E26F00D0D3
:1026D0000001E36B1F0E0001E36501D038D000015B
:1026E000E351010D6B0EF324D96E020EF420DA6E65
:1026F000DF500AE0E351010D6B0EF324D96E020E98
:10270000F420DA6EDE280CE10001E351010DB30E76
:10271000F324D96E000EF420DA6E200EDF6E14D092
:102720000001E351010D6B0EF324D96E020EF4206B
:10273000DA6EE351010DB30EF324E16E000EF420C6
:10274000E26EDFCFE7FF00D00001E32BC3D700012B
:10275000E351010DB30EF324D96E000EF420DA6EAE
:10276000DF6A0001E32B00D0010E0001ED651BD0F4
:1027700075EC63F0770E0001876F110E886FE1C072
:1027800089F0E2C08AF089518A11D8A4200E8B6F9B
:10279000B30E8C6F000E8D6F8C11D8A4200E8E6F2F
:1027A00018EC24F000D0000E06B0010E0001E06F1E
:1027B0000001E00504E0DA0EE16F000E04D0D40E53
:1027C0000001E16F000E0001E26F00D0010E000178
:1027D000ED6517D075EC63F02D0E0001876F110EBB
:1027E000886FE1C089F0E2C08AF089518A11D8A4CB
:1027F000200E8B6F8BC28CF08CC28DF018EC24F005
:1028000000D0000E06B2010E0001E06F0001E005ED
:1028100004E0DA0EE16F000E04D0D40E0001E16F87
:10282000000E0001E26F00D0010E0001ED6517D02F
:1028300075EC63F0520E0001876F110E886FE1C0D6
:1028400089F0E2C08AF089518A11D8A4200E8B6FDA
:102850008DC28CF08EC28DF018EC24F000D0000EEA
:1028600006B4010E0001E06F0001E00504E0DA0E9D
:10287000E16F000E04D0D40E0001E16F000E0001E4
:10288000E26F00D0010E0001ED651FD075EC63F022
:10289000B10E0001876F0B0E886FE1C089F0E2C0B6
:1028A0008AF089518A11D8A4200E8B6F8FC28CF0C8
:1028B00090C28DF091C28EF092C28FF093C290F0D0
:1028C00094C291F018EC24F000D0000E06B6010E70
:1028D0000001E06F0001E00504E0DA0EE16F000E98
:1028E00004D0D40E0001E16F000E0001E26F00D0B1
:1028F000010E0001ED6523D075EC63F0A40E00011C
:10290000876F0C0E886FE1C089F0E2C08AF08951B0
:102910008A11D8A4200E8B6F95C28CF096C28DF0D0
:1029200097C28EF098C28FF099C290F09AC291F03F
:102930009BC292F09CC293F018EC24F000D0000EE1
:1029400006B8010E0001E06F0001E00504E0DA0EB8
:10295000E16F000E04D0D40E0001E16F000E000103
:10296000E26F00D0010E0001ED651FD075EC63F041
:10297000760E0001876F0C0E886FE1C089F0E2C00F
:102980008AF089518A11D8A4200E8B6F9DC28CF0D9
:102990008D6B9EC28EF08F6B9FC290F0916BA0C228
:1029A00092F0936B18EC24F000D0000E06BA010EE2
:1029B0000001E06F0001E00504E0DA0EE16F000EB7
:1029C00004D0D40E0001E16F000E0001E26F00D0D0
:1029D000010E0001ED6517D075EC63F0E30E000108
:1029E000876F100E886FE1C089F0E2C08AF08951CC
:1029F0008A11D8A4200E8B6FA1C28CF0A2C28DF0D8
:102A000018EC24F000D0000E06BC010E0001E06FAF
:102A10000001E00504E0DA0EE16F000E04D0D40EF0
:102A20000001E16F000E0001E26F00D0010E000115
:102A3000ED6517D075EC63F0BE0E0001876F100EC8
:102A4000886FE1C089F0E2C08AF089518A11D8A468
:102A5000200E8B6FA3C28CF0A4C28DF018EC24F072
:102A600000D0000E06BE010E0001E06F0001E0057F
:102A700004E0DA0EE16F000E04D0D40E0001E16F25
:102A8000000E0001E26F00D0010E0001ED651BD0C9
:102A900075EC63F0040E0001876F100E886FE1C0C3
:102AA00089F0E2C08AF089518A11D8A4200E8B6F78
:102AB000A5C28CF0A6C28DF0A7C28EF0A8C28FF07E
:102AC00018EC24F000D0000E07B0010E0001E06FFA
:102AD0000001E00504E0DA0EE16F000E04D0D40E30
:102AE0000001E16F000E0001E26F00D0010E000155
:102AF000ED6517D075EC63F0990E0001876F100E2D
:102B0000886FE1C089F0E2C08AF089518A11D8A4A7
:102B1000200E8B6FA9C28CF0AAC28DF018EC24F0A5
:102B200000D0000E07B2010E0001E06F0001E005C9
:102B300004E0DA0EE16F000E04D0D40E0001E16F64
:102B4000000E0001E26F00D0010E0001ED6517D00C
:102B500075EC63F0740E0001876F100E886FE1C092
:102B600089F0E2C08AF089518A11D8A4200E8B6FB7
:102B7000ABC28CF0ACC28DF018EC24F000D0000E8B
:102B800007B6010E0001E06F0001E00504E0DA0E77
:102B9000E16F000E04D0D40E0001E16F000E0001C1
:102BA000E26F00D00201AF5118E1010E0001ED65A6
:102BB0002BD075EC63F0DE0E0001876F0F0E886F6F
:102BC000E1C089F0E2C08AF089518A11D8A4200EB0
:102BD0008B6F18EC24F018D000D0010E0001ED65C9
:102BE00013D075EC63F04F0E0001876F100E886FE5
:102BF000E1C089F0E2C08AF089518A11D8A4200E80
:102C00008B6F18EC24F000D0000E07B4010E000109
:102C1000E06F0001E00504E0DA0EE16F000E04D081
:102C2000D40E0001E16F000E0001E26F00D0010E32
:102C30000001ED6517D075EC63F0080E0001876F99
:102C4000110E886FE1C089F0E2C08AF089518A11C3
:102C5000D8A4200E8B6FADC28CF0AEC28DF018ECF4
:102C600024F000D0000E07B8010E0001E06F000153
:102C7000E00504E0DA0EE16F000E04D0D40E00018E
:102C8000E16F000E0001E26F00D00201B05118E1C7
:102C9000010E0001ED652BD075EC63F02A0E0001EA
:102CA000876F0D0E886FE1C089F0E2C08AF089510C
:102CB0008A11D8A4200E8B6F18EC24F018D000D005
:102CC000010E0001ED6513D075EC63F0D40E000128
:102CD000876F0D0E886FE1C089F0E2C08AF08951DC
:102CE0008A11D8A4200E8B6F18EC24F000D0000EAF
:102CF00007BA010E0001E06F0001E00504E0DA0E02
:102D0000E16F000E04D0D40E0001E16F000E00014F
:102D1000E26F00D00001E36B0E0E0001E36501D00D
:102D200038D00001E351010DB10EF324D96E020E2B
:102D3000F420DA6EDF500AE0E351010DB10EF32406
:102D4000D96E020EF420DA6EDE280CE10001E351A8
:102D5000010DB30EF324D96E000EF420DA6E200EAE
:102D6000DF6E14D00001E351010DB10EF324D96ED2
:102D7000020EF420DA6EE351010DB30EF324E16E7E
:102D8000000EF420E26EDFCFE7FF00D00001E32B5E
:102D9000C3D70001E351010DB30EF324D96E000E29
:102DA000F420DA6EDF6A0001E32B00D0010E00018F
:102DB000ED65010C75EC63F00B0E0001876F120ED0
:102DC000886FE1C089F0E2C08AF089518A11D8A4E5
:102DD000200E8B6FB30E8C6F000E8D6F8C11D8A4EC
:102DE000200E8E6F18EC24F0120012000001D36F39
:102DF0009AEF1BF00001E851E911EA11EB1102E131
:102E0000AEEF1BF0010E0101366F8C80010E2ED04B
:102E1000AEEF1BF00001E8A12DD0000E716F020E85
:102E2000726F110E736FDF0E746F020E756FBBEC55
:102E300061F00001E89100D0010E0001ED65CAD3F8
:102E400075EC63F0170E0001876F1A0E886FF20E93
:102E5000896F1B0E8A6F8911D8A4000E8B6F000E2C
:102E60008D6F8C6F18EC24F0B5D3B4D30001D36F01
:102E7000AEEF1BF00001E8A32AD0110E716F020E15
:102E8000726F0F0E736FE00E746F020E756FBBECF6
:102E900061F00001E89300D0010E0001ED659AD3C6
:102EA00075EC63F0170E0001876F1A0E886F9F0E86
:102EB000896F1C0E8A6F8911D8A4000E8B6F000ECB
:102EC0008D6F010E8C6F18EC24F084D383D3000136
:102ED000E8A52AD0200E716F020E726F110E736F6B
:102EE000E10E746F020E756FBBEC61F00001E895A6
:102EF00000D0010E0001ED656DD375EC63F0170E87
:102F00000001876F1A0E886FDE0E896F1B0E8A6FA5
:102F10008911D8A4000E8B6F000E8D6F020E8C6F7E
:102F200018EC24F057D356D30001E8A72AD0310E6D
:102F3000716F020E726F0F0E736FE20E746F020EDE
:102F4000756FBBEC61F00001E89700D0010E000145
:102F5000ED6540D375EC63F0170E0001876F1A0E14
:102F6000886F8C0E896F1C0E8A6F8911D8A4000E91
:102F70008B6F000E8D6F030E8C6F18EC24F02AD32C
:102F800029D30001E8A92AD0400E716F020E726F9A
:102F9000060E736FE30E746F020E756FBBEC61F07B
:102FA0000001E89900D0010E0001ED6513D375EC26
:102FB00063F0170E0001876F1A0E886FCA0E896FB3
:102FC0001B0E8A6F8911D8A4000E8B6F000E8D6FB7
:102FD000040E8C6F18EC24F0FDD2FCD20001E8AB9B
:102FE0002AD0460E716F020E726F050E736FE40EDB
:102FF000746F020E756FBBEC61F00001E89B00D0AE
:10300000010E0001ED65E6D275EC63F0170E0001CC
:10301000876F1A0E886F0D0E896F1D0E8A6F8911CA
:10302000D8A4000E8B6F000E8D6F050E8C6F18EC00
:1030300024F0D0D2CFD20001E8AD2AD04B0E716F70
:10304000020E726F200E736FE50E746F020E756FB5
:10305000BBEC61F00001E89D00D0010E0001ED65C0
:10306000B9D275EC63F0170E0001876F1A0E886FE6
:10307000E40E896F1A0E8A6F8911D8A4000E8B6F27
:10308000000E8D6F060E8C6F18EC24F0A3D2A2D226
:103090000001E8AF2AD06B0E716F020E726F200E26
:1030A000736FE60E746F020E756FBBEC61F000017A
:1030B000E89F00D0010E0001ED658CD275EC63F045
:1030C000170E0001876F1A0E886F970E896F1D0EFD
:1030D0008A6F8911D8A4000E8B6F000E8D6F070EBA
:1030E0008C6F18EC24F076D275D20001E9A12AD0B9
:1030F0008B0E716F020E726F020E736FE70E746F9C
:10310000020E756FBBEC61F00001E99100D0010E79
:103110000001ED655FD275EC63F0170E0001876F5B
:103120001A0E886F5C0E896F1A0E8A6F8911D8A4E7
:10313000000E8B6F000E8D6F080E8C6F18EC24F054
:1031400049D248D20001E9A32AD08D0E716F020E38
:10315000726F020E736FE80E746F020E756FBBEC28
:1031600061F00001E99300D0010E0001ED6532D25B
:1031700075EC63F0170E0001876F1A0E886F730EDF
:10318000896F1A0E8A6F8911D8A4000E8B6F000EFA
:103190008D6F090E8C6F18EC24F01CD21BD200012D
:1031A000E9A52AD08F0E716F020E726F060E736F33
:1031B000E90E746F020E756FBBEC61F00001E995CA
:1031C00000D0010E0001ED6505D275EC63F0170E1D
:1031D0000001876F1A0E886F790E896F1B0E8A6F38
:1031E0008911D8A4000E8B6F000E8D6F0A0E8C6FA4
:1031F00018EC24F0EFD1EED10001E9A72AD0950E0A
:10320000716F020E726F080E736FEA0E746F020E0A
:10321000756FBBEC61F00001E99700D0010E000171
:10322000ED65D8D175EC63F0170E0001876F1A0EAB
:10323000886FA80E896F1D0E8A6F8911D8A4000EA1
:103240008B6F000E8D6F0B0E8C6F18EC24F0C2D1BB
:10325000C1D10001E9A92AD09D0E716F020E726FD3
:10326000040E736FEB0E746F020E756FBBEC61F0A2
:103270000001E99900D0010E0001ED65ABD175ECBC
:1032800063F0170E0001876F1A0E886F220E896F88
:103290001F0E8A6F8911D8A4000E8B6F000E8D6FE0
:1032A0000C0E8C6F18EC24F095D194D10001E9AB91
:1032B0002AD0A10E716F020E726F020E736FEC0EA8
:1032C000746F020E756FBBEC61F00001E99B00D0DA
:1032D000010E0001ED657ED175EC63F0170E000163
:1032E000876F1A0E886F980E896F1E0E8A6F89116C
:1032F000D8A4000E8B6F000E8D6F0D0E8C6F18EC26
:1033000024F068D167D10001E9AD2AD0A30E716F16
:10331000020E726F020E736FED0E746F020E756FF8
:10332000BBEC61F00001E99D00D0010E0001ED65EC
:1033300051D175EC63F0170E0001876F1A0E886F7C
:10334000890E896F1E0E8A6F8911D8A4000E8B6FAB
:10335000000E8D6F0E0E8C6F18EC24F03BD13AD11D
:103360000001E9AF2AD0A50E716F020E726F040E34
:10337000736FEE0E746F020E756FBBEC61F000019F
:10338000E99F00D0010E0001ED6524D175EC63F0DA
:10339000170E0001876F1A0E886F580E896F1F0E67
:1033A0008A6F8911D8A4000E8B6F000E8D6F0F0EDF
:1033B0008C6F18EC24F00ED10DD10001EAA12AD0B7
:1033C000A90E716F020E726F020E736FEF0E746FA3
:1033D000020E756FBBEC61F00001EA9100D0010EA6
:1033E0000001ED65F7D075EC63F0170E0001876FF3
:1033F0001A0E886F620E896F1F0E8A6F8911D8A40A
:10340000000E8B6F000E8D6F100E8C6F18EC24F079
:10341000E1D0E0D00001EAA32AD0AB0E716F020E1A
:10342000726F020E736FF00E746F020E756FBBEC4D
:1034300061F00001EA9300D0010E0001ED65CAD0F1
:1034400075EC63F0170E0001876F1A0E886F830EFC
:10345000896F1F0E8A6F8911D8A4000E8B6F000E22
:103460008D6F110E8C6F18EC24F0B4D0B3D0000126
:10347000EAA52AD0AD0E716F020E726F020E736F45
:10348000F10E746F020E756FBBEC61F00001EA95EE
:1034900000D0010E0001ED659DD075EC63F0170EB4
:1034A0000001876F1A0E886F090E896F190E8A6FD7
:1034B0008911D8A4000E8B6F000E8D6F120E8C6FC9
:1034C00018EC24F087D086D00001EAA72AD0AF0EEE
:1034D000716F020E726F010E736FF20E746F020E37
:1034E000756FBBEC61F00001EA9700D0010E00019E
:1034F000ED6570D075EC63F0170E0001876F1A0E42
:10350000886FC50E896F1E0E8A6F8911D8A4000EB0
:103510008B6F000E8D6F130E8C6F18EC24F05AD049
:1035200059D00001EAA92AD0B00E716F020E726F55
:10353000010E736FF30E746F020E756FBBEC61F0CA
:103540000001EA9900D0010E0001ED6543D075EC51
:1035500063F0170E0001876F1A0E886FD30E896F04
:103560001E0E8A6F8911D8A4000E8B6F000E8D6F0E
:10357000140E8C6F18EC24F02DD02CD00001EAAB87
:103580002BD0B10E716F020E726F0F0E736FF40EAF
:10359000746F020E756FBBEC61F00001EA9B00D006
:1035A000010E0001ED6516D075EC63F0170E0001F9
:1035B000876F1A0E886F4E0E896F1F0E8A6F8911E2
:1035C000D8A4000E8B6F000E8D6F150E8C6F18EC4B
:1035D00024F000D0020E4AD40001E851E911EA11AA
:1035E000EB1101E0A3D00101366B0101350501E0CB
:1035F0009DD0356B0001D2519BEC65F097D096D0F1
:10360000050E34D4000E0001D06F020ED16FD01F12
:10361000D11FD04BD12B01012C510001D025D46FEB
:1036200001012D510001D121D56F0001D86B8C8093
:103630002CC1D9FF2DC1DAFFDF500001D86F010185
:103640002C4B2D2B00D0010E0001ED6511D075EC37
:1036500063F0470E0001876F0C0E886FD4C089F0AD
:10366000D5C08AF0D8C08BF08C6B18EC24F000D059
:10367000D4C073F0D5C074F0D8C075F00CEC65F010
:1036800001013C0701013C5169E1030E36EF17F0DF
:1036900065D0000E0001D06F020ED16FD01FD11F78
:1036A000D04BD12B01012A510001D025D66F010149
:1036B0002B510001D121D76F0001D96B2AC1D9FF4D
:1036C0002BC1DAFFDF500001D96F00D0010E0001DD
:1036D000ED6511D075EC63F0180E0001876F0C0ECC
:1036E000886FD6C089F0D7C08AF0D9C08BF08C6BB8
:1036F00018EC24F000D0D6C073F0D7C074F0D9C055
:1037000075F00CEC65F0010E0001D36F8C9026D0A3
:1037100011EC20F00001D26F0001D25104E0D2512F
:103720009BEC65F003D0010E0101356F000E36EF02
:1037300017F014D00001D35102E1FAEF16F0010A9C
:1037400002E10AEF17F0030A01E15CD7010AA1E0E8
:10375000070A01E155D7010ADBE000D00001D3518F
:1037600012001200000E0001C16F020EC26F0001B4
:10377000BF6BBE6900D0010E0001ED650AD075EC8B
:1037800063F00E0E0001876F190E886F18EC24F09D
:1037900000D095908C900001E86BE96BEA6BEB6BC5
:1037A00005680668076808680001C46BC36B12D01F
:1037B000C3C073F0C4C074F0BFEC64F0C1C0D9FFE3
:1037C000C2C0DAFFDF6E0001C14BC22B0001C34B48
:1037D000C42B00D00001BE51C35DBF51C45902E2E9
:1037E000E7D700D0010E0001ED6512D075EC63F053
:1037F000450E0001876F1A0E886FF20E896F1B0E3F
:103800008A6F8911D8A4000E8B6F18EC24F000D0B9
:10381000000E0001B26F020EB36F110EB46FDF0E17
:10382000B56F020EB66FD7EC55F0000902E00590B7
:1038300000D0010E0001ED6512D075EC63F0450E6D
:103840000001876F1A0E886F9F0E896F1C0E8A6F9A
:103850008911D8A4000E8B6F18EC24F000D0110E43
:103860000001B26F020EB36F0F0EB46FE00EB56FB2
:10387000020EB66FD7EC55F0000902E0059200D0B9
:10388000010E0001ED6512D075EC63F0450E0001EC
:10389000876F1A0E886FDE0E896F1B0E8A6F891173
:1038A000D8A4000E8B6F18EC24F000D0200E00017D
:1038B000B26F020EB36F110EB46FE10EB56F020E50
:1038C000B66FD7EC55F0000902E0059400D0010E68
:1038D0000001ED6512D075EC63F0450E0001876FB5
:1038E0001A0E886F8C0E896F1C0E8A6F8911D8A4EE
:1038F000000E8B6F18EC24F000D0310E0001B26F77
:10390000020EB36F0F0EB46FE20EB56F020EB66FFC
:10391000D7EC55F0000902E0059600D0010E000139
:10392000ED6512D075EC63F0450E0001876F1A0E3D
:10393000886FCA0E896F1B0E8A6F8911D8A4000E7A
:103940008B6F18EC24F000D0400E0001B26F020E15
:10395000B36F060EB46FE30EB56F020EB66FD7EC01
:1039600055F0000902E0059800D0010E0001ED6558
:1039700012D075EC63F0450E0001876F1A0E886F48
:103980000D0E896F1D0E8A6F8911D8A4000E8B6FE2
:1039900018EC24F000D0460E0001B26F020EB36F97
:1039A000050EB46FE40EB56F020EB66FD7EC55F08E
:1039B000000902E0059A00D0010E0001ED6512D069
:1039C00075EC63F0450E0001876F1A0E886FE40EE8
:1039D000896F1A0E8A6F8911D8A4000E8B6F18ECAC
:1039E00024F000D04B0E0001B26F020EB36F200E18
:1039F000B46FE50EB56F020EB66FD7EC55F0000947
:103A000002E0059C00D0010E0001ED6512D075ECBE
:103A100063F0450E0001876F1A0E886F970E896F4D
:103A20001D0E8A6F8911D8A4000E8B6F18EC24F03C
:103A300000D06B0E0001B26F020EB36F200EB46F98
:103A4000E60EB56F020EB66FD7EC55F0000902E036
:103A5000059E00D0010E0001ED6512D075EC63F0FB
:103A6000450E0001876F1A0E886F5C0E896F1A0E63
:103A70008A6F8911D8A4000E8B6F18EC24F000D047
:103A80008B0E0001B26F020EB36F020EB46FE70E21
:103A9000B56F020EB66FD7EC55F0000902E0069044
:103AA00000D0010E0001ED6512D075EC63F0450EFB
:103AB0000001876F1A0E886F730E896F1A0E8A6F56
:103AC0008911D8A4000E8B6F18EC24F000D08D0E55
:103AD0000001B26F020EB36F020EB46FE80EB56F45
:103AE000020EB66FD7EC55F0000902E0069200D046
:103AF000010E0001ED6512D075EC63F0450E00017A
:103B0000876F1A0E886F790E896F1B0E8A6F891165
:103B1000D8A4000E8B6F18EC24F000D08F0E00019B
:103B2000B26F020EB36F060EB46FE90EB56F020EE0
:103B3000B66FD7EC55F0000902E0069400D0010EF4
:103B40000001ED6512D075EC63F0450E0001876F42
:103B50001A0E886FA80E896F1D0E8A6F8911D8A45E
:103B6000000E8B6F18EC24F000D0950E0001B26FA0
:103B7000020EB36F080EB46FEA0EB56F020EB66F89
:103B8000D7EC55F0000902E0069600D0010E0001C6
:103B9000ED6512D075EC63F0450E0001876F1A0ECB
:103BA000886F220E896F1F0E8A6F8911D8A4000EAC
:103BB0008B6F18EC24F000D09D0E0001B26F020E46
:103BC000B36F040EB46FEB0EB56F020EB66FD7EC89
:103BD00055F0000902E0069800D0010E0001ED65E5
:103BE00012D075EC63F0450E0001876F1A0E886FD6
:103BF000980E896F1E0E8A6F8911D8A4000E8B6FE4
:103C000018EC24F000D0A10E0001B26F020EB36FC9
:103C1000020EB46FEC0EB56F020EB66FD7EC55F016
:103C2000000902E0069A00D0010E0001ED6512D0F5
:103C300075EC63F0450E0001876F1A0E886F890ED0
:103C4000896F1E0E8A6F8911D8A4000E8B6F18EC35
:103C500024F000D0A30E0001B26F020EB36F020E6B
:103C6000B46FED0EB56F020EB66FD7EC55F00009CC
:103C700002E0069C00D0010E0001ED6512D075EC4B
:103C800063F0450E0001876F1A0E886F580E896F1A
:103C90001F0E8A6F8911D8A4000E8B6F18EC24F0C8
:103CA00000D0A50E0001B26F020EB36F040EB46F08
:103CB000EE0EB56F020EB66FD7EC55F0000902E0BC
:103CC000069E00D0010E0001ED6512D075EC63F088
:103CD000450E0001876F1A0E886F620E896F1F0EE6
:103CE0008A6F8911D8A4000E8B6F18EC24F000D0D5
:103CF000A90E0001B26F020EB36F020EB46FEF0E89
:103D0000B56F020EB66FD7EC55F0000902E00790D0
:103D100000D0010E0001ED6512D075EC63F0450E88
:103D20000001876F1A0E886F830E896F1F0E8A6FCE
:103D30008911D8A4000E8B6F18EC24F000D0AB0EC4
:103D40000001B26F020EB36F020EB46FF00EB56FCA
:103D5000020EB66FD7EC55F0000902E0079200D0D2
:103D6000010E0001ED6512D075EC63F0450E000107
:103D7000876F1A0E886F090E896F190E8A6F891165
:103D8000D8A4000E8B6F18EC24F000D0AD0E00010B
:103D9000B26F020EB36F020EB46FF10EB56F020E6A
:103DA000B66FD7EC55F0000902E0079400D0010E81
:103DB0000001ED6512D075EC63F0450E0001876FD0
:103DC0001A0E886FC50E896F1E0E8A6F8911D8A4CE
:103DD000000E8B6F18EC24F000D0AF0E0001B26F14
:103DE000020EB36F010EB46FF20EB56F020EB66F16
:103DF000D7EC55F0000902E0079600D0010E000153
:103E0000ED6512D075EC63F0450E0001876F1A0E58
:103E1000886FD30E896F1E0E8A6F8911D8A4000E89
:103E20008B6F18EC24F000D0B00E0001B26F020EC0
:103E3000B36F010EB46FF30EB56F020EB66FD7EC11
:103E400055F0000902E0079800D0010E0001ED6571
:103E500012D075EC63F0450E0001876F1A0E886F63
:103E60004E0E896F1F0E8A6F8911D8A4000E8B6FBA
:103E700018EC24F000D0B10E0001B26F020EB36F47
:103E80000F0EB46FF40EB56F020EB66FD7EC55F08F
:103E9000000902E0079A00D0000E07BA010E0001E7
:103EA000C06F0001C05115E1B10E716F020E726F4B
:103EB0001C0E736F1E0E746F7311D8A4000E756FF5
:103EC000776B0F0E766F02EC60F0000E0201BF6F91
:103ED00000D0110E0001716F020E726F64EC64F07D
:103EE00071C0C3F072C0C4F00001C45113E10F0EE1
:103EF000C35D10E201D00ED0110E0001C325D96EB2
:103F0000020EC421DA6E200EDF6E0001C34BC42BFB
:103F1000EBD700D0000E0001C16F020EC26F000E81
:103F20000001C46FC36F0001C45154E1110EC35DA1
:103F300051E201D04FD0C1C0D9FFC2C0DAFFDE28A4
:103F400042E0C1C0D9FFC2C0DAFFDF503CE002014D
:103F5000A551A611A711A81119E10101008300D0F4
:103F60000001ED51D8B4120075EC63F03C0E000175
:103F7000876F1E0E886F7A0E896F1E0E8A6F8911E9
:103F8000D8A4000E8B6F18EC24F012000201AF05CC
:103F9000D8A412000101008500D00001ED51D8B471
:103FA000120075EC63F03C0E0001876F1E0E886FE7
:103FB000A70E896F1E0E8A6F8911D8A4000E8B6F11
:103FC00018EC24F012000001C14BC22BC34BC42BD0
:103FD000AAD700D0000E0001716F020E726F746BD1
:103FE000300E736F766B110E756F25EC65F0010165
:103FF000008300D00001ED51D8B4120075EC63F0DD
:104000003C0E0001876F1E0E886F7A0E896F1E0EA0
:104010008A6F8911D8A4000E8B6F18EC24F012005F
:10402000120021EEBEF010EEC0F0050EDBCFE3FF74
:10403000E806FCE23AC1C8F00001C96B4A0E000173
:10404000CE6F040ECF6F0001CB6BCA6BCEC0C6F033
:10405000CFC0C7F00001CD6BCC6B14D0C6C0D9FF68
:10406000C7C0DAFFDE500001CA27DD50CB23020EA5
:104070000001C627000EC723020E0001CC27000E48
:10408000CD2300D00001C851CC5DC951CD59E6E324
:104090005A0E0001CA1905E15A0ECB1902E110D0DF
:1040A00000D00001ED510AE075EC63F0860E0001CE
:1040B000876F1D0E886F18EC24F000D0060E1200DA
:1040C000CEC071F0CFC072F0C00E0001736F000E51
:1040D000746F766B050E756FD2EC59F0000171515B
:1040E00072110FE00001ED510AE075EC63F0EE0E85
:1040F0000001876F1E0E886F18EC24F000D0220E8E
:104100001200000120EE05F0CE51D926CF51DA225F
:10411000020EDE180FE00001ED510AE075EC63F0CD
:104120000C0E0001876F1E0E886F18EC24F000D073
:10413000220E1200080E0001CE25716F000ECF2155
:10414000726F110E736F020E746F766B0F0E756FB8
:10415000D2EC59F000017151721110E00001ED51E3
:104160000AE075EC63F02E0E0001876F1A0E886F5F
:1041700018EC24F000D0220E120000D0010E000135
:10418000ED6514D075EC63F0660E0001876F150EB7
:10419000886F20EE06F0CE51D926CF51DA22DECF3D
:1041A00089F0DDCF8AF018EC24F000D0010E000178
:1041B000ED650ED075EC63F0680E0001876F130E8D
:1041C000886FCAC089F0CBC08AF018EC24F000D008
:1041D000010E0001ED6518D075EC63F0D20E000100
:1041E000876F160E886F080ECE25BE6F000ECF218A
:1041F000BF6F20EE89F0BEC0DEFFBFC0DEFF200E25
:10420000DF6E18EC24F000D0010E0001ED6518D02F
:1042100075EC63F0B60E0001876F160E886F170EEF
:10422000CE25BE6F000ECF21BF6F20EE89F0BEC03D
:10423000DEFFBFC0DEFF200EDF6E18EC24F000D0E2
:10424000010E0001ED6514D075EC63F0880E0001DD
:10425000876F130E886F20EE26F0CE51D926CF51EE
:10426000DA22DECF89F0DDCF8AF018EC24F000D01E
:10427000010E0001ED6514D075EC63F0A80E00018D
:10428000876F130E886F20EE28F0CE51D926CF51BC
:10429000DA22DECF89F0DDCF8AF018EC24F000D0EE
:1042A000010E0001ED6514D075EC63F0C80E00013D
:1042B000876F130E886F20EE2AF0CE51D926CF518A
:1042C000DA22DECF89F0DDCF8AF018EC24F000D0BE
:1042D000010E0001ED6514D075EC63F0460E00018F
:1042E000876F160E886F20EE2CF0CE51D926CF5155
:1042F000DA22DECF89F0DDCF8AF018EC24F000D08E
:10430000010E0001ED6514D075EC63F0620E000142
:10431000876F160E886F20EE2EF0CE51D926CF5122
:10432000DA22DECF89F0DDCF8AF018EC24F000D05D
:10433000010E0001ED6514D075EC63F07E0E0001F6
:10434000876F160E886F20EE30F0CE51D926CF51F0
:10435000DA22DECF89F0DDCF8AF018EC24F000D02D
:10436000010E0001ED6514D075EC63F09A0E0001AA
:10437000876F160E886F20EE32F0CE51D926CF51BE
:10438000DA22DECF89F0DDCF8AF018EC24F000D0FD
:10439000010E0001ED6515D075EC63F0820E000191
:1043A000876F150E886F20EE34F0CE51D926CF518D
:1043B000DA22DF50BE6FBE51896F8A6B18EC24F091
:1043C00000D0010E0001ED6515D075EC63F09E0E76
:1043D0000001876F150E886F20EE35F0CE51D9267B
:1043E000CF51DA22DF50BE6FBE51896F8A6B18EC55
:1043F00024F000D0010E0001ED6515D075EC63F0DE
:10440000BA0E0001876F150E886F20EE36F0CE5180
:10441000D926CF51DA22DF50BE6FBE51896F8A6B29
:1044200018EC24F000D0010E0001ED6515D075ECFC
:1044300063F0D60E0001876F150E886F20EE37F0FF
:10444000CE51D926CF51DA22DF50BE6FBE51896FCF
:104450008A6B18EC24F000D0010E0001ED6514D039
:1044600075EC63F02A0E0001876F160E886F20EE40
:1044700038F0CE51D926CF51DA22DECF89F0DDCF08
:104480008AF018EC24F000D0010E0001ED6514D084
:1044900075EC63F00E0E0001876F160E886F20EE2C
:1044A0003AF0CE51D926CF51DA22DECF89F0DDCFD6
:1044B0008AF018EC24F000D0010E0001ED6518D050
:1044C00075EC63F0D90E0001876F140E886F20EE33
:1044D0003CF0CE51D926CF51DA22DECF89F0DECFA3
:1044E0008AF0DECF8BF0DECF8CF018EC24F000D019
:1044F000010E0001ED6514D075EC63F0F20E0001C1
:10450000876F150E886F20EE40F0CE51D926CF511F
:10451000DA22DECF89F0DDCF8AF018EC24F000D06B
:10452000010E0001ED6514D075EC63F04A0E000138
:10453000876F150E886F20EE42F0CE51D926CF51ED
:10454000DA22DECF89F0DDCF8AF018EC24F000D03B
:10455000310E0001716F020E726F170ECE25BE6F05
:10456000000ECF21BF6FBEC073F0BFC074F0735197
:104570007411D8A4200E756F776B0F0E766F02EC56
:1045800060F0000120EE3CF0CE51D926CF51DA2266
:10459000DECFA5F2DECFA6F2DECFA7F2DECFA8F205
:1045A000000120EE42F0CE51D926CF51DA22DECFE3
:1045B000ABF2DDCFACF2000120EE40F0CE51D926B7
:1045C000CF51DA22DECFA9F2DDCFAAF2000120EE30
:1045D0003AF0CE51D926CF51DA22DECFA3F2DDCF89
:1045E000A4F2000120EE38F0CE51D926CF51DA22C4
:1045F000DECFA1F2DDCFA2F2000E0001CD6FCC6FB5
:104600000001CD5129E1030ECC5D26E201D024D07A
:10461000CCC0BEF0CDC0BFF0D8900001BE37BF37D0
:10462000260EBE27000EBF23BE51CE25D96EBF5128
:10463000CF21DA6ED890CC35E16ECD35E26E8F0E9B
:10464000E126020EE222DECFE6FFDDCFE5FF00012C
:10465000CC4BCD2BD5D700D0000E0001CD6FCC6F49
:104660000001CD5140E1040E0001CC5D3CE201D0DF
:104670003AD0CCC0BEF0CDC0BFF0D8900001BE375C
:10468000BF372C0EBE27000EBF23BE51CE25D96EDC
:10469000BF51CF21DA6ED890CC35E16ECD35E26EC8
:1046A000950EE126020EE222DECFE6FFDDCFE5FF2A
:1046B000340ECC25BE6F000ECD21BF6FBE51CE256E
:1046C000D96EBF51CF21DA6E9D0ECC25E16E020E60
:1046D000CD21E26EDFCFE7FF0001CC4BCD2B0001F7
:1046E000CD5101E1C0D70001E887310E0001716FA3
:1046F000020E726F6B0E736F1E0E746F4EEC51F0E4
:104700000001715172114CE1000E0201A56FA66FFC
:10471000A76FA86F0001E98F010100830001ED512F
:1047200012E075EC63F03C0E0001876F1E0E886F7F
:104730007A0E896F1E0E8A6F8911D8A4000E8B6FB6
:1047400018EC24F000D0000E0001BE6F020EBF6F07
:10475000BE1FBF1FBE4BBF2B8F0EBE25CC6F020EE0
:10476000BF21CD6F000E0001BE6F020EBF6F8F0E16
:10477000BE27000EBF23BE1FBF1FBE4BBF2BAB0EFD
:10478000BE25C86F020EBF21C96FCCC076F0CDC068
:1047900077F0C8C078F0C9C079F0DFEC63F044D09E
:1047A000010E0201AF6F0001E98F0001EA830001F1
:1047B000EA810001E98D0001E98B0001E985000132
:1047C000E9870001E9890001EA87010100930001FE
:1047D000ED5112E075EC63F02C0E0001876F1E0E98
:1047E000886F7A0E896F1E0E8A6F8911D8A4000E09
:1047F0008B6F18EC24F000D00101008500D000017F
:10480000ED5112E075EC63F03C0E0001876F1E0E57
:10481000886FA70E896F1E0E8A6F8911D8A4000EAB
:104820008B6F18EC24F000D04CEC2FF0000C120031
:10483000890E0001A36F000EA46F62D3250E000144
:10484000AE1904E0AE5107EC67F05AD30001AB6B30
:10485000AA6BA96B06D00001A985874B882B01D0D4
:104860000CD087C0F6FF88C0F7FF000EF86E080076
:10487000F550300AF0E001D0F4D787C0F6FF88C0C9
:10488000F7FF000EF86E0800F550C7EC65F038E34E
:104890000001AB6BAA6B00D0AAC071F0ABC072F084
:1048A0000001746B0A0E736FDCEC65F071C0AAF046
:1048B00072C0ABF0D00E0001976F986987C0F6FF09
:1048C00088C0F7FF000EF86E0800F550996F9A6BDC
:1048D0009751992798519A239951AA279A51AB2316
:1048E0000001874B882B87C0F6FF88C0F7FF000EBA
:1048F000F86E0800F550C7EC65F002E3CDD700D0A4
:1049000087C0F6FF88C0F7FF000EF86E0800F5506C
:104910002E0A34E10001874B882B0001AD6BAC6B94
:104920001FD00A0E0001AC03F3CF97F0F4CF98F03C
:10493000AD03F350982787C0F6FF88C0F7FF000E3D
:10494000F86E0800F5509727000E9823D00E972593
:10495000AC6FFF0E9821AD6F0001874B882B00D004
:1049600087C0F6FF88C0F7FF000EF86E0800F5500C
:10497000C7EC65F001E2A3D0D4D7A1D00001AD6BA4
:10498000AC6B9DD012000001A98999D0BAD000016A
:10499000A98B0001A98FB5D0A3C0D9FFA4C0DAFFAD
:1049A000DECF9EF0DECF9FF0DDCFA0F0030E000142
:1049B000A327000EA42300019E519F11A01109E11D
:1049C0007C0E9E6F1F0E9F6F9E11D8A4000EA06FCD
:1049D00000D00001A26BA16B04D00001A14BA22B5F
:1049E00000D00001A1519E25976FA2519F21986F81
:1049F000000EA021996F97C0F6FF98C0F7FF99C0ED
:104A0000F8FFF8BA03D00800F55005D0F6CFE1FF63
:104A1000F7CFE2FFE7500009E0E10001AC51AD1132
:104A20000AE0A151AC5DA251AD5905E2ACC0A1F0C4
:104A3000ADC0A2F000D00001AA51A15DAB51A259B6
:104A400005E2A151AA5FA251AB5B08D00001AB6B9C
:104A5000AA6B04D0200E07EC67F000D00001AA0773
:104A6000D8A0AB07AA29F6E1AB291AE0F3D718D0F2
:104A70009EC0F6FF9FC0F7FFA0C0F8FFF8BA03D0B2
:104A80000800F55005D0F6CFE1FFF7CFE2FFE75081
:104A900007EC67F000019E2B000E9F23A02300D09F
:104AA0000001A107D8A0A207A129E2E1A22901E102
:104AB00027D2DED725D2C00E0001A91322D087C08D
:104AC000F6FF88C0F7FF0001874B882B000EF86EB9
:104AD0000800F5CFAEF0AE51D8B41200580A01E18B
:104AE00056D73C0A0EE00D0A0CE0050A01E14BD74F
:104AF0001F0A01E151D7060ADEE00D0A01E149D79C
:104B0000FFD1A9C097F0C00E0001971733E1A9A902
:104B10000ED0A3C0D9FFA4C0DAFFDECFA5F0DECF50
:104B2000A6F0DECFA7F0DECFA8F0040E0FD0A3C012
:104B3000D9FFA4C0DAFFDECFA5F0DDCFA6F00001DB
:104B4000000EA6BFFF0EA76FA86F020E0001A327DD
:104B5000000EA42300D00001A8AF32D0030EA91389
:104B60000001A81FA71FA61FA56D000EA623A7233F
:104B7000A82326D00001A9A90ED0A3C0D9FFA4C0A4
:104B8000DAFFDECFA5F0DECFA6F0DECFA7F0DECFD6
:104B9000A8F0040E10D0A3C0D9FFA4C0DAFFDECF66
:104BA00097F0DDCF98F097C0A5F098C0A6F000016F
:104BB000A76BA86B020E0001A327000EA42300D050
:104BC0000001AC51AD1159E1A551A611A711A811D1
:104BD00054E1AC4BAD2B51D000D0010E0001AE6FB3
:104BE0000A0E0001AE1952E001D050D00001AE51C2
:104BF000040D410EF324F66E090EF420F76EF86AE8
:104C0000000EF8220900F550A55D0900F550A659DF
:104C10000900F550A7590900F550A85937E301D00C
:104C200035D00001AE2BDCD731D0010E0001AE6FC4
:104C3000080E0001AE192AE001D028D00001AE51C3
:104C4000040D690EF324F66E090EF420F76EF86A6F
:104C5000000EF8220900F550A55D0900F550A6598F
:104C60000900F550A7590900F550A8590FE301D0E4
:104C70000DD00001AE2BDCD709D00001A951C00B2B
:104C8000ACE0800AD2E0400AA8E000D0800E00012B
:104C9000AEBF7F0E976FAC51AE5DAD51800A975994
:104CA00003E2ACC0AEF011D00001AD51800A976FA5
:104CB000AE51AC5D800EAEBF7F0E975906E2AE518D
:104CC000AC6FAD6BACBFAD0700D00001AA51AB110A
:104CD0001CE0A9C097F0030E971717E0AA07D8A009
:104CE000AB0713D00001AA51AC5DAD51800A976F9C
:104CF000AB51800A975905E2AC51AA5FAD51AB5B4D
:104D000004D00001AB6BAA6B00D0800E0001AEBFD7
:104D10007F0E976FAA51AE5DAB51800A975907E29B
:104D2000AE51AA5F000EAEBFFF0EAB5B04D0000118
:104D3000AB6BAA6B00D00001A9A51BD0A9C097F04E
:104D4000030E971704E02D0E07EC67F000D000016A
:104D5000AA51AB1101E1CAD0300E07EC67F0000197
:104D6000AA07D8A0AB07AA51AB1101E1BFD0F4D775
:104D7000BDD00001AA51AB110CE0200E07EC67F08A
:104D80000001AA07D8A0AB07AA51AB1102E0F5D7E2
:104D900000D0A9C097F0030E0001971701E1A6D03B
:104DA0002D0E07EC67F0A2D091D000D0ACC097F0E8
:104DB000ADC098F00001D89097379837D8909737C2
:104DC0009837410E9725F66E090E9821F76EF86A0E
:104DD000000EF8220900F5CF75F00900F5CF76F046
:104DE0000900F5CF77F00A00F5CF78F0A5C071F093
:104DF000A6C072F0A7C073F0A8C074F017EC5CF006
:104E000071C07EF072C07FF073C080F074C081F01A
:104E10000A0E0001826F836B846B856B6DEC5DF015
:104E200000017E51300FAE6F5CD0A5C071F0A6C0FE
:104E300072F0A7C073F0A8C074F0ACC097F0ADC01A
:104E400098F00001D89097379837D89097379837CF
:104E5000690E9725F66E090E9821F76EF86A000E16
:104E6000F8220900F5CF75F00900F5CF76F00900BA
:104E7000F5CF77F00A00F5CF78F017EC5CF0000181
:104E800071510F0B9B6F0001A9BB04D0420E9C6FA8
:104E90001D0E04D0310E00019C6F1D0E00019D6F90
:104EA00000D000019B51010D9CC097F09DC098F06F
:104EB000F3509727F450982397C0F6FF98C0F7FF58
:104EC000000EF86E0800F5CFAEF00BD00001A9512E
:104ED000C00B01E16BD7800AA8E0400A01E166D768
:104EE00000D00001AE5107EC67F000D00001AC0724
:104EF000D8A0AD07AC29EAE1AD2902E0E7D700D0A0
:104F000087C0F6FF88C0F7FF0001874B882B000E93
:104F1000F86E0800F5CFAEF0AE51D8B412008ED4C2
:104F2000120012000101C40501E033D1A5C279F0DD
:104F3000A6C27AF0A7C27BF0A8C27CF05AEC5EF061
:104F400079C086F07AC087F07BC088F022EEA3F0AB
:104F5000DECFBBF0DDCFBCF00001BB1FBC1FBB4BE5
:104F6000BC2B0201AD510001BB25796F0201AE518E
:104F70000001BC217A6F22EC64F079C083F07AC022
:104F800084F07BC085F076EC4EF083C091F084C055
:104F900092F085C093F022EEA3F0DECFBDF0DDCF1E
:104FA000BEF00001BD1FBE1FBD4BBE2B0201A151B3
:104FB0000001BD25796F0201A2510001BE217A6F67
:104FC00022EC64F079C094F07AC095F07BC096F042
:104FD000F5EC4FF0000193AF68D0A36BA46BBF0E4C
:104FE000A56F22EEA3F0DECFBBF0DDCFBCF0BB1F80
:104FF000BC1FBB4BBC2B0201A1510001BB25796F2B
:105000000201A2510001BC217A6F22EC64F079C048
:1050100094F07AC095F07BC096F0A5C279F0A6C254
:105020007AF0A7C27BF0A8C27CF05AEC5EF079C09F
:1050300086F07AC087F07BC088F022EEA3F0DECF46
:10504000BDF0DDCFBEF00001BD1FBE1FBD4BBE2BAE
:105050000201AD510001BD25796F0201AE51000181
:10506000BE217A6F22EC64F079C083F07AC084F0BC
:105070007BC085F076EC4EF083C091F084C092F056
:1050800085C093F0F5EC4FF091C0A0F092C0A1F074
:1050900093C0A2F01FEC42F0A0C0ACF0A1C0ADF0F4
:1050A000A2C0AEF0F8EC4EF068D00001A36BA46B88
:1050B0003F0EA56F22EEA3F0DECFBBF0DDCFBCF03C
:1050C000BB1FBC1FBB4BBC2B0201A1510001BB2568
:1050D000796F0201A2510001BC217A6F22EC64F0C9
:1050E00079C094F07AC095F07BC096F0A5C279F0B3
:1050F000A6C27AF0A7C27BF0A8C27CF05AEC5EF0A0
:1051000079C086F07AC087F07BC088F022EEA3F0E9
:10511000DECFBDF0DDCFBEF00001BD1FBE1FBD4B19
:10512000BE2B0201AD510001BD25796F0201AE51C8
:105130000001BE217A6F22EC64F079C083F07AC05E
:1051400084F07BC085F076EC4EF083C091F084C093
:1051500092F085C093F0F5EC4FF091C0A0F092C0B2
:10516000A1F093C0A2F01FEC42F0A0C0ACF0A1C02F
:10517000ADF0A2C0AEF0F8EC4EF0ACC015F0ADC092
:1051800016F0AEC017F0AFC018F000D00101C46B2C
:1051900009D011C015F012C016F013C017F014C0DA
:1051A00018F000D0A5C279F0A6C27AF0A7C27BF0B1
:1051B000A8C27CF05AEC5EF079C086F07AC087F025
:1051C0007BC088F022EEA3F0DECFBBF0DDCFBCF0D9
:1051D0000001BB1FBC1FBB4BBC2B1C50BB25796FF8
:1051E0001D50BC217A6F22EC64F079C083F07AC044
:1051F00084F07BC085F076EC4EF083C091F084C0E3
:1052000092F085C093F022EEA3F0DECFBDF0DDCFAB
:10521000BEF00001BD1FBE1FBD4BBE2B0201A15140
:105220000001BD25796F0201A2510001BE217A6FF4
:1052300022EC64F079C094F07AC095F07BC096F0CF
:10524000F5EC4FF0000193AF64D0A36BA46BBF0EDD
:10525000A56F22EEA3F0DECFBBF0DDCFBCF0BB1F0D
:10526000BC1FBB4BBC2B0201A1510001BB25796FB8
:105270000201A2510001BC217A6F22EC64F079C0D6
:1052800094F07AC095F07BC096F0A5C279F0A6C2E2
:105290007AF0A7C27BF0A8C27CF05AEC5EF079C02D
:1052A00086F07AC087F07BC088F022EEA3F0DECFD4
:1052B000BDF0DDCFBEF00001BD1FBE1FBD4BBE2B3C
:1052C0001C50BD25796F1D50BE217A6F22EC64F011
:1052D00079C083F07AC084F07BC085F076EC4EF024
:1052E00083C091F084C092F085C093F0F5EC4FF04C
:1052F00091C0A0F092C0A1F093C0A2F01FEC42F0C8
:10530000A0C0ACF0A1C0ADF0A2C0AEF0F8EC4EF081
:1053100064D00001A36BA46B3F0EA56F22EEA3F037
:10532000DECFBBF0DDCFBCF0BB1FBC1FBB4BBC2B2B
:105330000201A1510001BB25796F0201A2510001B8
:10534000BC217A6F22EC64F079C094F07AC095F0B9
:105350007BC096F0A5C279F0A6C27AF0A7C27BF016
:10536000A8C27CF05AEC5EF079C086F07AC087F073
:105370007BC088F022EEA3F0DECFBDF0DDCFBEF023
:105380000001BD1FBE1FBD4BBE2B1C50BD25796F3C
:105390001D50BE217A6F22EC64F079C083F07AC090
:1053A00084F07BC085F076EC4EF083C091F084C031
:1053B00092F085C093F0F5EC4FF091C0A0F092C050
:1053C000A1F093C0A2F01FEC42F0A0C0ACF0A1C0CD
:1053D000ADF0A2C0AEF0F8EC4EF0ACC011F0ADC034
:1053E00012F0AEC013F0AFC014F000D01C50020198
:1053F000AD5DAE51800A0001BB6F1D50800ABB59E4
:105400001AE20201B0510FE129500DE101010A51E8
:1054100011260B5112220C5113220D511422010E90
:1054200001013D6F00D00201B00524E0010E1ED045
:105430000001EA891FD00201B00503E101013D51DD
:1054400005E00201B0510EE129040CE101010A510D
:10545000115E0B51125A0C51135A0D51145A010E70
:10546000296E00D00201B05105E0000E0201B06FBC
:10547000DFD700D015C0BBF016C0BCF017C0BDF020
:1054800018C0BEF00001BB1FBC1FBD1FBE1FBB2B41
:10549000000EBC23BD23BE231150BB25096E125044
:1054A000BC210A6E1350BD210B6E1450BE210C6E30
:1054B00000D00001ED51D8B4120075EC63F0490E34
:1054C0000001876F0A0E886F1CC089F01DC08AF02A
:1054D00011C08BF012C08CF013C08DF014C08EF090
:1054E00015C08FF016C090F017C091F018C092F060
:1054F00009C093F00AC094F00BC095F00CC096F070
:1055000018EC24F0120012000001D16F0001D151FB
:1055100003E1D151120000D0000E5AEC49F0010E07
:105520000001ED6545D275EC63F0520E0001876F06
:105530000E0E886F18EC24F03BD256D2A8EC66F021
:105540000CBE79D00950015C0A5002580B50035828
:105550000450800A0001C36F0C50800AC35964E2F2
:1055600079697F0E7A6F000E7B6B7C6B09C0C3F08C
:105570000AC0C4F00BC0C5F00CC0C6F0C31FC41FE6
:10558000C51FC61FC32BC423C523C6230150C32573
:10559000716F0250C421726F0350C521736F0450A4
:1055A000C621746F93EC62F071C07DF072C07EF022
:1055B00073C07FF074C080F001EC64F079C0C7F074
:1055C0007AC0C8F07BC0C9F07CC0CAF0C7C0CFF0B9
:1055D000C8C0D0F001C0CBF002C0CCF003C0CDF009
:1055E00004C0CEF000D00001ED5116E075EC63F080
:1055F000FE0E0001876F0D0E886F01C089F002C09A
:105600008AF003C08BF004C08CF0CFC08DF0D0C006
:105610008EF018EC24F000D0CFC073F0D0C074F03E
:10562000F3EC64F081D092D0000E016E026E036E36
:10563000046E8FD0D9D10150095C02500A58035032
:105640000B580C50800A0001C36F0450800AC359E4
:10565000EBE279697F0E7A6F000E7B6B7C6B09C081
:10566000C3F00AC0C4F00BC0C5F00CC0C6F0C31F25
:10567000C41FC51FC61FC32BC423C523C623015087
:10568000C325716F0250C421726F0350C521736F1F
:105690000450C621746F93EC62F071C07DF072C04B
:1056A0007EF073C07FF074C080F001EC64F079C0CC
:1056B000C7F07AC0C8F07BC0C9F07CC0CAF0C7C0D0
:1056C000C3F0C8C0C4F00001C31FC41FC34BC42B28
:1056D000C3C0CFF0C4C0D0F001C0CBF002C0CCF04A
:1056E00003C0CDF004C0CEF000D00001ED5116E0B3
:1056F00075EC63F0280E0001876F0E0E886F01C0F5
:1057000089F002C08AF003C08BF004C08CF0CFC0D7
:105710008DF0D0C08EF018EC24F000D0CFC073F024
:10572000D0C074F0F3EC64F0CFC0C3F0D0C0C4F0CC
:10573000000E0001C4BFFF0EC56FC66FC351012626
:10574000C4510222C5510322C6510422020E72D056
:105750006BD71FC0D1F048D12D0E0001B96F000EDC
:10576000BA6FB00EBB6F010EBC6FA5EC46F0010125
:105770008D39E832070B0001C36F030EC3175EE1DA
:1057800001018CAD8DB302D02ED000D00001ED51BF
:1057900023E075EC63F01B0E0001876F0F0E886F1E
:1057A0002DC089F02EC08AF02DC0C3F02EC0C4F0E9
:1057B000000EC4BFFF0EC56FC66FCB51C3258B6FE4
:1057C000CC51C4218C6FCD51C5218D6FCE51C621D6
:1057D0008E6F18EC24F000D0000E016E026E036E86
:1057E000046E68D000D00001ED5123E075EC63F049
:1057F000430E0001876F0F0E886F2DC089F02EC0F9
:105800008AF02DC0C3F02EC0C4F0000EC4BFFF0E3E
:10581000C56FC66FCB51C3258B6FCC51C4218C6F24
:10582000CD51C5218D6FCE51C6218E6F18EC24F05D
:1058300000D0010E0001D16FD7D000D00001ED5192
:1058400023E075EC63F0F30E0001876F0E0E886F96
:105850002DC089F02EC08AF02DC0C3F02EC0C4F038
:10586000000EC4BFFF0EC56FC66FCB51C3258B6F33
:10587000CC51C4218C6FCD51C5218D6FCE51C62125
:105880008E6F18EC24F000D00101342B3405000198
:10589000C36F770EC365A8D000D00001ED510AE0B8
:1058A00075EC63F0B90E0001876F1D0E886F18EC60
:1058B00024F000D01EC0D1F097D00101346B1DEC54
:1058C00059F0010E0001D16F0B0E1F6E070E27D08D
:1058D000010E286E89D09DEC52F0010E0001D16FAF
:1058E000080E11D00B0E1E6E7FD009EC53F0010E86
:1058F0000001D16F090E07D0F5D720EC37F0010E6B
:105900000001D16F0A0E1F6EEDD70101346B92ECCE
:1059100027F0010E0001D16F040E1F6E050E1E6EE2
:10592000D7D70101008B00D00001ED5112E075ECDA
:1059300063F03C0E0001876F1E0E886FA10E896F09
:105940001A0E8A6F8911D8A4000E8B6F18EC24F000
:1059500000D0010E0E6E2FEC67F0106E24D0000EFA
:10596000B8D715EC55F01FD0FAD70101008B00D045
:105970000001ED5112E075EC63F03C0E0001876F01
:105980001E0E886FA10E896F1A0E8A6F8911D8A416
:10599000000E8B6F18EC24F000D0DAEC64F003D02A
:1059A000DED7DAEC64F0000E0001D16FD8D71CD03E
:1059B0000001D151010A01E1C1D5030A01E1CCD6B0
:1059C000010AA3E0070AEDE0010ACFE0030A01E1C2
:1059D00074D7010A80E00F0A88E0010A8EE0030A0A
:1059E000C0E0010A9EE000D00001D1511200120077
:1059F000B7C0BCF0B8C0BDF0B9C0BFF0BAC0C0F00D
:105A00000001BE6B0001C26B010EC16FBFC0D9FFA8
:105A1000C0C0DAFF0F0EDF6E000120EE01F0BF51B3
:105A2000D926C051DA22C1C0DFFF000120EE02F00A
:105A3000BF51D926C051DA22C251DF6E000120EEDB
:105A400001F0B751D926B851DA22DE0401E195D12F
:105A5000B9C0B2F0BAC0B3F0240EB46FE4EC5DF09C
:105A6000000E12008AD10001C26B0F0EC16F040E2E
:105A70000001BF25716F000EC021726F310E736F70
:105A8000020E746F7311D8A4200E756FC1C076F02A
:105A9000C2C077F002EC60F0A3D10001C26B110E1E
:105AA000C16F040E0001BF25716F000EC021726F1F
:105AB000200E736F020E746F7311D8A4200E756FD1
:105AC000C1C076F0C2C077F002EC60F089D100016D
:105AD000C26B020EC16F040E0001BF25716F000E74
:105AE000C021726F8F0E736F020E746F7311D8A482
:105AF000200E756FC1C076F0C2C077F002EC60F086
:105B00006FD10001C26B020EC16F040E0001BF25F0
:105B1000716F000EC021726F910E736F020E746F61
:105B20007311D8A4200E756FC1C076F0C2C077F093
:105B300002EC60F055D10001C26B020EC16F040E81
:105B40000001BF25716F000EC021726F930E736F3D
:105B5000020E746F7311D8A4200E756FC1C076F059
:105B6000C2C077F002EC60F03BD10001C26B080EBE
:105B7000C16F040E0001BF25716F000EC021726F4E
:105B8000950E736F020E746F7311D8A4200E756F8B
:105B9000C1C076F0C2C077F002EC60F021D1000104
:105BA000C26B040EC16F040E0001BF25716F000EA1
:105BB000C021726F9D0E736F020E746F7311D8A4A3
:105BC000200E756FC1C076F0C2C077F002EC60F0B5
:105BD00007D10001C26B020EC16F040E0001BF2588
:105BE000716F000EC021726FA10E736F020E746F81
:105BF0007311D8A4200E756FC1C076F0C2C077F0C3
:105C000002EC60F0EDD00001C26B020EC16F040E19
:105C10000001BF25716F000EC021726FA30E736F5C
:105C2000020E746F7311D8A4200E756FC1C076F088
:105C3000C2C077F002EC60F0D3D00001C26B060E58
:105C4000C16F040E0001BF25716F000EC021726F7D
:105C5000400E736F020E746F7311D8A4200E756F0F
:105C6000C1C076F0C2C077F002EC60F0B9D000019C
:105C7000C26B050EC16F040E0001BF25716F000ECF
:105C8000C021726F460E736F020E746F7311D8A429
:105C9000200E756FC1C076F0C2C077F002EC60F0E4
:105CA0009FD00001C26B200EC16F040E0001BF2502
:105CB000716F000EC021726F4B0E736F020E746F06
:105CC0007311D8A4200E756FC1C076F0C2C077F0F2
:105CD00002EC60F085D00001C26B200EC16F040E93
:105CE0000001BF25716F000EC021726F6B0E736FC4
:105CF000020E746F7311D8A4200E756FC1C076F0B8
:105D0000C2C077F002EC60F06BD00001C26B020EF3
:105D1000C16F040E0001BF25716F000EC021726FAC
:105D20008B0E736F020E746F7311D8A4200E756FF3
:105D3000C1C076F0C2C077F002EC60F051D0000133
:105D4000C26B020EC16F040E0001BF25716F000E01
:105D5000C021726F8D0E736F020E746F7311D8A411
:105D6000200E756FC1C076F0C2C077F002EC60F013
:105D700037D01F0E0001BE6F33D0000120EE03F0BC
:105D8000BC51D926BD51DA22DF50010A01E16BD6A0
:105D9000030A01E182D6010A01E199D6070A01E16D
:105DA000E4D6010A01E1FBD6030A01E112D7010A98
:105DB00001E129D70F0A01E1A4D6010A01E1BBD60E
:105DC000280A01E13AD7030A01E151D7010A01E1AA
:105DD00068D7070A80E0010A98E0030AB0E0C9D753
:105DE0000001C14BC22BBFC0D9FFC0C0DAFF0F0EEC
:105DF000DF6E000120EE01F0BF51D926C051DA223A
:105E0000C1C0DFFF20EE02F0BF51D926C051DA2217
:105E1000C251DF6E0001BE5109E0B9C0B2F0BAC094
:105E2000B3F0BEC0B4F0E4EC5DF00AD0000120EEA7
:105E300003F0BF51D926C051DA22000EDF6E00D028
:105E4000010E0001ED65000C75EC63F0630E0001BE
:105E5000876F140E886F20EE03F0BC51D926BD5118
:105E6000DA22DF50E8EC4CF020EE89F071C0DEFF62
:105E700072C0DEFFDD6A000120EE03F0BF51D926BB
:105E8000C051DA22DF50BB6FBB518C6F8D6B18ECA9
:105E900024F0000C000C1200BFEC51F00201A351E1
:105EA000AD5DAE51800A0001BC6F0201A451800AB1
:105EB0000001BC5905E3ADC21CF0AEC21DF004D018
:105EC000A3C21CF0A4C21DF0ADC232F1AEC233F1C8
:105ED00022EEA3F0DECFBCF0DDCFBDF00001BC1F91
:105EE000BD1FBC4BBD2B0201A1510001BC2702010B
:105EF000A2510001BD23BC51BD110CE1000E0101F6
:105F00000A6F0B6F0C6F0D6F226F236F246F256F5D
:105F10000F0E1200A5C279F0A6C27AF0A7C27BF0DC
:105F2000A8C27CF05AEC5EF079C086F07AC087F0A7
:105F30007BC088F0A9C279F0AAC27AF022EC64F0A2
:105F400079C083F07AC084F07BC085F076EC4EF0A7
:105F500083C091F084C092F085C093F022EEA3F04C
:105F6000DECFBCF0DDCFBDF00001BC1FBD1FBC4BC0
:105F7000BD2B0201A1510001BC25796F0201A25184
:105F80000001BD217A6F22EC64F079C094F07AC0F0
:105F900095F07BC096F0F5EC4FF0000193AF57D031
:105FA000A36BA46BBF0EA56F22EEA3F0DECFBCF0F7
:105FB000DDCFBDF0BC1FBD1FBC4BBD2B0201A151ED
:105FC0000001BC25796F0201A2510001BD217A6F49
:105FD00022EC64F079C094F07AC095F07BC096F022
:105FE000A5C279F0A6C27AF0A7C27BF0A8C27CF065
:105FF0005AEC5EF079C086F07AC087F07BC088F0FA
:10600000A9C279F0AAC27AF022EC64F079C083F0D8
:106010007AC084F07BC085F076EC4EF083C091F0BE
:1060200084C092F085C093F0F5EC4FF091C0A0F0E1
:1060300092C0A1F093C0A2F01FEC42F0A0C0ACF05F
:10604000A1C0ADF0A2C0AEF0F8EC4EF057D0000108
:10605000A36BA46B3F0EA56F22EEA3F0DECFBCF0C6
:10606000DDCFBDF0BC1FBD1FBC4BBD2B0201A1513C
:106070000001BC25796F0201A2510001BD217A6F98
:1060800022EC64F079C094F07AC095F07BC096F071
:10609000A5C279F0A6C27AF0A7C27BF0A8C27CF0B4
:1060A0005AEC5EF079C086F07AC087F07BC088F049
:1060B000A9C279F0AAC27AF022EC64F079C083F028
:1060C0007AC084F07BC085F076EC4EF083C091F00E
:1060D00084C092F085C093F0F5EC4FF091C0A0F031
:1060E00092C0A1F093C0A2F01FEC42F0A0C0ACF0AF
:1060F000A1C0ADF0A2C0AEF0F8EC4EF0ACC00AF119
:10610000ADC00BF1AEC00CF1AFC00DF1A5C279F07E
:10611000A6C27AF0A7C27BF0A8C27CF05AEC5EF06F
:1061200079C086F07AC087F07BC088F0ABC279F086
:10613000ACC27AF022EC64F079C083F07AC084F0CB
:106140007BC085F076EC4EF083C091F084C092F075
:1061500085C093F022EEA3F0DECFBCF0DDCFBDF022
:106160000001BC1FBD1FBC4BBD2B0201A151000192
:10617000BC25796F0201A2510001BD217A6F22EC8A
:1061800064F079C094F07AC095F07BC096F0F5EC9D
:106190004FF0000193AF57D0A36BA46BBF0EA56F58
:1061A00022EEA3F0DECFBCF0DDCFBDF0BC1FBD1FE3
:1061B000BC4BBD2B0201A1510001BC25796F02012E
:1061C000A2510001BD217A6F22EC64F079C094F0F5
:1061D0007AC095F07BC096F0A5C279F0A6C27AF09D
:1061E000A7C27BF0A8C27CF05AEC5EF079C086F0C2
:1061F0007AC087F07BC088F0ABC279F0ACC27AF08D
:1062000022EC64F079C083F07AC084F07BC085F022
:1062100076EC4EF083C091F084C092F085C093F08C
:10622000F5EC4FF091C0A0F092C0A1F093C0A2F0A5
:106230001FEC42F0A0C0ACF0A1C0ADF0A2C0AEF027
:10624000F8EC4EF057D00001A36BA46B3F0EA56F86
:1062500022EEA3F0DECFBCF0DDCFBDF0BC1FBD1F32
:10626000BC4BBD2B0201A1510001BC25796F02017D
:10627000A2510001BD217A6F22EC64F079C094F044
:106280007AC095F07BC096F0A5C279F0A6C27AF0EC
:10629000A7C27BF0A8C27CF05AEC5EF079C086F011
:1062A0007AC087F07BC088F0ABC279F0ACC27AF0DC
:1062B00022EC64F079C083F07AC084F07BC085F072
:1062C00076EC4EF083C091F084C092F085C093F0DC
:1062D000F5EC4FF091C0A0F092C0A1F093C0A2F0F5
:1062E0001FEC42F0A0C0ACF0A1C0ADF0A2C0AEF077
:1062F000F8EC4EF0ACC022F1ADC023F1AEC024F1F9
:10630000AFC025F100D0000E12001200050E0001F2
:10631000E56FE66BE46BE76B0BD00ED0F70E010177
:10632000C56FC00EE82EFED7C52FFCD70001E72BA6
:10633000310E0001E765F2D7D0A0D0B205D0000140
:10634000E56BD080D08219D0D0A0D0A205D0010EAC
:106350000001E56FD08011D0D0B402D0020E03D07E
:10636000D0B604D0030E0001E56F07D0D0B805D039
:10637000040E0001E56FD08800D0FFEC66F0C090FD
:1063800034EC5FF081503F0B0001E66F00D0010E4E
:106390000001ED650AD075EC63F0C60E0001876F51
:1063A0000A0E886F18EC24F000D0010E0001ED6594
:1063B00010D075EC63F0B60E0001876F1E0E886F6B
:1063C000F00E896F080E8A6F000E8B6F18EC24F0A8
:1063D00000D0010E0001ED651AD075EC63F0DB0E04
:1063E0000001876F1D0E886F2E0E896F1F0E8A6F3A
:1063F0008911D8A4000E8B6F6B0E8C6F1F0E8D6FE2
:106400008C11D8A4000E8E6F18EC24F000D0010E71
:106410000001ED6528D075EC63F0FA0E0001876F7E
:106420001A0E886F010EE6BB000E896F8A6B010E93
:10643000E6B9000E8B6F8C6B010EE6B7000E8D6F08
:106440008E6B010EE6B5000E8F6F906B010EE6B3FA
:10645000000E916F926B010EE6B1000E936F946B7C
:1064600018EC24F000D08144E846030B0001E46FEF
:10647000030E0001E41968E0010E0001ED6564D02F
:1064800075EC63F04C0E0001876F1E0E886F18ECE0
:1064900024F05AD000D0010E0001ED6562D075ECF9
:1064A00063F01F0E0001876F1D0E886F18EC24F03B
:1064B00058D000D0010E0001ED6553D075EC63F0AB
:1064C000B20E0001876F1C0E886F18EC24F049D0C3
:1064D00000D0010E0001ED6544D075EC63F0060EAE
:1064E0000001876F1C0E886F18EC24F03AD000D0A2
:1064F000010E0001ED6535D075EC63F0450E00012D
:10650000876F180E886F18EC24F02BD000D0010E86
:106510000001ED6526D075EC63F03F0E0001876F3A
:10652000170E886F18EC24F01CD000D0010E00016B
:10653000ED6517D075EC63F0CA0E0001876F1D0E74
:10654000886F18EC24F00DD00001E551A4E0010A99
:10655000B1E0030ABEE0010ACBE0070AD8E0010A75
:10656000E5D7E6EC66F0B1EC65F062EC66F0B2EC13
:106570001BF03EEC65F018EC66F06DEC65F084EC19
:1065800065F00101406B0101416B420E0001716F2A
:10659000010E726F9B0E736F1F0E746F7311D8A470
:1065A000000E756F776B020E766F02EC60F0440E92
:1065B0000001716F010E726F000E736F020E746F27
:1065C0007311D8A4200E756F776B110E766F02ECE5
:1065D00060F0010E0101376FC080D1EC0FF000D0E8
:1065E000010E0001ED650AD075EC63F05A0E000152
:1065F000876F170E886F18EC24F000D0010E000191
:10660000ED650AD075EC63F0C60E0001876F0A0EC7
:10661000886F18EC24F000D004000001E76B040E32
:106620000001E76501D0F8D70001E7510C0D090E14
:10663000F326000EF422C00EF324D96E030EF420CC
:10664000DA6EDE50DE10DE1066E0E7510C0DC00E93
:10665000F324D96E030EF420DA6EE7510C0D040E0C
:10666000F326000EF422C00EF324E16E030EF42094
:10667000E26EDE50E65CDE50E658DE50E658DE5054
:10668000E65849E3E7510C0D090EF326000EF422FB
:10669000C00EF324D96E030EF420DA6E01D818D0A0
:1066A0000500FA6EDE50FD6EDE50FE6EDE50FF6EAF
:1066B000FA500001E7510C0D080EF326000EF422EB
:1066C000C00EF324D96E030EF420DA6EDF501200F0
:1066D0000101C56F0001E7510C0D080EF326000EF5
:1066E000F422C00EF324D96E030EF420DA6EC5C175
:1066F000DFFF0001E7510C0D040EF326000EF4221B
:10670000C00EF324D96E030EF420DA6EDE6ADE6A60
:10671000DE6ADD6A00D00001E72B81D77DD771EFFB
:1067200004F00001C26BBC6BB86BB96BC36BC46B7C
:10673000C56BBD6BBE6BC06BBF6B020E0001B2259B
:10674000C86F000EB321C96FC8C0D9FFC9C0DAFF36
:10675000DF500001B66F0001C84BC92BC8C0D9FF7C
:10676000C9C0DAFFDF500001B76F0001C84BC92B69
:10677000C8C0D9FFC9C0DAFFDF500001C16F0001F6
:10678000C84BC92B490E0001C16507D1240E120068
:1067900004D1C8C0D9FFC9C0DAFFDF500001BA6F09
:1067A0000001C84BC92BC8C0D9FFC9C0DAFFDF50F0
:1067B0000001C76FC84BC92BCAD0130E0001C765B3
:1067C00002D0240E12000001C66B16D00001C65183
:1067D000010DF350C825D96EF450C921DA6EC651A7
:1067E000010D550EF324E16E010EF420E26EDFCFB1
:1067F000E7FF0001C62B00D00001C751C65DE6E3EC
:10680000C7C07BF1010E0001C26FBBD0130E0001A7
:10681000C76502D0240E12000001C66B16D000011D
:10682000C651010DF350C825D96EF450C921DA6E56
:10683000C651010D680EF324E16E010EF420E26EE4
:10684000DFCFE7FF0001C62B00D00001C751C65DB6
:10685000E6E3010E0001BC6F94D00001C70506E11C
:10686000C8C0D9FFC9C0DAFFDE0402E0240E12005E
:10687000010E0001B86F85D0020E0001C71910E1AA
:10688000C8C0D9FFC9C0DAFF430EDE1809E120EE07
:1068900001F0C851D926C951DA22430EDE1871E041
:1068A000240E12006ED00001C70508E1C8C0D9FF50
:1068B000C9C0DAFF020EDF6403D000D0240E12003C
:1068C000010E0001B96F5DD00001C70508E1C8C025
:1068D000D9FFC9C0DAFF030EDF6403D000D0240E55
:1068E0001200010E0001C36F4CD00001C70502E089
:1068F000240E1200010E0001C46F43D0020E0001ED
:10690000C71902E0240E1200010E0001C56F39D034
:106910000001C70506E1C8C0D9FFC9C0DAFFDE28FB
:1069200002E1240E1200C8C0D9FFC9C0DAFFDF504F
:106930000001BB6F010E0001BD6F23D00001C751E4
:1069400002E0240E1200010E0001BE6F1AD00001F9
:10695000BA51010A01E131D7030ADAE0010A01E183
:1069600055D7070A01E179D7010ABFE0030A84E09D
:10697000010AE4E00E0A97E01D0AA6E0010ABEE063
:1069800000D00001C751010DF350C827F450C923AE
:106990000001C751020FC15F00D00001C15101E0E9
:1069A000F8D60001BE051DE1010E0001ED650AD01B
:1069B00075EC63F0F70E0001876F170E886F18EC07
:1069C00024F000D0B2C0D9FFB3C0DAFFDE2805E062
:1069D00027EC5BF0010E276E02D0FF0000D0000E06
:1069E00012000001C30504E0C40502E0C5050AE188
:1069F000C4C071F0C5C072F00001C351EFEC45F0A6
:106A0000000E12000001C20530E1BC052EE10101BB
:106A1000405129E17B510FE0550E0001716F010ECD
:106A2000726F680E736F010E746F7BC175F0FDECB1
:106A300049F010D000D0010E0001ED650AD075ECD0
:106A400063F0660E0001876F1C0E886F18EC24F04F
:106A500000D0010E0001C06F00D00001C00503E1AD
:106A600006EC48F000D0000E12000001C20529E13A
:106A7000BD0527E1680E716F010E726F746B73694B
:106A80007BC175F0766B25EC65F0550E0001716FDA
:106A9000010E726F680E736F010E746F7BC175F01B
:106AA000ADEC57F00001BF6F0001BF0508E1BBC0AE
:106AB00040F1010E0101416F6FEC4DF000D0000E6E
:106AC0001200240C1200B7C0C2F0B8C0C3F0B9C0A5
:106AD000BDF0BAC0BEF00001BF6B000120EE01F0B6
:106AE000C251D926C351DA22DF50BB6FFF0EBB253E
:106AF000C06FC16BFF0EC12311D1310E0001716F48
:106B0000020E726F040EC225BB6F000EC321BC6F54
:106B1000BBC073F0BCC074F073517411D8A4200EC4
:106B2000756F776B0F0E766F02EC60F00F0E000141
:106B3000C019C11120E1E88725D1200E0001716F35
:106B4000020E726F040EC225BB6F000EC321BC6F14
:106B5000BBC073F0BCC074F073517411D8A4200E84
:106B6000756F776B110E766F02EC60F0110E0001FD
:106B7000C019C11102E0240E25D00001E88502D120
:106B800000D01D0E1FD0400E0001716F020E726FFB
:106B9000040EC225BB6F000EC321BC6FBBC073F0D7
:106BA000BCC074F073517411D8A4200E756F776B4C
:106BB000060E766F02EC60F0060E0001C019C111DE
:106BC00004E0D9D70001BF6FDDD00001E889DAD039
:106BD000460E0001716F020E726F040EC225BB6F6C
:106BE000000EC321BC6FBBC073F0BCC074F0735106
:106BF0007411D8A4200E756F776B050E766F02ECBA
:106C000060F0050E0001C019C111B5E1E88BBAD0E2
:106C10004B0E0001716F020E726F040EC225BB6F26
:106C2000000EC321BC6FBBC073F0BCC074F07351C5
:106C30007411D8A4200E756F776B200E766F02EC5E
:106C400060F0200E0001C019C11195E1E88D9AD0C5
:106C50006B0E0001716F020E726F040EC225BB6FC6
:106C6000000EC321BC6FBBC073F0BCC074F0735185
:106C70007411D8A4200E756F776B200E766F02EC1E
:106C800060F0200E0001C019C11101E074D7E88F37
:106C900079D08B0E0001716F020E726F040EC22547
:106CA000BB6F000EC321BC6FBBC073F0BCC074F0DF
:106CB00073517411D8A4200E756F776B020E766F26
:106CC00002EC60F0020E0001C019C11101E053D7BF
:106CD000E98158D08D0E0001716F020E726F040EA3
:106CE000C225BB6F000EC321BC6FBBC073F0BCC01C
:106CF00074F073517411D8A4200E756F776B020E67
:106D0000766F02EC60F0020E0001C019C11101E0C3
:106D100032D7E98337D01F0E55D734D0000120EE8B
:106D200003F0C251D926C351DA22DF50010A01E132
:106D3000E4D6030A01E101D7010A01E122D7070ADB
:106D400001E11FD7010A01E11CD7030A01E119D7AC
:106D5000010A01E116D70F0A01E113D7010A01E187
:106D600010D7280A01E10FD7030A01E131D7010A40
:106D700001E14ED7070A01E16BD7010A8AE0030A55
:106D8000A9E0C9D7BDC0D9FFBEC0DAFF0E0EDF6EC5
:106D90000001C16B010EC06F000120EE01F0BD517A
:106DA000D926BE51DA22C0C0DFFF000120EE02F07A
:106DB000BD51D926BE51DA22C151DF6E0001BF514B
:106DC00009E0B9C0B2F0BAC0B3F0BFC0B4F0E4ECAF
:106DD0005DF00AD0000120EE03F0BD51D926BE516E
:106DE000DA22000EDF6E00D0010E0001ED65000C0E
:106DF00075EC63F0810E0001876F140E886F20EE32
:106E000003F0C251D926C351DA22DF50E8EC4CF02E
:106E100020EE89F071C0DEFF72C0DEFFDD6A000186
:106E200020EE03F0BD51D926BE51DA22DF50BB6FF0
:106E3000BB518C6F8D6B18EC24F0000C000C120011
:106E400011C015F012C016F013C017F014C018F0DE
:106E500000D00001ED510AE075EC63F02B0E00014B
:106E6000876F180E886F18EC24F000D00201A35130
:106E7000AD5DAE51800A0001BB6F0201A451800AD2
:106E80000001BB5905E3ADC21CF0AEC21DF005D038
:106E9000A3C21CF0A4C21DF000D0000E0101336F8C
:106EA000326F010E296E0201B05104E0B06B000197
:106EB000EA8900D0A5C279F0A6C27AF0A7C27BF019
:106EC000A8C27CF05AEC5EF079C086F07AC087F0F8
:106ED0007BC088F022EEA3F0DECFBBF0DDCFBCF0AC
:106EE0000001BB1FBC1FBB4BBC2B1C50BB25796FCB
:106EF0001D50BC217A6F22EC64F079C083F07AC017
:106F000084F07BC085F076EC4EF083C091F084C0B5
:106F100092F085C093F022EEA3F0DECFBDF0DDCF7E
:106F2000BEF00001BD1FBE1FBD4BBE2B0201A15113
:106F30000001BD25796F0201A2510001BE217A6FC7
:106F400022EC64F079C094F07AC095F07BC096F0A2
:106F5000F5EC4FF0000193AF64D0A36BA46BBF0EB0
:106F6000A56F22EEA3F0DECFBBF0DDCFBCF0BB1FE0
:106F7000BC1FBB4BBC2B0201A1510001BB25796F8B
:106F80000201A2510001BC217A6F22EC64F079C0A9
:106F900094F07AC095F07BC096F0A5C279F0A6C2B5
:106FA0007AF0A7C27BF0A8C27CF05AEC5EF079C000
:106FB00086F07AC087F07BC088F022EEA3F0DECFA7
:106FC000BDF0DDCFBEF00001BD1FBE1FBD4BBE2B0F
:106FD0001C50BD25796F1D50BE217A6F22EC64F0E4
:106FE00079C083F07AC084F07BC085F076EC4EF0F7
:106FF00083C091F084C092F085C093F0F5EC4FF01F
:1070000091C0A0F092C0A1F093C0A2F01FEC42F09A
:10701000A0C0ACF0A1C0ADF0A2C0AEF0F8EC4EF054
:1070200064D00001A36BA46B3F0EA56F22EEA3F00A
:10703000DECFBBF0DDCFBCF0BB1FBC1FBB4BBC2BFE
:107040000201A1510001BB25796F0201A25100018B
:10705000BC217A6F22EC64F079C094F07AC095F08C
:107060007BC096F0A5C279F0A6C27AF0A7C27BF0E9
:10707000A8C27CF05AEC5EF079C086F07AC087F046
:107080007BC088F022EEA3F0DECFBDF0DDCFBEF0F6
:107090000001BD1FBE1FBD4BBE2B1C50BD25796F0F
:1070A0001D50BE217A6F22EC64F079C083F07AC063
:1070B00084F07BC085F076EC4EF083C091F084C004
:1070C00092F085C093F0F5EC4FF091C0A0F092C023
:1070D000A1F093C0A2F01FEC42F0A0C0ACF0A1C0A0
:1070E000ADF0A2C0AEF0F8EC4EF0ACC011F0ADC007
:1070F00012F0AEC013F0AFC014F000D001010A517D
:10710000115E0B51125A0C51135A0D51145A15C0DD
:10711000BBF016C0BCF017C0BDF018C0BEF0000137
:10712000BB1FBC1FBD1FBE1FBB2B000EBC23BD233E
:10713000BE231150BB25096E1250BC210A6E13509C
:10714000BD210B6E1450BE210C6E00D00001ED511C
:10715000D8B4120075EC63F0090E0001876F0A0EB7
:10716000886F1CC089F01DC08AF011C08BF012C05E
:107170008CF013C08DF014C08EF015C08FF016C0C7
:1071800090F017C091F018C092F009C093F00AC0B7
:1071900094F00BC095F00CC096F018EC24F012009F
:1071A00012000001BE6F0001BC6B800EBF6F030EAA
:1071B000C06F47D154D1BDEC63F000D0010E000187
:1071C000ED650AD075EC63F08F0E0001876F170E26
:1071D000886F18EC24F000D0030E30D10301D405E1
:1071E00001E13DD102D03BD100D001018051000826
:1071F00082250001BD6F010E0001ED650DD075EC1B
:1072000063F0EC0E0001876F1D0E886FBDC089F022
:107210008A6B18EC24F000D0400E0001BD6101D053
:10722000BDD0800E00017D6F010E7E6F800E7F6FDE
:10723000030E806F400E816F7CEC3CF04E0472E1D7
:10724000BFC071F0C0C072F08A0E0001736F1F0ED4
:10725000746F766B050E756FD2EC59F000017151A9
:10726000721111E075EC63F0EE0E0001876F1E0ED7
:10727000886F18EC24F01AD019D00001BE6B1AD018
:10728000220E106E8BD0000120EE05F0BF51D926E2
:10729000C051DA22DE0412E075EC63F00C0E00013E
:1072A000876F1E0E886F18EC24F000D0010E0101CC
:1072B0003B6FE3D7010E0E6EE3D700D0010E000145
:1072C000ED6530D075EC63F0040E0001876F0B0E96
:1072D000886F0C0EBF25BA6F000EC021BB6F20EE69
:1072E00089F0BAC0DEFFBBC0DEFF200EDF6E20EEED
:1072F00006F0BF51D926C051DA22DECF8CF0DECFA6
:107300008DF0DECF8EF0DECF8FF020EE3EF0BF515D
:10731000D926C051DA22DECF90F0DDCF91F018EC03
:1073200024F000D00101215120112AE1FC0E1F5D43
:10733000D8B026D01AC1B2F01BC1B3F01CC1B4F052
:107340001DC1B5F0800E0001B66F030EB76FE0EC03
:1073500053F04E040DE1000120EE3EF0BF51D9265E
:10736000C051DA22DECF2EF1DDCF2FF14E6A00D0F0
:10737000400E01011A27000E1B231C231D2306D0DB
:10738000010E01013B6F040E0001BE6F010E0001F2
:10739000BC6F400E0001BD6128D700D00001BC05C4
:1073A0005EE1010E0E6E000E106EBC6F58D000D064
:1073B000010E0001ED650AD075EC63F0910E00013D
:1073C000876F180E886F18EC24F000D05A0E010158
:1073D0002E1908E15A0E2F19D8A404D0010E236EDD
:1073E0002CD000D075EC63F0590E0001876F190E98
:1073F000886F18EC24F000D0040E20D030D000D0DC
:10740000010E0001ED650AD075EC63F0D20E0001AB
:10741000876F0C0E886F18EC24F000D00001B26B5F
:10742000040EB36F010EB46FB56BB669FB0EB76F88
:10743000010EB86FB96BCBEC5BF0000E0001BE6FB4
:107440000ED00001BE510BE0010A01E1B4D6030ADF
:10745000AFE0010A01E1C2D6070AD2E000D0000184
:10746000BE5112001200000120EE02F07D51D9261B
:107470007E51DA22DF50826F7DC0D9FF7EC0DAFFF5
:10748000DF5000088225886F00018151D8B41200B6
:10749000815188C082F0836B8227000E832320EE07
:1074A00004F07D51D9267E51DA228251DE5C83516F
:1074B000DE58D8A0120001D0120000018151826F65
:1074C000836B20EE04F07D51D9267E51DA22DECF87
:1074D00084F0DDCF85F020EE02F07D51D9267E517B
:1074E000DA22DECF86F0DDCF87F0861F871F864B3E
:1074F000872B84518627855187238251865D83514E
:10750000875952E320EE02F07D51D9267E51DA22CE
:10751000DECF82F0DDCF83F020EE06F07D51D9265C
:107520007E51DA22DECF84F0DDCF85F082518425D2
:10753000716F83518521726F7FC073F080C074F0CA
:1075400073517411D8A4200E756F81C076F0776BDB
:1075500002EC60F0000120EE02F07D51D9267E5150
:10756000DA228151DE26000EDD22000120EE04F039
:107570007D51D9267E51DA2210EE02F07D51E126AE
:107580007E51E222DE50E61803E1DE50E618D8A470
:107590001200000120EE02F07D51D9267E51DA2240
:1075A000000EDE6EDD6E1200000120EE04F07D5153
:1075B000D9267E51DA22DECF82F0DDCF83F020EEB5
:1075C00002F07D51D9267E51DA22DECF84F0DDCF64
:1075D00085F0841F851F844B852B825184258B6FFA
:1075E000835185218C6F000120EE02F07D51D92658
:1075F0007E51DA22DECF82F0DDCF83F020EE06F07E
:107600007D51D9267E51DA22DECF84F0DDCF85F0A0
:1076100082518425716F83518521726F7FC073F011
:1076200080C074F073517411D8A4200E756F8BC094
:1076300076F08CC077F002EC60F08BC082F08CC0EA
:1076400083F00001821F831F824B832B815182258F
:10765000896F000E83218A6F000120EE06F07D51B4
:10766000D9267E51DA22DECF71F0DDCF72F08B5158
:107670007F25826F8C518021836F82C073F083C01D
:1076800074F073517411D8A4200E756F89C076F010
:107690008AC077F002EC60F0000120EE02F07D512C
:1076A000D9267E51DA2289C0DEFF8AC0DDFF1200B2
:1076B00012000001966B976B986B996B896B8A6BC4
:1076C0008B6B8C6B8D6B8E6B8F6B906B020E0001D6
:1076D0007F259D6F000E80219E6F9DC0D9FF9EC0AB
:1076E000DAFFDF500001916F00019D4B9E2B9DC082
:1076F000D9FF9EC0DAFFDF500001926F00019D4B61
:107700009E2B9DC0D9FF9EC0DAFFDF5000019A6F0B
:1077100000019D4B9E2B490E00019A65DBD0240E83
:107720001200D8D09DC0D9FF9EC0DAFFDF50000103
:10773000956F00019D4B9E2B9DC0D9FF9EC0DAFF27
:10774000DF5000019C6F9D4B9E2BACD0040E0001BE
:107750009C1902E0240E120000019B6B35D0000141
:107760009B5100089C25826FD8908237D890823731
:10777000D8908237F80E82279B51010DF3509D253A
:10778000D96EF4509E21DA6EDF50836F846B822BAA
:1077900004D0D8900001833784370001822FF9D7B5
:1077A00083C085F084C086F0000E86BFFF0E876F11
:1077B000886F8551891386518A1387518B1388519D
:1077C0008C1300019B2B00D000019C519B5DC7E3F3
:1077D000010E0001966F72D0040E00019C1902E0A8
:1077E000240E120000019B6B35D000019B51000854
:1077F0009C25826FD8908237D8908237D890823774
:10780000F80E82279B51010DF3509D25D96EF4503F
:107810009E21DA6EDF50836F846B822B04D0D89068
:107820000001833784370001822FF9D783C085F0A8
:1078300084C086F0000E86BFFF0E876F886F85516B
:107840008D1386518E1387518F1388519013000129
:107850009B2B00D000019C519B5DC7E3010E0001F2
:10786000976F2CD000019C0502E0240E12009DC0F1
:10787000D9FF9EC0DAFFDF500001936F010E0001B7
:10788000986F1CD000019C0502E0240E12009DC0E0
:10789000D9FF9EC0DAFFDF500001946F010E000196
:1078A000996F0CD000019551050A01E14FD7030AE9
:1078B00093E0010AD7E00F0AE5E000D000019C51F7
:1078C000010DF3509D27F4509E2300019C51020F9F
:1078D0009A5F00D000019A5101E024D7000196057B
:1078E00009E1970507E1980505E1990503E183ECB6
:1078F0003EF0240C240C1200000120EE02F07D5119
:10790000D9267E51DA22DF50826F7DC0D9FF7EC03A
:10791000DAFFDF5000088225886F00018151D8B45A
:1079200012008151885DD8A0120001D01200000120
:107930008151826F836B20EE04F07D51D9267E51F8
:10794000DA22DECF84F0DDCF85F07DC0D9FF7EC0A6
:10795000DAFFDECF86F0DDCF87F0861F871F864BEC
:10796000872B84518627855187238251865D8351D9
:1079700087594DE37FC071F080C072F07DC0D9FFA0
:107980007EC0DAFFDECF82F0DDCF83F020EE06F09E
:107990007D51D9267E51DA22DECF84F0DDCF85F00D
:1079A00082518425866F83518521876F86C073F04D
:1079B00087C074F073517411D8A4200E756F81C004
:1079C00076F0776B02EC60F0000181517DC0D9FF49
:1079D0007EC0DAFFDE26000EDD22000120EE04F07C
:1079E0007D51D9267E51DA227DC0E1FF7EC0E2FFC3
:1079F000DE50E61803E1DE50E618D8A412007DC080
:107A0000D9FF7EC0DAFF000EDE6EDD6E12000001CF
:107A100020EE04F07D51D9267E51DA22DECF82F0AD
:107A2000DDCF83F07DC0D9FF7EC0DAFFDECF84F0EA
:107A3000DDCF85F0841F851F844B852B82518425E3
:107A40008B6F835185218C6F7FC071F080C072F085
:107A50007DC0D9FF7EC0DAFFDECF82F0DDCF83F0BC
:107A6000000120EE06F07D51D9267E51DA22DECFCC
:107A700084F0DDCF85F082518425866F8351852186
:107A8000876F86C073F087C074F073517411D8A4E7
:107A9000200E756F8BC076F08CC077F002EC60F032
:107AA0008BC082F08CC083F00001821F831F824B49
:107AB000832B81518225896F000E83218A6F0001FB
:107AC0008B517F25716F8C518021726F20EE06F0F3
:107AD0007D51D9267E51DA22DECF82F0DDCF83F0D0
:107AE00082C073F083C074F073517411D8A4200E57
:107AF000756F89C076F08AC077F002EC60F07DC0C7
:107B0000D9FF7EC0DAFF89C0DEFF8AC0DDFF120028
:107B10001200000E0001CE6F040ECF6F020E0101A5
:107B2000411902E0320E1200000120EE01F0CA51AC
:107B3000D926CB51DA22DF50F7EC66F00001CD6F89
:107B40000001CD5101017D1901E0AAD098EC60F04F
:107B5000E80634E1000120EE03F0CE51D926CF51E2
:107B6000DA2210C0DFFF070E9CEC5FF071C019F045
:107B700072C01AF073C01BF019501A101B1002E1EA
:107B8000260E1200000E0001B76FB86FCEC0B9F01C
:107B9000CFC0BAF001D80AD00500FA6E1950FD6EB8
:107BA0001A50FE6E1B50FF6EFA501200CEC07DF0D0
:107BB000CFC07EF02FEC52F0000E12000E500EE1FE
:107BC0000D0409E1320E0F1803E0410E0F1803E116
:107BD000C9EC60F0000C67EC60F0000C0D501AE18D
:107BE000320E0F1805E0410E0F1802E013D000D03E
:107BF000010E0001ED650AD075EC63F0BC0E0001CA
:107C0000876F140E886F18EC24F000D067EC60F0DA
:107C1000000C00D0010E0001ED650AD075EC63F098
:107C2000C40E0001876F120E886F18EC24F000D08C
:107C30000D6A0E6A000120EE03F0CE51D926CF5115
:107C4000DA2210C0DFFF0F509CEC5FF071C019F01A
:107C500072C01AF073C01BF019501A101B1004E107
:107C600067EC60F0260E1200000E0001B76FB86FCF
:107C7000CEC0B9F0CFC0BAF001D80AD00500FA6E74
:107C80001950FD6E1A50FE6E1B50FF6EFA50120016
:107C9000CEC07DF0CFC07EF02FEC52F0000C00D0B3
:107CA000010E0001ED6518D075EC63F0790E00014E
:107CB000876F0B0E886FCDC089F08A6B7DC18BF00A
:107CC0008C6BAA0E8D6F0D0E8E6F8D11D8A4000EC9
:107CD0008F6F18EC24F000D026C0ECF0000E0001ED
:107CE000716F030E726F000E736F050E746F731158
:107CF000D8A4200E756FECC076F0776B02EC60F0C4
:107D0000000C000C1200000E0001736F030E746F64
:107D1000500E0001756F020E766F776B786B500E08
:107D20000001796F020E7A6F7B6B7C6B7325716F2C
:107D3000000E7421726F71C07DF072C07EF073C04E
:107D4000D9FF74C0DAFF40C1DFFF000120EE01F06F
:107D50007351D9267451DA22BF0EDF6E7DC0D9FF70
:107D60007EC0DAFF810EDF6E00017D4B7E2B7DC071
:107D7000D9FF7EC0DAFF800EDF6E00017D4B7E2BC7
:107D80007DC0D9FF7EC0DAFF120EDF6E00017D4B91
:107D90007E2B7DC0D9FF7EC0DAFF050EDF6E0001AD
:107DA0007D4B7E2B7DC0D9FF7EC0DAFF040EDF6ED7
:107DB00000017D4B7E2B7DC0D9FF7EC0DAFF78C0ED
:107DC000DFFF00017D4B7E2B7DC0D9FF7EC0DAFF37
:107DD00077C0DFFF00017D4B7E2B7DC0D9FF7EC0C9
:107DE000DAFF76C0DFFF00017D4B7E2B7DC0D9FF1F
:107DF0007EC0DAFF75C0DFFF00017D4B7E2B7DC0AA
:107E0000D9FF7EC0DAFF060EDF6E00017D4B7E2BB0
:107E10007DC0D9FF7EC0DAFF040EDF6E00017D4B0E
:107E20007E2B7DC0D9FF7EC0DAFF7CC0DFFF000162
:107E30007D4B7E2B7DC0D9FF7EC0DAFF7BC0DFFF8C
:107E400000017D4B7E2B7DC0D9FF7EC0DAFF7AC05A
:107E5000DFFF00017D4B7E2B7DC0D9FF7EC0DAFFA6
:107E600079C0DFFF00017D4B7E2B7DC0D9FF7EC036
:107E7000DAFF070EDF6E00017D4B7E2B7DC0D9FF40
:107E80007EC0DAFF010EDF6E00017D4B7E2B7DC0D0
:107E9000D9FF7EC0DAFF010EDF6E00017D4B7E2B25
:107EA0007DC0D9FF7EC0DAFF080EDF6E00017D4B7A
:107EB0007E2B7DC0D9FF7EC0DAFF010EDF6E000190
:107EC0007D4B7E2B7DC0D9FF7EC0DAFF010EDF6EB9
:107ED00000017D4B7E2B0001715100087D25020FB2
:107EE000EC6F12001200B7C0BCF0B8C0BDF0B9C052
:107EF000C0F0BAC0C1F0C0C0D9FFC1C0DAFF050EE2
:107F0000DF6E0001BF6B430EBE6F000120EE01F07B
:107F1000C051D926C151DA22BEC0DFFF000120EED8
:107F200002F0C051D926C151DA22BF51DF6E0001E3
:107F300020EE01F0B751D926B851DA22DF500AE01D
:107F4000B9C0B2F0BAC0B3F0240EB46FE4EC5DF087
:107F5000000E1200000120EE04F0C051D926C151DC
:107F6000DA220F0EDF6E050E0001C025716F000EC4
:107F7000C121726F110E736F020E746F7311D8A44A
:107F8000200E756F20EE04F0C051D926C151DA22BF
:107F9000DF50BB6FBB51766F776B02EC60F0000176
:107FA00020EE14F0C051D926C151DA22110EDF6E35
:107FB000150EC025716F000EC121726F000E736F18
:107FC000020E746F7311D8A4200E756F20EE14F09A
:107FD000C051D926C151DA22DF50BB6FBB51766F39
:107FE000776B02EC60F0000120EE26F0C051D9263C
:107FF000C151DA220F0EDF6E270E0001C025716F0E
:10800000000EC121726FB10E736F020E746F731187
:10801000D8A4200E756F20EE26F0C051D926C1518C
:10802000DA22DF50BB6FBB51766F776B02EC60F0EA
:10803000000120EE36F0C051D926C151DA220F0ED0
:10804000DF6E370E0001C025716F000EC121726F07
:10805000F00E736F080E746F756B20EE36F0C05122
:10806000D926C151DA22DF50BB6FBB51766F776BD7
:1080700002EC60F0000120EE03F0C051D926C1519E
:10808000DA22000EDF6E00D0010E0001ED65000C5B
:1080900075EC63F08E0E0001876F1B0E886F20EE6B
:1080A00003F0C051D926C151DA22DF50BB6FBB515A
:1080B000896F8A6B18EC24F0000C000C1200020E81
:1080C0000001CA25D36F000ECB21D46F000ECF6FF5
:1080D000040ED06FCC51FB0FCE6F020E010141197F
:1080E00002E0320E1200000120EE01F0CA51D92642
:1080F000CB51DA22DF50F7EC66F00001D16F20EEB1
:1081000001F0CA51D926CB51DA22DF50EFEC66F0EC
:108110000001D26F0001D25101017C192BE0010E48
:108120000001ED6518D075EC63F0400E0001876F1B
:108130000B0E886FD2C089F08A6B7CC18BF08C6B80
:10814000800E8D6F0D0E8E6F8D11D8A4000E8F6F67
:1081500018EC24F000D00001D22BD251070BD26FC3
:108160000001D25101017C1905E1C9EC60F0000E5B
:10817000120000D00001D15101017D1932E0010E41
:108180000001ED6518D075EC63F0790E0001876F82
:108190000B0E886FD1C089F08A6B7DC18BF08C6B20
:1081A000AA0E8D6F0D0E8E6F8D11D8A4000E8F6FDD
:1081B00018EC24F000D026C0ECF0000E0001716F26
:1081C000030E726F000E736F050E746F7311D8A4D7
:1081D000200E756FECC076F0776B02EC60F0000E4D
:1081E000120001017C2B7C51070B7C6F000120EEFB
:1081F00002F0D351D926D451DA22DF5009E120EE22
:1082000001F0D351D926D451DA22CE51DE1802E042
:10821000240E1200D3C0D9FFD4C0DAFFDF509CEC8B
:108220005FF071C019F072C01AF073C01BF01950E2
:108230001A101B1002E1260E1200D3C0B7F0D4C0F2
:10824000B8F0CFC0B9F0D0C0BAF001D80AD005005C
:10825000FA6E1950FD6E1A50FE6E1B50FF6EFA50EA
:108260001200330A07E0CFC07DF0D0C07EF02FECC3
:1082700052F0000CD3C0D9FFD4C0DAFFDF500F6E2C
:10828000010E0D6EC9EC60F0000C000C1200B7C0BE
:10829000C4F0B8C0C5F0B9C0C8F0BAC0C9F0000198
:1082A000C06B000120EE03F0C451D926C551DA227B
:1082B000DE50DE1011E120EE05F0C451D926C55183
:1082C000DA22470EDF6008D020EE05F0C451D9262F
:1082D000C551DA22DF5002E1130E3AD00001C36B20
:1082E000010EC26FC8C0D9FFC9C0DAFF110EDF6E20
:1082F000000120EE01F0C851D926C951DA22C2C0CE
:10830000DFFF000120EE02F0C851D926C951DA2260
:10831000C351DF6E000120EE01F0B751D926B851EC
:10832000DA22DF50BB6FBC6B20EE05F0C451D926BA
:10833000C551DA22DF50BD6FBE6B030EBD27000EA4
:10834000BE23BB51BD1903E1BC51BE1904E0240E8C
:108350000001C06F2ED0010E0001C76F090EC66F5D
:10836000BF6BC16B1AD00001C151C625736F000EDF
:10837000C721746FC151010D060EF326000EF422C1
:10838000F350C425D96EF450C521DA6EDF50756FF5
:108390000CEC65F00001C12B00D0000120EE05F0CF
:1083A000C451D926C551DA22DE50C15D02E2DBD7C5
:1083B00000D0C8C0D9FFC9C0DAFF110EDF6E0001BE
:1083C000C36B010EC26F000120EE01F0C851D92627
:1083D000C951DA22C2C0DFFF000120EE02F0C8510D
:1083E000D926C951DA22C351DF6E0001C05109E01C
:1083F000B9C0B2F0BAC0B3F0C0C0B4F0E4EC5DF004
:108400000AD0000120EE03F0C851D926C951DA2262
:10841000000EDF6E00D0010E0001ED65000C75EC62
:1084200063F0EE0E0001876F160E886F000E8A6FE4
:10843000250E896F18EC24F0000C000C1200A2C06D
:10844000A6F00001A76BA86BA135A63701E3A781B1
:108450000001A651AB6FA5C0A6F0A76BA86BA43511
:10846000A63701E3A7810001A651AA6F0001AB5115
:108470000AE0AA51AB5D0EE2AB510008AA25A66F37
:10848000180EA66507D0A3C0A0F0A4C0A1F0A5C097
:10849000A2F012000001AA510AE0AB51AA5D0EE25F
:1084A000AA510008AB25A66F180EA66507D0A0C07C
:1084B000A0F0A1C0A1F0A2C0A2F01200060E00011F
:1084C000A96F0001A2BFA98F00D00001A5BFA98D8F
:1084D000A18F0001A26BA48F0001A56B0001AA511E
:1084E000AB5D1FE20001D890A337A437A537AA07D8
:1084F0000001AB51AA190FE0A907A9C0A6F0070E09
:10850000A61709E0EFD707D00001D890A233A13316
:10851000A033AB2B00D00001AA51AB1925E0F4D752
:1085200023D00001AB51AA5D1FE20001D890A03713
:10853000A137A237AB070001AB51AA190FE0A90779
:10854000A9C0A6F0070EA61709E0EFD707D00001D3
:10855000D890A533A433A333AA2B00D00001AA518D
:10856000AB1902E0F4D700D00001A9AF07D0A01FDB
:10857000A11FA21FA02B000EA123A2230001A9ADC1
:1085800008D0A31FA41FA51FA32B000EA423A5235F
:1085900000D00001A96B0001A051A327A151A42381
:1085A000A251A5230001A5AF0BD0A31FA41FA51F97
:1085B000A32B000EA423A523010E0001A96F00D058
:1085C000A3C071F0A4C072F0A5C073F0ABC074F08A
:1085D000A9C075F0C1EC58F071C0A0F072C0A1F054
:1085E00073C0A2F012001200B7C0C0F0B8C0C1F052
:1085F000B9C0C6F0BAC0C7F00001BE6B0001C36BC2
:10860000010EC26FC6C0D9FFC7C0DAFF100EDF6E01
:10861000000120EE01F0C651D926C751DA22C2C0AE
:10862000DFFF000120EE02F0C651D926C751DA2241
:10863000C351DF6E000120EE01F0B751D926B851C9
:10864000DA22030EDE1802E0240E1CD0000120EE18
:1086500003F0C051D926C151DA22DE50DE1011E1FB
:1086600020EE05F0C051D926C151DA22470EDF6055
:1086700008D020EE05F0C051D926C151DA22DF50D2
:1086800004E1130E0001BE6F00D0010E0001C56FA2
:10869000090EC46FBD6B000120EE05F0C051D92654
:1086A000C151DA22DF50BB6FBB51C26FC36B0001F7
:1086B000BF6B19D00001BF51010D040EF326000E4F
:1086C000F422F350C625D96EF450C721DA6EBF519B
:1086D000C425736F000EC521746FBFEC64F0DF6EAC
:1086E0000001BF2B00D00001BF51BB6FBC6BC2515A
:1086F000BB5DC351BC59DEE30001C24BC32BC6C0F6
:10870000D9FFC7C0DAFF100EDF6E000120EE01F0C6
:10871000C651D926C751DA22C2C0DFFF20EE02F0CF
:10872000C651D926C751DA22C351DF6E0001BE51AE
:1087300009E0B9C0B2F0BAC0B3F0BEC0B4F0E4EC26
:108740005DF00AD0000120EE4AF0C651D926C7518B
:10875000DA22000EDF6E00D0010E0001ED65000C84
:1087600075EC63F0A90E0001876F170E886F000E7D
:108770008A6F250E896F18EC24F0000C000C120093
:10878000B7C0BCF0B8C0BDF0B9C0C0F0BAC0C1F04D
:10879000C0C0D9FFC1C0DAFF330EDF6E0001BF6B6E
:1087A000010EBE6F000120EE01F0C051D926C1516B
:1087B000DA22BEC0DFFF000120EE02F0C051D92650
:1087C000C151DA22BF51DF6E0001B751B8116BE021
:1087D00020EE01F0B751D926B851DA22020EDE1888
:1087E0000AE0B9C0B2F0BAC0B3F0240EB46FE4EC42
:1087F0005DF0000E1200000120EE03F0BC51D926FE
:10880000BD51DA22DECF72F0DDCF73F0ECEC5CF01C
:108810000001C26F00D0010E0001ED650DD075ECB6
:1088200063F0B60E0001876F1B0E886FC2C089F01F
:108830008A6B18EC24F000D00001C25118E0330E0E
:10884000C2190AE120EE03F0C051D926C151DA2243
:10885000000EDF6E330E1200B9C0B2F0BAC0B3F032
:10886000C2C0B4F0E4EC5DF0000E120000D0010EC6
:108870000001ED650DD075EC63F0450E0001876FCA
:10888000140E886FC2C089F08A6B18EC24F000D0F7
:10889000000120EE03F0C051D926C151DA22000EAA
:1088A000DF6E000E1200000120EE03F0C051D92649
:1088B000C151DA22DF50C26F00D0010E0001ED6518
:1088C0000DD075EC63F0AA0E0001876F180E886F4B
:1088D000C2C089F08A6B18EC24F000D00001C251AC
:1088E00009E0B9C0B2F0BAC0B3F0C2C0B4F0E4EC71
:1088F0005DF000D0000E12001200B7C0BFF0B8C08B
:10890000C0F0B9C0C1F0BAC0C2F0000120EE01F061
:10891000B751D926B851DA222F0EDE1818E0776B3E
:10892000766B796B7869DFEC63F000D0010E0001A3
:10893000ED650AD075EC63F0A30E0001876F0E0E93
:10894000886F18EC24F000D0FF00000E1200000E1B
:108950000001716F020E726F030EBF25BB6F000E18
:10896000C021BC6FBBC073F0BCC074F073517411F4
:10897000D8A4200E756F776B110E766F02EC60F045
:10898000110E0001716F020E726F140EBF25BB6FC6
:10899000000EC021BC6FBBC073F0BCC074F073513B
:1089A0007411D8A4200E756F776B0F0E766F02ECE2
:1089B00060F0B10E0001716F020E726F230EBF25C1
:1089C000BB6F000EC021BC6FBBC073F0BCC074F0A5
:1089D00073517411D8A4200E756F776B0F0E766FDC
:1089E00002EC60F00001E8810001E8830001EA8BFD
:1089F000C1C0D9FFC2C0DAFF900EDF6E0001BE6BAE
:108A0000010EBD6F000120EE01F0C151D926C25107
:108A1000DA22BDC0DFFF000120EE02F0C151D926ED
:108A2000C251DA22BE51DF6E000120EE03F0C151C7
:108A3000D926C251DA22000EDF6E00D0010E0001ED
:108A4000ED65000C75EC63F0090E0001876F170EE1
:108A5000886F20EE03F0C151D926C251DA22DF50CF
:108A6000BB6FBB51896F8A6B18EC24F0000C000CB3
:108A700012000001B36FA8D004002A500001ED19C4
:108A800041E0ED2BEDC071F0726B746B030E736FF0
:108A900060EC5CF000017151B26F2AD000D000018F
:108AA000ED512DE075EC63F0080E0001876F1F0E8D
:108AB000886F18EC24F023D000D00001ED511FE0A6
:108AC00075EC63F0FB0E0001876F1E0E886F18ECCB
:108AD00024F015D000D00001ED5111E075EC63F0E9
:108AE000150E0001876F1F0E886F18EC24F007D059
:108AF0000001ED51010AD3E0030ADFE0ECD7B2C078
:108B0000EDF000D00101264B272B26C171F027C1C3
:108B100072F00001746B640E736F60EC5CF0000126
:108B2000715172111CE1010E0001ED6518D075EC58
:108B300063F0400E0001876F190E886F06C189F03F
:108B400007C18AF008C18BF009C18CF018EC24F041
:108B50000101062B000E07230823092300D0720E03
:108B60000101261914E1060E2719D8A410D0010E10
:108B70000001B36F0001ED510AE075EC63F0E80EFF
:108B80000001876F130E886F18EC24F000D00101EC
:108B90003E0504E1276B266B3E6B00D0230402E008
:108BA000270419E1010E0001B36F0001ED5113E03C
:108BB00075EC63F0020E0001876F180E886F18ECD9
:108BC00024F009D0FF0007D00001B35101E154D7D0
:108BD000010AF8E000D00001B351120012000001B8
:108BE000776F000E0001786F030E796F020E00019F
:108BF0007825756F000E7921766F75C07AF076C092
:108C00007BF078C0D9FF79C0DAFF40C1DFFF0001F7
:108C100020EE01F07851D9267951DA22BF0EDF6EAD
:108C20007AC0D9FF7BC0DAFF810EDF6E00017A4B7C
:108C30007B2B7AC0D9FF7BC0DAFFF00EDF6E00011C
:108C40007A4B7B2B00017251040DF3CF73F07151FD
:108C5000030DF3CF74F07751030DF3507425732592
:108C60007AC0D9FF7BC0DAFFDF6E00017A4B7B2B25
:108C7000000177051CE17AC0D9FF7BC0DAFF140E32
:108C8000DF6E00017A4B7B2B7AC0D9FF7BC0DAFF05
:108C9000010EDF6E00017A4B7B2B7AC0D9FF7BC0BF
:108CA000DAFF020EDF6E00017A4B7B2B00D0000151
:108CB00071051CE17AC0D9FF7BC0DAFF050EDF6EBB
:108CC00000017A4B7B2B7AC0D9FF7BC0DAFF010E03
:108CD000DF6E00017A4B7B2B7AC0D9FF7BC0DAFFB5
:108CE000070EDF6E00017A4B7B2B00D0000172056E
:108CF00024E17AC0D9FF7BC0DAFF150EDF6E0001D8
:108D00007A4B7B2B7AC0D9FF7BC0DAFF020EDF6E75
:108D100000017A4B7B2B7AC0D9FF7BC0DAFF010EB2
:108D2000DF6E00017A4B7B2B7AC0D9FF7BC0DAFF64
:108D3000DF6A00017A4B7B2B00D0000175510008DF
:108D40007A25020FEC6F1200120039EC67F0C00EAA
:108D5000C8EC66F0FC0EC8EC66F039EC67F0C10EAA
:108D6000C8EC66F0BF0E0001B26F000EB36F010ECB
:108D70007EEC5AF00001C26F0001C25103E134ECF5
:108D800067F01200C10E0001B26F000EB36F010E4A
:108D90007EEC5AF00001C26F0001C25103E134ECD5
:108DA00067F01200C00E0001B26F000EB36F010E2B
:108DB0007EEC5AF00001C26F0001C25103E134ECB5
:108DC00067F012000001C051C1C0BDF0BE6BBDC054
:108DD000BEF0BD6BBD13B9C0D9FFBAC0DAFFBDC0CC
:108DE000DEFFBEC0DDFFC10E0001B26F000EB36F2B
:108DF000010E7EEC5AF00001C26F0001C25103E186
:108E000034EC67F01200C00E0001B26F000EB36FB9
:108E1000010E7EEC5AF00001C26F0001C25103E165
:108E200034EC67F012000001C051C1C0BDF0BE6B50
:108E3000BDC0BEF0BD6BBD13BBC0D9FFBCC0DAFF67
:108E4000BDC0DEFFBEC0DDFFBF0E0001B26F000E71
:108E5000B36F010E7EEC5AF00001C26F0001C251E7
:108E600003E134EC67F01200BF0E0001B26F000E98
:108E7000B36F010E7EEC5AF00001C26F0001C251C7
:108E800003E134EC67F01200BF0E0001B26F000E78
:108E9000B36F000E7EEC5AF00001C26F0001C251A8
:108EA00003E134EC67F0120034EF67F01200B9C050
:108EB000C2F0BAC0C3F00001C16BC2C0D9FFC3C0C9
:108EC000DAFF070EDF6E2AEC67F00001BF6F25ECBA
:108ED00067F00001C06F0001BF5128E0C151020DD1
:108EE000030EF326000EF422F350C225D96EF4507F
:108EF000C321DA6EBFC0DFFFC151020D030EF3269E
:108F0000000EF422C2C0BBF0C3C0BCF0F350BB27BC
:108F1000F450BC23BB29D96E000EBC21DA6E000EC2
:108F2000DF6E0001C05102E0C12B00D00001C05132
:108F300024E0C151020D030EF326000EF422F3507B
:108F4000C225D96EF450C321DA6EC0C0DFFFC15113
:108F5000020D030EF326000EF422C2C0BBF0C3C004
:108F6000BCF0F350BB27F450BC23BB29D96E000ED4
:108F7000BC21DA6E010EDF6E00D00001C151BB6F63
:108F8000BC6BBB1FBC1FBB4BBC2BD890BB37BC37CB
:108F9000020EBB27000EBC23BB1FBC1FBB4BBC2B50
:108FA000040EBB25BD6F000EBC21BE6F000120EE7C
:108FB00001F0C251D926C351DA22BDC0DFFF000142
:108FC00020EE02F0C251D926C351DA22BE51DF6E23
:108FD00047EC67F000D0010E0001ED65000C75EC68
:108FE00063F0120E0001876F150E886F20EE03F0FC
:108FF000C251D926C351DA22DF50BB6FBB51896FF2
:109000008A6B18EC24F0000C000C1200000E00011A
:109010007F6F030E806F020E7F257D6F000E802113
:109020007E6F7DC081F07EC082F07FC0D9FF80C09E
:10903000DAFFDF6A000120EE01F07F51D92680516E
:10904000DA22BF0EDF6E81C0D9FF82C0DAFF810E47
:10905000DF6E0001814B822B81C0D9FF82C0DAFF15
:10906000F00EDF6E0001814B822B81C0D9FF82C0E0
:10907000DAFF1C0EDF6E0001814B822B81C0D9FF0D
:1090800082C0DAFF010EDF6E0001814B822B81C0AE
:10909000D9FF82C0DAFF130EDF6E0001814B822BF5
:1090A00081C071F082C072F0420E0001736F010E38
:1090B000746F7311D8A4200E756F776B130E766FD3
:1090C00002EC60F0130E00018127000E822381C0A4
:1090D000D9FF82C0DAFF060EDF6E0001814B822BC2
:1090E00081C0D9FF82C0DAFF020EDF6E0001814B22
:1090F000822B81C071F082C072F09B0E0001736FF1
:109100001F0E746F7311D8A4000E756F776B020E6B
:10911000766F02EC60F0020E00018127000E8223C0
:1091200081C0D9FF82C0DAFF040EDF6E0001814BDF
:10913000822B81C0D9FF82C0DAFF010EDF6E0001F1
:10914000814B822B81C0D9FF82C0DAFF010EDF6E16
:109150000001814B822B00017D5100088125020F07
:10916000EC6F12001200B7C0BEF0B8C0BFF0B9C0BB
:10917000C1F0BAC0C2F0C1C0D9FFC2C0DAFF410E0F
:10918000DF6E010E0001C06F000120EE01F0C15141
:10919000D926C251DA22C0C0DFFF000120EE02F062
:1091A000C151D926C251DA22DF6A0001B751B81184
:1091B0004DE020EE01F0BE51D926BF51DA22DF503A
:1091C000C06F030E0001BE25BC6F000EBF21BD6F36
:1091D000800E00017D6F010E7E6FBCC07FF0BDC0B0
:1091E00080F0C0C081F033EC3AF001013B5113E153
:1091F000000120EE03F0C151D926C251DA22000E3F
:10920000DF6E3F0E0001C06502D0330E1200000E6B
:109210000D6E000E1200000120EE03F0C151D926A0
:10922000C251DA22220EDF6E0D6AB9C0B2F0BAC0A6
:10923000B3F0000120EE03F0C151D926C251DA2269
:10924000DF50B46FE4EC5DF0000E1200000120EE80
:1092500003F0C151D926C251DA22DF500FE0B9C064
:10926000B2F0BAC0B3F020EE03F0C151D926C2511A
:10927000DA22DF50B46FE4EC5DF000D0010E0001A3
:10928000ED6515D075EC63F0C30E0001876F180E05
:10929000886F20EE03F0C151D926C251DA22DF5087
:1092A000BB6FBB51896F8A6B18EC24F000D0000EA5
:1092B000120012000001B96F39EC67F0C00EC8EC63
:1092C00066F0810EC8EC66F039EC67F0C10EC8ECB0
:1092D00066F00001BB6B070E0001BB6501D028D012
:1092E000070E0001BB610CD0BB51010D880EF324A9
:1092F000B26F010EF420B36F010E7EEC5AF00CD069
:109300000001BB51010D880EF324B26F010EF42051
:10931000B36F000E7EEC5AF00001BA6F00D000016E
:10932000BA5103E134EC67F012000001BB2BD3D734
:1093300034EC67F00001B905D8B4120001D0120076
:1093400001018CAB8DB705D08DA58DB102D027D092
:1093500000D00001ED510AE075EC63F05F0E0001F2
:10936000876F180E886F18EC24F000D00101008977
:1093700000D00001ED51D8B4120075EC63F03C0E42
:109380000001876F1E0E886F8A0E896F1A0E8A6F12
:109390008911D8A4000E8B6F18EC24F01200010183
:1093A0008CAF8CB903D08CA7120000D00001ED5116
:1093B0000AE075EC63F0780E0001876F180E886F75
:1093C00018EC24F000D00101008B00D00001ED5119
:1093D000D8B4120075EC63F03C0E0001876F1E0ECE
:1093E000886FA10E896F1A0E8A6F8911D8A4000E9A
:1093F0008B6F18EC24F012001200010E00017D6F3B
:10940000010E0001756504D07B6B020E7A6F04D0EB
:1094100075C07AF000017B6B7AC081F00001836B2C
:109420002CD000018351010DF3507125D96EF450F9
:109430007221DA6EDF507E6F8351010DF350732578
:10944000D96EF4507421DA6EDF50826F00017E51C4
:1094500082157F6F00018351010D420EF324D96EF6
:10946000010EF420DA6EDF508215806F7F1902E062
:10947000000E12000001832B00D000018151835D9A
:10948000D0E3020E0001816102D07D511200000183
:109490007551FE0F816F0001836B48D0000183512D
:1094A000766F776B020E7627000E77237651712543
:1094B000D96E77517221DA6EDF507E6F8351766FED
:1094C000776B020E7627000E772376517325D96EBF
:1094D00077517421DA6EDF50826F00017E51821560
:1094E0007F6F00018151766F776B761F771F764B08
:1094F000772B8351786F796B765178277751792361
:10950000130E7827000E7923420E7825D96E010EAE
:109510007921DA6EDF507C6F7C518215806F7F1964
:1095200002E0000E12000001832B00D000018151E7
:10953000835DB4E300017D511200120009EE00F0DA
:1095400011EE00F0EE6AE550E150FCE1E250FAE184
:1095500008EE00F011EE00F0EE6AE550E150FCE19B
:10956000E250FAE107EE00F011EE00F0EE6AE5508D
:10957000E150FCE1E250FAE106EE00F011EE00F0FD
:10958000EE6AE550E150FCE1E250FAE105EE00F050
:1095900011EE00F0EE6AE550E150FCE1E250FAE134
:1095A00004EE00F0920EEE6AE806FDE103EE00F034
:1095B000C00EEE6AE806FDE102EE00F010EEFFF0EC
:1095C000EE6AE550E150FCE1E250FAE101EE00F014
:1095D000B20EEE6AE806FDE10001ED6BEC6BEB6BA1
:1095E000EA6BE96BE86B00EE01F02E0EEE6AE8061E
:1095F000FDE16A0EF66EC00EF76E000EF86E04EE18
:1096000092F010EE64F00900F5CFEEFFE550E15066
:10961000FAE1080EF66EC90EF76E000EF86E03EE54
:10962000C0F010EE3CF00900F5CFEEFFE550E15040
:10963000FAE1B80EF66ECD0EF76E000EF86E01EE82
:10964000B2F010EE13F00900F5CFEEFFE550E15057
:10965000FAE1A20EF66ECE0EF76E000EF86E09005D
:10966000F5CF4EF0000186EF31F0D5C0DCF0D6C06A
:10967000DDF00001EC6BDCC0D9FFDDC0DAFFDE28D5
:1096800008E0DCC0D9FFDDC0DAFF01014051DE187F
:1096900070E1DCC0D9FFDDC0DAFFDF506AE0DCC07A
:1096A000D9FFDDC0DAFFDE280AE0DCC0D9FFDDC06B
:1096B000DAFF01014051DE1802E1010E3E6F010E9A
:1096C000206E000120EE01F0DC51D926DD51DA22B6
:1096D000DF5049EC54F00001DA6F2FD0DCC0CAF043
:1096E000DDC0CBF0D7C0CCF0A9EC5DF023D0DCC05E
:1096F00077F0DDC078F0D7C079F073EC66F01AD05F
:10970000DCC077F0DDC078F0D7C079F014EC67F0FA
:1097100011D0DCC0CAF0DDC0CBF0D7C0CCF089ECF2
:109720003DF008D0DCC0CAF0DDC0CBF0D7C0CCF033
:109730005FEC40F00001DB6F0CD00001DA51F2E089
:10974000010AE7E0420ADCE0C00AD1E02C0AC6E0E8
:1097500000D0240E0001DB19D8A4120075EC63F0D0
:10976000CB0E0001876F0E0E886F18EC24F01200EC
:1097700000D0010E0001ED65010C75EC63F0530E95
:109780000001876F1C0E886F18EC24F01200120085
:10979000B7C0BBF0B8C0BCF0B9C0BFF0BAC0C0F031
:1097A000BFC0D9FFC0C0DAFF310EDF6E0001BE6B53
:1097B000010EBD6F000120EE01F0BF51D926C0514E
:1097C000DA22BDC0DFFF000120EE02F0BF51D92632
:1097D000C051DA22BE51DF6E0001B751B81140E02E
:1097E00020EE01F0B751D926B851DA22DF500AE055
:1097F000B9C0B2F0BAC0B3F0240EB46FE4EC5DF0BF
:10980000000E1200A2EC64F00001C16F00D0010E46
:109810000001ED650DD075EC63F0250E0001876F3A
:109820001B0E886FC1C089F08A6B18EC24F000D041
:109830000001C1510AE0B9C0B2F0BAC0B3F0C1C072
:10984000B4F0E4EC5DF0000E1200000120EE03F035
:10985000BF51D926C051DA22000EDF6E330E12003E
:10986000000120EE03F0BF51D926C051DA22DF50AB
:10987000C16F00D0010E0001ED650DD075EC63F0F5
:10988000C30E0001876F170E886FC1C089F08A6B05
:1098900018EC24F000D00001C15109E0B9C0B2F0C9
:1098A000BAC0B3F0C1C0B4F0E4EC5DF000D0000E7B
:1098B00012001200B7C0BBF0B8C0BCF0B9C0BFF016
:1098C000BAC0C0F0BFC0D9FFC0C0DAFF320EDF6E31
:1098D0000001BE6B010EBD6F000120EE01F0BF5113
:1098E000D926C051DA22BDC0DFFF000120EE02F010
:1098F000BF51D926C051DA22BE51DF6E0001B751E7
:10990000B8113CE0030EBB257D6F000EBC217E6FBD
:1099100020EE01F0BB51D926BC51DA22DF507F6F17
:1099200050EC63F00001C16F00D0010E0001ED6545
:109930000DD075EC63F0F60E0001876F140E886F82
:10994000C1C089F08A6B18EC24F000D00001C1512D
:109950000AE0B9C0B2F0BAC0B3F0C1C0B4F0E4ECF0
:109960005DF0000E1200000120EE03F0BF51D92679
:10997000C051DA22000EDF6E330E1200000120EE1D
:1099800003F0BF51D926C051DA22DF50C16F00D099
:10999000010E0001ED650DD075EC63F0E70E0001DE
:1099A000876F120E886FC1C089F08A6B18EC24F0A3
:1099B00000D00001C15109E0B9C0B2F0BAC0B3F0A3
:1099C000C1C0B4F0E4EC5DF000D0000E1200120053
:1099D0000001736F61D0640E0001716F1B0E726F16
:1099E0001200CE0E0001716F1A0E726F1200E90E96
:1099F0000001716F190E726F1200FB0E0001716F82
:109A00001C0E726F1200E10E0001716F1E0E726F5C
:109A10001200750E0001716F1D0E726F1200640E40
:109A20000001716F1D0E726F1200280E0001716F20
:109A3000130E726F1200480E0001716F130E726FD9
:109A400012004F0E0001716F1B0E726F12002D0E6F
:109A50000001716F1C0E726F1200B90E0001716F60
:109A6000190E726F1200400E0001716F1C0E726FA2
:109A70001200DC0E0001716F180E726F1200F50EED
:109A80000001716F180E726F120000D0E90E000114
:109A9000716F1C0E726F120000017351010A9BE07E
:109AA000030A9FE0010AA3E0070AA7E0010AABE06E
:109AB000030AAFE0010AB3E00F0AB7E0010ABBE016
:109AC000280ABFE0030AC3E0010AC7E0070ACBE0A7
:109AD000010ACFE0030AD3E0D90AD8D71200000E5A
:109AE00000017F6F030E806F020E7F257D6F000ED9
:109AF00080217E6F7DC081F07EC082F07FC0D9FF63
:109B000080C0DAFF40C1DFFF000120EE01F07F518D
:109B1000D9268051DA22BF0EDF6E81C0D9FF82C004
:109B2000DAFF810EDF6E0001814B822B81C0D9FFED
:109B300082C0DAFFF00EDF6E0001814B822B81C004
:109B4000D9FF82C0DAFF180EDF6E0001814B822B35
:109B500081C0D9FF82C0DAFF010EDF6E0001814BA8
:109B6000822B81C0D9FF82C0DAFF130EDF6E0001A5
:109B7000814B822B81C071F082C072F0420E0001D5
:109B8000736F010E746F7311D8A4200E756F776B0D
:109B9000130E766F02EC60F0130E00018127000EA9
:109BA000822381C0D9FF82C0DAFF040EDF6E00017C
:109BB000814B822B81C0D9FF82C0DAFF010EDF6E9C
:109BC0000001814B822B81C0D9FF82C0DAFF010ED8
:109BD000DF6E0001814B822B00017D510008812541
:109BE000020FEC6F12001200B7C0BCF0B8C0BDF09D
:109BF000B9C0C1F0BAC0C2F0C1C0D9FFC2C0DAFF5B
:109C0000040EDF6E0001C06B010EBF6F000120EE7D
:109C100001F0C151D926C251DA22BFC0DFFF0001D5
:109C200020EE02F0C151D926C251DA22C051DF6EB6
:109C3000000120EE01F0B751D926B851DA22DF50E9
:109C40000AE0B9C0B2F0BAC0B3F0240EB46FE4ECCD
:109C50005DF0000E12002FEC67F00001BE6F0001F6
:109C6000BE510DE0C06B020EBF6F000120EE04F08C
:109C7000C151D926C251DA22BEC0DFFF00D0000197
:109C800020EE01F0C151D926C251DA22BFC0DFFF58
:109C9000000120EE02F0C151D926C251DA22C05192
:109CA000DF6E000120EE03F0C151D926C251DA2245
:109CB000000EDF6E00D0010E0001ED65000C75ECAA
:109CC00063F0B80E0001876F1A0E886F20EE03F064
:109CD000C151D926C251DA22DF50BB6FBB51896F07
:109CE0008A6B18EC24F0000C000C120085C089F07F
:109CF00000018A6B8B6B8435893701E38A8100010F
:109D000089518C6F8C5105E1000E836F846F856FD4
:109D1000120088C089F000018A6B8B6B8735893708
:109D200001E38A81000189518D6F8D5105E1000E9B
:109D3000836F846F856F120000018D517B0F8C271C
:109D400085C08DF0000188518D1B800E8D1700019C
:109D5000848F0001878F0001886B00018E6B8F6BF1
:109D6000906B0001856B000183518603F4CFF3FFF4
:109D7000F46AF3CF8EF0F4CF8FF0906B0001835133
:109D80008703F3508E27F4508F23000E9023000199
:109D900084518603F3508E27F4508F23000E9023B6
:109DA000000184518703F3508F27F4509023000162
:109DB00090AF05D0D89090338F338E338C2B000129
:109DC000D89090338F338E338EC071F08FC072F085
:109DD00090C073F08CC074F08DC075F0C1EC58F079
:109DE00071C083F072C084F073C085F0120012005D
:109DF000AEC0B0F00001B16BB26BAD35B03701E36E
:109E0000B1810001B051BA6FBA5106E1000EAC6FDA
:109E1000AD6FAE6FAF6F1200170E0001B06FACC028
:109E2000B1F0ADC0B2F0AEC0B3F0B029B46F05D0A0
:109E30000001D890B333B233B1330001B42FF8D757
:109E4000B151B56F0001AD8F0001AE6B0001AC5197
:109E5000B66FAD51B76FAE51B86FB96B8E0E0001D2
:109E6000BA5F0001BAAF15D0BA51800A8F0F07E26E
:109E7000000EAC6FAD6FAE6FAF6F120000D000017F
:109E8000D890B933B833B733B6330001BA3FF7D7F8
:109E900018D0170E0001BA650FD0000EAC6FAD6F71
:109EA000AE6FAF6F120008D00001D890B637B73749
:109EB000B837B937BA0700D00001BA5102E0F4D779
:109EC00000D00001B55109E0B91FB81FB71FB66D2A
:109ED000000EB723B823B92300D0B6C0ACF0B7C08A
:109EE000ADF0B8C0AEF0B9C0AFF012001200000182
:109EF000E06F0001DF6B2B50010D800EF324D96E53
:109F0000060EF420DA6EE0C0DFFF2B2A7E0E000181
:109F1000E01933E1240402E1246A28D0010E25640B
:109F200025D0B80E0101301921E1F00E3119D8A465
:109F30001DD0800E0001B26F060EB36F2BC0B4F0BF
:109F4000010E28EC5AF02B6A000E0001D56F060EA8
:109F5000D66F25C0DEF0FE0EDE27DE51D76FD86B40
:109F600035EC4BF0010E0001DF6F00D0256A0101D6
:109F7000306931690001DF511200245005E0246A84
:109F8000200E0001E01B09D07D0E0001E01905E163
:109F9000010E246EDF51120000D02550010D000E7D
:109FA000F324D96E060EF420DA6EE0C0DFFF30C174
:109FB00071F031C172F0E0C073F013EC62F071C067
:109FC00030F172C031F1252A7F0E256405D0256A53
:109FD0000101301F311F00D07F0E2B6402D0000E14
:109FE0002B6E0001DF511200120093C097F00001A8
:109FF000986B996B9235973701E3988100019751DF
:10A000009E6F9E5105E1000E916F926F936F12004B
:10A0100096C097F00001986B996B9535973701E3DF
:10A020009881000197519F6F9F5105E1000E916F3C
:10A03000926F936F120000019B6B9C6B9D6B0001F4
:10A040009F51890F9E5F93C09FF0000196519F1B07
:10A05000800E00019F170001928F0001936B000199
:10A06000958F0001966B180E00019A6F00D00001C9
:10A07000D8909B379C379D3700019451915D955145
:10A0800092599651935908E39451915F9551925B7F
:10A090009651935B00019B810001D89091379237D4
:10A0A000933700019A2FE3D700D09BC071F09CC07A
:10A0B00072F09DC073F09EC074F09FC075F0C1EC4B
:10A0C00058F071C091F072C092F073C093F012001A
:10A0D0001200B7C0BCF0B8C0BDF0B9C0C1F0BAC082
:10A0E000C2F0C1C0D9FFC2C0DAFF340EDF6E00017A
:10A0F000BF6B030EBE6F000120EE01F0C151D926E7
:10A10000C251DA22BEC0DFFF000120EE02F0C151D1
:10A11000D926C251DA22BF51DF6E000120EE01F0D4
:10A12000B751D926B851DA22DF500AE0B9C0B2F0EF
:10A13000BAC0B3F0240EB46FE4EC5DF0000E120070
:10A14000040E0001C125726F000EC221736FF1EC85
:10A1500065F00001C06F0001C05109E0B9C0B2F064
:10A16000BAC0B3F0C0C0B4F0E4EC5DF00AD00001B6
:10A1700020EE03F0C151D926C251DA22000EDF6E63
:10A1800000D0010E0001ED65000C75EC63F0A20E2D
:10A190000001876F1B0E886F20EE03F0C151D92696
:10A1A000C251DA22DF50BB6FBB51896F8A6B18EC4A
:10A1B00024F0000C000C1200B7C0BCF0B8C0BDF019
:10A1C000B9C0C0F0BAC0C1F0C0C0D9FFC1C0DAFF89
:10A1D000420EDF6E0001BF6B010EBE6F000120EE6C
:10A1E00001F0C051D926C151DA22BEC0DFFF000103
:10A1F00020EE02F0C051D926C151DA22BF51DF6EE4
:10A20000000120EE01F0B751D926B851DA22DF5013
:10A210000AE0B9C0B2F0BAC0B3F0240EB46FE4ECF7
:10A220005DF0000E12005A0E01012E190EE15A0EB9
:10A230002F19D8A40AD0000120EE03F0C051D9266E
:10A24000C151DA22000EDF6E0AD0B9C0B2F0BAC036
:10A25000B3F0060E0001B46FE4EC5DF000D0020E26
:10A260000301F86F00D0010E0001ED65000C75ECE4
:10A2700063F0710E0001876F190E886F20EE03F0F6
:10A28000C051D926C151DA22DF50BB6FBB51896F53
:10A290008A6B18EC24F0000C000C120058D073C02C
:10A2A000F6FF74C0F7FF000EF86E0800F5CF79F0E6
:10A2B0000001775154E001D052D0020E0001712705
:10A2C000000E7223795177194AE101D048D000017C
:10A2D0002FEEFFF07151D9267251DA22DF50786FDC
:10A2E000010E00017325756F000E7421766F75C025
:10A2F000F6FF76C0F7FF000EF86E0800F5CF79F094
:10A30000000178510EE17951756F766B751F761FDC
:10A31000754B762B78517525716F000E7621726F13
:10A320001200020E00017327000E74237851791970
:10A330000EE07951756F766B751F761F754B762B16
:10A3400078517525716F000E7621726F120071C001
:10A35000D9FF72C0DAFFDF500001776FA0D700018C
:10A360007951756F766B751F761F754B762B77510C
:10A370007525716F000E7621726F12001200010EAA
:10A380000001ED650AD075EC63F09F0E0001876F48
:10A39000140E886F18EC24F000D0B3EC66F0010EB8
:10A3A0000001ED650AD075EC63F0080E0001876FBF
:10A3B000130E886F18EC24F000D09DEC66F0010EAF
:10A3C0000001ED650AD075EC63F06B0E0001876F3C
:10A3D0000F0E886F18EC24F000D0A8EC66F0010E88
:10A3E0000001ED650AD075EC63F02A0E0001876F5D
:10A3F000100E886F18EC24F000D000EC5FF0010E16
:10A400000001ED650AD075EC63F0B80E0001876FAE
:10A410000F0E886F18EC24F000D0FAEC60F0010EFB
:10A420000001ED650AD075EC63F0920E0001876FB4
:10A430000F0E886F18EC24F000D0010E5AEC49F092
:10A44000010E0001ED65010C75EC63F07B0E00015F
:10A45000876F0E0E886F18EC24F012001200000EA9
:10A460000001806F030E816F80C0D9FF81C0DAFFC9
:10A4700040C1DFFF000120EE01F08051D92681515B
:10A48000DA22100EDF6E010E00018025716F000EC2
:10A490008121726F7CC173F056EC65F0010E0001F2
:10A4A0008025716F000E8121726F7DC173F051ECB8
:10A4B00066F0020E00018025716F000E8121726F1F
:10A4C0007DC073F07EC074F073517411D8A4200E57
:10A4D000756F20EE01F07D51D9267E51DA22DF50D2
:10A4E0007F6F030E7F25766F776B000E772302EC6C
:10A4F00060F001017D2B7D51070B7D6F000120EE87
:10A5000001F07D51D9267E51DA22DF50050FEC6F24
:10A51000ECC026F0000E0001716F050E726F000E88
:10A52000736F030E746F7311D8A4200E756FECC097
:10A5300076F0776B02EF60F0120011C015F012C0D8
:10A5400016F013C017F014C018F000D00001ED5140
:10A550000AE075EC63F0110E0001876F180E886F2A
:10A5600018EC24F000D0156A166A176A186A22C11E
:10A5700011F023C112F024C113F025C114F015C04D
:10A58000B2F016C0B3F017C0B4F018C0B5F00001B7
:10A59000B21FB31FB41FB51FB22B000EB323B423D9
:10A5A000B5231150B225096E1250B3210A6E135013
:10A5B000B4210B6E1450B5210C6E00D00001ED518A
:10A5C000D8B4120075EC63F0890E0001876F090E94
:10A5D000886FABC289F0ACC28AF011C08BF012C098
:10A5E0008CF013C08DF014C08EF015C08FF016C023
:10A5F00090F017C091F018C092F009C093F00AC013
:10A6000094F00BC095F00CC096F018EC24F01200FA
:10A61000120011C015F012C016F013C017F014C0CC
:10A6200018F000D00001ED510AE075EC63F0D10E96
:10A630000001876F190E886F18EC24F000D0156A9E
:10A64000166A176A186AA5C211F0A6C212F0A7C24C
:10A6500013F0A8C214F015C0B2F016C0B3F017C0C2
:10A66000B4F018C0B5F00001B21FB31FB41FB51F7E
:10A67000B22B000EB323B423B5231150B225096EBB
:10A680001250B3210A6E1350B4210B6E1450B52131
:10A690000C6E00D00001ED51D8B4120075EC63F0DF
:10A6A000C90E0001876F090E886FA1C289F0A2C28E
:10A6B0008AF011C08BF012C08CF013C08DF014C062
:10A6C0008EF015C08FF016C090F017C091F018C032
:10A6D00092F009C093F00AC094F00BC095F00CC042
:10A6E00096F018EC24F01200120000017C6B7D6BD8
:10A6F000060E0001786FD890000174337333723303
:10A700007133782FF8D70001060ED8907137723761
:10A7100073377437E82EF9D771C07EF072C07FF0BE
:10A7200073C080F074C081F046D07EC079F07FC0E5
:10A730007AF080C07BF0400E00017C6F16D076C0AE
:10A74000D9FF77C0DAFFDF5079C0F6FF7AC0F7FF94
:10A750007BC0F8FFF56E0C000001764B772B0001F3
:10A76000792B000E7A237B2300D000017C077C2903
:10A77000E6E17EC079F07FC07AF080C07BF0A684ED
:10A78000F2AE04D0F29E010E00017D6F550EA76E51
:10A79000AA0EA76EA682A69400017D5104E0F28E57
:10A7A00000017D6B00D0400E00017E27000E7F234C
:10A7B0008023812300D0000175077529B6E11200BE
:10A7C000B2C071F0B3C072F0B4C073F0B5C074F031
:10A7D000010E0001756FB6C076F0B7C077F075EC6A
:10A7E00053F0400E01011E27000E1F2320232123BA
:10A7F000000E0001716F0A0E726F746B736B766BD3
:10A80000400E756F25EC65F0B2C071F0B3C072F008
:10A81000B4C073F0B5C074F00001766B400E756F74
:10A82000000E776F0A0E786F5CEC61F0000E00018D
:10A83000716F0A0E726F2BEC63F000017151010110
:10A840002E270001725101012F2300D0010E0001BB
:10A85000ED65010C75EC63F0560E0001876F0D0E6F
:10A86000886F1AC189F01BC18AF01CC18BF01DC111
:10A870008CF01EC18DF01FC18EF020C18FF021C160
:10A8800090F02EC191F02FC192F018EC24F012003C
:10A8900012000001B46F0001B4B102D0000E12002A
:10A8A0000001B4A314D020D012D0010E1200050E66
:10A8B000120000D075EC63F0FC0E0001876F1D0ED6
:10A8C000886F18EC24F000D0FF0E12000DD00001AC
:10A8D000B4510F0BB26FB36BB351ECE1B251010A3B
:10A8E000E4E0040AE4E0E6D70001B4B316D02CD0CB
:10A8F00014D0AF0E1200830E1200430E120000D0CF
:10A9000075EC63F0FC0E0001876F1D0E886F18EC6C
:10A9100024F000D0FF0E120017D00001B451EF0B4D
:10A92000B26FB36BB351ECE1B2510F0AE9E04C0ADC
:10A93000E4E0200AE5E0E00ADEE0040AE1E0280ABB
:10A94000D8E0400ADDD700D075EC63F0FC0E0001C2
:10A95000876F1D0E886F18EC24F0FF0CFF0C12009F
:10A96000EACF66F0E1CF67F0E2CF68F0D9CF69F0C7
:10A97000DACF6AF0F3CF6BF0F4CF6CF0F6CF6DF076
:10A98000F7CF6EF0F8CF6FF0F5CF70F0F2B0F29035
:10A990009EA008D09E909D80FC0ECF6E320ECE6E93
:10A9A0008C7600D09EA220D09E923EEC66F02004D1
:10A9B0000CE10101382B38050001626F1E0E626543
:10A9C00004D0206A0101386B00D0010137050CE189
:10A9D0003F2B3F050001626F090E626505D0010142
:10A9E0003F6B8CEC61F000D01FEC5EF03EEC62F04F
:10A9F00070C0F5FF6FC0F8FF6EC0F7FF6DC0F6FFC7
:10AA00006CC0F4FF6BC0F3FF6AC0DAFF69C0D9FF06
:10AA100068C0E2FF67C0E1FF66C0EAFF65C0E9FF0A
:10AA200064C0FBFF63C0FAFF11000001ED510AE0B2
:10AA300075EC63F0240E0001876F170E886F18EC19
:10AA400024F000D0000E0201AF6F0001EA87000E73
:10AA500001013D6F0101009500D00001ED5112E0B0
:10AA600075EC63F02C0E0001876F1E0E886FA70E29
:10AA7000896F1E0E8A6F8911D8A4000E8B6F18EC97
:10AA800024F000D00101009B00D00001ED5112E044
:10AA900075EC63F02C0E0001876F1E0E886FA10EFF
:10AAA000896F1A0E8A6F8911D8A4000E8B6F18EC6B
:10AAB00024F000D00101009900D00001ED5112E016
:10AAC00075EC63F02C0E0001876F1E0E886F8A0EE6
:10AAD000896F1A0E8A6F8911D8A4000E8B6F18EC3B
:10AAE00024F000D0010E0E6E000E106E000C12004D
:10AAF000B7C0BCF0B8C0BDF0B9C0C0F0BAC0C1F0BA
:10AB0000C0C0D9FFC1C0DAFF400EDF6E0001BF6BCD
:10AB1000010EBE6F000120EE01F0C051D926C151D7
:10AB2000DA22BEC0DFFF000120EE02F0C051D926BC
:10AB3000C151DA22BF51DF6E000120EE01F0B751A2
:10AB4000D926B851DA22DF500AE0B9C0B2F0BAC053
:10AB5000B3F0240EB46FE4EC5DF0000E12000001BF
:10AB600020EE03F0C051D926C151DA22000EDF6E6B
:10AB7000010E0301F86F00D0010E0001ED65000C1D
:10AB800075EC63F0DD0E0001876F170E886F20EE05
:10AB900003F0C051D926C151DA22DF50BB6FBB513F
:10ABA000896F8A6B18EC24F0000C000C1200000175
:10ABB000BC6BBB6BBA6B10D0B2C0D9FFB3C0DAFFAD
:10ABC000DF500001BC6F0001B24BB32B0001BC5140
:10ABD000BB270001BA2B00D00001B451BA5DECE3F1
:10ABE0000001BB1F00D0010E0001ED6532D075ECF5
:10ABF00063F0B5C0D9FFB6C0DAFF0001BB51DE1863
:10AC000004E0740EB86F1F0E04D0760E0001B86F0A
:10AC10001F0E0001B96F00D0E80E0001876F0B0E08
:10AC2000886FBBC089F08A6BB5C0D9FFB6C0DAFFA8
:10AC3000DF50B76FB7518B6F8C6BB8C08DF0B9C058
:10AC40008EF08D518E11D8A4000E8F6F18EC24F069
:10AC500000D0B5C0D9FFB6C0DAFF0001BB51DE1885
:10AC600002E1000E1200060E12001200000120EE9A
:10AC700004F07651D9267751DA2210EE02F076519F
:10AC8000E1267751E222E6CF7BF0E5CF7CF076C07B
:10AC9000E1FF77C0E2FFE6CF7DF0E5CF7EF07D1FDC
:10ACA0007E1F7D4B7E2B7B517D277C517E23DE508A
:10ACB0007D1903E1DE507E1936E0000120EE02F03E
:10ACC0007651D9267751DA22DECF71F0DDCF72F0DE
:10ACD00020EE04F07651D9267751DA22DECF73F0D8
:10ACE000DDCF74F069EC62F0000120EE06F07651E1
:10ACF000D9267751DA22DECF79F0DDCF7AF07151A3
:10AD00007925D96E72517A21DA6E78C0DFFF0001A1
:10AD100020EE02F07651D9267751DA22DE2A000E93
:10AD2000DD22010E1200000C1200B7C0BCF0B8C04A
:10AD3000BDF0B9C0C0F0BAC0C1F0C0C0D9FFC1C039
:10AD4000DAFF060EDF6E0001BF6B010EBE6F000161
:10AD500020EE01F0C051D926C151DA22BEC0DFFF7A
:10AD6000000120EE02F0C051D926C151DA22BF51B4
:10AD7000DF6E000120EE01F0B751D926B851DA227A
:10AD8000DF500AE0B9C0B2F0BAC0B3F0240EB46F1D
:10AD9000E4EC5DF0000E1200000120EE03F0C05163
:10ADA000D926C151DA22000EDF6A50EC67F000D0DC
:10ADB000010E0001ED65000C75EC63F0A10E0001C1
:10ADC000876F190E886F20EE03F0C051D926C1514C
:10ADD000DA22DF50BB6FBB51896F8A6B18EC24F00D
:10ADE000000C000C12000001BA69BB697E0E05EC74
:10ADF00066F02C50010D800EF324D96E050EF42060
:10AE0000DA6E7E0EDF6E2C2A1DD0B7C0D9FFB8C017
:10AE1000DAFFDF500001BC6F0001B74BB82BBAC09E
:10AE200071F0BBC072F0BCC073F013EC62F071C083
:10AE3000BAF072C0BBF00001BC51E8EC61F0000157
:10AE4000B90700D00001B951E0E10001BA1FBB1FF2
:10AE5000BAC0BCF00001BC51E8EC61F00001BB518C
:10AE6000BC6F0001BC51E8EC61F07E0E05EC66F0B1
:10AE70002C50010D800EF324D96E050EF420DA6EED
:10AE80007E0EDF6E2C2A800E0001B26F050EB36FAE
:10AE90002CC0B4F0000E28EC5AF0000E2C6A120000
:10AEA000B7C0BCF0B8C0BDF0B9C0C0F0BAC0C1F006
:10AEB000C0C0D9FFC1C0DAFF120EDF6E0001BF6B48
:10AEC000010EBE6F000120EE01F0C051D926C15124
:10AED000DA22BEC0DFFF000120EE02F0C051D92609
:10AEE000C151DA22BF51DF6E000120EE01F0B751EF
:10AEF000D926B851DA22DF500AE0B9C0B2F0BAC0A0
:10AF0000B3F0240EB46FE4EC5DF0000E120000010B
:10AF100020EE03F0C051D926C151DA22DF6A20ECBD
:10AF200067F000D0010E0001ED65000C75EC63F0D8
:10AF30002E0E0001876F150E886F20EE03F0C051B2
:10AF4000D926C151DA22DF50BB6FBB51896F8A6BA2
:10AF500018EC24F0000C000C1200010E0001816FAF
:10AF600075C07CF00001836B4CD000018351010D52
:10AF7000F3507125D96EF4507221DA6EDF507E6F76
:10AF80008351010DF3507325D96EF4507421DA6E9C
:10AF9000DF50826F00017E5182157F6F120E00011B
:10AFA000756504D07B6B130E7A6F04D075C07AF090
:10AFB00000017B6B7AC07DF000017D51766F776B6D
:10AFC000761F771F764B772B8351786F796B76518D
:10AFD000782777517923130E7827000E7923420EB4
:10AFE0007825D96E010E7921DA6EDF508215806FD7
:10AFF00000017F51801902E0000E12000001832B36
:10B0000000D000017C51835DB0E30001815112004A
:10B010001200B7C0BCF0B8C0BDF0B9C0C0F0BAC033
:10B02000C1F0C0C0D9FFC1C0DAFF0A0EDF6E000157
:10B03000BF6B010EBE6F000120EE01F0C051D9269A
:10B04000C151DA22BEC0DFFF000120EE02F0C05184
:10B05000D926C151DA22BF51DF6E000120EE01F086
:10B06000B751D926B851DA22DF500AE0B9C0B2F0A0
:10B07000BAC0B3F0240EB46FE4EC5DF0000E120021
:10B08000000120EE03F0C051D926C151DA22000E92
:10B09000DF6E00D0010E0001ED65000C75EC63F071
:10B0A0003A0E0001876F1B0E886F20EE03F0C0512F
:10B0B000D926C151DA22DF50BB6FBB51896F8A6B31
:10B0C00018EC24F0000C000C1200B7C0BCF0B8C0A3
:10B0D000BDF0B9C0C0F0BAC0C1F0C0C0D9FFC1C096
:10B0E000DAFF030EDF6E0001BF6B010EBE6F0001C1
:10B0F00020EE01F0C051D926C151DA22BEC0DFFFD7
:10B10000000120EE02F0C051D926C151DA22BF5110
:10B11000DF6E000120EE01F0B751D926B851DA22D6
:10B12000DF500AE0B9C0B2F0BAC0B3F0240EB46F79
:10B13000E4EC5DF0000E1200000120EE03F0C051BF
:10B14000D926C151DA22000EDF6E00D0010E0001B7
:10B15000ED65000C75EC63F0530E0001876F1D0E5A
:10B16000886F20EE03F0C051D926C151DA22DF509A
:10B17000BB6FBB51896F8A6B18EC24F0000C000C7C
:10B1800012000001745104E07151721173110EE14B
:10B19000000E0001716F726F736F120007D0000113
:10B1A000742BD89073337233713300D00001766BF7
:10B1B000776BFE0E7315786F7651771178110EE06C
:10B1C000EED70CD00001742B0001712B000E7223FE
:10B1D0007323D89073337233713300D00001766BD0
:10B1E000776B7351786F76517711781109E0EAD750
:10B1F00007D000017407D89071377237733700D0C9
:10B20000000172BF04D0020E7461F3D700D00001B8
:10B2100074A1729F00D00001D890743374517313DD
:10B220000001755102E0738F00D071C071F072C0DF
:10B2300072F073C073F01200120011C015F012C04A
:10B2400016F013C017F014C018F0156A166A176AC2
:10B25000186A0101C46B200E116E6C0E126EFB0E8B
:10B26000136E146815C0B2F016C0B3F017C0B4F076
:10B2700018C0B5F00001B21FB31FB41FB51FB22B29
:10B28000000EB323B423B5231150B225096E12501A
:10B29000B3210A6E1350B4210B6E1450B5210C6EFD
:10B2A00000D00001ED51D8B4120075EC63F0880EA7
:10B2B0000001876F0A0E886F11C089F012C08AF0F2
:10B2C00013C08BF014C08CF015C08DF016C08EF03A
:10B2D00017C08FF018C090F009C091F00AC092F02A
:10B2E0000BC093F00CC094F018EC24F01200120084
:10B2F00020EE04F04550D9264650DA2210EE02F036
:10B300004550E1264650E222E6CF4AF0E5CF4BF029
:10B3100045C0E1FF46C0E2FFE6CF4CF0E5CF4DF07F
:10B320004C1E4D1E4C4A4D2A4A504C264B504D2225
:10B33000DE504C1804E1DE504D18D8B4120020EE57
:10B3400002F04550D9264650DA22DECF40F0DDCF5C
:10B3500041F020EE04F04550D9264650DA22DECFE7
:10B3600042F0DDCF43F099EC63F020EE06F045505B
:10B37000D9264650DA22DECF48F0DDCF49F04050E2
:10B380004824D96E41504920DA6E47C0DFFF20EED5
:10B3900002F04550D9264650DA22DE2A000EDD2280
:10B3A0001200120046D071C0D9FF72C0DAFFDF5020
:10B3B0000001776F73C0F6FF74C0F7FF000EF86EE0
:10B3C0000F0EF76403D00800F55005D0F6CFE1FF6B
:10B3D000F7CFE2FFE7500001771925E073C0F6FFD1
:10B3E00074C0F7FF000EF86E0F0EF76403D008006C
:10B3F000F55005D0F6CFE1FFF7CFE2FFE7500001AF
:10B40000776F786B771F781F774B782B71C0D9FFD8
:10B4100072C0DAFFDF50796F79517725716F000EB6
:10B420007821726F12000001714B722B734B742BD9
:10B4300000D000017507D8A076077529B4E17629F8
:10B44000D8A4B1D7000E0001726F716F000C12000A
:10B450000001B66F0001B60512E1010E0001ED65B5
:10B460003BD075EC63F03A0E0001876F1F0E886FBA
:10B47000B4C089F08A6B18EC24F02ED000D0010EF5
:10B480000001ED6529D075EC63F0440E0001876F73
:10B490001F0E886FB4C089F08A6B18EC24F01CD0A2
:10B4A00000D0010E0001ED6514D0900E876F1F0EC5
:10B4B000886FB2C0D9FFB3C0DAFFDF50B56FB551A6
:10B4C000896F8A6B18EC24F00001B24BB32B040097
:10B4D00000D00001B40700D00001B45102E0E1D770
:10B4E00000D0010E0001ED65010C010E876F0B0EFF
:10B4F000886F18EC24F00400120012000001B46FF1
:10B500000001B569B669B76BB86B6B8608D00400EB
:10B510000001B507000EB65BB75BB85B00D06DB03D
:10B5200008D00001B551B611B711B81102E0EFD73C
:10B5300000D00001B551B611B711B81124E175EC76
:10B5400063F0750E0001876F170E886F18EC24F0FA
:10B5500000D00101008100D00001ED5112E075EC36
:10B5600063F03C0E0001876F1E0E886F5C0E896FC2
:10B570001E0E8A6F8911D8A4000E8B6F18EC24F070
:10B5800000D0000E1200B2C0D9FFB3C0DAFF6FCFF7
:10B59000DFFFD2EC66F00001B45103E01AEC67F073
:10B5A000010C010C1200000120EE02F07651D926A8
:10B5B0007751DA22DECF7AF0DDCF7BF076C0D9FF8B
:10B5C00077C0DAFFDECF7CF0DDCF7DF07C1F7D1F02
:10B5D0007C4B7D2B7A517C277B517D237C517D11C7
:10B5E00034E076C0D9FF77C0DAFFDECF71F0DDCF6F
:10B5F00072F020EE04F07651D9267751DA22DECFB0
:10B6000073F0DDCF74F069EC62F0000120EE06F01B
:10B610007651D9267751DA22DECF7AF0DDCF7BF072
:10B6200071517A25D96E72517B21DA6E78C0E1FFB3
:10B6300079C0E2FFDFCFE7FF76C0D9FF77C0DAFF3E
:10B64000DE2A000EDD22010E1200000C1200000E98
:10B650000001736F030E746F020E7325716F000E7D
:10B660007421726F71C075F072C076F073C0D9FF2B
:10B6700074C0DAFF40C1DFFF000120EE01F073511A
:10B68000D9267451DA22BF0EDF6E75C0D9FF76C09D
:10B69000DAFF810EDF6E0001754B762B75C0D9FF86
:10B6A00076C0DAFFF00EDF6E0001754B762B75C0A9
:10B6B000D9FF76C0DAFF020EDF6E0001754B762BE4
:10B6C00075C0D9FF76C0DAFF070EDF6E0001754B3B
:10B6D000762B75C0D9FF76C0DAFFDF6A0001754BA3
:10B6E000762B0001715100087525020FEC6F1200D6
:10B6F000120020EE02F04550D9264650DA22DECF65
:10B7000049F0DDCF4AF045C0D9FF46C0DAFFDECFB1
:10B710004BF0DDCF4CF04B1E4C1E4B4A4C2A49508F
:10B720004B264A504C224B504C1033E045C0D9FFB9
:10B7300046C0DAFFDECF40F0DDCF41F020EE04F06E
:10B740004550D9264650DA22DECF42F0DDCF43F015
:10B7500099EC63F020EE06F04550D9264650DA22E7
:10B76000DECF49F0DDCF4AF040504924D96E415038
:10B770004A20DA6E47C0E1FF48C0E2FFDFCFE7FFB3
:10B7800045C0D9FF46C0DAFFDE2A000EDD22010ED9
:10B790001200000C1200010E0001ED653DD075ECA9
:10B7A00063F0080E0001876F140E886FB2C089F035
:10B7B000B3C08AF0B4C08BF0B5C08CF0B6C08DF0C9
:10B7C000B7C08EF0B8C08FF0B9C090F018EC24F07C
:10B7D00023D0010E0001B625716FFC0EB721726FE8
:10B7E000FF0EB821736FFF0EB921746FB629756F04
:10B7F000000EB721766F000EB821776F000EB921C9
:10B80000786FCBEC5EF00001D880040EB75B000EC1
:10B81000B85BB95B040000D00001B651B25DB7510E
:10B82000B359B851B459B951B559D3E31200000115
:10B83000796B7A6B7B6B7C6B00017551761177119C
:10B84000781135E0010E7D6F08D00001D890753772
:10B850007637773778377D2B00D0000178BF02D05C
:10B86000F4D700D00001D89079377A377B377C370E
:10B8700000017551715D7651725977517359785144
:10B8800074590BE37551715F7651725B7751735B3D
:10B890007851745B0001798100D00001D890783331
:10B8A00077337633753300017D2FDCD700D079C034
:10B8B00071F07AC072F07BC073F07CC074F012003B
:10B8C0000001766B000172AF08D0716D721FD8B0A5
:10B8D000722B010E0001766F00D0000174AF05D00D
:10B8E000736D741FD8B0742B00D0000173517411A4
:10B8F00021E0010E756F06D00001D89073377437C0
:10B90000752B00D0000174BF02D0F6D700D0000123
:10B910007351715D7451725905E37351715F7451C4
:10B92000725B00D00001D890743373330001752F1F
:10B93000EED700D00001765105E0716D721FD8B0CE
:10B94000722B00D071C071F072C072F01200120040
:10B950000001E16F0001E26B35D086900CD0000150
:10B96000E35177EC4FF00001E26F0001E2050CE0DB
:10B9700002D00AD000D0E30E00017E6F000E7F6F70
:10B9800091EC66F0E806EBE00001E20521E1EC5104
:10B990001FE023501DE1010E12D01AD0205018E1F3
:10B9A0008680000E0001B76F030EB86FECC0B9F0CF
:10B9B000F3EC56F0270402E1010E236E000E0001A5
:10B9C000E16F06D00001E151C8E0010AE7E000D0D4
:10B9D0000001E15112001200280402E1050E1200DC
:10B9E0002FEC67F00001756F0001755135E1725160
:10B9F0000201A15DA251800A0001746F7351800A97
:10BA000074590DE30201A3510001725D7351800A64
:10BA1000746F0201A451800A0001745902E2130EEE
:10BA20001200000172510201AD1908E100017351C9
:10BA30000201AE19D8A402D0000E120072C01CF090
:10BA400073C01DF0010E0201AF6F0001EA87030E03
:10BA50000301EC6F330E1200000175511200120049
:10BA6000456A41AE07D0406C411ED8B0412A010E54
:10BA7000456E00D043AE05D0426C431ED8B0432A79
:10BA800000D0425043101CE0010E446E05D0D89007
:10BA900042364336442A00D043BE02D0F8D700D005
:10BAA0004250405C4350415805E34250405E435091
:10BAB000415A00D0D89043324232442EF1D700D0C0
:10BAC000455005E0406C411ED8B0412A00D040C02E
:10BAD00040F041C041F01200120000018251831178
:10BAE000841185112DE0010E866F08D00001D890D9
:10BAF0008237833784378537862B00D0000185BF96
:10BB000002D0F4D700D0000182517E5D83517F596D
:10BB1000845180598551815909E382517E5F835157
:10BB20007F5B8451805B8551815B00D00001D890A0
:10BB300085338433833382330001862FE4D700D0EA
:10BB40007EC07EF07FC07FF080C080F081C081F039
:10BB50001200020E0001CA25CF6F000ECB21D06F5C
:10BB6000CFC0D9FFD0C0DAFF0001CF4BD02B810E60
:10BB7000DE1802E0240E1200CFC0D9FFD0C0DAFFD9
:10BB8000DF500001CE6F0001CF4BD02BF00E000133
:10BB9000CE190AE1CAC0B2F0CBC0B3F0CCC0B4F049
:10BBA00091EC33F01200240C800E0001CE190AE152
:10BBB000CAC07FF0CBC080F0CCC081F059EC3BF024
:10BBC0001200240C240C12000001B66B020EB56F9B
:10BBD000000120EE01F0B251D926B351DA22B5C0EE
:10BBE000DFFF000120EE02F0B251D926B351DA2274
:10BBF000B651DF6E000120EE03F0B251D926B351E9
:10BC0000DA220B0EDF6E000120EE04F0B251D926CD
:10BC1000B351DA22B4C0DFFF00D0010E0001ED65A0
:10BC2000010C75EC63F0890E0001876F190E886FA7
:10BC3000B4C089F08A6B18EC24F0120012009EB890
:10BC40009DA813D0A00E456E010E466E610E476E84
:10BC5000000E486E79EC5BF0E80603E161C0AEFFD0
:10BC600004D0ADA202D0AD9A00D09EBA9DAA1CD03D
:10BC7000AFCF60F0130E000160190CE12A2A2AC030
:10BC800040F0416A436A030E426E30EC5DF0405072
:10BC90002A6E00D0900E456E010E466E60C047F0D1
:10BCA00078EC59F09E9A00D0ACA21200AC98AC8807
:10BCB000120012000001826B8E0E816F00017CAFBA
:10BCC00014D07C1F7B1F7A1F796D000E7A237B2393
:10BCD0007C23010E0001826F08D00001D8907C33D4
:10BCE0007B337A337933812B00D000017D6B7E6BFF
:10BCF0007F6B7C51806F7D517E117F118011EDE152
:10BD000079C071F07AC072F07BC073F081C074F0BA
:10BD100082C075F0C1EC58F071C079F072C07AF051
:10BD200073C07BF0120012009884989298908690CD
:10BD3000A89CA89AA898A896A8849C8E9C9C9C884D
:10BD40009C967C9A7C987C867C927C90040E7D6E7E
:10BD5000110EAB6E980E0001716F010E726F000E26
:10BD6000736F070E746F766B800E756F05EC63F062
:10BD7000A80E0001716F010E726F800E736F070EB7
:10BD8000746F766B800E756F05EC63F0A388A38AE1
:10BD9000A58AA58812000001796B71C07AF072C083
:10BDA0007BF073C07CF074C07DF01FD07CC0F8FFC6
:10BDB0007BC0F7FF7AC0F6FFA684A688F2AE04D057
:10BDC000F29E010E0001796F550EA76EAA0EA76EA6
:10BDD000A6820001795102E0F28E00D00001D890D5
:10BDE000040E7B27000E7C237D23000175517A5DB4
:10BDF00076517B5977517C5978517D59D7E31200A0
:10BE000039EC67F0C00EC8EC66F0890EC8EC66F03D
:10BE1000FF0EC8EC66F0FF0EC8EC66F09F0EC8EC93
:10BE200066F0410E02013D1904E1CF0EC8EC66F048
:10BE300004D09F0EC8EC66F000D0410E02013D19FF
:10BE400004E1D10EC8EC66F003D0610EC8EC66F0D8
:10BE5000920EC8EC66F0000EC8EC66F0AE0EC8ECB0
:10BE600066F034EF67F01200C26A0F0EC16E8A6A84
:10BE7000936A8168000E926E8F6E986EFE0E866ECB
:10BE8000F290F292F294F296F298F29AF29C850E67
:10BE9000F16ECD9ACD98CD86CD84CD92CD80FC0E1D
:10BEA000CF6E100ECE6E9E909D80CA90CA92CA84AC
:10BEB000CA86CA88CA9ACA9CFA0ECB6E9E929D8286
:10BEC00068EC5FF094EC5EF0D08EF28EF28C120093
:10BED000948E949CAD9CAD9AAD98AD96AD84AC8E8D
:10BEE000AC9CAC88AC967E9A7E987E867E927E9044
:10BEF0007F6A560EB06E900E0001716F010E726F68
:10BF0000000E736F080E746F766B800E756F05EC04
:10BF100063F0A00E0001716F010E726F800E736FDF
:10BF2000080E746F766B800E756F05EC63F09D885C
:10BF30009D8A9F8A9F8812000001756F000E000184
:10BF4000766F130E0001766501D022D00001765184
:10BF5000050D920EF324D96E040EF420DA6E75519D
:10BF6000DE1813E17651050D020EF326000EF422C1
:10BF7000920EF324D96E040EF420DA6EDECF71F047
:10BF8000DECF72F0DDCF73F012000001762BD9D72F
:10BF9000000E0001716F726F736F000C12000001D0
:10BFA000716F000171A103D0110E120005D00001C4
:10BFB00071A302D00F0E1200000171A703D0010E71
:10BFC0001200000C000171A903D0020E1200000C37
:10BFD000000171AB03D0030E1200000C000171AD23
:10BFE00003D0140E1200000C000171AF03D0270E15
:10BFF0001200000C000171A5000C0E0E1200000CC6
:10C00000000C120073C078F074C079F075C07AF03B
:10C0100071C07BF072C07CF01ED078C0F6FF79C092
:10C02000F7FF7AC0F8FF7BC0D9FF7CC0DAFFF8BA0F
:10C0300003D00800F55005D0F6CFE1FFF7CFE2FFBF
:10C04000E750DF6E0001782B000E79237A23000180
:10C050007B4B7C2B00D000017607D8A07707762990
:10C06000DCE17729D8A4D9D712000300CAB00004B4
:10C0700000E89B000500E67E0006002AAD001000E7
:10C08000E8850011008E82001200A0AE000A0012A6
:10C09000B0009000FA88004000F0AA0041006691CC
:10C0A000004200B8A10031009097003200B498001F
:10C0B00033008087003400D2A0000700AE8E000E4F
:10C0C00000C66A000F00F05900FF00000000000EDB
:10C0D00000017A6F030E7B6F020E7A25786F000ED7
:10C0E0007B21796F78C076F079C077F07AC0D9FF7C
:10C0F0007BC0DAFF40C1DFFF000120EE01F07A5182
:10C10000D9267B51DA22110EDF6E010E00017A254D
:10C11000716F000E7B21726F7CC173F056EC65F07D
:10C120000001785100087625020FEC6F1200120012
:10C130000101055102E1000E120001010051011937
:10C1400002E1000E12000101015100190001B26F5D
:10C15000010101510001B2150101026F00510001FE
:10C16000B2150101036F010E0001ED65010C75ECC4
:10C1700063F0270E0001876F140E886F02C189F0EB
:10C180008A6B03C18BF08C6B18EC24F0010C010C52
:10C190001200000E00017A6F030E7B6F020E7A25EB
:10C1A000786F000E7B21796F78C076F079C077F0D8
:10C1B0007AC0D9FF7BC0DAFF40C1DFFF000120EE6B
:10C1C00001F07A51D9267B51DA22150EDF6E010E6D
:10C1D00000017A25716F000E7B21726F7CC173F0B4
:10C1E00056EC65F00001785100087625020FEC6FDF
:10C1F0001200120039EC67F0C00EC8EC66F0960E23
:10C20000C8EC66F0FF0EC8EC66F0FF0EC8EC66F0F6
:10C21000410E02013D1904E1CF0EC8EC66F004D0D6
:10C220009F0EC8EC66F000D0410E02013D1904E1FA
:10C23000D10EC8EC66F003D0610EC8EC66F0720E49
:10C24000C8EC66F00F0EC8EC66F06E0EC8EC66F037
:10C2500034EF67F012000101162B000E172318238C
:10C26000192319511811171104E10A0E165DD8A0EF
:10C2700012000101166B176B186B196B0101284B2B
:10C28000292BE80E285D030E2959D8A01200296B2E
:10C29000286B222A3B0E22643B0C226A212A3B0E89
:10C2A00021643B0C216A0101392B0C0E39650C0C01
:10C2B000010E396F1200120071C079F072C07AF06D
:10C2C00073C07BF074C07CF0F8CF7FF0F7CF7EF0C6
:10C2D000F6CF7DF07BC0F8FF7AC0F7FF79C0F6FF9C
:10C2E0000BD0090077C0D9FF78C0DAFFF5CFDFFFA8
:10C2F0000001774B782B00D000017507D8A0760796
:10C300007529EFE17629D8A4ECD77FC0F8FF7EC06D
:10C31000F7FF7DC0F6FF1200000E436E040E43646B
:10C3200002D0040C120043500C0D090EF326000E2F
:10C33000F422C00EF324D96E030EF420DA6EDE5020
:10C34000DE10DE1012E043500C0D040EF326000E3A
:10C35000F422C00EF324D96E030EF420DA6EDE2A26
:10C36000000EDE22DE22DE2200D0432A040E4364C9
:10C37000DAD7040C12000001786B776B71C02CF1D6
:10C3800072C02DF173C03CF174C02AF175C02BF15D
:10C390000001766B10D071C0D9FF72C0DAFFDF5098
:10C3A0000001786F0001714B722B000178517727E3
:10C3B0000001762B00D000017351765DECE30001A3
:10C3C000771D74C0D9FF75C0DAFFDF6E120012004E
:10C3D0000001806F7D0E0001801903E07E0E801940
:10C3E00012E17D0E05EC66F02C50010D800EF32459
:10C3F000D96E050EF420DA6E7D0EDF6E2C2A200E2B
:10C400000001801B00D00001805105EC66F02C502B
:10C41000010D800EF324D96E050EF420DA6E80C073
:10C42000DFFF2C2A120000017351711B080E00015E
:10C43000766F000176511DE001D01BD0000171A183
:10C440000CD0D8907231756F7131746F080E7419F9
:10C45000716F840E7519726F09D0D8900001723116
:10C46000746F7131716F74C072F000D00001760783
:10C47000E0D771C071F072C072F01200A4B8A3A826
:10C4800013D0A80E456E010E466E610E476E000E6B
:10C49000486E79EC5BF0E80603E161C0A9FF04D0C7
:10C4A000A8A202D0A89A00D0A4BAA3AA0CD0AACF5E
:10C4B00060F0980E456E010E466E60C047F078EC55
:10C4C00059F0A49A00D09CA212009C989C8812005B
:10C4D000120000017351741121E0010E756F06D036
:10C4E0000001D89073377437752B00D0000174BFEA
:10C4F00002D0F6D700D000017351715D74517259AA
:10C5000005E37351715F7451725B00D00001D890E4
:10C51000743373330001752FEED700D071C071F002
:10C5200072C072F01200000174AF1AD071C075F0C1
:10C5300072C076F073C077F074C078F0751F761F04
:10C54000771F781F752B000E76237723782375C00D
:10C5500071F076C072F077C073F078C074F012009A
:10C5600071C071F072C072F073C073F074C074F077
:10C570001200000E0001756F030E766F020E752516
:10C58000736F000E7621746F73C071F074C072F017
:10C5900075C0D9FF76C0DAFF40C1DFFF000120EE91
:10C5A00001F07551D9267651DA22730EDF6E000143
:10C5B000735100087125020FEC6F12001200000E7B
:10C5C0000001756F030E766F020E7525736F000EF6
:10C5D0007621746F73C071F074C072F075C0D9FFAA
:10C5E00076C0DAFF40C1DFFF000120EE01F0755197
:10C5F000D9267651DA22730EDF6E000173510008DE
:10C600007125020FEC6F12001200000120EE06F0FF
:10C610007151D9267251DA2273C0DEFF74C0DDFF7A
:10C6200071C0D9FF72C0DAFFDE6ADD6A000120EE58
:10C6300002F07151D9267251DA22DE6ADD6A0001F8
:10C6400020EE04F07151D9267251DA2275C0DEFF56
:10C6500076C0DDFF120071C073F072C074F000018B
:10C66000766B756B0001776B12D015D073C0D9FF54
:10C6700074C0DAFFDE5000017527DD507623020E0C
:10C6800000017327000E7423020E000177273F0E6E
:10C6900000017765EBD775C071F076C072F01200BB
:10C6A0004A0E0001716F040E726F7DC073F07EC080
:10C6B00074F073517411D8A4200E756F7FC076F09A
:10C6C000776B02EC60F07FC03AF100017F51010D01
:10C6D0004A0EF324D96E040EF420DA6E000EDF6EDB
:10C6E000040E0301E06F000C12000400000E0001B4
:10C6F000876F1A0E886F43EC67F00001AF6FAF5180
:10C70000896F8A6B4DEC67F00001B06FB0518B6F91
:10C710008C6B4AEC67F00001B16FB1518D6F8E6B7D
:10C720003EEC67F071C08FF072C090F018EC24F00E
:10C730001200425043101CE0010E446E05D0D89008
:10C7400042364336442A00D043BE02D0F8D700D048
:10C750004250405C4350415805E34250405E4350D4
:10C76000415A00D0D89043324232442EF1D700D003
:10C7700040C040F041C041F01200800E0001716FD6
:10C78000010E726F000E736F090E746F010E766FDB
:10C79000756B05EC63F001011A6B040E1B6F010E43
:10C7A0001C6F1D6B01012F6B2E6B01011E6B1F6B2C
:10C7B000206B216B01013B6B010E4E6E120076C0A7
:10C7C0007CF077C07DF000017E6B7B6B7A6B12D0C2
:10C7D00000017E697CC073F07DC074F07EC075F08E
:10C7E0000CEC65F0040000017C4B7D2B00017A4BC2
:10C7F0007B2B00D0000178517A5D79517B59E8E3B9
:10C800001200000179517D5D7A517E597B517F592B
:10C810008051800A816F7C51800A815909E27DC074
:10C8200079F07EC07AF07FC07BF080C07CF012008F
:10C8300079C079F07AC07AF07BC07BF07CC07CF064
:10C840001200120000017C6B00017AAF08D0796DF4
:10C850007A1FD8B07A2B010E00017C6F00D079C00E
:10C8600071F07AC072F00001736B8E0E746F7CC031
:10C8700075F0C1EC58F071C079F072C07AF073C0F5
:10C880007BF0120012006CCF72F06C6A958A959C56
:10C890000001736B08D00BD0837C100EE82EFED7FE
:10C8A00000D00001732B0F0E00017365F5D7958A38
:10C8B000958C72C06CFF820E0001716FDE0EE82E47
:10C8C000FED7712FFCD7120071C075F072C076F0E0
:10C8D00004D00001754B762B00D075C0D9FF76C00F
:10C8E000DAFFDF50F6E171C073F072C074F000013E
:10C8F000731F741F734B742B75517325716F7651B1
:10C900007421726F12001200640000000000000029
:10C9100000728A0000000000000000000050B90012
:10C92000010000000000000000EC2D00E803000002
:10C93000000000000008550000000000000000009A
:10C9400000A27100280402E1050E1200010100A3FB
:10C9500002D00F0E1200010100A507D0A3C2ADF254
:10C96000A4C2AEF20001EA8500D0010E0201AF6F51
:10C970000001EA87060E0301EC6F000C120000D0E4
:10C9800082EC66F00009FCE18996030EBEEC66F0CD
:10C9900000017451BEEC66F000017351BEEC66F00C
:10C9A000000EBEEC66F00001756F898600017551BE
:10C9B000120012002FEC67F00001726F010E0E6E74
:10C9C00072C010F000017251D8A412001CC0ADF268
:10C9D0001DC0AEF2000E0201AF6F0001EA8500013A
:10C9E000EA871200120039EC67F0C00EC8EC66F05E
:10C9F0008B0EC8EC66F0FF0EC8EC66F0FF0EC8ECBC
:10CA000066F000017451C8EC66F000017351C8EC87
:10CA100066F034EF67F0120000D082EC66F0000997
:10CA2000FCE10EEC67F08996020EBEEC66F00001A8
:10CA30007451BEEC66F000017351BEEC66F000016B
:10CA40007551BEEC66F08986120071C077F072C035
:10CA500078F00AD077C0D9FF78C0DAFF73C0DFFF63
:10CA60000001774B782B00D000017507D8A076071E
:10CA70007529F0E17629D8A4EDD71200010E000146
:10CA8000ED650AD075EC63F0D70E0001876F1C0EC0
:10CA9000886F18EC24F000D043EC64F0958A958CF4
:10CAA0006D8E280E6C6E630E6E6E120073C074F085
:10CAB000050E0001756F0001D8907437752FFBD7F4
:10CAC00071C0D9FF72C0DAFFDF501F0B741171C043
:10CAD000D9FF72C0DAFFDF6E1200010E0001ED65B2
:10CAE0000AD075EC63F0790E0001876F1C0E886F19
:10CAF00018EC24F000D02B6A2C6A256A01013069F9
:10CB00003169000E246A1200010E0001ED650AD0A1
:10CB100075EC63F01A0E0001876F1C0E886F18EC1D
:10CB200024F000D00F68000E0E6E000E0D6E000E89
:10CB3000106E000C12000001B26F010E0E6EB2C03A
:10CB400010F000D0010E0001ED65010C75EC63F0F2
:10CB5000FE0E0001876F0C0E886F18EC24F0120097
:10CB60001200010E0001ED650AD075EC63F0C50EF0
:10CB70000001876F1C0E886F18EC24F000D094968B
:10CB8000949A200EC66E400EC76E9E96120000014B
:10CB9000736F000E0001726F3A0E0001736106D0D0
:10CBA0002F0E736503D0010E726F00D072C071F04A
:10CBB0000001713112001200000171517303F3CFB3
:10CBC00075F0F4CF76F071517403F35076277251FB
:10CBD0007303F350762775C071F076C072F01200BF
:10CBE00012002FEC67F00001746F0001745109E12D
:10CBF00072C0D9FF73C0DAFF1CC0DEFF1DC0DDFFAD
:10CC000000D0000174511200120000017F6F00D0AB
:10CC1000A80E0001766F010E776F7FC078F036ECBA
:10CC200056F00009F5E0A398A8AAA88AA3881200E4
:10CC3000010E0001ED654CEF2FF075EC63F0270E4F
:10CC40000001876F190E886F18EC24F04CEF2FF05D
:10CC50004CEF2FF0120000017F6F00D0A00E0001FA
:10CC6000766F010E776F7FC078F036EC56F00009D2
:10CC7000F5E09D98ADAAAD8A9D88120001010E2BAA
:10CC8000000E0F2310231123122B1323142315231B
:10CC90002BEC61F001010E2B000E0F23102311234A
:10CCA00012000001D8907335746F71C0D9FF72C043
:10CCB000DAFFDF50F10B741171C0D9FF72C0DAFFD7
:10CCC000DF6E1200010E0001ED650AD075EC63F015
:10CCD000100E0001876F1B0E886F18EC24F000D037
:10CCE000929689861200020E0001791902E0320E36
:10CCF0001200020E0101416F7C6B7D6BB9EC62F09A
:10CD0000000C12008996050EBEEC66F0000EBEEC1B
:10CD100066F00001726F898600017251010B1200EA
:10CD20001200980E0001766F010E776F7EC078F0CA
:10CD30007FC079F0D3EF5AF0120039EC67F0C00EE3
:10CD4000C8EC66F0870EC8EC66F034EF67F01200AE
:10CD500039EC67F0C00EC8EC66F0860EC8EC66F0E1
:10CD600034EF67F0120039EC67F0C00EC8EC66F0E3
:10CD7000850EC8EC66F034EF67F012000001716FA9
:10CD800071C0C9FF00D09EA6FED79E96C950120062
:10CD90000001726F72C06FFF00D06DB0FED7D2EC91
:10CDA00066F0120000D06BCF71F01F0E00017117FA
:10CDB000D8B46DB4F8D712005B56414C5D005B42AD
:10CDC00041445D004343414346000100000E010120
:10CDD000056F006F016F026F036F000C12000001FE
:10CDE000716F0001D8907131070B12001200000121
:10CDF000716F00017139E842070B12001200480EF2
:10CE0000D36E400E9B6EA06A100EA16E1200000140
:10CE1000806F000180512BEC66F012008996060E9F
:10CE2000BEEC66F0898612000101416BDFEC62F016
:10CE3000000C12006B9A6B8800D06BB8FED7120002
:10CE4000010E0101056F010C120001010351CFEF2A
:10CE50005FF0120001010251CFEF5FF012000101FB
:10CE60000051CFEF5FF012006B8400D06BB4FED79F
:10CE700012006B8000D06BB0FED7120028C171F099
:10CE800029C172F01200010139511200120000C1D3
:10CE900001F1120022501200120021501200120063
:10CEA00012000100FFFFFFFFFFFFFFFFFFFFFFFF7B
:10CEB000FFFFFFFFFFFFFFFFFFFFFFFFFFFFFFFF82
:10CEC000FFFFFFFFFFFFFFFFFFFFFFFFFFFFFFFF72
:10CED000FFFFFFFFFFFFFFFFFFFFFFFFFFFFFFFF62
:10CEE000FFFFFFFFFFFFFFFFFFFFFFFFFFFFFFFF52
:020000040001F9
:06FFF800BEF7FDF6FFFF5D
:00000001FF
