:0408400071EF04F060
:10084800FACF63F0FBCF64F0E9CF65F0A9EF51F080
:10085800D8CF2EF0E8CF2FF0E0CF30F0FACF31F03C
:10086800FBCF32F0E9CF33F0EACF34F0E1CF35F007
:10087800E2CF36F0D9CF37F0DACF38F0F3CF39F00E
:10088800F4CF3AF0F6CF3BF0F7CF3CF0F8CF3DF09D
:10089800F5CF3EF03EC0F5FF3DC0F8FF3CC0F7FF86
:1008A8003BC0F6FF3AC0F4FF39C0F3FF38C0DAFFA7
:1008B80037C0D9FF36C0E2FF35C0E1FF34C0EAFFD8
:1008C80033C0E9FF32C0FBFF31C0FAFF30C0E0FFA0
:0E08D8002FC0E8FF2EC0D8FF10005DEF49F0E2
:1008F0004E45575245545F3135313131355F310006
:1009000020202035363131303520526576204200A6
:1009400000010000000A00000064000000E803004D
:100950000010270000A086010040420F00809698FA
:100960000000E1F50500CA9A3B01000000100000FC
:100970000000010000001000000000010000001055
:100980000000000001000000104D4F544F523A206B
:100990004D6F766520746F20756E77696E642020C8
:1009A00020205B543D25332E3364204D3D25372ECA
:1009B000356C6420503D25372E356C6420443D2530
:1009C000372E356C645D0D0A004D4F544F523A205E
:1009D0004D6F766520746F206D61782074696C743A
:1009E00020205B543D25332E3364204D3D25372E8A
:1009F000356C6420503D25372E356C6420443D25F0
:100A0000372E356C645D0D0A004D4F544F523A201D
:100A10004D6F766520746F206C6173742074696CFF
:100A200074205B543D25332E3364204D3D25372EF5
:100A3000356C6420503D25372E356C6420443D25AF
:100A4000372E356C645D0D0A004D4F544F523A20DD
:100A50004D6F766520746F206E65772074696C74B5
:100A6000205B543D25332E3364204D3D25372E35F4
:100A70006C6420503D25372E356C6420443D25376D
:100A80002E356C645D0D0A004D4F544F523A204D87
:100A90006F766520746F20656E642073746F7020AC
:100AA000205B543D454E44204D3D25372E356C642A
:100AB00020503D25372E356C6420443D25372E359A
:100AC0006C645D0D0A002323232323232323232384
:100AD00023232323232323232323232323232323E6
:100AE00023232323232323232323232323232323D6
:100AF00023232323232323232323232323232323C6
:100B0000230D0A0076616C6964206669726D7761F5
:100B10007265206865616465723A204E616D653A60
:100B20002025732C204C656E3A20256C642C2063A4
:100B30006865636B73756D3A20307825780D0A000F
:100B40005052494D415259204E5328256429203C8A
:100B50003D3E205345434F4E44415259204E52286A
:100B600025642920202020203E204D49534D41540A
:100B700043482025735D0D0A005052494D4152599A
:100B8000204E5228256429203C3D3E205345434FAA
:100B90004E44415259204E532825642920202020BC
:100BA000203E204D49534D415443482025730D0AA2
:100BB00000504152414D3A204672657175656E6331
:100BC000792042616E645B335D20202020202573F4
:100BD000203078252E3478203078252E3478203037
:100BE00078252E34780D0A00656570726F6D207758
:100BF0007269746520636865636B73756D206164E9
:100C000064726573733A203078252E32582C206434
:100C10006174613A203078252E3258006565707213
:100C20006F6D207772697465206164647265737397
:100C30003A203078252E32582C206C656E3A2025CB
:100C40002E32642C20646174613A2000504152417C
:100C50004D3A204761696E5B345D202020202020C2
:100C600020202020202020202025732025642025DE
:100C7000642025642025640D0A00504152414D3AFC
:100C8000204265616D77696474685B345D20202063
:100C9000202020202020202573202564202564206A
:100CA00025642025640D0A005461736B5F506172E6
:100CB000616D65746572732020202853454E442071
:100CC000434F4E464947204441544120444F4E45EE
:100CD000290D0A00504152414D3A204C6173742055
:100CE000446972656374696F6E2020202020202083
:100CF00020257320444F574E57415244530D0A004C
:100D00006164643A20307825382E386C782C206C59
:100D1000656E3A20252E356C642C2063686B3A2072
:100D2000307825342E34780D0A005B524554204D1E
:100D300049535345532041204652414D4520534588
:100D40004E542046524F4D20434F4E54524F4C4C20
:100D500045525D005B434F4E54524F4C4C45522020
:100D60004D49535345532041204652414D45205350
:100D7000454E542046524F4D205245545D0050413F
:100D800052414D3A205472616365204C6576656C22
:100D90002020202020202020202020257320554E98
:100DA0004B4E4F574E0D0A00504152414D3A204C88
:100DB00061737420446972656374696F6E202020CA
:100DC0002020202020257320555057415244530D98
:100DD0000A004D4F544F523A2063757272656E741B
:100DE0005F706F736974696F6E20256C642C20537B
:100DF0005445502055502025640D0A004D4F544F46
:100E0000523A2063757272656E745F706F736974A5
:100E1000696F6E20256C642C205354455020445734
:100E20002025640D0A00636865636B73756D20632C
:100E3000616C3A20307825312E31582C206578703D
:100E40003A20307825312E31582025730D0A004480
:100E5000454255473A20414D49535F33303632348D
:100E60005F4765745F48575F537461747573286694
:100E7000616C7365290D0A0044454255473A20418B
:100E80004D49535F33303632345F4765745F48579E
:100E90005F5374617475732874727565290D0A0047
:100EA000436C656172696E6720656570726F6D2055
:100EB000636F6E74656E7420616E64207265736515
:100EC0007474696E670D0A0068646C635F70726F9A
:100ED000636573735F7869645F7265717565737458
:100EE00020666F726D6174206572726F720D0A00F8
:100EF0004D4F544F523A204D4F56494E4720205B9C
:100F000025362E35642C2061637475616C3A253763
:100F10002E356C645D0D0A004D4F544F523A2053EC
:100F200054414C4C4544205B25362E35642C2061C1
:100F3000637475616C3A25372E356C645D0D0A005B
:100F40004D4F544F523A2053544F50504544205B1C
:100F500025362E35642C2061637475616C3A253713
:100F60002E356C645D0D0A0044454255473A2041D8
:100F70004D49535F33303632345F52657365745F69
:100F8000546F5F44656661756C7428290D0A0044CE
:100F9000454255473A20414D49535F33303632344C
:100FA0005F5365745F5374616C6C5F506172616D07
:100FB00028290D0A0044454255473A20414D4953DE
:100FC0005F33303632345F5365745F4D6F746F72C8
:100FD0005F506172616D28290D0A00504152414DE8
:100FE0003A205472616365204C6576656C20202040
:100FF00020202020202020202573204442470D0A55
:1010000000504152414D3A205472616365204C6555
:1010100076656C2020202020202020202020257391
:10102000204C4F470D0A00504152414D3A20547216
:10103000616365204C6576656C202020202020208F
:10104000202020202573204552520D0A0050415285
:10105000414D3A2043616C6962726174656420207D
:101060002020202020202020202025732059455397
:101070000D0A00504152414D3A2054696C7420438E
:101080006F6E76657273696F6E202020202020209D
:10109000257320256C640D0A0044454255473A20CB
:1010A000414D49535F33303632345F526573657456
:1010B0005F506F736974696F6E28290D0A00504183
:1010C00052414D3A2043616C6962726174656420DB
:1010D00020202020202020202020202573204E4F5B
:1010E0000D0A00504152414D3A20556E77696E64A9
:1010F00020202020202020202020202020202020F0
:1011000025732025640D0A00504152414D3A20427A
:1011100061636B6C617368202020202020202020D8
:10112000202020202025732025640D0A00504152E4
:10113000414D3A204D696E2054696C742020202066
:101140002020202020202020202025732025640D11
:101150000A00504152414D3A204D61782054696C4B
:101160007420202020202020202020202020202526
:10117000732025640D0A00504152414D3A205469B4
:101180006C7420506F736974696F6E20202020206A
:101190002020202025732025640D0A005041524153
:1011A0004D3A20416E74656E6E61204265617269D0
:1011B0006E672020202020202025732025640D0A22
:1011C00000504152414D3A204D656368616E69633C
:1011D000616C2054696C742020202020202025730D
:1011E0002025640D0A00504152414D3A2053656359
:1011F000746F72204964202020202020202020208D
:1012000020202025732025730D0A00504152414DA6
:101210003A20496E7374616C6C2049642020202050
:10122000202020202020202025732025730D0A0057
:10123000504152414D3A20496E7374616C6C2044A8
:10124000617465202020202020202020202573206C
:1012500025730D0A00504152414D3A204261736599
:1012600073746174696F6E204964202020202020EF
:10127000202025732025730D0A00504152414D3A1C
:1012800020416E74656E6E61204D6F64656C204EFA
:10129000756D626572202025732025730D0A00503C
:1012A0004152414D3A2050726F64756374204D6F06
:1012B00064656C204E756D62657220202573202553
:1012C000730D0A00504152414D3A20416E74656ED3
:1012D0006E612053657269616C204E756D62657236
:1012E0002025732025730D0A00504152414D3A20AC
:1012F00050726F647563742053657269616C204E1F
:10130000756D6265722025732025730D0A005443A4
:101310005020434F4D504C45544544202E2E2E20F6
:1013200053454E44494E4720414E535745520D0AAE
:101330000053656E645F436F6E6669675F446174F6
:101340006120646F6E65205B3078252E32785D0DEC
:101350000A0044454255473A20414D49535F3330D6
:101360003632345F486172645F53746F7028290DA0
:101370000A00416E74656E6E612046726571756516
:101380006E63792042616E64204578742030783035
:101390003800416E74656E6E6120467265717565C8
:1013A0006E63792042616E64204578742030783015
:1013B0003900636865636B73756D202020202020E1
:1013C000202020202020203A203078252E34780D2F
:1013D0000A004672657175656E63792042616E64BC
:1013E0005B305D202020203A203078252E34780D87
:1013F0000A004672657175656E63792042616E649C
:101400005B315D202020203A203078252E34780D65
:101410000A004672657175656E63792042616E647B
:101420005B325D202020203A203078252E34780D44
:101430000A00414C41524D3A203078252E31782017
:101440003078252E3178203078252E31780D0A001D
:101450005365745F54696C74206E6F206368616EAD
:101460006765205B3078252E32785D0D0A00476570
:10147000745F4465766963655F44617461202573B8
:10148000205B3078252E32785D0D0A005365745F3D
:101490004465766963655F44617461202573205BF0
:1014A0003078252E32785D0D0A0053544152543A5B
:1014B000205374657070657220647269766572205D
:1014C000696E69740D0A005443502041424F5254D2
:1014D0004544202E2E2E2053454E44494E4720523F
:1014E000520D0A005475726E20526174696F20208B
:1014F0002020202020202020203A20256C640D0A66
:101500000053656E645F436F6E6669675F64617404
:1015100061205B3078252E32785D0D0A00416C61C8
:10152000726D5F496E6469636174696F6E205B30D0
:1015300078252E32785D0D0A0053756273637269E7
:1015400062655F416C61726D73205B3078252E326D
:10155000785D0D0A00556E77696E6420202020208A
:10156000202020202020202020203A2025640D0A41
:10157000006C656E677468202020202020202020C9
:101580002020202020203A2025640D0A0047616990
:101590006E5B305D20202020202020202020202075
:1015A00020203A2025640D0A004761696E5B315D99
:1015B00020202020202020202020202020203A2011
:1015C00025640D0A004761696E5B325D2020202092
:1015D000202020202020202020203A2025640D0AD1
:1015E000004761696E5B335D202020202020202091
:1015F0002020202020203A2025640D0A004261632B
:101600006B6C617368202020202020202020202067
:1016100020203A2025640D0A004D696E2054696C23
:1016200074202020202020202020202020203A204C
:1016300025640D0A004D61782054696C74202020C7
:10164000202020202020202020203A2025640D0A60
:10165000004265616D77696474685B305D202020AD
:101660002020202020203A2025640D0A00426561B8
:101670006D77696474685B315D2020202020202014
:1016800020203A2025640D0A004265616D77696467
:1016900074685B325D2020202020202020203A200A
:1016A00025640D0A004265616D77696474685B3377
:1016B0005D2020202020202020203A2025640D0AB3
:1016C00000416E74656E6E61204D6F64656C204ED6
:1016D000756D626572203A2025730D0A0050726F95
:1016E00064756374204D6F64656C204E756D626522
:1016F00072203A2025730D0A0057726974655F5590
:101700007365725F44617461205B3078252E327896
:101710005D0D0A0056656E646F725F537065636994
:10172000666963205B3078252E32785D0D0A004DA6
:101730004F544F523A2052656163686564206C6172
:1017400073742074696C740D0A0052455345543A01
:1017500020524553455420494E5354525543544901
:101760004F4E0D0A0053544152543A20536368655A
:1017700064756C657220737461727465640D0A001F
:101780004552524F523A20493243207265616420DB
:1017900074696D656F75740D0A005461736B5F44F5
:1017A0006F776E6C6F61642020202853544152542F
:1017B000290D0A00526561645F557365725F44616B
:1017C0007461205B3078252E32785D0D0A0043610C
:1017D0006C69627261746520646F6E65205B30783D
:1017E000252E32785D0D0A00446F776E6C6F616450
:1017F0005F5374617274205B3078252E32785D0DF2
:101800000A00506572666F726D696E67204C61796F
:101810006572322072657365740D0A004D4F544F26
:10182000523A205265616368656420656E64207376
:10183000746F700D0A004D4F544F523A205265613B
:1018400063686564206D61782074696C740D0A00AA
:1018500052455345543A205741544348444F47203A
:1018600054494D454F55540D0A00416374756174D8
:101870006F725F4A616D5F5065726D616E656E7407
:101880000D0A004163747561746F725F4A616D5F28
:1018900054656D706F726172790D0A005461736BDB
:1018A0005F446F776E6C6F61642020202853544F23
:1018B00050290D0A005365745F54696C7420646F7D
:1018C0006E65205B3078252E32785D0D0A00446FFE
:1018D000776E6C6F61645F4170706C205B3078254F
:1018E0002E32785D0D0A004F70657261746F722040
:1018F000416E74656E6E612042656172696E67004B
:101900004F70657261746F72204D656368616E69B6
:1019100063616C2054696C740053544152543A20F2
:10192000504152414D455445525320696E69740DE2
:101930000A0053544152543A204D6F746F72207410
:1019400061736B20696E69740D0A00496E6163747E
:1019500069766974792074696D6572207265736542
:10196000740D0A00446F776E6C6F61645F456E643E
:10197000205B3078252E32785D0D0A00507265703C
:101980006172654572726F72205B3078252E3278F5
:101990005D0D0A00436C6561725F416C61726D732D
:1019A000205B3078252E32785D0D0A004F7065720D
:1019B00061746F72204261736573746174696F6ED4
:1019C000204964004D4F544F523A2052656163687C
:1019D000656420756E77696E640D0A00416E7465EA
:1019E0006E6E61204672657175656E637920426125
:1019F0006E64005B252E32643A252E32643A252E21
:101A000032642E252E33645D200077726F6E67205E
:101A100070726F64756374206E756D6265720D0A05
:101A200000504152414D3A2056616C6964617469BD
:101A30006E672025730D0A004F70657261746F72B6
:101A4000416E74656E6E6142656172696E67004FCA
:101A500070657261746F724D656368616E69636110
:101A60006C54696C74004163747561746F725F4A81
:101A7000616D5F5065726D616E656E740041637477
:101A80007561746F725F4A616D5F54656D706F72DE
:101A9000617279004765745F416C61726D73205BA0
:101AA0003078252E32785D0D0A00416E74656E6EB9
:101AB000612053657269616C204E756D62657200BC
:101AC0004F70657261746F72426173657374617493
:101AD000696F6E49640048575F49443A2025642580
:101AE0006425642564256425640D0A00535441521D
:101AF000543A20454550524F4D20696E69740D0A85
:101B00000043616C696272617465205B3078252ED8
:101B100032785D0D0A0053656C665F5465737420FE
:101B20005B3078252E32785D0D0A00416E74656E4B
:101B30006E6120496E7374616C6C20446174650041
:101B4000416E74656E6E61204D6F64656C204E75DC
:101B50006D62657200416E74656E6E61467265718C
:101B600075656E637942616E64004765745F496EA6
:101B7000666F205B3078252E32785D0D0A00476550
:101B8000745F54696C74205B3078252E32785D0D5B
:101B90000A005365745F54696C74205B3078252E9D
:101BA00032785D0D0A00504152414D3A2055706423
:101BB000617465642025730D0A004F70657261744D
:101BC0006F72496E7374616C6C4461746500416E30
:101BD00074656E6E6153657269616C4E756D626598
:101BE000720050726F6475637453657269616C4EF4
:101BF000756D6265720052455345543A20504F57F7
:101C0000455220444F574E0D0A0053544152543A06
:101C1000204149534720696E69740D0A00416E7472
:101C2000656E6E6120496E7374616C6C204964004E
:101C30004F70657261746F7220536563746F7220A8
:101C40004964004672616D65206E6F7420666F7224
:101C5000206D650D0A004E6F206D61736B20584931
:101C600044207363616E0D0A0053544152543A206C
:101C700048444C4320696E69740D0A00416E7465D6
:101C80006E6E614D6F64656C4E756D62657200506D
:101C9000726F647563744D6F64656C4E756D6265CB
:101CA000720052455345543A2042524F574E204FEE
:101CB00055540D0A0053544152543A205350492070
:101CC000696E69740D0A0053544152543A204932E6
:101CD0004320696E69740D0A00556E6B6E6F776EE6
:101CE00020446174616669656C6400416E74656E60
:101CF0006E61204265616D7769647468004F70653C
:101D00007261746F72496E7374616C6C49640052D5
:101D1000455345543A20504F5745522D4F4E0D0ACA
:101D2000004D61696E2052756E6E696E6720256484
:101D30000D0A0030313233343536373839414243B9
:101D400044454600303132333435363738396162F4
:101D500063646566005265736574205B3078252E78
:101D600032785D0D0A00416E74656E6E61204D69BA
:101D70006E2054696C7400416E74656E6E61204D06
:101D800061782054696C740077726F6E67206368A5
:101D900065636B73756D0D0A004F70657261746FCA
:101DA00072536563746F72496400416E74656E6E40
:101DB000614265616D7769647468004D4F544F529C
:101DC0003A2054494D454F55540D0A00524553454C
:101DD000543A20554E4B4E4F574E0D0A004255492E
:101DE0004C443A20257320402025730D0A0062756B
:101DF000665F636F756E743D2025750D0A00494E50
:101E000056414C49445F4652414D450D0A00777298
:101E10006F6E672076657273696F6E0D0A00414CB4
:101E200041524D3A20436C722025730D0A00414CFB
:101E300041524D3A205365742025730D0A004445E4
:101E40004255473A204143544956450D0A004861DE
:101E50007264776172655F4572726F72004E6F7463
:101E600020436F6E66696775726564004E6F745FBC
:101E7000436F6E6669677572656400416E74656E66
:101E80006E614D696E54696C7400416E74656E6E5E
:101E9000614D617854696C74004E6F745F43616C7E
:101EA000696272617465640056455253493A20254F
:101EB0002E3136730D0A004E6F7443616C69627285
:101EC00061746564004C617374446972656374691C
:101ED0006F6E00416E74656E6E61204761696E00C1
:101EE00077726F6E6720747970650D0A00545241E5
:101EF00043453A204442470D0A0054524143453A73
:101F0000204C4F470D0A0054524143453A20455258
:101F1000520D0A00416E74656E6E614761696E0014
:101F20004E6F762031352032303135005472616386
:101F3000654C6576656C00525820252E32643A2037
:101F400000545820252E32643A20005475726E5287
:101F50006174696F004261636B6C61736800323059
:101F60003A30363A3335003078252E327820006901
:101F70006E76616C696400286E756C6C2900556E14
:101F800077696E6400434341505000253032582039
:101F9000000D0A2020004343000D000021EEE6F072
:101FA00010EED4F0050EDBCFE3FFE806FCE221EEF5
:101FB000ECF010EEDAF0050EDBCFE3FFE806FCE212
:101FC000000E05B0010E0001E06F0001E00504E025
:101FD000DA0EE16F000E04D0D40E0001E16F000EA6
:101FE0000001E26F00D00001E36B100E0001E36519
:101FF00001D038D00001E351010D000EF324D96E59
:10200000020EF420DA6EDF500AE0E351010D000EFB
:10201000F324D96E020EF420DA6EDE280CE1000102
:10202000E351010DB30EF324D96E000EF420DA6EE5
:10203000200EDF6E14D00001E351010D000EF324D9
:10204000D96E020EF420DA6EE351010DB30EF324C3
:10205000E16E000EF420E26EDFCFE7FF00D000015A
:10206000E32BC3D70001E351010DB30EF324D96E66
:10207000000EF420DA6EDF6A0001E32B00D0BDEC25
:102080005FF0E90E0001876F120E886FE1C089F0E2
:10209000E2C08AF089518A11D8A4200E8B6FB30E4A
:1020A0008C6F000E8D6F8C11D8A4200E8E6FEFEC0C
:1020B00023F000D0000E05B2010E0001E06F000118
:1020C000E00504E0DA0EE16F000E04D0D40E00014A
:1020D000E16F000E0001E26F00D00001E36B0E0E15
:1020E0000001E36501D038D00001E351010D110E6C
:1020F000F324D96E020EF420DA6EDF500AE0E351C9
:10210000010D110EF324D96E020EF420DA6EDE28D2
:102110000CE10001E351010DB30EF324D96E000E62
:10212000F420DA6E200EDF6E14D00001E351010DB1
:10213000110EF324D96E020EF420DA6EE351010D74
:10214000B30EF324E16E000EF420E26EDFCFE7FF62
:1021500000D00001E32BC3D70001E351010DB30E02
:10216000F324D96E000EF420DA6EDF6A0001E32B4F
:1021700000D0BDEC5FF09F0E0001876F120E886FDC
:10218000E1C089F0E2C08AF089518A11D8A4200EFA
:102190008B6FB30E8C6F000E8D6F8C11D8A4200E38
:1021A0008E6FEFEC23F000D0000E05B4010E00019D
:1021B000E06F0001E00504E0DA0EE16F000E04D0EC
:1021C000D40E0001E16F000E0001E26F00D00001AB
:1021D000E36B100E0001E36501D038D00001E3513C
:1021E000010D200EF324D96E020EF420DA6EDF50BA
:1021F0000AE0E351010D200EF324D96E020EF42003
:10220000DA6EDE280CE10001E351010DB30EF32478
:10221000D96E000EF420DA6E200EDF6E14D00001AD
:10222000E351010D200EF324D96E020EF420DA6E74
:10223000E351010DB30EF324E16E000EF420E26EC3
:10224000DFCFE7FF00D00001E32BC3D70001E3514C
:10225000010DB30EF324D96E000EF420DA6EDF6A9E
:102260000001E32B00D0BDEC5FF0C40E0001876FCE
:10227000120E886FE1C089F0E2C08AF089518A119C
:10228000D8A4200E8B6FB30E8C6F000E8D6F8C1147
:10229000D8A4200E8E6FEFEC23F000D0000E05B610
:1022A000010E0001E06F0001E00504E0DA0EE16FCD
:1022B000000E04D0D40E0001E16F000E0001E26FA9
:1022C00000D00001E36B0E0E0001E36501D038D0B1
:1022D0000001E351010D310EF324D96E020EF420FA
:1022E000DA6EDF500AE0E351010D310EF324D96EAE
:1022F000020EF420DA6EDE280CE10001E351010D3C
:10230000B30EF324D96E000EF420DA6E200EDF6EC9
:1023100014D00001E351010D310EF324D96E020EE9
:10232000F420DA6EE351010DB30EF324E16E000EDA
:10233000F420E26EDFCFE7FF00D00001E32BC3D72C
:102340000001E351010DB30EF324D96E000EF42009
:10235000DA6EDF6A0001E32B00D0BDEC5FF07A0E8D
:102360000001876F120E886FE1C089F0E2C08AF029
:1023700089518A11D8A4200E8B6FB30E8C6F000E7A
:102380008D6F8C11D8A4200E8E6FEFEC23F000D04F
:10239000000E05B8010E0001E06F0001E00504E049
:1023A000DA0EE16F000E04D0D40E0001E16F000ED2
:1023B0000001E26F00D00001E36B050E0001E36550
:1023C00001D038D00001E351010D400EF324D96E45
:1023D000020EF420DA6EDF500AE0E351010D400EE8
:1023E000F324D96E020EF420DA6EDE280CE100012F
:1023F000E351010DB30EF324D96E000EF420DA6E12
:10240000200EDF6E14D00001E351010D400EF324C5
:10241000D96E020EF420DA6EE351010DB30EF324EF
:10242000E16E000EF420E26EDFCFE7FF00D0000186
:10243000E32BC3D70001E351010DB30EF324D96E92
:10244000000EF420DA6EDF6A0001E32B00D0BDEC51
:102450005FF0300E0001876F120E886FE1C089F0C7
:10246000E2C08AF089518A11D8A4200E8B6FB30E76
:102470008C6F000E8D6F8C11D8A4200E8E6FEFEC38
:1024800023F000D0000E05BA010E0001E06F00013C
:10249000E00504E0DA0EE16F000E04D0D40E000176
:1024A000E16F000E0001E26F00D00001E36B040E4B
:1024B0000001E36501D038D00001E351010D460E63
:1024C000F324D96E020EF420DA6EDF500AE0E351F5
:1024D000010D460EF324D96E020EF420DA6EDE28CA
:1024E0000CE10001E351010DB30EF324D96E000E8F
:1024F000F420DA6E200EDF6E14D00001E351010DDE
:10250000460EF324D96E020EF420DA6EE351010D6B
:10251000B30EF324E16E000EF420E26EDFCFE7FF8E
:1025200000D00001E32BC3D70001E351010DB30E2E
:10253000F324D96E000EF420DA6EDF6A0001E32B7B
:1025400000D0BDEC5FF00B0E0001876F120E886F9C
:10255000E1C089F0E2C08AF089518A11D8A4200E26
:102560008B6FB30E8C6F000E8D6F8C11D8A4200E64
:102570008E6FEFEC23F000D0000E05BC010E0001C1
:10258000E06F0001E00504E0DA0EE16F000E04D018
:10259000D40E0001E16F000E0001E26F00D00001D7
:1025A000E36B1F0E0001E36501D038D00001E35159
:1025B000010D4B0EF324D96E020EF420DA6EDF50BB
:1025C0000AE0E351010D4B0EF324D96E020EF42004
:1025D000DA6EDE280CE10001E351010DB30EF324A5
:1025E000D96E000EF420DA6E200EDF6E14D00001DA
:1025F000E351010D4B0EF324D96E020EF420DA6E76
:10260000E351010DB30EF324E16E000EF420E26EEF
:10261000DFCFE7FF00D00001E32BC3D70001E35178
:10262000010DB30EF324D96E000EF420DA6EDF6ACA
:102630000001E32B00D0BDEC5FF0550E0001876F69
:10264000120E886FE1C089F0E2C08AF089518A11C8
:10265000D8A4200E8B6FB30E8C6F000E8D6F8C1173
:10266000D8A4200E8E6FEFEC23F000D0000E05BE34
:10267000010E0001E06F0001E00504E0DA0EE16FF9
:10268000000E04D0D40E0001E16F000E0001E26FD5
:1026900000D00001E36B1F0E0001E36501D038D0CC
:1026A0000001E351010D6B0EF324D96E020EF420EC
:1026B000DA6EDF500AE0E351010D6B0EF324D96EA0
:1026C000020EF420DA6EDE280CE10001E351010D68
:1026D000B30EF324D96E000EF420DA6E200EDF6EF6
:1026E00014D00001E351010D6B0EF324D96E020EDC
:1026F000F420DA6EE351010DB30EF324E16E000E07
:10270000F420E26EDFCFE7FF00D00001E32BC3D758
:102710000001E351010DB30EF324D96E000EF42035
:10272000DA6EDF6A0001E32B00D0BDEC5FF0E60E4D
:102730000001876F110E886FE1C089F0E2C08AF056
:1027400089518A11D8A4200E8B6FB30E8C6F000EA6
:102750008D6F8C11D8A4200E8E6FEFEC23F000D07B
:10276000000E06B0010E0001E06F0001E00504E07C
:10277000DA0EE16F000E04D0D40E0001E16F000EFE
:102780000001E26F00D0BDEC5FF09C0E0001876F8E
:10279000110E886FE1C089F0E2C08AF089518A1178
:1027A000D8A4200E8B6F8BC28CF08CC28DF0EFEC16
:1027B00023F000D0000E06B2010E0001E06F000110
:1027C000E00504E0DA0EE16F000E04D0D40E000143
:1027D000E16F000E0001E26F00D0BDEC5FF0C10EB2
:1027E0000001876F110E886FE1C089F0E2C08AF0A6
:1027F00089518A11D8A4200E8B6F8DC28CF08EC2A5
:102800008DF0EFEC23F000D0000E06B4010E0001B5
:10281000E06F0001E00504E0DA0EE16F000E04D085
:10282000D40E0001E16F000E0001E26F00D0BDEC9C
:102830005FF0B10E0001876F0B0E886FE1C089F069
:10284000E2C08AF089518A11D8A4200E8B6F8FC202
:102850008CF090C28DF091C28EF092C28FF093C234
:1028600090F094C291F0EFEC23F000D0000E06B689
:10287000010E0001E06F0001E00504E0DA0EE16FF7
:10288000000E04D0D40E0001E16F000E0001E26FD3
:1028900000D0BDEC5FF07A0E0001876F0C0E886FE0
:1028A000E1C089F0E2C08AF089518A11D8A4200ED3
:1028B0008B6F95C28CF096C28DF097C28EF098C245
:1028C0008FF099C290F09AC291F09BC292F09CC294
:1028D00093F0EFEC23F000D0000E06B8010E0001DB
:1028E000E06F0001E00504E0DA0EE16F000E04D0B5
:1028F000D40E0001E16F000E0001E26F00D0BDECCC
:102900005FF04C0E0001876F0C0E886FE1C089F0FC
:10291000E2C08AF089518A11D8A4200E8B6F9DC223
:102920008CF08D6B9EC28EF08F6B9FC290F0916B7E
:10293000A0C292F0936BEFEC23F000D0000E06BA29
:10294000010E0001E06F0001E00504E0DA0EE16F26
:10295000000E04D0D40E0001E16F000E0001E26F02
:1029600000D0BDEC5FF0520E0001876F110E886F32
:10297000E1C089F0E2C08AF089518A11D8A4200E02
:102980008B6FA1C28CF0A2C28DF0EFEC23F000D0CF
:10299000000E06BC010E0001E06F0001E00504E03E
:1029A000DA0EE16F000E04D0D40E0001E16F000ECC
:1029B0000001E26F00D0BDEC5FF02D0E0001876FCB
:1029C000110E886FE1C089F0E2C08AF089518A1146
:1029D000D8A4200E8B6FA3C28CF0A4C28DF0EFECB4
:1029E00023F000D0000E06BE010E0001E06F0001D2
:1029F000E00504E0DA0EE16F000E04D0D40E000111
:102A0000E16F000E0001E26F00D0BDEC5FF0730ECD
:102A10000001876F100E886FE1C089F0E2C08AF074
:102A200089518A11D8A4200E8B6FA5C28CF0A6C242
:102A30008DF0A7C28EF0A8C28FF0EFEC23F000D08B
:102A4000000E07B0010E0001E06F0001E00504E098
:102A5000DA0EE16F000E04D0D40E0001E16F000E1B
:102A60000001E26F00D0BDEC5FF0080E0001876F3F
:102A7000110E886FE1C089F0E2C08AF089518A1195
:102A8000D8A4200E8B6FA9C28CF0AAC28DF0EFECF7
:102A900023F000D0000E07B2010E0001E06F00012C
:102AA000E00504E0DA0EE16F000E04D0D40E000160
:102AB000E16F000E0001E26F00D0BDEC5FF0E30EAD
:102AC0000001876F100E886FE1C089F0E2C08AF0C4
:102AD00089518A11D8A4200E8B6FABC28CF0ACC286
:102AE0008DF0EFEC23F000D0000E07B6010E0001D0
:102AF000E06F0001E00504E0DA0EE16F000E04D0A3
:102B0000D40E0001E16F000E0001E26F00D002015F
:102B1000AF5114E1BDEC5FF04D0E0001876F100E58
:102B2000886FE1C089F0E2C08AF089518A11D8A487
:102B3000200E8B6FEFEC23F014D000D0BDEC5FF0D3
:102B4000BE0E0001876F100E886FE1C089F0E2C0F1
:102B50008AF089518A11D8A4200E8B6FEFEC23F0F4
:102B600000D0000E07B4010E0001E06F0001E00587
:102B700004E0DA0EE16F000E04D0D40E0001E16F24
:102B8000000E0001E26F00D0BDEC5FF0770E000197
:102B9000876F110E886FE1C089F0E2C08AF0895119
:102BA0008A11D8A4200E8B6FADC28CF0AEC28DF00E
:102BB000EFEC23F000D0000E07B8010E0001E06F2B
:102BC0000001E00504E0DA0EE16F000E04D0D40E3F
:102BD0000001E16F000E0001E26F00D00201B05170
:102BE00014E1BDEC5FF0D40E0001876F0C0E886F0E
:102BF000E1C089F0E2C08AF089518A11D8A4200E80
:102C00008B6FEFEC23F014D000D0BDEC5FF0A80E7A
:102C10000001876F0D0E886FE1C089F0E2C08AF075
:102C200089518A11D8A4200E8B6FEFEC23F000D0CD
:102C3000000E07BA010E0001E06F0001E00504E09C
:102C4000DA0EE16F000E04D0D40E0001E16F000E29
:102C50000001E26F50D000D0BDEC5FF0270E000104
:102C6000876F100E886FE1C089F0E2C08AF0895149
:102C70008A11D8A4200E8B6FEFEC23F0120000D045
:102C8000BDEC5FF0010E0001876F100E886FE1C090
:102C900089F0E2C08AF089518A11D8A4200E8B6F86
:102CA000EFEC23F0120000D0BDEC5FF0DB0E000172
:102CB000876F0F0E886FE1C089F0E2C08AF08951FA
:102CC0008A11D8A4200E8B6FEFEC23F0120000D0F5
:102CD000BDEC5FF07E0E0001876F0D0E886FE1C0C6
:102CE00089F0E2C08AF089518A11D8A4200E8B6F36
:102CF000EFEC23F012000201B151AEE0010AC0E096
:102D0000030AD2E0E5D7120021EEF2F010EEC2F095
:102D1000050EDBCFE3FFE806FCE233C1CAF0000199
:102D2000CB6B4A0E0001D06F040ED16F0001CD6B4A
:102D3000CC6BD0C0C8F0D1C0C9F00001CF6BCE6B56
:102D400014D0C8C0D9FFC9C0DAFFDE500001CC27BB
:102D5000DD50CD23020E0001C827000EC923020E4C
:102D60000001CE27000ECF2300D00001CA51CE5D56
:102D7000CB51CF59E6E35A0E0001CC1905E15A0EAA
:102D8000CD1902E110D000D00001ED510AE0BDECF8
:102D90005FF0880E0001876F1D0E886FEFEC23F047
:102DA00000D0060E1200D0C071F0D1C072F0C20E79
:102DB0000001736F000E746F766B050E756FC9ECB2
:102DC00056F00001715172110FE00001ED510AE05F
:102DD000BDEC5FF0E00E0001876F1E0E886FEFEC18
:102DE00023F000D0220E1200000120EE05F0D05199
:102DF000D926D151DA22020EDE180FE00001ED5182
:102E00000AE0BDEC5FF00E0E0001876F1E0E886FAA
:102E1000EFEC23F000D0220E1200080E0001D025A6
:102E2000716F000ED121726F110E736F020E746FED
:102E3000766B0F0E756FC9EC56F00001715172116F
:102E400010E00001ED510AE0BDEC5FF00A0E000158
:102E5000876F1A0E886FEFEC23F000D0220E12005D
:102E600000D00001ED5114E0BDEC5FF0710E0001E7
:102E7000876F150E886F20EE06F0D051D926D151FC
:102E8000DA22DECF89F0DDCF8AF0EFEC23F000D03C
:102E90000001ED510EE0BDEC5FF0B20E0001876F56
:102EA000130E886FCCC089F0CDC08AF0EFEC23F010
:102EB00000D00001ED5118E0BDEC5FF0DD0E000127
:102EC000876F160E886F080ED025C06F000ED121B7
:102ED000C16F20EE89F0C0C0DEFFC1C0DEFF200E52
:102EE000DF6EEFEC23F000D00001ED5118E0BDECF7
:102EF0005FF0C10E0001876F160E886F170ED02588
:102F0000C06F000ED121C16F20EE89F0C0C0DEFF7E
:102F1000C1C0DEFF200EDF6EEFEC23F000D0000119
:102F2000ED5114E0BDEC5FF0D20E0001876F130E7F
:102F3000886F20EE26F0D051D926D151DA22DECF8B
:102F400089F0DDCF8AF0EFEC23F000D00001ED51E5
:102F500014E0BDEC5FF0F20E0001876F130E886F76
:102F600020EE28F0D051D926D151DA22DECF89F0D7
:102F7000DDCF8AF0EFEC23F000D00001ED5114E03A
:102F8000BDEC5FF0120E0001876F140E886F20EE0B
:102F90002AF0D051D926D151DA22DECF89F0DDCF07
:102FA0008AF0EFEC23F000D00001ED5114E0BDEC0D
:102FB0005FF0510E0001876F160E886F20EE2CF027
:102FC000D051D926D151DA22DECF89F0DDCF8AF077
:102FD000EFEC23F000D00001ED5114E0BDEC5FF008
:102FE0006D0E0001876F160E886F20EE2EF0D05107
:102FF000D926D151DA22DECF89F0DDCF8AF0EFEC8D
:1030000023F000D00001ED5114E0BDEC5FF0890E1B
:103010000001876F160E886F20EE30F0D051D92650
:10302000D151DA22DECF89F0DDCF8AF0EFEC23F048
:1030300000D00001ED5114E0BDEC5FF0A50E0001E1
:10304000876F160E886F20EE32F0D051D926D151FD
:10305000DA22DECF89F0DDCF8AF0EFEC23F000D06A
:103060000001ED5115E0BDEC5FF08D0E0001876FA2
:10307000150E886F20EE34F0D051D926D151DA22C6
:10308000DF50C06FC051896F8A6BEFEC23F000D026
:103090000001ED5115E0BDEC5FF0A90E0001876F56
:1030A000150E886F20EE35F0D051D926D151DA2295
:1030B000DF50C06FC051896F8A6BEFEC23F000D0F6
:1030C0000001ED5115E0BDEC5FF0C50E0001876F0A
:1030D000150E886F20EE36F0D051D926D151DA2264
:1030E000DF50C06FC051896F8A6BEFEC23F000D0C6
:1030F0000001ED5115E0BDEC5FF0E10E0001876FBE
:10310000150E886F20EE37F0D051D926D151DA2232
:10311000DF50C06FC051896F8A6BEFEC23F000D095
:103120000001ED5114E0BDEC5FF0350E0001876F3A
:10313000160E886F20EE38F0D051D926D151DA2200
:10314000DECF89F0DDCF8AF0EFEC23F000D0000174
:10315000ED5114E0BDEC5FF0190E0001876F160E03
:10316000886F20EE3AF0D051D926D151DA22DECF45
:1031700089F0DDCF8AF0EFEC23F000D00001ED51B3
:1031800018E0BDEC5FF0E40E0001876F140E886F4D
:1031900020EE3CF0D051D926D151DA22DECF89F091
:1031A000DECF8AF0DECF8BF0DECF8CF0EFEC23F0B9
:1031B00000D00001ED5114E0BDEC5FF0FD0E000108
:1031C000876F150E886F20EE40F0D051D926D1516F
:1031D000DA22DECF89F0DDCF8AF0EFEC23F000D0E9
:1031E0000001ED5114E0BDEC5FF0550E0001876F5A
:1031F000150E886F20EE42F0D051D926D151DA2237
:10320000DECF89F0DDCF8AF0EFEC23F000D0310E75
:103210000001716F020E726F170ED025C06F000E85
:10322000D121C16FC0C073F0C1C074F0735174116B
:10323000D8A4200E756F776B0F0E766F57EC5CF08D
:10324000000120EE3CF0D051D926D151DA22DECF58
:10325000A5F2DECFA6F2DECFA7F2DECFA8F2000104
:1032600020EE42F0D051D926D151DA22DECFABF296
:10327000DDCFACF2000120EE40F0D051D926D15183
:10328000DA22DECFA9F2DDCFAAF2000120EE3AF079
:10329000D051D926D151DA22DECFA3F2DDCFA4F26C
:1032A000000120EE38F0D051D926D151DA22DECFFC
:1032B000A1F2DDCFA2F2000E0001CF6FCE6F0001B0
:1032C000CF5129E1030ECE5D26E201D024D0CEC03D
:1032D000C0F0CFC0C1F0D8900001C037C137260E72
:1032E000C027000EC123C051D025D96EC151D121B4
:1032F000DA6ED890CE35E16ECF35E26E8F0EE126D4
:10330000020EE222DECFE6FFDDCFE5FF0001CE4B6D
:10331000CF2BD5D700D0000E0001CF6FCE6F0001AC
:10332000CF5140E1040E0001CE5D3CE201D03AD025
:10333000CEC0C0F0CFC0C1F0D8900001C037C137B7
:103340002C0EC027000EC123C051D025D96EC1510B
:10335000D121DA6ED890CE35E16ECF35E26E950E82
:10336000E126020EE222DECFE6FFDDCFE5FF340EDE
:10337000CE25C06F000ECF21C16FC051D025D96EB0
:10338000C151D121DA6E9D0ECE25E16E020ECF2104
:10339000E26EDFCFE7FF0001CE4BCF2B0001CF5114
:1033A00001E1C0D70001E887E8A724D0310EB26F51
:1033B000020EB36F0F0EB46FE20EB56F020EB66F52
:1033C00069EC42F00001E89700D00001ED5112E0F5
:1033D000BDEC5FF0A60E0001876F1B0E886F7C0EA0
:1033E000896F1C0E8A6F8911D8A4000E8B6FEFECC9
:1033F00023F000D0310E0001716F020E726F5D0E6E
:10340000736F1E0E746F4BEC4EF000017151721110
:1034100074E1000E0201A56FA66FA76FA86F0001EF
:10342000E98F0001E9AF24D0A50EB26F020EB36F91
:10343000040EB46FEE0EB56F020EB66F69EC42F07B
:103440000001E99F00D00001ED5112E0BDEC5FF0FA
:10345000A60E0001876F1B0E886F4B0E896F1F0E23
:103460008A6F8911D8A4000E8B6FEFEC23F000D087
:103470000101008300D00001ED5112E0BDEC5FF0CE
:103480002E0E0001876F1E0E886F6C0E896F1E0E48
:103490008A6F8911D8A4000E8B6FEFEC23F000D057
:1034A000000E0001C06F020EC16FC01FC11FC04BD4
:1034B000C12B8F0EC025CE6F020EC121CF6F000E23
:1034C0000001C06F020EC16F8F0EC027000EC12316
:1034D000C01FC11FC04BC12BAB0EC025CA6F020E4F
:1034E000C121CB6FCEC076F0CFC077F0CAC078F0E4
:1034F000CBC079F027EC60F0A4D1010E0201AF6FD0
:103500000001E98F0001E9AF24D0A50EB26F020ED1
:10351000B36F040EB46FEE0EB56F020EB66F69ECAA
:1035200042F00001E99F00D00001ED5112E0BDEC36
:103530005FF0A60E0001876F1B0E886F4B0E896F20
:103540001F0E8A6F8911D8A4000E8B6FEFEC23F049
:1035500000D00001EA830001EAA324D0AB0EB26FD1
:10356000020EB36F020EB46FF00EB56F020EB66F9F
:1035700069EC42F00001EA9300D00001ED5112E045
:10358000BDEC5FF0A60E0001876F1B0E886F7E0EEC
:10359000896F1F0E8A6F8911D8A4000E8B6FEFEC14
:1035A00023F000D00001EA810001EAA124D0A90E95
:1035B000B26F020EB36F020EB46FEF0EB56F020E54
:1035C000B66F69EC42F00001EA9100D00001ED51C4
:1035D00012E0BDEC5FF0A60E0001876F1B0E886F36
:1035E000550E896F1F0E8A6F8911D8A4000E8B6F3C
:1035F000EFEC23F000D00001E98D0001E9AD24D00B
:10360000A30EB26F020EB36F020EB46FED0EB56F64
:10361000020EB66F69EC42F00001E99D00D0000196
:10362000ED5112E0BDEC5FF0A60E0001876F1B0E9E
:10363000886F7B0E896F1E0E8A6F8911D8A4000EC9
:103640008B6FEFEC23F000D00001E98B0001E9ABB8
:1036500024D0A10EB26F020EB36F020EB46FEC0E47
:10366000B56F020EB66F69EC42F00001E99B00D025
:103670000001ED5112E0BDEC5FF0A60E0001876F76
:103680001B0E886F8A0E896F1E0E8A6F8911D8A44F
:10369000000E8B6FEFEC23F000D00001E9850001F4
:1036A000E9A524D08F0EB26F020EB36F060EB46F71
:1036B000E90EB56F020EB66F69EC42F00001E995B4
:1036C00000D00001ED5112E0BDEC5FF0A60E00014C
:1036D000876F1B0E886F550E896F1B0E8A6F8911BD
:1036E000D8A4000E8B6FEFEC23F000D00001E98727
:1036F0000001E9A724D0950EB26F020EB36F080E39
:10370000B46FEA0EB56F020EB66F69EC42F00001BD
:10371000E99700D00001ED5112E0BDEC5FF0A60E7C
:103720000001876F1B0E886FAA0E896F1D0E8A6FAE
:103730008911D8A4000E8B6FEFEC23F000D00001AC
:10374000E9890001E9A924D09D0EB26F020EB36F82
:10375000040EB46FEB0EB56F020EB66F69EC42F05B
:103760000001E99900D00001ED5112E0BDEC5FF0DD
:10377000A60E0001876F1B0E886F140E896F1F0E37
:103780008A6F8911D8A4000E8B6FEFEC23F000D064
:103790000001EA870001EAA724D0AF0EB26F020E43
:1037A000B36F010EB46FF20EB56F020EB66F69EC17
:1037B00042F00001EA9700D00001ED5112E0BDECAB
:1037C0005FF0A60E0001876F1B0E886FB70E896F22
:1037D0001E0E8A6F8911D8A4000E8B6FEFEC23F0B8
:1037E00000D00101009300D00001ED5112E0BDECCA
:1037F0005FF01E0E0001876F1E0E886F6C0E896FC2
:103800001E0E8A6F8911D8A4000E8B6FEFEC23F087
:1038100000D00101008500D00001ED5112E0BDECA7
:103820005FF02E0E0001876F1E0E886F990E896F54
:103830001E0E8A6F8911D8A4000E8B6FEFEC23F057
:1038400000D029EC2CF0000C1200000E0001C06F1B
:10385000020EC16F0001BF6BBE6900D0BDEC5FF00E
:10386000190E0001876F190E886FEFEC23F000D05E
:103870000001E86BE96BEA6BEB6B056806680768AB
:1038800008680001C36BC26B12D0C2C073F0C3C022
:1038900074F00CEC61F0C0C0D9FFC1C0DAFFDF6E7C
:1038A0000001C04BC12B0001C24BC32B00D0000153
:1038B000BE51C25DBF51C359E8E3020E0201B165BA
:1038C00002D0B16B00D0B1C2EDF0B1C24EF000D069
:1038D000010E0001ED6512D0BDEC5FF0210E00017C
:1038E000876F1A0E886FE20E896F1B0E8A6F89111F
:1038F000D8A4000E8B6FEFEC23F000D0000E000177
:10390000B26F020EB36F110EB46FDF0EB56F020E01
:10391000B66FD0EC52F0000902E0059000D0010E25
:103920000001ED6512D0BDEC5FF0210E0001876F44
:103930001A0E886F8F0E896F1C0E8A6F8911D8A49A
:10394000000E8B6FEFEC23F000D0110E0001B26F70
:10395000020EB36F0F0EB46FE00EB56F020EB66FAE
:10396000D0EC52F0000902E0059200D0010E0001F7
:10397000ED6512D0BDEC5FF0210E0001876F1A0ECD
:10398000886FCE0E896F1B0E8A6F8911D8A4000E26
:103990008B6FEFEC23F000D0200E0001B26F020E0F
:1039A000B36F110EB46FE10EB56F020EB66FD0ECAF
:1039B00052F0000902E0059400D0010E0001ED650F
:1039C00012D0BDEC5FF0210E0001876F1A0E886FD8
:1039D0007C0E896F1C0E8A6F8911D8A4000E8B6F24
:1039E000EFEC23F000D0310E0001B26F020EB36F86
:1039F0000F0EB46FE20EB56F020EB66FD0EC52F040
:103A0000000902E0059600D0010E0001ED6512D01C
:103A1000BDEC5FF0210E0001876F1A0E886FBA0EA1
:103A2000896F1B0E8A6F8911D8A4000E8B6FEFEC83
:103A300023F000D0400E0001B26F020EB36F060EED
:103A4000B46FE30EB56F020EB66FD0EC52F0000902
:103A500002E0059800D0010E0001ED6512D0BDEC2A
:103A60005FF0210E0001876F1A0E886FFD0E896FBF
:103A70001C0E8A6F8911D8A4000E8B6FEFEC23F017
:103A800000D0460E0001B26F020EB36F050EB46F88
:103A9000E40EB56F020EB66FD0EC52F0000902E0F2
:103AA000059A00D0010E0001ED6512D0BDEC5FF06B
:103AB000210E0001876F1A0E886FC00E896F1A0ED3
:103AC0008A6F8911D8A4000E8B6FEFEC23F000D021
:103AD0004B0E0001B26F020EB36F200EB46FE50EF5
:103AE000B56F020EB66FD0EC52F0000902E0059CF3
:103AF00000D0010E0001ED6512D0BDEC5FF0210E8B
:103B00000001876F1A0E886F990E896F1D0E8A6FDC
:103B10008911D8A4000E8B6FEFEC23F000D06B0E50
:103B20000001B26F020EB36F200EB46FE60EB56FD8
:103B3000020EB66FD0EC52F0000902E0059E00D0F4
:103B4000010E0001ED6512D0BDEC5FF0210E000109
:103B5000876F1A0E886F380E896F1A0E8A6F891157
:103B6000D8A4000E8B6FEFEC23F000D08B0E000179
:103B7000B26F020EB36F020EB46FE70EB56F020E96
:103B8000B66FD0EC52F0000902E0069000D0010EB2
:103B90000001ED6512D0BDEC5FF0210E0001876FD2
:103BA0001A0E886F4F0E896F1A0E8A6F8911D8A46A
:103BB000000E8B6FEFEC23F000D08D0E0001B26F82
:103BC000020EB36F020EB46FE80EB56F020EB66F41
:103BD000D0EC52F0000902E0069200D0010E000184
:103BE000ED6512D0BDEC5FF0210E0001876F1A0E5B
:103BF000886F550E896F1B0E8A6F8911D8A4000E2D
:103C00008B6FEFEC23F000D08F0E0001B26F020E2D
:103C1000B36F060EB46FE90EB56F020EB66FD0EC3F
:103C200052F0000902E0069400D0010E0001ED659B
:103C300012D0BDEC5FF0210E0001876F1A0E886F65
:103C4000AA0E896F1D0E8A6F8911D8A4000E8B6F82
:103C5000EFEC23F000D0950E0001B26F020EB36FAF
:103C6000080EB46FEA0EB56F020EB66FD0EC52F0CC
:103C7000000902E0069600D0010E0001ED6512D0A9
:103C8000BDEC5FF0210E0001876F1A0E886F140ED5
:103C9000896F1F0E8A6F8911D8A4000E8B6FEFEC0D
:103CA00023F000D09D0E0001B26F020EB36F040E20
:103CB000B46FEB0EB56F020EB66FD0EC52F0000988
:103CC00002E0069800D0010E0001ED6512D0BDECB7
:103CD0005FF0210E0001876F1A0E886F8A0E896FC0
:103CE0001E0E8A6F8911D8A4000E8B6FEFEC23F0A3
:103CF00000D0A10E0001B26F020EB36F020EB46FBE
:103D0000EC0EB56F020EB66FD0EC52F0000902E077
:103D1000069A00D0010E0001ED6512D0BDEC5FF0F7
:103D2000210E0001876F1A0E886F7B0E896F1E0EA1
:103D30008A6F8911D8A4000E8B6FEFEC23F000D0AE
:103D4000A30E0001B26F020EB36F020EB46FED0E40
:103D5000B56F020EB66FD0EC52F0000902E0069C7F
:103D600000D0010E0001ED6512D0BDEC5FF0210E18
:103D70000001876F1A0E886F4B0E896F1F0E8A6FB6
:103D80008911D8A4000E8B6FEFEC23F000D0A50EA4
:103D90000001B26F020EB36F040EB46FEE0EB56F7A
:103DA000020EB66FD0EC52F0000902E0069E00D081
:103DB000010E0001ED6512D0BDEC5FF0210E000197
:103DC000876F1A0E886F550E896F1F0E8A6F8911C3
:103DD000D8A4000E8B6FEFEC23F000D0A90E0001E9
:103DE000B26F020EB36F020EB46FEF0EB56F020E1C
:103DF000B66FD0EC52F0000902E0079000D0010E3F
:103E00000001ED6512D0BDEC5FF0210E0001876F5F
:103E10001A0E886F7E0E896F1F0E8A6F8911D8A4C3
:103E2000000E8B6FEFEC23F000D0AB0E0001B26FF1
:103E3000020EB36F020EB46FF00EB56F020EB66FC6
:103E4000D0EC52F0000902E0079200D0010E000110
:103E5000ED6512D0BDEC5FF0210E0001876F1A0EE8
:103E6000886F140E896F190E8A6F8911D8A4000EFD
:103E70008B6FEFEC23F000D0AD0E0001B26F020E9D
:103E8000B36F020EB46FF10EB56F020EB66FD0ECC9
:103E900052F0000902E0079400D0010E0001ED6528
:103EA00012D0BDEC5FF0210E0001876F1A0E886FF3
:103EB000B70E896F1E0E8A6F8911D8A4000E8B6F02
:103EC000EFEC23F000D0AF0E0001B26F020EB36F23
:103ED000010EB46FF20EB56F020EB66FD0EC52F059
:103EE000000902E0079600D0010E0001ED6512D036
:103EF000BDEC5FF0210E0001876F1A0E886FC50EB2
:103F0000896F1E0E8A6F8911D8A4000E8B6FEFEC9B
:103F100023F000D0B00E0001B26F020EB36F010E9D
:103F2000B46FF30EB56F020EB66FD0EC52F000090D
:103F300002E0079800D0010E0001ED6512D0BDEC43
:103F40005FF0210E0001876F1A0E886F2C0E896FAB
:103F50001F0E8A6F8911D8A4000E8B6FEFEC23F02F
:103F600000D0B10E0001B26F020EB36F010EB46F3C
:103F7000F40EB56F020EB66FD0EC52F0000902E0FD
:103F8000079A00D0110E0001716F020E726FACEC37
:103F900060F071C0C2F072C0C3F00001C35113E100
:103FA0000F0EC25D10E201D00ED0110E0001C2252D
:103FB000D96E020EC321DA6E000EDF6E0001C24B15
:103FC000C32BEBD700D0000E0001C06F020EC16FF3
:103FD000000E0001C36FC26F0001C35154E1110E06
:103FE000C25D51E201D04FD0C0C0D9FFC1C0DAFFDD
:103FF000DE2842E0C0C0D9FFC1C0DAFFDF503CE09C
:104000000201A551A611A711A81119E10101008310
:1040100000D00001ED51D8B41200BDEC5FF02E0EBF
:104020000001876F1E0E886F6C0E896F1E0E8A6FDF
:104030008911D8A4000E8B6FEFEC23F0120002015F
:10404000AF05D8A412000101008500D00001ED5198
:10405000D8B41200BDEC5FF02E0E0001876F1E0E6B
:10406000886F990E896F1E0E8A6F8911D8A4000E71
:104070008B6FEFEC23F012000001C04BC12BC24B41
:10408000C32BAAD700D0000E0001716F020E726F11
:10409000746B300E736F766B110E756F8BEC61F075
:1040A0000101008300D00001ED51D8B41200BDEC35
:1040B0005FF02E0E0001876F1E0E886F6C0E896FE9
:1040C0001E0E8A6F8911D8A4000E8B6FEFEC23F0BF
:1040D000120012000001D36F72D30001E851E91100
:1040E000EA11EB1101E177D3010E66D374D300011D
:1040F000E8A124D0000EB26F020EB36F110EB46FA0
:10410000DF0EB56F020EB66F69EC42F00001E89168
:1041100000D00001ED5112E0BDEC5FF0A60E0001F1
:10412000876F1B0E886FE20E896F1B0E8A6F8911D5
:10413000D8A4000E8B6FEFEC23F000D00001E8A3B1
:1041400024D0110EB26F020EB36F0F0EB46FE00EDB
:10415000B56F020EB66F69EC42F00001E89300D033
:104160000001ED5112E0BDEC5FF0A60E0001876F7B
:104170001B0E886F8F0E896F1C0E8A6F8911D8A451
:10418000000E8B6FEFEC23F000D00001E8A524D0E7
:10419000200EB26F020EB36F110EB46FE10EB56F49
:1041A000020EB66F69EC42F00001E89500D0000104
:1041B000ED5112E0BDEC5FF0A60E0001876F1B0E03
:1041C000886FCE0E896F1B0E8A6F8911D8A4000EDE
:1041D0008B6FEFEC23F000D00001E8A724D0310E64
:1041E000B26F020EB36F0F0EB46FE20EB56F020E18
:1041F000B66F69EC42F00001E89700D00001ED5184
:1042000012E0BDEC5FF0A60E0001876F1B0E886FF9
:104210007C0E896F1C0E8A6F8911D8A4000E8B6FDB
:10422000EFEC23F000D00001E8A924D0400EB26FDB
:10423000020EB36F060EB46FE30EB56F020EB66FCB
:1042400069EC42F00001E89900D00001ED5112E064
:10425000BDEC5FF0A60E0001876F1B0E886FBA0ED3
:10426000896F1B0E8A6F8911D8A4000E8B6FEFEC3B
:1042700023F000D00001E8AB24D0460EB26F020E4E
:10428000B36F050EB46FE40EB56F020EB66F69EC36
:1042900042F00001E89B00D00001ED5112E0BDECBE
:1042A0005FF0A60E0001876F1B0E886FFD0E896FF1
:1042B0001C0E8A6F8911D8A4000E8B6FEFEC23F0CF
:1042C00000D00001E8AD24D04B0EB26F020EB36FE8
:1042D000200EB46FE50EB56F020EB66F69EC42F0BA
:1042E0000001E89D00D00001ED5112E0BDEC5FF04F
:1042F000A60E0001876F1B0E886FC00E896F1A0E05
:104300008A6F8911D8A4000E8B6FEFEC23F000D0D8
:104310000001E8AF24D06B0EB26F020EB36F200E17
:10432000B46FE60EB56F020EB66F69EC42F0000195
:10433000E89F00D00001ED5112E0BDEC5FF0A60E49
:104340000001876F1B0E886F990E896F1D0E8A6F93
:104350008911D8A4000E8B6FEFEC23F000D0000180
:10436000E9A124D08B0EB26F020EB36F020EB46FB0
:10437000E70EB56F020EB66F69EC42F00001E991ED
:1043800000D00001ED5112E0BDEC5FF0A60E00017F
:10439000876F1B0E886F380E896F1A0E8A6F89110E
:1043A000D8A4000E8B6FEFEC23F000D00001E9A33E
:1043B00024D08D0EB26F020EB36F020EB46FE80EF2
:1043C000B56F020EB66F69EC42F00001E99300D0C0
:1043D0000001ED5112E0BDEC5FF0A60E0001876F09
:1043E0001B0E886F4F0E896F1A0E8A6F8911D8A421
:1043F000000E8B6FEFEC23F000D00001E9A524D074
:104400008F0EB26F020EB36F060EB46FE90EB56F6A
:10441000020EB66F69EC42F00001E99500D0000190
:10442000ED5112E0BDEC5FF0A60E0001876F1B0E90
:10443000886F550E896F1B0E8A6F8911D8A4000EE4
:104440008B6FEFEC23F000D00001E9A724D0950E8C
:10445000B26F020EB36F080EB46FEA0EB56F020EA4
:10446000B66F69EC42F00001E99700D00001ED5110
:1044700012E0BDEC5FF0A60E0001876F1B0E886F87
:10448000AA0E896F1D0E8A6F8911D8A4000E8B6F3A
:10449000EFEC23F000D00001E9A924D09D0EB26F0B
:1044A000020EB36F040EB46FEB0EB56F020EB66F53
:1044B00069EC42F00001E99900D00001ED5112E0F1
:1044C000BDEC5FF0A60E0001876F1B0E886F140E07
:1044D000896F1F0E8A6F8911D8A4000E8B6FEFECC5
:1044E00023F000D00001E9AB24D0A10EB26F020E80
:1044F000B36F020EB46FEC0EB56F020EB66F69ECBF
:1045000042F00001E99B00D00001ED5112E0BDEC4A
:104510005FF0A60E0001876F1B0E886F8A0E896FF1
:104520001E0E8A6F8911D8A4000E8B6FEFEC23F05A
:1045300000D00001E9AD24D0A30EB26F020EB36F1C
:10454000020EB46FED0EB56F020EB66F69EC42F05D
:104550000001E99D00D00001ED5112E0BDEC5FF0DB
:10456000A60E0001876F1B0E886F7B0E896F1E0ED3
:104570008A6F8911D8A4000E8B6FEFEC23F000D066
:104580000001E9AF24D0A50EB26F020EB36F040E86
:10459000B46FEE0EB56F020EB66F69EC42F000011B
:1045A000E99F00D00001ED5112E0BDEC5FF0A60ED6
:1045B0000001876F1B0E886F4B0E896F1F0E8A6F6D
:1045C0008911D8A4000E8B6FEFEC23F000D000010E
:1045D000EAA124D0A90EB26F020EB36F020EB46F1F
:1045E000EF0EB56F020EB66F69EC42F00001EA9172
:1045F00000D00001ED5112E0BDEC5FF0A60E00010D
:10460000876F1B0E886F550E896F1F0E8A6F891179
:10461000D8A4000E8B6FEFEC23F000D00001EAA3CA
:1046200024D0AB0EB26F020EB36F020EB46FF00E59
:10463000B56F020EB66F69EC42F00001EA9300D04C
:104640000001ED5112E0BDEC5FF0A60E0001876F96
:104650001B0E886F7E0E896F1F0E8A6F8911D8A47A
:10466000000E8B6FEFEC23F000D00001EAA524D000
:10467000AD0EB26F020EB36F020EB46FF10EB56FD6
:10468000020EB66F69EC42F00001EA9500D000011D
:10469000ED5112E0BDEC5FF0A60E0001876F1B0E1E
:1046A000886F140E896F190E8A6F8911D8A4000EB5
:1046B0008B6FEFEC23F000D00001EAA724D0AF0EFF
:1046C000B26F020EB36F010EB46FF20EB56F020E31
:1046D000B66F69EC42F00001EA9700D00001ED519D
:1046E00012E0BDEC5FF0A60E0001876F1B0E886F15
:1046F000B70E896F1E0E8A6F8911D8A4000E8B6FBA
:10470000EFEC23F000D00001EAA924D0B00EB26F84
:10471000020EB36F010EB46FF30EB56F020EB66FDB
:1047200069EC42F00001EA9900D00001ED5112E07D
:10473000BDEC5FF0A60E0001876F1B0E886FC50EE3
:10474000896F1E0E8A6F8911D8A4000E8B6FEFEC53
:1047500023F000D00001EAAB2ED0B10EB26F020EF2
:10476000B36F010EB46FF40EB56F020EB66F69EC45
:1047700042F00001EA9B00D00001ED511CE0BDECCD
:104780005FF0A60E0001876F1B0E886F2C0E896FDD
:104790001F0E8A6F8911D8A4000E8B6FEFEC23F0E7
:1047A0000AD009D0030E08D084EC16F00001D26FB5
:1047B000D251BBEC61F0000E0001D36F0CD00001B0
:1047C000D35101E18AD4010A01E191D4030AEAE05C
:1047D000010AEAE000D00001D35112001200890E54
:1047E0000001A36F000EA46F62D3250E0001AE1965
:1047F00004E0AE5150EC63F05AD30001AB6BAA6BEE
:10480000A96B06D00001A985874B882B01D00CD05D
:1048100087C0F6FF88C0F7FF000EF86E0800F5505D
:10482000300AF0E001D0F4D787C0F6FF88C0F7FF68
:10483000000EF86E0800F550D1EC61F038E300018D
:10484000AB6BAA6B00D0AAC071F0ABC072F00001D4
:10485000746B0A0E736FE6EC61F071C0AAF072C05F
:10486000ABF0D00E0001976F986987C0F6FF88C043
:10487000F7FF000EF86E0800F550996F9A6B97518C
:10488000992798519A239951AA279A51AB2300014D
:10489000874B882B87C0F6FF88C0F7FF000EF86EA5
:1048A0000800F550D1EC61F002E3CDD700D087C00D
:1048B000F6FF88C0F7FF000EF86E0800F5502E0ACC
:1048C00034E10001874B882B0001AD6BAC6B1FD02E
:1048D0000A0E0001AC03F3CF97F0F4CF98F0AD03CC
:1048E000F350982787C0F6FF88C0F7FF000EF86ED8
:1048F0000800F5509727000E9823D00E9725AC6F2F
:10490000FF0E9821AD6F0001874B882B00D087C028
:10491000F6FF88C0F7FF000EF86E0800F550D1ECE6
:1049200061F001E2A3D0D4D7A1D00001AD6BAC6B94
:104930009DD012000001A98999D0BAD00001A98B9D
:104940000001A98FB5D0A3C0D9FFA4C0DAFFDECF84
:104950009EF0DECF9FF0DDCFA0F0030E0001A32775
:10496000000EA42300019E519F11A01109E1770EB2
:104970009E6F1F0E9F6F9E11D8A4000EA06F00D0D7
:104980000001A26BA16B04D00001A14BA22B00D0AF
:104990000001A1519E25976FA2519F21986F000E93
:1049A000A021996F97C0F6FF98C0F7FF99C0F8FF54
:1049B000F8BA03D00800F55005D0F6CFE1FFF7CFE5
:1049C000E2FFE7500009E0E10001AC51AD110AE05F
:1049D000A151AC5DA251AD5905E2ACC0A1F0ADC092
:1049E000A2F000D00001AA51A15DAB51A25905E28D
:1049F000A151AA5FA251AB5B08D00001AB6BAA6BBF
:104A000004D0200E50EC63F000D00001AA07D8A01B
:104A1000AB07AA29F6E1AB291AE0F3D718D09EC05C
:104A2000F6FF9FC0F7FFA0C0F8FFF8BA03D0080058
:104A3000F55005D0F6CFE1FFF7CFE2FFE75050EC9D
:104A400063F000019E2B000E9F23A02300D00001E5
:104A5000A107D8A0A207A129E2E1A22901E127D25A
:104A6000DED725D2C00E0001A91322D087C0F6FFE1
:104A700088C0F7FF0001874B882B000EF86E0800F6
:104A8000F5CFAEF0AE51D8B41200580A01E156D7B6
:104A90003C0A0EE00D0A0CE0050A01E14BD71F0AA3
:104AA00001E151D7060ADEE00D0A01E149D7FFD145
:104AB000A9C097F0C00E0001971733E1A9A90ED045
:104AC000A3C0D9FFA4C0DAFFDECFA5F0DECFA6F0E9
:104AD000DECFA7F0DECFA8F0040E0FD0A3C0D9FF21
:104AE000A4C0DAFFDECFA5F0DDCFA6F00001000EF6
:104AF000A6BFFF0EA76FA86F020E0001A327000E2E
:104B0000A42300D00001A8AF32D0030EA9130001E6
:104B1000A81FA71FA61FA56D000EA623A723A823C5
:104B200026D00001A9A90ED0A3C0D9FFA4C0DAFFE6
:104B3000DECFA5F0DECFA6F0DECFA7F0DECFA8F067
:104B4000040E10D0A3C0D9FFA4C0DAFFDECF97F0C7
:104B5000DDCF98F097C0A5F098C0A6F00001A76B34
:104B6000A86B020E0001A327000EA42300D00001B1
:104B7000AC51AD1159E1A551A611A711A81154E1ED
:104B8000AC4BAD2B51D000D0010E0001AE6F0A0E20
:104B90000001AE1952E001D050D00001AE51040D19
:104BA000410EF324F66E090EF420F76EF86A000E3B
:104BB000F8220900F550A55D0900F550A659090035
:104BC000F550A7590900F550A85937E301D035D061
:104BD0000001AE2BDCD731D0010E0001AE6F080E04
:104BE0000001AE192AE001D028D00001AE51040D19
:104BF000690EF324F66E090EF420F76EF86A000EC3
:104C0000F8220900F550A55D0900F550A6590900E4
:104C1000F550A7590900F550A8590FE301D00DD060
:104C20000001AE2BDCD709D00001A951C00BACE0CC
:104C3000800AD2E0400AA8E000D0800E0001AEBF9A
:104C40007F0E976FAC51AE5DAD51800A975903E26C
:104C5000ACC0AEF011D00001AD51800A976FAE51DB
:104C6000AC5D800EAEBF7F0E975906E2AE51AC6FC1
:104C7000AD6BACBFAD0700D00001AA51AB111CE079
:104C8000A9C097F0030E971717E0AA07D8A0AB07A3
:104C900013D00001AA51AC5DAD51800A976FAB51A2
:104CA000800A975905E2AC51AA5FAD51AB5B04D0C5
:104CB0000001AB6BAA6B00D0800E0001AEBF7F0E6F
:104CC000976FAA51AE5DAB51800A975907E2AE517A
:104CD000AA5F000EAEBFFF0EAB5B04D00001AB6B52
:104CE000AA6B00D00001A9A51BD0A9C097F0030EA4
:104CF000971704E02D0E50EC63F000D00001AA518C
:104D0000AB1101E1CAD0300E50EC63F00001AA07EC
:104D1000D8A0AB07AA51AB1101E1BFD0F4D7BDD0E9
:104D20000001AA51AB110CE0200E50EC63F0000121
:104D3000AA07D8A0AB07AA51AB1102E0F5D700D063
:104D4000A9C097F0030E0001971701E1A6D02D0E20
:104D500050EC63F0A2D091D000D0ACC097F0ADC0C1
:104D600098F00001D89097379837D89097379837B0
:104D7000410E9725F66E090E9821F76EF86A000E1F
:104D8000F8220900F5CF75F00900F5CF76F009009B
:104D9000F5CF77F00A00F5CF78F0A5C071F0A6C086
:104DA00072F0A7C073F0A8C074F00DEC59F071C098
:104DB0007EF072C07FF073C080F074C081F00A0E84
:104DC0000001826F836B846B856B5FEC5AF000018E
:104DD0007E51300FAE6F5CD0A5C071F0A6C072F0EE
:104DE000A7C073F0A8C074F0ACC097F0ADC098F045
:104DF0000001D89097379837D89097379837690E31
:104E00009725F66E090E9821F76EF86A000EF822C3
:104E10000900F5CF75F00900F5CF76F00900F5CF60
:104E200077F00A00F5CF78F00DEC59F000017151E0
:104E30000F0B9B6F0001A9BB04D0440E9C6F1D0E8D
:104E400004D0330E00019C6F1D0E00019D6F00D039
:104E500000019B51010D9CC097F09DC098F0F3504C
:104E60009727F450982397C0F6FF98C0F7FF000EDD
:104E7000F86E0800F5CFAEF00BD00001A951C00BC1
:104E800001E16BD7800AA8E0400A01E166D700D0B3
:104E90000001AE5150EC63F000D00001AC07D8A087
:104EA000AD07AC29EAE1AD2902E0E7D700D087C021
:104EB000F6FF88C0F7FF0001874B882B000EF86EC5
:104EC0000800F5CFAEF0AE51D8B412008ED4120067
:104ED00012000001D16F0001D15103E1D151120044
:104EE00000D0000ED2EC45F0010E0001ED653DD280
:104EF000BDEC5FF04F0E0001876F0E0E886FEFEC78
:104F000023F033D24ED2FBEC62F00CBE79D00950C4
:104F1000015C0A5002580B5003580450800A0001EB
:104F2000C36F0C50800AC35964E279697F0E7A6FAF
:104F3000000E7B6B7C6B09C0C3F00AC0C4F00BC0D1
:104F4000C5F00CC0C6F0C31FC41FC51FC61FC32BAE
:104F5000C423C523C6230150C325716F0250C42149
:104F6000726F0350C521736F0450C621746FDBEC60
:104F70005EF071C07DF072C07EF073C07FF074C0CF
:104F800080F06AEC60F079C0C7F07AC0C8F07BC0EE
:104F9000C9F07CC0CAF0C7C0CFF0C8C0D0F001C013
:104FA000CBF002C0CCF003C0CDF004C0CEF000D0F6
:104FB0000001ED5116E0BDEC5FF0D20E0001876FED
:104FC0000D0E886F01C089F002C08AF003C08BF01B
:104FD00004C08CF0CFC08DF0D0C08EF0EFEC23F089
:104FE00000D0CFC073F0D0C074F040EC61F081D03D
:104FF00092D0000E016E026E036E046E8FD0D1D17E
:105000000150095C02500A5803500B580C50800A9A
:105010000001C36F0450800AC359EBE279697F0E27
:105020007A6F000E7B6B7C6B09C0C3F00AC0C4F0C2
:105030000BC0C5F00CC0C6F0C31FC41FC51FC61FE0
:10504000C32BC423C523C6230150C325716F02504F
:10505000C421726F0350C521736F0450C621746F51
:10506000DBEC5EF071C07DF072C07EF073C07FF04B
:1050700074C080F06AEC60F079C0C7F07AC0C8F004
:105080007BC0C9F07CC0CAF0C7C0C3F0C8C0C4F0C0
:105090000001C31FC41FC34BC42BC3C0CFF0C4C087
:1050A000D0F001C0CBF002C0CCF003C0CDF004C002
:1050B000CEF000D00001ED5116E0BDEC5FF0FC0E2B
:1050C0000001876F0D0E886F01C089F002C08AF061
:1050D00003C08BF004C08CF0CFC08DF0D0C08EF038
:1050E000EFEC23F000D0CFC073F0D0C074F040ECF0
:1050F00061F0CFC0C3F0D0C0C4F0000E0001C4BF47
:10510000FF0EC56FC66FC3510126C4510222C5519F
:105110000322C6510422020E02D16BD71FC0D1F068
:1051200040D12C0E0001B96F000EBA6FA80EBB6FF4
:10513000010EBC6F1DEC43F001018539E832070B0D
:105140000001C36F030EC3175DE1010184AD85B398
:1051500002D02ED000D00001ED5123E0BDEC5FF075
:10516000180E0001876F0F0E886F2CC089F02DC0BC
:105170008AF02CC0C3F02DC0C4F0000EC4BFFF0ED7
:10518000C56FC66FCB51C3258B6FCC51C4218C6FBB
:10519000CD51C5218D6FCE51C6218E6FEFEC23F01E
:1051A00000D0000E016E026E036E046E67D000D058
:1051B0000001ED5123E0BDEC5FF0400E0001876F70
:1051C0000F0E886F2CC089F02DC08AF02CC0C3F060
:1051D0002DC0C4F0000EC4BFFF0EC56FC66FCB510B
:1051E000C3258B6FCC51C4218C6FCD51C5218D6FE0
:1051F000CE51C6218E6FEFEC23F000D0010E8FD080
:10520000D0D000D00001ED5123E0BDEC5FF0F00EF6
:105210000001876F0E0E886F2CC089F02DC08AF0B8
:105220002CC0C3F02DC0C4F0000EC4BFFF0EC56F6C
:10523000C66FCB51C3258B6FCC51C4218C6FCD5120
:10524000C5218D6FCE51C6218E6FEFEC23F000D0BB
:105250000101302B30050001C36F770EC365A1D06B
:1052600000D00001ED510AE0BDEC5FF0BB0E000183
:10527000876F1D0E886FEFEC23F000D01EC0D1F0B9
:1052800090D00101306B70EC56F0010E0001D16F2F
:105290000B0E1F6E070E08D02AEC4FF0010E000116
:1052A000D16F080E11D00B0E1E6E7BD096EC4FF016
:1052B000010E0001D16F090E07D0F5D77BEC35F058
:1052C000010E0001D16F0A0E1F6EEDD70101306B88
:1052D000C7EC33F0010E0001D16F040E1F6E050EF6
:1052E000E3D70101008B00D00001ED5112E0BDECCD
:1052F0005FF02E0E0001876F1E0E886F7D0E896F86
:105300001A0E8A6F8911D8A4000E8B6FEFEC23F070
:1053100000D0010E0E6E78EC63F0106E23D0000109
:10532000D16F3FD00EEC52F01DD00101008B00D0A8
:105330000001ED5112E0BDEC5FF02E0E0001876F11
:105340001E0E886F7D0E896F1A0E8A6F8911D8A480
:10535000000E8B6FEFEC23F000D027EC61F002D051
:1053600027EC61F0000EDBD71CD00001D151010AFF
:1053700001E1C9D5030A01E1D4D6010AA7E0070A71
:10538000EFE0010AD2E0030A01E17BD7010A84E0E1
:105390000F0A8CE0010A92E0030AC4E0010AA1E0CE
:1053A00000D00001D15112001200B7C0BCF0B8C04B
:1053B000BDF0B9C0BFF0BAC0C0F00001BE6B0001C3
:1053C000C26B010EC16FBFC0D9FFC0C0DAFF0F0EA4
:1053D000DF6E000120EE01F0BF51D926C051DA2264
:1053E000C1C0DFFF000120EE02F0BF51D926C0513D
:1053F000DA22C251DF6E000120EE01F0B751D9264A
:10540000B851DA22DE0401E195D1B9C0B2F0BAC0D8
:10541000B3F0240EB46FD6EC5AF0000E12008AD10D
:105420000001C26B0F0EC16F040E0001BF25716F2A
:10543000000EC021726F310E736F020E746F731104
:10544000D8A4200E756FC1C076F0C2C077F057ECBB
:105450005CF0A3D10001C26B110EC16F040E0001FC
:10546000BF25716F000EC021726F200E736F020E88
:10547000746F7311D8A4200E756FC1C076F0C2C0CE
:1054800077F057EC5CF089D10001C26B020EC16F5E
:10549000040E0001BF25716F000EC021726F8F0EC8
:1054A000736F020E746F7311D8A4200E756FC1C094
:1054B00076F0C2C077F057EC5CF06FD10001C26BA0
:1054C000020EC16F040E0001BF25716F000EC021D6
:1054D000726F910E736F020E746F7311D8A4200E49
:1054E000756FC1C076F0C2C077F057EC5CF055D153
:1054F0000001C26B020EC16F040E0001BF25716F67
:10550000000EC021726F930E736F020E746F7311D1
:10551000D8A4200E756FC1C076F0C2C077F057ECEA
:105520005CF03BD10001C26B080EC16F040E00019C
:10553000BF25716F000EC021726F950E736F020E42
:10554000746F7311D8A4200E756FC1C076F0C2C0FD
:1055500077F057EC5CF021D10001C26B040EC16FF3
:10556000040E0001BF25716F000EC021726F9D0EE9
:10557000736F020E746F7311D8A4200E756FC1C0C3
:1055800076F0C2C077F057EC5CF007D10001C26B37
:10559000020EC16F040E0001BF25716F000EC02105
:1055A000726FA10E736F020E746F7311D8A4200E68
:1055B000756FC1C076F0C2C077F057EC5CF0EDD0EB
:1055C0000001C26B020EC16F040E0001BF25716F96
:1055D000000EC021726FA30E736F020E746F7311F1
:1055E000D8A4200E756FC1C076F0C2C077F057EC1A
:1055F0005CF0D3D00001C26B060EC16F040E000137
:10560000BF25716F000EC021726F400E736F020EC6
:10561000746F7311D8A4200E756FC1C076F0C2C02C
:1056200077F057EC5CF0B9D00001C26B050EC16F8A
:10563000040E0001BF25716F000EC021726F460E6F
:10564000736F020E746F7311D8A4200E756FC1C0F2
:1056500076F0C2C077F057EC5CF09FD00001C26BCF
:10566000200EC16F040E0001BF25716F000EC02116
:10567000726F4B0E736F020E746F7311D8A4200EED
:10568000756FC1C076F0C2C077F057EC5CF085D082
:105690000001C26B200EC16F040E0001BF25716FA7
:1056A000000EC021726F6B0E736F020E746F731158
:1056B000D8A4200E756FC1C076F0C2C077F057EC49
:1056C0005CF06BD00001C26B020EC16F040E0001D2
:1056D000BF25716F000EC021726F8B0E736F020EAB
:1056E000746F7311D8A4200E756FC1C076F0C2C05C
:1056F00077F057EC5CF051D00001C26B020EC16F25
:10570000040E0001BF25716F000EC021726F8D0E57
:10571000736F020E746F7311D8A4200E756FC1C021
:1057200076F0C2C077F057EC5CF037D01F0E000166
:10573000BE6F33D0000120EE03F0BC51D926BD511D
:10574000DA22DF50010A01E16BD6030A01E182D6B9
:10575000010A01E199D6070A01E1E4D6010A01E153
:10576000FBD6030A01E112D7010A01E129D70F0A8A
:1057700001E1A4D6010A01E1BBD6280A01E13AD72A
:10578000030A01E151D7010A01E168D7070A80E065
:10579000010A98E0030AB0E0C9D70001C14BC22B4F
:1057A000BFC0D9FFC0C0DAFF0F0EDF6E000120EED0
:1057B00001F0BF51D926C051DA22C1C0DFFF20EE6F
:1057C00002F0BF51D926C051DA22C251DF6E00016A
:1057D000BE5109E0B9C0B2F0BAC0B3F0BEC0B4F077
:1057E000D6EC5AF00AD0000120EE03F0BF51D926C2
:1057F000C051DA22000EDF6E00D0010E0001ED650F
:10580000000CBDEC5FF06E0E0001876F140E886F08
:1058100020EE03F0BC51D926BD51DA22DF50E5EC71
:1058200049F020EE89F071C0DEFF72C0DEFFDD6A54
:10583000000120EE03F0BF51D926C051DA22DF501B
:10584000BB6FBB518C6F8D6BEFEC23F0000C000C29
:105850001200BDEC5FF0320E0001876F190E886FE9
:10586000EFEC23F000D00201A351AD5DAE51800AF0
:105870000001BB6F0201A451800A0001BB5905E37E
:10588000ADC21CF0AEC21DF004D0A3C21CF0A4C275
:105890001DF0ADC22EF1AEC22FF122EEA3F0DECF8D
:1058A000BBF0DDCFBCF00001BB1FBC1FBB4BBC2B52
:1058B0000201A1510001BB270201A2510001BC233A
:1058C000BB51BC110BE1000E01010A6F0B6F0C6F95
:1058D0000D6F226F236F246F256F1200A5C279F020
:1058E000A6C27AF0A7C27BF0A8C27CF04CEC5BF0B9
:1058F00079C086F07AC087F07BC088F0A9C279F0C1
:10590000AAC27AF049EC60F079C083F07AC084F0E2
:105910007BC085F0F1EC4AF083C091F084C092F036
:1059200085C093F022EEA3F0DECFBBF0DDCFBCF05C
:105930000001BB1FBC1FBB4BBC2B0201A1510001CE
:10594000BB25796F0201A2510001BC217A6F49EC9D
:1059500060F079C094F07AC095F07BC096F0F2ECDC
:105960004CF0000193AF57D0A36BA46BBF0EA56F93
:1059700022EEA3F0DECFBBF0DDCFBCF0BB1FBC1F1F
:10598000BB4BBC2B0201A1510001BB25796F020169
:10599000A2510001BC217A6F49EC60F079C094F00B
:1059A0007AC095F07BC096F0A5C279F0A6C27AF0D5
:1059B000A7C27BF0A8C27CF04CEC5BF079C086F00B
:1059C0007AC087F07BC088F0A9C279F0AAC27AF0C9
:1059D00049EC60F079C083F07AC084F07BC085F038
:1059E000F1EC4AF083C091F084C092F085C093F04E
:1059F000F2EC4CF091C0A0F092C0A1F093C0A2F0E4
:105A00006AEC3FF0A0C0ACF0A1C0ADF0A2C0AEF017
:105A1000F5EC4BF057D00001A36BA46B3F0EA56FC4
:105A200022EEA3F0DECFBBF0DDCFBCF0BB1FBC1F6E
:105A3000BB4BBC2B0201A1510001BB25796F0201B8
:105A4000A2510001BC217A6F49EC60F079C094F05A
:105A50007AC095F07BC096F0A5C279F0A6C27AF024
:105A6000A7C27BF0A8C27CF04CEC5BF079C086F05A
:105A70007AC087F07BC088F0A9C279F0AAC27AF018
:105A800049EC60F079C083F07AC084F07BC085F087
:105A9000F1EC4AF083C091F084C092F085C093F09D
:105AA000F2EC4CF091C0A0F092C0A1F093C0A2F033
:105AB0006AEC3FF0A0C0ACF0A1C0ADF0A2C0AEF067
:105AC000F5EC4BF0ACC00AF1ADC00BF1AEC00CF17F
:105AD000AFC00DF1A5C279F0A6C27AF0A7C27BF0E3
:105AE000A8C27CF04CEC5BF079C086F07AC087F0FD
:105AF0007BC088F0ABC279F0ACC27AF049EC60F0C0
:105B000079C083F07AC084F07BC085F0F1EC4AF074
:105B100083C091F084C092F085C093F022EEA3F090
:105B2000DECFBBF0DDCFBCF00001BB1FBC1FBB4B09
:105B3000BC2B0201A1510001BB25796F0201A251CA
:105B40000001BC217A6F49EC60F079C094F07AC012
:105B500095F07BC096F0F2EC4CF0000193AF5FD073
:105B6000A36BA46BBF0EA56F22EEA3F0DECFBBF03C
:105B7000DDCFBCF0BB1FBC1FBB4BBC2B0201A15136
:105B80000001BB25796F0201A2510001BC217A6F8F
:105B900049EC60F079C094F07AC095F07BC096F043
:105BA000A5C279F0A6C27AF0A7C27BF0A8C27CF0A9
:105BB0004CEC5BF079C086F07AC087F07BC088F04F
:105BC000ABC279F0ACC27AF049EC60F079C083F0F6
:105BD0007AC084F07BC085F0F1EC4AF083C091F08C
:105BE00084C092F085C093F0F2EC4CF091C0A0F02C
:105BF00092C0A1F093C0A2F06AEC3FF0A0C0ACF05C
:105C0000A1C0ADF0A2C0AEF0F5EC4BF0ACC022F1FB
:105C1000ADC023F1AEC024F1AFC025F112000001E8
:105C2000A36BA46B3F0EA56F22EEA3F0DECFBBF0FB
:105C3000DDCFBCF0BB1FBC1FBB4BBC2B0201A15175
:105C40000001BB25796F0201A2510001BC217A6FCE
:105C500049EC60F079C094F07AC095F07BC096F082
:105C6000A5C279F0A6C27AF0A7C27BF0A8C27CF0E8
:105C70004CEC5BF079C086F07AC087F07BC088F08E
:105C8000ABC279F0ACC27AF049EC60F079C083F035
:105C90007AC084F07BC085F0F1EC4AF083C091F0CB
:105CA00084C092F085C093F0F2EC4CF091C0A0F06B
:105CB00092C0A1F093C0A2F06AEC3FF0A0C0ACF09B
:105CC000A1C0ADF0A2C0AEF0F5EC4BF0ACC022F13B
:105CD000ADC023F1AEC024F1AFC025F11200120017
:105CE0000001C26BBC6BB86BB96BC36BC46BC56B8B
:105CF000BD6BBE6BC06BBF6B020E0001B225C86FDF
:105D0000000EB321C96FC8C0D9FFC9C0DAFFDF5088
:105D10000001B66F0001C84BC92BC8C0D9FFC9C06C
:105D2000DAFFDF500001B76F0001C84BC92BC8C0B4
:105D3000D9FFC9C0DAFFDF500001C16F0001C84BB5
:105D4000C92B490E0001C16507D1240E120004D1F0
:105D5000C8C0D9FFC9C0DAFFDF500001BA6F000127
:105D6000C84BC92BC8C0D9FFC9C0DAFFDF5000013A
:105D7000C76FC84BC92BCAD0130E0001C76502D02C
:105D8000240E12000001C66B16D00001C651010D91
:105D9000F350C825D96EF450C921DA6EC651010DF1
:105DA0004D0EF324E16E010EF420E26EDFCFE7FF2B
:105DB0000001C62B00D00001C751C65DE6E3C7C095
:105DC00073F1010E0001C26FBBD0130E0001C76555
:105DD00002D0240E12000001C66B16D00001C6517D
:105DE000010DF350C825D96EF450C921DA6EC651A1
:105DF000010D600EF324E16E010EF420E26EDFCFA0
:105E0000E7FF0001C62B00D00001C751C65DE6E3E5
:105E1000010E0001BC6F94D00001C70506E1C8C0A7
:105E2000D9FFC9C0DAFFDE0402E0240E1200010E21
:105E30000001B86F85D0020E0001C71910E1C8C07B
:105E4000D9FFC9C0DAFF430EDE1809E120EE01F0E8
:105E5000C851D926C951DA22430EDE1871E0240E4A
:105E600012006ED00001C70508E1C8C0D9FFC9C043
:105E7000DAFF020EDF6403D000D0240E1200010E00
:105E80000001B96F5DD00001C70508E1C8C0D9FFA6
:105E9000C9C0DAFF030EDF6403D000D0240E120065
:105EA000010E0001C36F4CD00001C70502E0240EB3
:105EB0001200010E0001C46F43D0020E0001C71989
:105EC00002E0240E1200010E0001C56F39D000015E
:105ED000C70506E1C8C0D9FFC9C0DAFFDE2802E164
:105EE000240E1200C8C0D9FFC9C0DAFFDF5000017C
:105EF000BB6F010E0001BD6F23D00001C75102E04E
:105F0000240E1200010E0001BE6F1AD00001BA511A
:105F1000010A01E131D7030ADAE0010A01E155D7AC
:105F2000070A01E179D7010ABFE0030A84E0010A08
:105F3000E4E00E0A97E01D0AA6E0010ABEE000D0E8
:105F40000001C751010DF350C827F450C9230001C7
:105F5000C751020FC15F00D00001C15101E0F8D666
:105F60000001BE051DE1010E0001ED650AD0BDEC8A
:105F70005FF0020E0001876F180E886FEFEC23F0C0
:105F800000D0B2C0D9FFB3C0DAFFDE2805E01EECB6
:105F900058F0010E286E02D0FF0000D0000E120053
:105FA0000001C30504E0C40502E0C5050AE1C4C060
:105FB00071F0C5C072F00001C351B3EC41F0000EA6
:105FC00012000001C20530E1BC052EE1010138518B
:105FD00029E173510FE04D0E0001716F010E726FD8
:105FE000600E736F010E746F73C175F03BEC48F077
:105FF00010D000D0010E0001ED650AD0BDEC5FF0BD
:10600000560E0001876F1C0E886FEFEC23F000D056
:10601000010E0001C06F00D00001C00503E17EEC5D
:1060200044F000D0000E12000001C20529E1BD05B8
:1060300027E1600E716F010E726F746B736973C12B
:1060400075F0766B8BEC61F04D0E0001716F010EF7
:10605000726F600E736F010E746F73C175F002EC96
:1060600055F00001BF6F0001BF0508E1BBC038F16A
:10607000010E0101396F6CEC4AF000D0000E1200E5
:10608000240C1200050E0001E56FE66BE46BD0A056
:10609000D0B205D00001E56BD080D08219D0D0A05D
:1060A000D0A205D0010E0001E56FD08011D0D0B490
:1060B00002D0020E03D0D0B604D0030E0001E56F6B
:1060C00007D0D0B805D0040E0001E56FD08800D00D
:1060D00048EC63F0C090BDEC5BF081503F0B0001D9
:1060E000E66F00D0BDEC5FF0C60E0001876F0A0EB0
:1060F000886FEFEC23F000D0BDEC5FF0A80E00013C
:10610000876F1E0E886FF00E896F080E8A6F000E63
:106110008B6FEFEC23F000D0BDEC5FF0DD0E0001E3
:10612000876F1D0E886F200E896F1F0E8A6F891171
:10613000D8A4000E8B6F5E0E8C6F1F0E8D6F8C11AE
:10614000D8A4000E8E6FEFEC23F000D0BDEC5FF012
:10615000D60E0001876F1A0E886F010EE6BB000E87
:10616000896F8A6B010EE6B9000E8B6F8C6B010E86
:10617000E6B7000E8D6F8E6B010EE6B5000E8F6FC9
:10618000906B010EE6B3000E916F926B010EE6B1BB
:10619000000E936F946BEFEC23F000D08144E8463F
:1061A000030B0001E46F030E0001E4194CE0BDECA9
:1061B0005FF03E0E0001876F1E0E886FEFEC23F03C
:1061C00042D000D0BDEC5FF00F0E0001876F1D0EB6
:1061D000886FEFEC23F044D000D0BDEC5FF0A20E4E
:1061E0000001876F1C0E886FEFEC23F039D000D0D0
:1061F000BDEC5FF0F60E0001876F1B0E886FEFECB1
:1062000023F02ED000D0BDEC5FF0500E0001876F60
:10621000180E886FEFEC23F023D000D0BDEC5FF0B8
:106220004A0E0001876F170E886FEFEC23F018D02D
:1062300000D0BDEC5FF0CC0E0001876F1D0E886FA3
:10624000EFEC23F00DD00001E551BCE0010AC5E000
:10625000030ACEE0010AD7E0070AE0E0010AE9D725
:106260002FEC63F096EC62F0D7EC62F025EC1CF0BA
:1062700034EC5EF002EC50F029EC2CF04AEC62F0C9
:106280005DEC62F00101386B0101396B3A0E0001DF
:10629000716F010E726F960E736F1F0E746F731114
:1062A000D8A4000E756F776B020E766F57EC5CF01A
:1062B0003C0E0001716F010E726F000E736F020EC3
:1062C000746F7311D8A4200E756F776B110E766FF3
:1062D00057EC5CF0010E0101316FC080CEEC0FF085
:1062E00000D0BDEC5FF0650E0001876F170E886F60
:1062F000EFEC23F000D0BDEC5FF0C60E0001876F1D
:106300000A0E886FEFEC23F000D004000001E76B69
:10631000040E0001E76501D0F8D70001E7510C0D2C
:10632000090EF326000EF422AA0EF324D96E010EF4
:10633000F420DA6EDE50DE10DE1066E0E7510C0D60
:10634000AA0EF324D96E010EF420DA6EE7510C0D7B
:10635000040EF326000EF422AA0EF324E16E010EC1
:10636000F420E26EDE50E65CDE50E658DE50E65881
:10637000DE50E65849E3E7510C0D090EF326000EF6
:10638000F422AA0EF324D96E010EF420DA6E01D89D
:1063900018D00500FA6EDE50FD6EDE50FE6EDE5047
:1063A000FF6EFA500001E7510C0D080EF326000EA7
:1063B000F422AA0EF324D96E010EF420DA6EDF5017
:1063C00012000101F86F0001E7510C0D080EF326D1
:1063D000000EF422AA0EF324D96E010EF420DA6E18
:1063E000F8C1DFFF0001E7510C0D040EF326000E8B
:1063F000F422AA0EF324D96E010EF420DA6EDE6ABE
:10640000DE6ADE6ADD6A00D00001E72B81D77DD726
:1064100071EF04F0B7C0C2F0B8C0C3F0B9C0BDF0AE
:10642000BAC0BEF00001BF6B000120EE01F0C25106
:10643000D926C351DA22DF50BB6FFF0EBB25C06FD8
:10644000C16BFF0EC12311D1310E0001716F020E1D
:10645000726F040EC225BB6F000EC321BC6FBBC0A0
:1064600073F0BCC074F073517411D8A4200E756F12
:10647000776B0F0E766F57EC5CF00F0E0001C019B2
:10648000C11120E1E88725D1200E0001716F020EB5
:10649000726F040EC225BB6F000EC321BC6FBBC060
:1064A00073F0BCC074F073517411D8A4200E756FD2
:1064B000776B110E766F57EC5CF0110E0001C0196E
:1064C000C11102E0240E25D00001E88502D100D0E0
:1064D0001D0E1FD0400E0001716F020E726F040E70
:1064E000C225BB6F000EC321BC6FBBC073F0BCC024
:1064F00074F073517411D8A4200E756F776B060E6B
:10650000766F57EC5CF0060E0001C019C11104E073
:10651000D9D70001BF6FDDD00001E889DAD0460E7F
:106520000001716F020E726F040EC225BB6F000E68
:10653000C321BC6FBBC073F0BCC074F07351741145
:10654000D8A4200E756F776B050E766F57EC5CF054
:10655000050E0001C019C111B5E1E88BBAD04B0E90
:106560000001716F020E726F040EC225BB6F000E28
:10657000C321BC6FBBC073F0BCC074F07351741105
:10658000D8A4200E756F776B200E766F57EC5CF0F9
:10659000200E0001C019C11195E1E88D9AD06B0E53
:1065A0000001716F020E726F040EC225BB6F000EE8
:1065B000C321BC6FBBC073F0BCC074F073517411C5
:1065C000D8A4200E756F776B200E766F57EC5CF0B9
:1065D000200E0001C019C11101E074D7E88F79D0F5
:1065E0008B0E0001716F020E726F040EC225BB6F1D
:1065F000000EC321BC6FBBC073F0BCC074F07351FC
:106600007411D8A4200E756F776B020E766F57EC5D
:106610005CF0020E0001C019C11101E053D7E981FD
:1066200058D08D0E0001716F020E726F040EC225DC
:10663000BB6F000EC321BC6FBBC073F0BCC074F055
:1066400073517411D8A4200E756F776B020E766F9C
:1066500057EC5CF0020E0001C019C11101E032D705
:10666000E98337D01F0E55D734D0000120EE03F058
:10667000C251D926C351DA22DF50010A01E1E4D622
:10668000030A01E101D7010A01E122D7070A01E16A
:106690001FD7010A01E11CD7030A01E119D7010A3A
:1066A00001E116D70F0A01E113D7010A01E110D762
:1066B000280A01E10FD7030A01E131D7010A01E1FC
:1066C0004ED7070A01E16BD7010A8AE0030AA9E065
:1066D000C9D7BDC0D9FFBEC0DAFF0E0EDF6E000104
:1066E000C16B010EC06F000120EE01F0BD51D92633
:1066F000BE51DA22C0C0DFFF000120EE02F0BD5122
:10670000D926BE51DA22C151DF6E0001BF5109E026
:10671000B9C0B2F0BAC0B3F0BFC0B4F0D6EC5AF012
:106720000AD0000120EE03F0BD51D926BE51DA2275
:10673000000EDF6E00D0010E0001ED65000CBDEC17
:106740005FF08C0E0001876F140E886F20EE03F04F
:10675000C251D926C351DA22DF50E5EC49F020EED0
:1067600089F071C0DEFF72C0DEFFDD6A000120EE3D
:1067700003F0BD51D926BE51DA22DF50BB6FBB51A9
:106780008C6F8D6BEFEC23F0000C000C120011C02D
:1067900015F012C016F013C017F014C018F0A5C2FF
:1067A00079F0A6C27AF0A7C27BF0A8C27CF04CECCC
:1067B0005BF079C086F07AC087F07BC088F02EC18C
:1067C000BBF02FC1BCF00001BB1FBC1FBB4BBC2BDF
:1067D0001C50BB25796F1D50BC217A6F49EC60F0CD
:1067E00079C083F07AC084F07BC085F0F1EC4AF088
:1067F00083C091F084C092F085C093F022EEA3F0A4
:10680000DECFBDF0DDCFBEF00001BD1FBE1FBD4B12
:10681000BE2B0201A1510001BD25796F0201A251D9
:106820000001BE217A6F49EC60F079C094F07AC023
:1068300095F07BC096F0F2EC4CF0000193AF62D083
:10684000A36BA46BBF0EA56F22EEA3F0DECFBBF04F
:10685000DDCFBCF0BB1FBC1FBB4BBC2B0201A15149
:106860000001BB25796F0201A2510001BC217A6FA2
:1068700049EC60F079C094F07AC095F07BC096F056
:10688000A5C279F0A6C27AF0A7C27BF0A8C27CF0BC
:106890004CEC5BF079C086F07AC087F07BC088F062
:1068A0002EC1BDF02FC1BEF00001BD1FBE1FBD4BEC
:1068B000BE2B1C50BD25796F1D50BE217A6F49EC4F
:1068C00060F079C083F07AC084F07BC085F0F1EC91
:1068D0004AF083C091F084C092F085C093F0F2EC4E
:1068E0004CF091C0A0F092C0A1F093C0A2F06AEC6D
:1068F0003FF0A0C0ACF0A1C0ADF0A2C0AEF0F5EC8E
:106900004BF062D00001A36BA46B3F0EA56F22EE8B
:10691000A3F0DECFBBF0DDCFBCF0BB1FBC1FBB4B79
:10692000BC2B0201A1510001BB25796F0201A251CC
:106930000001BC217A6F49EC60F079C094F07AC014
:1069400095F07BC096F0A5C279F0A6C27AF0A7C2F6
:106950007BF0A8C27CF04CEC5BF079C086F07AC08A
:1069600087F07BC088F02EC1BDF02FC1BEF00001C2
:10697000BD1FBE1FBD4BBE2B1C50BD25796F1D50CA
:10698000BE217A6F49EC60F079C083F07AC084F060
:106990007BC085F0F1EC4AF083C091F084C092F0A6
:1069A00085C093F0F2EC4CF091C0A0F092C0A1F041
:1069B00093C0A2F06AEC3FF0A0C0ACF0A1C0ADF073
:1069C000A2C0AEF0F5EC4BF0ACC011F0ADC012F0CF
:1069D000AEC013F0AFC014F000D01C500201AD5D8A
:1069E000AE51800A0001BB6F1D50800ABB591AE2EC
:1069F0000201B0510FE129500DE101010A511126A8
:106A00000B5112220C5113220D511422010E0101BF
:106A1000356F00D00201B00524E0010E1ED0000148
:106A2000EA891FD00201B00503E10101355105E0FB
:106A30000201B0510EE129040CE101010A51115E7D
:106A40000B51125A0C51135A0D51145A010E296E42
:106A500000D00201B05105E0000E0201B06FDFD797
:106A600000D015C0BBF016C0BCF017C0BDF018C0F8
:106A7000BEF00001BB1FBC1FBD1FBE1FBB2B000E05
:106A8000BC23BD23BE231150BB25096E1250BC216F
:106A90000A6E1350BD210B6E1450BE210C6E00D037
:106AA0000001ED51D8B41200BDEC5FF0490E0001B9
:106AB000876F0A0E886F1CC089F01DC08AF011C054
:106AC0008BF012C08CF013C08DF014C08EF015C086
:106AD0008FF016C090F017C091F018C092F009C066
:106AE00093F00AC094F00BC095F00CC096F0EFEC58
:106AF00023F01200120011C015F012C016F013C0DE
:106B000017F014C018F000D00001ED510AE0BDEC00
:106B10005FF0360E0001876F180E886FEFEC23F0E0
:106B200000D00201A351AD5DAE51800A0001BB6FE0
:106B30000201A451800A0001BB5905E3ADC21CF05B
:106B4000AEC21DF005D0A3C21CF0A4C21DF000D03F
:106B5000000E01012F6F2E6F010E296E0201B05140
:106B600004E0B06B0001EA8900D0A5C279F0A6C2AA
:106B70007AF0A7C27BF0A8C27CF04CEC5BF079C045
:106B800086F07AC087F07BC088F022EEA3F0DECFDB
:106B9000BBF0DDCFBCF00001BB1FBC1FBB4BBC2B4F
:106BA0001C50BB25796F1D50BC217A6F49EC60F0F9
:106BB00079C083F07AC084F07BC085F0F1EC4AF0B4
:106BC00083C091F084C092F085C093F022EEA3F0D0
:106BD000DECFBDF0DDCFBEF00001BD1FBE1FBD4B3F
:106BE000BE2B0201A1510001BD25796F0201A25106
:106BF0000001BE217A6F49EC60F079C094F07AC050
:106C000095F07BC096F0F2EC4CF0000193AF64D0AD
:106C1000A36BA46BBF0EA56F22EEA3F0DECFBBF07B
:106C2000DDCFBCF0BB1FBC1FBB4BBC2B0201A15175
:106C30000001BB25796F0201A2510001BC217A6FCE
:106C400049EC60F079C094F07AC095F07BC096F082
:106C5000A5C279F0A6C27AF0A7C27BF0A8C27CF0E8
:106C60004CEC5BF079C086F07AC087F07BC088F08E
:106C700022EEA3F0DECFBDF0DDCFBEF00001BD1FE0
:106C8000BE1FBD4BBE2B1C50BD25796F1D50BE21B4
:106C90007A6F49EC60F079C083F07AC084F07BC0F1
:106CA00085F0F1EC4AF083C091F084C092F085C089
:106CB00093F0F2EC4CF091C0A0F092C0A1F093C020
:106CC000A2F06AEC3FF0A0C0ACF0A1C0ADF0A2C051
:106CD000AEF0F5EC4BF064D00001A36BA46B3F0E5B
:106CE000A56F22EEA3F0DECFBBF0DDCFBCF0BB1F63
:106CF000BC1FBB4BBC2B0201A1510001BB25796F0E
:106D00000201A2510001BC217A6F49EC60F079C008
:106D100094F07AC095F07BC096F0A5C279F0A6C237
:106D20007AF0A7C27BF0A8C27CF04CEC5BF079C093
:106D300086F07AC087F07BC088F022EEA3F0DECF29
:106D4000BDF0DDCFBEF00001BD1FBE1FBD4BBE2B91
:106D50001C50BD25796F1D50BE217A6F49EC60F043
:106D600079C083F07AC084F07BC085F0F1EC4AF002
:106D700083C091F084C092F085C093F0F2EC4CF0A7
:106D800091C0A0F092C0A1F093C0A2F06AEC3FF0D5
:106D9000A0C0ACF0A1C0ADF0A2C0AEF0F5EC4BF0DD
:106DA000ACC011F0ADC012F0AEC013F0AFC014F023
:106DB00000D001010A51115E0B51125A0C51135AA5
:106DC0000D51145A15C0BBF016C0BCF017C0BDF071
:106DD00018C0BEF00001BB1FBC1FBD1FBE1FBB2BD8
:106DE000000EBC23BD23BE231150BB25096E1250DB
:106DF000BC210A6E1350BD210B6E1450BE210C6EC7
:106E000000D00001ED51D8B41200BDEC5FF0090EC6
:106E10000001876F0A0E886F1CC089F01DC08AF0C0
:106E200011C08BF012C08CF013C08DF014C08EF026
:106E300015C08FF016C090F017C091F018C092F0F6
:106E400009C093F00AC094F00BC095F00CC096F006
:106E5000EFEC23F0120012000001BB6F0001BA6BCF
:106E6000800EBD6F030EBE6F15D120D105EC60F012
:106E700000D0010E0001ED650AD0BDEC5FF09A0E66
:106E80000001876F170E886FEFEC23F000D0030E20
:106E9000FED00101BE0501E109D102D007D100D029
:106EA0000101785100087A250001BC6F010E000134
:106EB000ED650DD0BDEC5FF0EE0E0001876F1D0E8D
:106EC000886FBCC089F08A6BEFEC23F000D0400ED5
:106ED0000001BC6101D0B8D0780E00017D6F010EB9
:106EE0007E6F800E7F6F030E806F400E816FA3EC6C
:106EF0003AF04D0470E1BDC071F0BEC072F0850E75
:106F00000001736F1F0E746F766B050E756FC9EC01
:106F100056F000017151721111E00001ED510AE0CB
:106F2000BDEC5FF0E00E0001876F1E0E886FEFEC86
:106F300023F000D0010E0101346F00D0000120EEDB
:106F400005F0BD51D926BE51DA22DE0411E0000160
:106F5000ED510AE0BDEC5FF00E0E0001876F1E0ED2
:106F6000886FEFEC23F000D0010E0101346F00D0E8
:106F70000001ED5130E0BDEC5FF0040E0001876FC1
:106F80000B0E886F0C0EBD25B86F000EBE21B96FB9
:106F900020EE89F0B8C0DEFFB9C0DEFF200EDF6E44
:106FA00020EE06F0BD51D926BE51DA22DECF8CF09C
:106FB000DECF8DF0DECF8EF0DECF8FF020EE3EF014
:106FC000BD51D926BE51DA22DECF90F0DDCF91F04F
:106FD000EFEC23F000D00101215120112AE1FC0E39
:106FE0001F5DD8B026D01AC1B2F01BC1B3F01CC1CE
:106FF000B4F01DC1B5F0800E0001B66F030EB76F7F
:10700000D9EC50F04D040DE1000120EE3EF0BD51F1
:10701000D926BE51DA22DECF2AF1DDCF2BF14D6A1F
:1070200000D0400E01011A27000E1B231C231D2334
:1070300003D0010E0101346F010E0001BA6F400E42
:107040000001BC612DD700D00001BA052FE1010E6F
:107050000E6E000E106EBA6F29D000D0010E000126
:10706000ED650AD0BDEC5FF09C0E0001876F180E35
:10707000886FEFEC23F000D05A0E01012A1906E1C7
:107080005A0E2B19D8A402D0010E246E000E000156
:10709000BB6F0CD00001BB5109E0010A01E1E6D64B
:1070A000030ADCE0010A01E1F4D600D00001BB5183
:1070B00012001200000120EE02F07D51D9267E510F
:1070C000DA22DF50826F7DC0D9FF7EC0DAFFDF5049
:1070D00000088225886F00018151D8B412008151C7
:1070E00088C082F0836B8227000E832320EE04F099
:1070F0007D51D9267E51DA228251DE5C8351DE58E1
:10710000D8A0120001D0120000018151826F836B60
:1071100020EE04F07D51D9267E51DA22DECF84F0B4
:10712000DDCF85F020EE02F07D51D9267E51DA22A6
:10713000DECF86F0DDCF87F0861F871F864B872B3B
:1071400084518627855187238251865D83518759D3
:1071500052E320EE02F07D51D9267E51DA22DECFB5
:1071600082F0DDCF83F020EE06F07D51D9267E51EE
:10717000DA22DECF84F0DDCF85F082518425716F75
:1071800083518521726F7FC073F080C074F073519A
:107190007411D8A4200E756F81C076F0776B57EC10
:1071A0005CF0000120EE02F07D51D9267E51DA22FA
:1071B0008151DE26000EDD22000120EE04F07D511B
:1071C000D9267E51DA2210EE02F07D51E1267E5161
:1071D000E222DE50E61803E1DE50E618D8A41200E1
:1071E000000120EE02F07D51D9267E51DA22000EF8
:1071F000DE6EDD6E1200000120EE04F07D51D92616
:107200007E51DA22DECF82F0DDCF83F020EE02F075
:107210007D51D9267E51DA22DECF84F0DDCF85F094
:10722000841F851F844B852B825184258B6F83514E
:1072300085218C6F000120EE02F07D51D9267E5110
:10724000DA22DECF82F0DDCF83F020EE06F07D5132
:10725000D9267E51DA22DECF84F0DDCF85F082514F
:107260008425716F83518521726F7FC073F080C058
:1072700074F073517411D8A4200E756F8BC076F022
:107280008CC077F057EC5CF08BC082F08CC083F040
:107290000001821F831F824B832B81518225896FBE
:1072A000000E83218A6F000120EE06F07D51D92661
:1072B0007E51DA22DECF71F0DDCF72F08B517F2567
:1072C000826F8C518021836F82C073F083C074F011
:1072D00073517411D8A4200E756F89C076F08AC0DE
:1072E00077F057EC5CF0000120EE02F07D51D926DA
:1072F0007E51DA2289C0DEFF8AC0DDFF1200120053
:107300000001966B976B986B996B896B8A6B8B6B93
:107310008C6B8D6B8E6B8F6B906B020E00017F25DB
:107320009D6F000E80219E6F9DC0D9FF9EC0DAFF29
:10733000DF500001916F00019D4B9E2B9DC0D9FF36
:107340009EC0DAFFDF500001926F00019D4B9E2B23
:107350009DC0D9FF9EC0DAFFDF5000019A6F000187
:107360009D4B9E2B490E00019A65DBD0240E120026
:10737000D8D09DC0D9FF9EC0DAFFDF500001956FC5
:1073800000019D4B9E2B9DC0D9FF9EC0DAFFDF50B0
:1073900000019C6F9D4B9E2BACD0040E00019C19EC
:1073A00002E0240E120000019B6B35D000019B51BE
:1073B00000089C25826FD8908237D8908237D89069
:1073C0008237F80E82279B51010DF3509D25D96E0F
:1073D000F4509E21DA6EDF50836F846B822B04D0D1
:1073E000D8900001833784370001822FF9D783C0FA
:1073F00085F084C086F0000E86BFFF0E876F886F11
:107400008551891386518A1387518B1388518C13A8
:1074100000019B2B00D000019C519B5DC7E3010E36
:107420000001966F72D0040E00019C1902E0240E38
:10743000120000019B6B35D000019B5100089C2578
:10744000826FD8908237D8908237D8908237F80EE2
:1074500082279B51010DF3509D25D96EF4509E213A
:10746000DA6EDF50836F846B822B04D0D8900001DA
:10747000833784370001822FF9D783C085F084C019
:1074800086F0000E86BFFF0E876F886F85518D13C3
:1074900086518E1387518F138851901300019B2BB7
:1074A00000D000019C519B5DC7E3010E0001976F66
:1074B0002CD000019C0502E0240E12009DC0D9FFD3
:1074C0009EC0DAFFDF500001936F010E0001986F3C
:1074D0001CD000019C0502E0240E12009DC0D9FFC3
:1074E0009EC0DAFFDF500001946F010E0001996F1A
:1074F0000CD000019551050A01E14FD7030A93E032
:10750000010AD7E00F0AE5E000D000019C51010D0F
:10751000F3509D27F4509E2300019C51020F9A5F67
:1075200000D000019A5101E024D70001960509E13D
:10753000970507E1980505E1990503E1AAEC3CF000
:10754000240C240C1200000120EE02F07D51D926FB
:107550007E51DA22DF50826F7DC0D9FF7EC0DAFF14
:10756000DF5000088225886F00018151D8B41200D5
:107570008151885DD8A0120001D012000001815114
:10758000826F836B20EE04F07D51D9267E51DA2282
:10759000DECF84F0DDCF85F07DC0D9FF7EC0DAFF7D
:1075A000DECF86F0DDCF87F0861F871F864B872BC7
:1075B00084518627855187238251865D835187595F
:1075C0004DE37FC071F080C072F07DC0D9FF7EC0F6
:1075D000DAFFDECF82F0DDCF83F020EE06F07D51C2
:1075E000D9267E51DA22DECF84F0DDCF85F08251BC
:1075F0008425866F83518521876F86C073F087C08D
:1076000074F073517411D8A4200E756F81C076F098
:10761000776B57EC5CF0000181517DC0D9FF7EC0D3
:10762000DAFFDE26000EDD22000120EE04F07D519F
:10763000D9267E51DA227DC0E1FF7EC0E2FFDE5016
:10764000E61803E1DE50E618D8A412007DC0D9FF89
:107650007EC0DAFF000EDE6EDD6E1200000120EE4D
:1076600004F07D51D9267E51DA22DECF82F0DDCFC3
:1076700083F07DC0D9FF7EC0DAFFDECF84F0DDCF9E
:1076800085F0841F851F844B852B825184258B6F49
:10769000835185218C6F7FC071F080C072F07DC0F6
:1076A000D9FF7EC0DAFFDECF82F0DDCF83F00001AC
:1076B00020EE06F07D51D9267E51DA22DECF84F00D
:1076C000DDCF85F082518425866F83518521876FB8
:1076D00086C073F087C074F073517411D8A4200E63
:1076E000756F8BC076F08CC077F057EC5CF08BC078
:1076F00082F08CC083F00001821F831F824B832B9A
:1077000081518225896F000E83218A6F00018B5180
:107710007F25716F8C518021726F20EE06F07D51B4
:10772000D9267E51DA22DECF82F0DDCF83F082C00F
:1077300073F083C074F073517411D8A4200E756F68
:1077400089C076F08AC077F057EC5CF07DC0D9FF35
:107750007EC0DAFF89C0DEFF8AC0DDFF12001200A2
:10776000000E0001C86F040EC96F020E0101391925
:1077700002E0320E1200000120EE01F0C451D926C1
:10778000C551DA22DF5040EC63F00001C76F000101
:10779000C7510101751901E0AAD0EDEC5CF0E806D3
:1077A00034E1000120EE03F0C851D926C951DA2294
:1077B00010C0DFFF070EF1EC5BF071C019F072C072
:1077C0001AF073C01BF019501A101B1002E1260E9C
:1077D0001200000E0001B76FB86FC8C0B9F0C9C081
:1077E000BAF001D80AD00500FA6E1950FD6E1A5091
:1077F000FE6E1B50FF6EFA501200C8C07DF0C9C06B
:107800007EF0BCEC4EF0000E12000E500EE10D04A6
:1078100009E1320E0F1803E0410E0F1803E11EECD0
:107820005DF0000CBCEC5CF0000C0D501AE1320E67
:107830000F1805E0410E0F1802E013D000D0010E22
:107840000001ED650AD0BDEC5FF0C70E0001876F47
:10785000140E886FEFEC23F000D0BCEC5CF0000C51
:1078600000D0010E0001ED650AD0BDEC5FF00E0EF8
:107870000001876F130E886FEFEC23F000D00D6AC4
:107880000E6A000120EE03F0C851D926C951DA2250
:1078900010C0DFFF0F50F1EC5BF071C019F072C047
:1078A0001AF073C01BF019501A101B1004E1BCEC45
:1078B0005CF0260E1200000E0001B76FB86FC8C052
:1078C000B9F0C9C0BAF001D80AD00500FA6E195053
:1078D000FD6E1A50FE6E1B50FF6EFA501200C8C0AB
:1078E0007DF0C9C07EF0BCEC4EF0000C00D0010E63
:1078F0000001ED6518D0BDEC5FF0790E0001876FD7
:107900000B0E886FC7C089F08A6B75C18BF08C6BCA
:10791000540E8D6F0D0E8E6F8D11D8A4000E8F6FCB
:10792000EFEC23F000D027C0ECF0000E0001716FE7
:10793000030E726F000E736F050E746F7311D8A46F
:10794000200E756FECC076F0776B57EC5CF0000C96
:10795000000C1200000E0001736F030E746F500EC6
:107960000001756F020E766F776B786B500E000119
:10797000796F020E7A6F7B6B7C6B7325716F000ED3
:107980007421726F71C07DF072C07EF073C0D9FF38
:1079900074C0DAFF38C1DFFF000120EE01F073513F
:1079A000D9267451DA22BF0EDF6E7DC0D9FF7EC0AA
:1079B000DAFF810EDF6E00017D4B7E2B7DC0D9FF8B
:1079C0007EC0DAFF800EDF6E00017D4B7E2B7DC016
:1079D000D9FF7EC0DAFF120EDF6E00017D4B7E2BD9
:1079E0007DC0D9FF7EC0DAFF050EDF6E00017D4B42
:1079F0007E2B7DC0D9FF7EC0DAFF040EDF6E000152
:107A00007D4B7E2B7DC0D9FF7EC0DAFF78C0DFFFC3
:107A100000017D4B7E2B7DC0D9FF7EC0DAFF77C091
:107A2000DFFF00017D4B7E2B7DC0D9FF7EC0DAFFDA
:107A300076C0DFFF00017D4B7E2B7DC0D9FF7EC06D
:107A4000DAFF75C0DFFF00017D4B7E2B7DC0D9FFC3
:107A50007EC0DAFF060EDF6E00017D4B7E2B7DC0FF
:107A6000D9FF7EC0DAFF040EDF6E00017D4B7E2B56
:107A70007DC0D9FF7EC0DAFF7CC0DFFF00017D4BF7
:107A80007E2B7DC0D9FF7EC0DAFF7BC0DFFF000107
:107A90007D4B7E2B7DC0D9FF7EC0DAFF7AC0DFFF31
:107AA00000017D4B7E2B7DC0D9FF7EC0DAFF79C0FF
:107AB000DFFF00017D4B7E2B7DC0D9FF7EC0DAFF4A
:107AC000070EDF6E00017D4B7E2B7DC0D9FF7EC08F
:107AD000DAFF010EDF6E00017D4B7E2B7DC0D9FFEA
:107AE0007EC0DAFF010EDF6E00017D4B7E2B7DC074
:107AF000D9FF7EC0DAFF080EDF6E00017D4B7E2BC2
:107B00007DC0D9FF7EC0DAFF010EDF6E00017D4B24
:107B10007E2B7DC0D9FF7EC0DAFF010EDF6E000133
:107B20007D4B7E2B0001715100087D25020FEC6F0B
:107B300012001200020E0001C425CD6F000EC521F7
:107B4000CE6F000EC96F040ECA6FC651FB0FC86F0F
:107B5000020E0101391902E0320E1200000120EE7E
:107B600001F0C451D926C551DA22DF5040EC63F050
:107B70000001CB6F20EE01F0C451D926C551DA22A5
:107B8000DF5038EC63F00001CC6F0001CC510101F3
:107B900074192BE0010E0001ED6518D0BDEC5FF00B
:107BA000400E0001876F0B0E886FCCC089F08A6B86
:107BB00074C18BF08C6B2A0E8D6F0D0E8E6F8D1134
:107BC000D8A4000E8F6FEFEC23F000D00001CC2B77
:107BD000CC51070BCC6F0001CC510101741905E1A8
:107BE0001EEC5DF0000E120000D00001CB5101012F
:107BF000751932E0010E0001ED6518D0BDEC5FF0A3
:107C0000790E0001876F0B0E886FCBC089F08A6BED
:107C100075C18BF08C6B540E8D6F0D0E8E6F8D11A8
:107C2000D8A4000E8F6FEFEC23F000D027C0ECF04B
:107C3000000E0001716F030E726F000E736F050E60
:107C4000746F7311D8A4200E756FECC076F0776B4B
:107C500057EC5CF0000E12000101742B7451070BFD
:107C6000746F000120EE02F0CD51D926CE51DA22F8
:107C7000DF5009E120EE01F0CD51D926CE51DA22B4
:107C8000C851DE1802E0240E1200CDC0D9FFCEC0CC
:107C9000DAFFDF50F1EC5BF071C019F072C01AF03E
:107CA00073C01BF019501A101B1002E1260E1200AF
:107CB000CDC0B7F0CEC0B8F0C9C0B9F0CAC0BAF0F4
:107CC00001D80AD00500FA6E1950FD6E1A50FE6EEA
:107CD0001B50FF6EFA501200330A07E0C9C07DF056
:107CE000CAC07EF0BCEC4EF0000CCDC0D9FFCEC0B7
:107CF000DAFFDF500F6E010E0D6E1EEC5DF0000C12
:107D0000000C1200B7C0BCF0B8C0BDF0B9C0C0F0E4
:107D1000BAC0C1F0C0C0D9FFC1C0DAFF050EDF6E26
:107D20000001BF6B430EBE6F000120EE01F0C05199
:107D3000D926C151DA22BEC0DFFF000120EE02F0D9
:107D4000C051D926C151DA22BF51DF6E000120EEA9
:107D500001F0B751D926B851DA22DF500AE0B9C094
:107D6000B2F0BAC0B3F0240EB46FD6EC5AF0000EE5
:107D70001200000120EE04F0C051D926C151DA22D0
:107D80000F0EDF6E050E0001C025716F000EC121C0
:107D9000726F110E736F020E746F7311D8A4200EE0
:107DA000756F20EE04F0C051D926C151DA22DF50A0
:107DB000BB6FBB51766F776B57EC5CF0000120EE28
:107DC00014F0C051D926C151DA22110EDF6E150E02
:107DD000C025716F000EC121726F000E736F020E0D
:107DE000746F7311D8A4200E756F20EE14F0C0517B
:107DF000D926C151DA22DF50BB6FBB51766F776B4A
:107E000057EC5CF0000120EE26F0C051D926C1519C
:107E1000DA220F0EDF6E270E0001C025716F000EF3
:107E2000C121726F736B090E746F756B20EE26F0B3
:107E3000C051D926C151DA22DF50BB6FBB51766FDA
:107E4000776B57EC5CF0000120EE36F0C051D9267C
:107E5000C151DA220F0EDF6E370E0001C025716F9F
:107E6000000EC121726FF00E736F080E746F756B88
:107E700020EE36F0C051D926C151DA22DF50BB6F57
:107E8000BB51766F776B57EC5CF0000120EE03F08E
:107E9000C051D926C151DA22000EDF6E00D0010E8A
:107EA0000001ED65000CBDEC5FF06A0E0001876F0C
:107EB0001B0E886F20EE03F0C051D926C151DA2283
:107EC000DF50BB6FBB51896F8A6BEFEC23F0000C66
:107ED000000C1200A2C0A6F00001A76BA86BA13590
:107EE000A63701E3A7810001A651AB6FA5C0A6F09C
:107EF000A76BA86BA435A63701E3A7810001A651A3
:107F0000AA6F0001AB510AE0AA51AB5D0EE2AB5182
:107F10000008AA25A66F180EA66507D0A3C0A0F07A
:107F2000A4C0A1F0A5C0A2F012000001AA510AE06D
:107F3000AB51AA5D0EE2AA510008AB25A66F180E40
:107F4000A66507D0A0C0A0F0A1C0A1F0A2C0A2F079
:107F50001200060E0001A96F0001A2BFA98F00D078
:107F60000001A5BFA98DA18F0001A26BA48F000104
:107F7000A56B0001AA51AB5D1FE20001D890A337A9
:107F8000A437A537AA070001AB51AA190FE0A9072A
:107F9000A9C0A6F0070EA61709E0EFD707D0000189
:107FA000D890A233A133A033AB2B00D00001AA514B
:107FB000AB1925E0F4D723D00001AB51AA5D1FE235
:107FC0000001D890A037A137A237AB070001AB5111
:107FD000AA190FE0A907A9C0A6F0070EA61709E085
:107FE000EFD707D00001D890A533A433A333AA2B31
:107FF00000D00001AA51AB1902E0F4D700D0000173
:10800000A9AF07D0A01FA11FA21FA02B000EA12364
:10801000A2230001A9AD08D0A31FA41FA51FA32B55
:10802000000EA423A52300D00001A96B0001A051DC
:10803000A327A151A423A251A5230001A5AF0BD0D2
:10804000A31FA41FA51FA32B000EA423A523010E6D
:108050000001A96F00D0A3C071F0A4C072F0A5C048
:1080600073F0ABC074F0A9C075F0A6EC54F071C009
:10807000A0F072C0A1F073C0A2F012001200B7C04D
:10808000BCF0B8C0BDF0B9C0C0F0BAC0C1F0C0C04B
:10809000D9FFC1C0DAFF330EDF6E0001BF6B010EE6
:1080A000BE6F000120EE01F0C051D926C151DA2285
:1080B000BEC0DFFF000120EE02F0C051D926C15141
:1080C000DA22BF51DF6E0001B751B8116BE020EE2C
:1080D00001F0B751D926B851DA22020EDE180AE0B3
:1080E000B9C0B2F0BAC0B3F0240EB46FD6EC5AF0F7
:1080F000000E1200000120EE03F0BC51D926BD5144
:10810000DA22DECF72F0DDCF73F0E2EC59F000013D
:10811000C26F00D0010E0001ED650DD0BDEC5FF027
:10812000920E0001876F1B0E886FC2C089F08A6BA8
:10813000EFEC23F000D00001C25118E0330EC21959
:108140000AE120EE03F0C051D926C151DA22000E17
:10815000DF6E330E1200B9C0B2F0BAC0B3F0C2C0C5
:10816000B4F0D6EC5AF0000E120000D0010E00015F
:10817000ED650DD0BDEC5FF0500E0001876F140E61
:10818000886FC2C089F08A6BEFEC23F000D0000149
:1081900020EE03F0C051D926C151DA22000EDF6E65
:1081A000000E1200000120EE03F0C051D926C1518B
:1081B000DA22DF50C26F00D0010E0001ED650DD054
:1081C000BDEC5FF0B50E0001876F180E886FC2C05E
:1081D00089F08A6BEFEC23F000D00001C25109E076
:1081E000B9C0B2F0BAC0B3F0C2C0B4F0D6EC5AF025
:1081F00000D0000E120012000001B36FA9D00400DD
:108200004E500001ED1945E0ED2BEDC071F0726BA1
:10821000746B030E736F56EC59F000017151B26F1D
:108220002AD000D00001ED512DE0BDEC5FF0FA0E38
:108230000001876F1E0E886FEFEC23F023D000D073
:108240000001ED511FE0BDEC5FF0ED0E0001876F06
:108250001E0E886FEFEC23F015D000D00001ED5119
:1082600011E0BDEC5FF0070E0001876F1F0E886FF5
:10827000EFEC23F007D00001ED51010AD3E0030A2F
:10828000DFE0ECD7B2C0EDF0EDC0B1F20001EA8B57
:1082900000D00101264B272B26C171F027C172F0B7
:1082A0000001746B0A0E736F56EC59F000017151A6
:1082B00072111CE1010E0001ED6518D0BDEC5FF0FC
:1082C000210E0001876F1D0E886F06C189F007C15E
:1082D0008AF008C18BF009C18CF0EFEC23F00101AA
:1082E000062B000E07230823092300D0B40E01013A
:1082F0002619271110E1010E0001B36F0001ED51A5
:108300000AE0BDEC5FF04B0E0001876F190E886F1D
:10831000EFEC23F000D00101360504E1276B266B5A
:10832000366B00D0240402E0280419E1010E00019C
:10833000B36F0001ED5113E0BDEC5FF00D0E0001D5
:10834000876F180E886FEFEC23F009D0FF0007D07D
:108350000001B35101E153D7010AF8E000D0000158
:10836000B351120012000001776F000E0001786F08
:10837000030E796F020E00017825756F000E7921CA
:10838000766F75C07AF076C07BF078C0D9FF79C07F
:10839000DAFF38C1DFFF000120EE01F07851D92665
:1083A0007951DA22BF0EDF6E7AC0D9FF7BC0DAFFC7
:1083B000810EDF6E00017A4B7B2B7AC0D9FF7BC028
:1083C000DAFFF00EDF6E00017A4B7B2B0001725159
:1083D000040DF3CF73F07151030DF3CF74F07751A7
:1083E000030DF350742573257AC0D9FF7BC0DAFFE3
:1083F000DF6E00017A4B7B2B000177051CE17AC010
:10840000D9FF7BC0DAFF140EDF6E00017A4B7B2BA5
:108410007AC0D9FF7BC0DAFF010EDF6E00017A4B14
:108420007B2B7AC0D9FF7BC0DAFF020EDF6E000122
:108430007A4B7B2B00D0000171051CE17AC0D9FF7B
:108440007BC0DAFF050EDF6E00017A4B7B2B7AC012
:10845000D9FF7BC0DAFF010EDF6E00017A4B7B2B68
:108460007AC0D9FF7BC0DAFF070EDF6E00017A4BBE
:108470007B2B00D00001720524E17AC0D9FF7BC0BC
:10848000DAFF150EDF6E00017A4B7B2B7AC0D9FF25
:108490007BC0DAFF020EDF6E00017A4B7B2B7AC0C5
:1084A000D9FF7BC0DAFF010EDF6E00017A4B7B2B18
:1084B0007AC0D9FF7BC0DAFFDF6A00017A4B7B2BE1
:1084C00000D00001755100087A25020FEC6F1200F0
:1084D0001200000E0001B76F020EB86FB71FB81F71
:1084E000B74BB82BB251B725BD6FB351B821BE6F92
:1084F000000EB76F020EB86FB71FB81FB74BB82B7F
:10850000B551B725BB6FB651B821BC6F0001BF6B29
:108510000001BA6B010E0001ED6511D0BDEC5FF0FA
:108520001C0E0001876F0C0E886FBDC089F0BEC0A5
:108530008AF0B4C08BF08C6BEFEC23F000D000011C
:10854000B96B2BD0B2C0D9FFB3C0DAFFDF50000146
:10855000BF6FBDC073F0BEC074F0BFC075F059EC02
:1085600061F000D0010E0001ED650BD0670E876F42
:108570001F0E886FBFC089F08A6BEFEC23F00400F8
:1085800000D00001B24BB32B0001BF51BA2700014C
:10859000BD4BBE2B0001B92B00D00001B451B95D19
:1085A00002E2D0D700D0010E0001ED6508D0010E27
:1085B000876F0B0E886FEFEC23F0040000D00001F2
:1085C000BA1DB5C0D9FFB6C0DAFFDF6E00D0010E0C
:1085D0000001ED6517D0BDEC5FF0E80E0001876F7C
:1085E0000B0E886FBBC089F0BCC08AF0B5C0D9FF44
:1085F000B6C0DAFFDF50B76FB7518B6F8C6BEFEC03
:1086000023F000D0BBC073F0BCC074F0B5C0D9FF7C
:10861000B6C0DAFFDF500001756F59EC61F000D091
:10862000010E0001ED65010C010E876F0B0E886FC6
:10863000EFEC23F004001200120082EC63F0C00E95
:108640001BEC63F0FC0E1BEC63F082EC63F0C10EDC
:108650001BEC63F0BF0E0001B26F000EB36F010E92
:1086600075EC57F00001C26F0001C25103E17DECCF
:1086700063F01200C10E0001B26F000EB36F010E65
:1086800075EC57F00001C26F0001C25103E17DECAF
:1086900063F01200C00E0001B26F000EB36F010E46
:1086A00075EC57F00001C26F0001C25103E17DEC8F
:1086B00063F012000001C051C1C0BDF0BE6BBDC06F
:1086C000BEF0BD6BBD13B9C0D9FFBAC0DAFFBDC0E3
:1086D000DEFFBEC0DDFFC10E0001B26F000EB36F42
:1086E000010E75EC57F00001C26F0001C25103E1A9
:1086F0007DEC63F01200C00E0001B26F000EB36F8C
:10870000010E75EC57F00001C26F0001C25103E188
:108710007DEC63F012000001C051C1C0BDF0BE6B22
:10872000BDC0BEF0BD6BBD13BBC0D9FFBCC0DAFF7E
:10873000BDC0DEFFBEC0DDFFBF0E0001B26F000E88
:10874000B36F010E75EC57F00001C26F0001C2510A
:1087500003E17DEC63F01200BF0E0001B26F000E6A
:10876000B36F010E75EC57F00001C26F0001C251EA
:1087700003E17DEC63F01200BF0E0001B26F000E4A
:10878000B36F000E75EC57F00001C26F0001C251CB
:1087900003E17DEC63F012007DEF63F01200B9C0DD
:1087A000C2F0BAC0C3F00001C16BC2C0D9FFC3C0E0
:1087B000DAFF070EDF6E73EC63F00001BF6F6EEC43
:1087C00063F00001C06F0001BF5128E0C151020DEC
:1087D000030EF326000EF422F350C225D96EF45096
:1087E000C321DA6EBFC0DFFFC151020D030EF326B5
:1087F000000EF422C2C0BBF0C3C0BCF0F350BB27D4
:10880000F450BC23BB29D96E000EBC21DA6E000ED9
:10881000DF6E0001C05102E0C12B00D00001C05149
:1088200024E0C151020D030EF326000EF422F35092
:10883000C225D96EF450C321DA6EC0C0DFFFC1512A
:10884000020D030EF326000EF422C2C0BBF0C3C01B
:10885000BCF0F350BB27F450BC23BB29D96E000EEB
:10886000BC21DA6E010EDF6E00D00001C151BB6F7A
:10887000BC6BBB1FBC1FBB4BBC2BD890BB37BC37E2
:10888000020EBB27000EBC23BB1FBC1FBB4BBC2B67
:10889000040EBB25BD6F000EBC21BE6F000120EE93
:1088A00001F0C251D926C351DA22BDC0DFFF000159
:1088B00020EE02F0C251D926C351DA22BE51DF6E3A
:1088C0008CEC63F000D0010E0001ED65000CBDECF6
:1088D0005FF01D0E0001876F150E886F20EE03F00C
:1088E000C251D926C351DA22DF50BB6FBB51896F09
:1088F0008A6BEFEC23F0000C000C1200000E00015C
:108900007F6F030E806F020E7F257D6F000E80212A
:108910007E6F7DC081F07EC082F07FC0D9FF80C0B5
:10892000DAFFDF6A000120EE01F07F51D926805185
:10893000DA22BF0EDF6E81C0D9FF82C0DAFF810E5E
:10894000DF6E0001814B822B81C0D9FF82C0DAFF2C
:10895000F00EDF6E0001814B822B81C0D9FF82C0F7
:10896000DAFF1C0EDF6E0001814B822B81C0D9FF24
:1089700082C0DAFF010EDF6E0001814B822B81C0C5
:10898000D9FF82C0DAFF130EDF6E0001814B822B0C
:1089900081C071F082C072F03A0E0001736F010E57
:1089A000746F7311D8A4200E756F776B130E766FEA
:1089B00057EC5CF0130E00018127000E822381C06A
:1089C000D9FF82C0DAFF060EDF6E0001814B822BD9
:1089D00081C0D9FF82C0DAFF020EDF6E0001814B39
:1089E000822B81C071F082C072F0960E0001736F0D
:1089F0001F0E746F7311D8A4000E756F776B020E83
:108A0000766F57EC5CF0020E00018127000E822386
:108A100081C0D9FF82C0DAFF040EDF6E0001814BF6
:108A2000822B81C0D9FF82C0DAFF010EDF6E000108
:108A3000814B822B81C0D9FF82C0DAFF010EDF6E2D
:108A40000001814B822B00017D5100088125020F1E
:108A5000EC6F12001200B7C0BEF0B8C0BFF0B9C0D2
:108A6000C1F0BAC0C2F0C1C0D9FFC2C0DAFF410E26
:108A7000DF6E010E0001C06F000120EE01F0C15158
:108A8000D926C251DA22C0C0DFFF000120EE02F079
:108A9000C151D926C251DA22DF6A0001B751B8119B
:108AA0004DE020EE01F0BE51D926BF51DA22DF5051
:108AB000C06F030E0001BE25BC6F000EBF21BD6F4D
:108AC000780E00017D6F010E7E6FBCC07FF0BDC0CF
:108AD00080F0C0C081F05AEC38F00101345113E14C
:108AE000000120EE03F0C151D926C251DA22000E56
:108AF000DF6E3F0E0001C06502D0330E1200000E83
:108B00000D6E000E1200000120EE03F0C151D926B7
:108B1000C251DA22220EDF6E0D6AB9C0B2F0BAC0BD
:108B2000B3F0000120EE03F0C151D926C251DA2280
:108B3000DF50B46FD6EC5AF0000E1200000120EEA8
:108B400003F0C151D926C251DA22DF500FE0B9C07B
:108B5000B2F0BAC0B3F020EE03F0C151D926C25131
:108B6000DA22DF50B46FD6EC5AF000D0010E0001CB
:108B7000ED6515D0BDEC5FF0CE0E0001876F180ECD
:108B8000886F20EE03F0C151D926C251DA22DF509E
:108B9000BB6FBB51896F8A6BEFEC23F000D0000EE6
:108BA000120012000001B96F82EC63F0C00E1BECE2
:108BB00063F0810E1BEC63F082EC63F0C10E1BECE2
:108BC00063F00001BB6B070E0001BB6501D028D02C
:108BD000070E0001BB610CD0BB51010D800EF324C8
:108BE000B26F010EF420B36F010E75EC57F00CD08C
:108BF0000001BB51010D800EF324B26F010EF42071
:108C0000B36F000E75EC57F00001BA6F00D0000191
:108C1000BA5103E17DEC63F012000001BB2BD3D706
:108C20007DEC63F00001B905D8B4120001D0120048
:108C3000010184AB85B705D085A585B102D027D0C9
:108C400000D00001ED510AE0BDEC5FF06A0E0001BA
:108C5000876F180E886FEFEC23F000D001010089B8
:108C600000D00001ED51D8B41200BDEC5FF02E0E23
:108C70000001876F1E0E886F660E896F1A0E8A6F4D
:108C80008911D8A4000E8B6FEFEC23F012000101C4
:108C900084AF84B903D084A7120000D00001ED5145
:108CA0000AE0BDEC5FF0830E0001876F180E886F3D
:108CB000EFEC23F000D00101008B00D00001ED515A
:108CC000D8B41200BDEC5FF02E0E0001876F1E0EAF
:108CD000886F7D0E896F1A0E8A6F8911D8A4000ED5
:108CE0008B6FEFEC23F012001200B7C0BDF0B8C0DC
:108CF000BEF0B9C0C1F0BAC0C2F0000120EE01F070
:108D0000B751D926B851DA22200EDE1818E0776B59
:108D1000766B796B786927EC60F000D0010E00016A
:108D2000ED650AD0BDEC5FF0A00E0001876F0E0E5E
:108D3000886FEFEC23F000D0FF00000E1200000E51
:108D40000001716F020E726F030EBD25BB6F000E26
:108D5000BE21BC6FBBC073F0BCC074F07351741102
:108D6000D8A4200E756F776B110E766F57EC5CF000
:108D7000110E0001716F020E726F140EBD25BB6FD4
:108D8000000EBE21BC6FBBC073F0BCC074F0735149
:108D90007411D8A4200E756F776B0F0E766F57EC99
:108DA0005CF00001E8810001E883C1C0D9FFC2C0C6
:108DB000DAFF900EDF6E0001C06B010EBF6F000185
:108DC00020EE01F0C151D926C251DA22BFC0DFFF27
:108DD000000120EE02F0C151D926C251DA22C05161
:108DE000DF6E000120EE03F0C151D926C251DA2214
:108DF000000EDF6E00D0010E0001ED65000CBDEC31
:108E00005FF0140E0001876F170E886F20EE03F0DD
:108E1000C151D926C251DA22DF50BB6FBB51896FD5
:108E20008A6BEFEC23F0000C000C1200D1C0D8F0DC
:108E3000D2C0D9F00001EC6BD8C0D9FFD9C0DAFF9D
:108E4000DE2808E0D8C0D9FFD9C0DAFF01013851C7
:108E5000DE1870E1D8C0D9FFD9C0DAFFDF506AE070
:108E6000D8C0D9FFD9C0DAFFDE280AE0D8C0D9FFC0
:108E7000D9C0DAFF01013851DE1802E1010E366F68
:108E8000010E206E000120EE01F0D851D926D951F3
:108E9000DA22DF5042EC51F00001D66F2FD0D8C05B
:108EA000CAF0D9C0CBF0D3C0CCF09BEC5AF023D0A1
:108EB000D8C077F0D9C078F0D3C079F0B9EC62F0BF
:108EC0001AD0D8C077F0D9C078F0D3C079F05DEC73
:108ED00063F011D0D8C0C4F0D9C0C5F0D3C0C6F07B
:108EE000B0EC3BF008D0D8C0C4F0D9C0C5F0D3C0B6
:108EF000C6F09AEC3DF00001D76F0CD00001D651BE
:108F0000F2E0010AE7E0420ADCE0C00AD1E02C0A04
:108F1000C6E000D0240E0001D719D8A41200BDEC81
:108F20005FF0C80E0001876F0E0E886FEFEC23F024
:108F3000120000D0010E0001ED65010CBDEC5FF0E8
:108F4000430E0001876F1C0E886FEFEC23F01200B8
:108F50001200B7C0BBF0B8C0BCF0B9C0BFF0BAC017
:108F6000C0F0BFC0D9FFC0C0DAFF310EDF6E000114
:108F7000BE6B010EBD6F000120EE01F0BF51D9267E
:108F8000C051DA22BDC0DFFF000120EE02F0BF5168
:108F9000D926C051DA22BE51DF6E0001B751B81197
:108FA00040E020EE01F0B751D926B851DA22DF5067
:108FB0000AE0B9C0B2F0BAC0B3F0240EB46FD6EC78
:108FC0005AF0000E120072EC61F00001C16F00D087
:108FD000010E0001ED650DD0BDEC5FF0010E00014A
:108FE000876F1B0E886FC1C089F08A6BEFEC23F08E
:108FF00000D00001C1510AE0B9C0B2F0BAC0B3F06C
:10900000C1C0B4F0D6EC5AF0000E1200000120EE00
:1090100003F0BF51D926C051DA22000EDF6E330EA5
:109020001200000120EE03F0BF51D926C051DA2210
:10903000DF50C16F00D0010E0001ED650DD0BDEC19
:109040005FF0CE0E0001876F170E886FC1C089F0E8
:109050008A6BEFEC23F000D00001C15109E0B9C0E8
:10906000B2F0BAC0B3F0C1C0B4F0D6EC5AF000D040
:10907000000E12001200010E00017A6F010E0001B5
:10908000756504D0796B020E786F04D075C078F0E6
:109090000001796B78C07EF00001806B2CD000015C
:1090A0008051010DF3507125D96EF4507221DA6EA2
:1090B000DF507B6F8051010DF3507325D96EF45052
:1090C0007421DA6EDF507F6F00017B517F157C6F5A
:1090D00000018051010D3A0EF324D96E010EF420E7
:1090E000DA6EDF507F157D6F7C1902E0000E1200F2
:1090F0000001802B00D000017E51805DD0E3020E84
:1091000000017E6102D07A51120000017551FE0FFC
:109110007E6F0001806B38D000018051766F776BD5
:10912000020E7627000E772376517125D96E77517E
:109130007221DA6EDF507B6F8051766F776B020E93
:109140007627000E772376517325D96E77517421D7
:10915000DA6EDF507F6F00017B517F157C6F00015D
:109160008051010D000EF324D96E020EF420DA6E48
:10917000DF507F157D6F00017C517D1902E0000EEC
:1091800012000001802B00D000017E51805DC4E3FD
:1091900000017A5112001200B7C0BBF0B8C0BCF099
:1091A000B9C0BFF0BAC0C0F0BFC0D9FFC0C0DAFFBD
:1091B000320EDF6E0001BE6B010EBD6F000120EEAE
:1091C00001F0BF51D926C051DA22BDC0DFFF000136
:1091D00020EE02F0BF51D926C051DA22BE51DF6E17
:1091E0000001B751B8113FE0030EBB257D6F000EA3
:1091F000BC217E6F20EE01F0BB51D926BC51DA2292
:10920000DF507F6F98EC5FF00001C16F00D0010E5E
:109210000001ED650DD0BDEC5FF0010E0001876F20
:10922000150E886FC1C089F08A6BEFEC23F000D077
:10923000000E0001C16F0001C1510AE0B9C0B2F0D7
:10924000BAC0B3F0C1C0B4F0D6EC5AF0000E1200B0
:10925000000120EE03F0BF51D926C051DA22000EE2
:10926000DF6E330E1200000120EE03F0BF51D9264D
:10927000C051DA22DF50C16F00D0010E0001ED6550
:109280000DD0BDEC5FF0310E0001876F130E886FBB
:10929000C1C089F08A6BEFEC23F000D00001C1510E
:1092A00009E0B9C0B2F0BAC0B3F0C1C0B4F0D6ECB6
:1092B0005AF000D0000E1200120008EE00F011EE7D
:1092C00000F0EE6AE550E150FCE1E250FAE107EE11
:1092D00000F011EE00F0EE6AE550E150FCE1E250E2
:1092E000FAE106EE00F011EE00F0EE6AE550E15012
:1092F000FCE1E250FAE105EE00F011EE00F0EE6A5A
:10930000E550E150FCE1E250FAE104EE00F0920E8B
:10931000EE6AE806FDE103EE00F0E00EEE6AE80614
:10932000FDE102EE00F010EEFFF0EE6AE550E150D4
:10933000FCE1E250FAE101EE00F0AA0EEE6AE80666
:10934000FDE10001EC6BEB6BEA6BE96BE86B00EEA7
:1093500001F02D0EEE6AE806FDE1140EF66EB90E70
:10936000F76E000EF86E04EE92F010EE64F0090055
:10937000F5CFEEFFE550E150FAE1680EF66EBD0E56
:10938000F76E000EF86E01EEAAF010EE4EF0090036
:10939000F5CFEEFFE550E150FAE1340EF66EC70E60
:1093A000F76E000EF86E0900F5CFEDF0300EF66E98
:1093B000C70EF76E000EF86E0900F5CF4DF00900EC
:1093C000F5CF4EF0000142EF30F00001736F61D035
:1093D000400E0001716F1B0E726F1200AA0E000189
:1093E000716F1A0E726F1200DC0E0001716F190E90
:1093F000726F1200EB0E0001716F1C0E726F120083
:10940000D30E0001716F1E0E726F1200770E0001F5
:10941000716F1D0E726F1200660E0001716F1D0ECE
:10942000726F1200720E0001716F130E726F1200D4
:10943000920E0001716F130E726F12002B0E00015D
:10944000716F1B0E726F12001D0E0001716F1C0EEA
:10945000726F1200AC0E0001716F190E726F120064
:10946000300E0001716F1C0E726F1200E70E0001CA
:10947000716F180E726F1200000E0001716F190EDD
:10948000726F120000D0D90E0001716F1C0E726F46
:10949000120000017351010A9BE0030A9FE0010AD8
:1094A000A3E0070AA7E0010AABE0030AAFE0010A64
:1094B000B3E00F0AB7E0010ABBE0280ABFE0030AE5
:1094C000C3E0010AC7E0070ACBE0010ACFE0030AC4
:1094D000D3E0D90AD8D71200000E00017F6F030E27
:1094E000806F020E7F257D6F000E80217E6F7DC014
:1094F00081F07EC082F07FC0D9FF80C0DAFF38C122
:10950000DFFF000120EE01F07F51D9268051DA22E1
:10951000BF0EDF6E81C0D9FF82C0DAFF810EDF6E21
:109520000001814B822B81C0D9FF82C0DAFFF00E8F
:10953000DF6E0001814B822B81C0D9FF82C0DAFF30
:10954000180EDF6E0001814B822B81C0D9FF82C0D3
:10955000DAFF010EDF6E0001814B822B81C0D9FF43
:1095600082C0DAFF130EDF6E0001814B822B81C0B7
:1095700071F082C072F03A0E0001736F010E746FC9
:109580007311D8A4200E756F776B130E766F57EC9E
:109590005CF0130E00018127000E822381C0D9FFE9
:1095A00082C0DAFF040EDF6E0001814B822B81C086
:1095B000D9FF82C0DAFF010EDF6E0001814B822BE2
:1095C00081C0D9FF82C0DAFF010EDF6E0001814B3E
:1095D000822B00017D5100088125020FEC6F1200E3
:1095E000120085C089F000018A6B8B6B8435893746
:1095F00001E38A81000189518C6F8C5105E1000ED5
:10960000836F846F856F120088C089F000018A6BB8
:109610008B6B8735893701E38A81000189518D6F12
:109620008D5105E1000E836F846F856F120000017C
:109630008D517B0F8C2785C08DF0000188518D1BCB
:10964000800E8D170001848F0001878F0001886BC9
:1096500000018E6B8F6B906B0001856B0001835155
:109660008603F4CFF3FFF46AF3CF8EF0F4CF8FF0DC
:10967000906B000183518703F3508E27F4508F23A2
:10968000000E9023000184518603F3508E27F4507E
:109690008F23000E9023000184518703F3508F27FE
:1096A000F4509023000190AF05D0D89090338F33C1
:1096B0008E338C2B0001D89090338F338E338EC035
:1096C00071F08FC072F090C073F08CC074F08DC0D8
:1096D00075F0A6EC54F071C083F072C084F073C0D2
:1096E00085F012001200B7C0BCF0B8C0BDF0B9C020
:1096F000C1F0BAC0C2F0C1C0D9FFC2C0DAFF040EC7
:10970000DF6E0001C06B010EBF6F000120EE01F0A3
:10971000C151D926C251DA22BFC0DFFF000120EEBD
:1097200002F0C151D926C251DA22C051DF6E0001C8
:1097300020EE01F0B751D926B851DA22DF500AE005
:10974000B9C0B2F0BAC0B3F0240EB46FD6EC5AF080
:10975000000E120078EC63F00001BE6F0001BE51F4
:109760000DE0C06B020EBF6F000120EE04F0C1518E
:10977000D926C251DA22BEC0DFFF00D0000120EEA0
:1097800001F0C151D926C251DA22BFC0DFFF00016A
:1097900020EE02F0C151D926C251DA22C051DF6E4B
:1097A000000120EE03F0C151D926C251DA22000E89
:1097B000DF6E00D0010E0001ED65000CBDEC5FF026
:1097C000940E0001876F1A0E886F20EE03F0C151CE
:1097D000D926C251DA22DF50BB6FBB51896F8A6B29
:1097E000EFEC23F0000C000C1200AEC0B0F0000152
:1097F000B16BB26BAD35B03701E3B1810001B0514F
:10980000BA6FBA5106E1000EAC6FAD6FAE6FAF6FBD
:109810001200170E0001B06FACC0B1F0ADC0B2F0D5
:10982000AEC0B3F0B029B46F05D00001D890B33307
:10983000B233B1330001B42FF8D7B151B56F000185
:10984000AD8F0001AE6B0001AC51B66FAD51B76F7B
:10985000AE51B86FB96B8E0E0001BA5F0001BAAF9E
:1098600015D0BA51800A8F0F07E2000EAC6FAD6FB2
:10987000AE6FAF6F120000D00001D890B933B8338B
:10988000B733B6330001BA3FF7D718D0170E00012F
:10989000BA650FD0000EAC6FAD6FAE6FAF6F120038
:1098A00008D00001D890B637B737B837B937BA07FC
:1098B00000D00001BA5102E0F4D700D00001B55148
:1098C00009E0B91FB81FB71FB66D000EB723B82344
:1098D000B92300D0B6C0ACF0B7C0ADF0B8C0AEF0A0
:1098E000B9C0AFF0120012000001DC6F0001DB6BA9
:1098F0002A50010D800EF324D96E060EF420DA6E84
:10990000DCC0DFFF2A2A7E0E0001DC1933E12504CA
:1099100002E1256A28D0010E266425D0B80E010187
:109920002C1921E1F00E2D19D8A41DD0800E0001B4
:10993000B26F060EB36F2AC0B4F0010E1FEC57F0E1
:109940002A6A000E0001D16F060ED26F26C0DAF02F
:10995000FE0EDA27DA51D36FD46B16EC47F0010E06
:109960000001DB6F00D0266A01012C692D6900011E
:10997000DB511200255005E0256A200E0001DC1B9A
:1099800009D07D0E0001DC1905E1010E256EDB51C9
:10999000120000D02650010D000EF324D96E060EE1
:1099A000F420DA6EDCC0DFFF2CC171F02DC172F043
:1099B000DCC073F009EC5EF071C02CF172C02DF1C7
:1099C000262A7F0E266405D0266A01012C1F2D1F32
:1099D00000D07F0E2A6402D0000E2A6E0001DB51F7
:1099E0001200120093C097F00001986B996B9235AA
:1099F000973701E39881000197519E6F9E5105E1D1
:109A0000000E916F926F936F120096C097F0000155
:109A1000986B996B9535973701E3988100019751C1
:109A20009F6F9F5105E1000E916F926F936F12002F
:109A300000019B6B9C6B9D6B00019F51890F9E5F8A
:109A400093C09FF0000196519F1B800E00019F174D
:109A50000001928F0001936B0001958F0001966BBE
:109A6000180E00019A6F00D00001D8909B379C37E8
:109A70009D3700019451915D95519259965193599A
:109A800008E39451915F9551925B9651935B00016D
:109A90009B810001D89091379237933700019A2F1C
:109AA000E3D700D09BC071F09CC072F09DC073F0F2
:109AB0009EC074F09FC075F0A6EC54F071C091F098
:109AC00072C092F073C093F012001200B7C0BCF0E5
:109AD000B8C0BDF0B9C0C1F0BAC0C2F0C1C0D9FFB2
:109AE000C2C0DAFF340EDF6E0001BF6B030EBE6F23
:109AF000000120EE01F0C151D926C251DA22BEC0C8
:109B0000DFFF000120EE02F0C151D926C251DA2256
:109B1000BF51DF6E000120EE01F0B751D926B851D8
:109B2000DA22DF500AE0B9C0B2F0BAC0B3F0240EB6
:109B3000B46FD6EC5AF0000E1200040E0001C125DD
:109B4000726F000EC221736F23EC62F00001C06FD0
:109B50000001C05109E0B9C0B2F0BAC0B3F0C0C052
:109B6000B4F0D6EC5AF00AD0000120EE03F0C15157
:109B7000D926C251DA22000EDF6E00D0010E00019C
:109B8000ED65000CBDEC5FF07E0E0001876F1B0ED3
:109B9000886F20EE03F0C151D926C251DA22DF507E
:109BA000BB6FBB51896F8A6BEFEC23F0000C000C8C
:109BB0001200B7C0BCF0B8C0BDF0B9C0C0F0BAC0A8
:109BC000C1F0C0C0D9FFC1C0DAFF420EDF6E000194
:109BD000BF6B010EBE6F000120EE01F0C051D9260F
:109BE000C151DA22BEC0DFFF000120EE02F0C051F9
:109BF000D926C151DA22BF51DF6E000120EE01F0FB
:109C0000B751D926B851DA22DF500AE0B9C0B2F014
:109C1000BAC0B3F0240EB46FD6EC5AF0000E1200A6
:109C20005A0E01012A190EE15A0E2B19D8A40AD096
:109C3000000120EE03F0C051D926C151DA22000EF6
:109C4000DF6E0AD0B9C0B2F0BAC0B3F0060E0001A0
:109C5000B46FD6EC5AF000D0020E0101E26F00D0D2
:109C6000010E0001ED65000CBDEC5FF0640E00011B
:109C7000876F190E886F20EE03F0C051D926C151AD
:109C8000DA22DF50BB6FBB51896F8A6BEFEC23F098
:109C9000000C000C120058D073C0F6FF74C0F7FF20
:109CA000000EF86E0800F5CF79F00001775154E00E
:109CB00001D052D0020E00017127000E722379519B
:109CC00077194AE101D048D000012FEEFFF0715121
:109CD000D9267251DA22DF50786F010E0001732508
:109CE000756F000E7421766F75C0F6FF76C0F7FFB2
:109CF000000EF86E0800F5CF79F0000178510EE102
:109D00007951756F766B751F761F754B762B785171
:109D10007525716F000E7621726F1200020E000120
:109D20007327000E7423785179190EE07951756FFD
:109D3000766B751F761F754B762B78517525716F75
:109D4000000E7621726F120071C0D9FF72C0DAFF67
:109D5000DF500001776FA0D700017951756F766BE6
:109D6000751F761F754B762B77517525716F000E19
:109D70007621726F12001200000E0001806F030E38
:109D8000816F80C0D9FF81C0DAFF38C1DFFF0001D9
:109D900020EE01F08051D9268151DA22100EDF6EBB
:109DA000010E00018025716F000E8121726F74C158
:109DB00073F0A4EC61F0010E00018025716F000EBC
:109DC0008121726F75C173F0A8EC62F0020E000180
:109DD0008025716F000E8121726F7DC073F07EC08F
:109DE00074F073517411D8A4200E756F20EE01F039
:109DF0007D51D9267E51DA22DF507F6F030E7F25F9
:109E0000766F776B000E772357EC5CF00101752BB2
:109E10007551070B756F000120EE01F07D51D926B9
:109E20007E51DA22DF50050FEC6FECC027F0000EF8
:109E30000001716F050E726F000E736F030E746F69
:109E40007311D8A4200E756FECC076F0776B57EFC6
:109E50005CF0120011C015F012C016F013C017F01C
:109E600014C018F000D00001ED510AE0BDEC5FF025
:109E70001C0E0001876F180E886FEFEC23F000D0E6
:109E8000156A166A176A186A22C111F023C112F006
:109E900024C113F025C114F015C0B2F016C0B3F000
:109EA00017C0B4F018C0B5F00001B21FB31FB41F43
:109EB000B51FB22B000EB323B423B5231150B22526
:109EC000096E1250B3210A6E1350B4210B6E145058
:109ED000B5210C6E00D00001ED51D8B41200BDECDC
:109EE0005FF0890E0001876F090E886FABC289F0A1
:109EF000ACC28AF011C08BF012C08CF013C08DF090
:109F000014C08EF015C08FF016C090F017C091F0FD
:109F100018C092F009C093F00AC094F00BC095F0FD
:109F20000CC096F0EFEC23F01200120011C015F0F7
:109F300012C016F013C017F014C018F000D00001C2
:109F4000ED510AE0BDEC5FF0C40E0001876F190E01
:109F5000886FEFEC23F000D0156A166A176A186A4A
:109F6000A5C211F0A6C212F0A7C213F0A8C214F045
:109F700015C0B2F016C0B3F017C0B4F018C0B5F0F9
:109F80000001B21FB31FB41FB51FB22B000EB323C5
:109F9000B423B5231150B225096E1250B3210A6EB5
:109FA0001350B4210B6E1450B5210C6E00D000017B
:109FB000ED51D8B41200BDEC5FF0C90E0001876FFF
:109FC000090E886FA1C289F0A2C28AF011C08BF07D
:109FD00012C08CF013C08DF014C08EF015C08FF03D
:109FE00016C090F017C091F018C092F009C093F01D
:109FF0000AC094F00BC095F00CC096F0EFEC23F083
:10A0000012001200BDEC5FF0AA0E0001876F140E63
:10A01000886FEFEC23F000D006EC63F0010E000136
:10A02000ED650AD0BDEC5FF0520E0001876F130E94
:10A03000886FEFEC23F000D0F0EC62F0010E00012D
:10A04000ED650AD0BDEC5FF0680E0001876F0F0E62
:10A05000886FEFEC23F000D0FBEC62F0010E000102
:10A06000ED650AD0BDEC5FF0990E0001876F100E10
:10A07000886FEFEC23F000D0ECEC60F0010E0001F3
:10A08000ED650AD0BDEC5FF0B50E0001876F0F0ED5
:10A09000886FEFEC23F000D0CCEC60F0010E0001F3
:10A0A000ED650AD0BDEC5FF08F0E0001876F0F0EDB
:10A0B000886FEFEC23F000D0010ED2EC45F0010EDA
:10A0C0000001ED65010CBDEC5FF0780E0001876FBB
:10A0D0000E0E886FEFEC23F01200120000017C6B73
:10A0E0007D6B060E0001786FD890000174337333D6
:10A0F00072337133782FF8D70001060ED89071377C
:10A10000723773377437E82EF9D771C07EF072C09A
:10A110007FF073C080F074C081F046D07EC079F0CB
:10A120007FC07AF080C07BF0400E00017C6F16D0BB
:10A1300076C0D9FF77C0DAFFDF5079C0F6FF7AC06A
:10A14000F7FF7BC0F8FFF56E0C000001764B772B14
:10A150000001792B000E7A237B2300D000017C07BD
:10A160007C29E6E17EC079F07FC07AF080C07BF088
:10A17000A684F2AE04D0F29E010E00017D6F550E52
:10A18000A76EAA0EA76EA682A69400017D5104E0D8
:10A19000F28E00017D6B00D0400E00017E27000E84
:10A1A0007F238023812300D0000175077529B6E144
:10A1B0001200B2C071F0B3C072F0B4C073F0B5C099
:10A1C00074F0010E0001756FB6C076F0B7C077F07D
:10A1D0006EEC50F0400E01011E27000E1F232023BD
:10A1E0002123000E0001716F090E726F746B736B87
:10A1F000766B400E756F8BEC61F0B2C071F0B3C03E
:10A2000072F0B4C073F0B5C074F00001766B400E0C
:10A21000756F000E776F090E786F4FEC5DF0000ED2
:10A220000001716F090E726F73EC5FF000017151E4
:10A2300001012A270001725101012B2300D00001E6
:10A24000ED51D8B41200BDEC5FF0000E0001876F35
:10A250000D0E886F1AC189F01BC18AF01CC18BF0EA
:10A260001DC18CF01EC18DF01FC18EF020C18FF07A
:10A2700021C190F02AC191F02BC192F0EFEC23F0B4
:10A28000120012000001B46F0001B4B102D0000E40
:10A2900012000001B4A314D020D012D0010E12007D
:10A2A000050E120000D0BDEC5FF0FE0E0001876FBE
:10A2B0001D0E886FEFEC23F000D0FF0E12000DD0C2
:10A2C0000001B4510F0BB26FB36BB351ECE1B2515B
:10A2D000010AE4E0040AE4E0E6D70001B4B316D0D2
:10A2E0002CD014D0AF0E1200830E1200430E1200B9
:10A2F00000D0BDEC5FF0FE0E0001876F1D0E886F71
:10A30000EFEC23F000D0FF0E120017D00001B45183
:10A31000EF0BB26FB36BB351ECE1B2510F0AE9E04E
:10A320004C0AE4E0200AE5E0E00ADEE0040AE1E0AD
:10A33000280AD8E0400ADDD700D0BDEC5FF0FE0E61
:10A340000001876F1D0E886FEFEC23F0FF0CFF0CF0
:10A350001200EACF66F0E1CF67F0E2CF68F0D9CF24
:10A3600069F0DACF6AF0F3CF6BF0F4CF6CF0F6CF90
:10A370006DF0F7CF6EF0F8CF6FF0F5CF70F0F2B070
:10A38000F2909EA008D09E909D80FC0ECF6E320E63
:10A39000CE6E8C7600D09EA220D09E9283EC62F08E
:10A3A00020040CE10101322B32050001626F1E0E08
:10A3B000626504D0206A0101326B00D001013105D1
:10A3C0000CE1372B37050001626F090E626505D07D
:10A3D0000101376BAFEC5DF000D011EC5BF05FEC8E
:10A3E0005EF070C0F5FF6FC0F8FF6EC0F7FF6DC084
:10A3F000F6FF6CC0F4FF6BC0F3FF6AC0DAFF69C000
:10A40000D9FF68C0E2FF67C0E1FF66C0EAFF65C030
:10A41000E9FF64C0FBFF63C0FAFF11000001ED51CA
:10A420000AE0BDEC5FF02F0E0001876F170E886FFA
:10A43000EFEC23F000D0000E0201AF6F0001EA87BD
:10A44000000E0101356F0101009500D00001ED51B2
:10A4500012E0BDEC5FF01E0E0001876F1E0E886FCC
:10A46000990E896F1E0E8A6F8911D8A4000E8B6F0A
:10A47000EFEC23F000D00101009B00D00001ED5172
:10A4800012E0BDEC5FF01E0E0001876F1E0E886F9C
:10A490007D0E896F1A0E8A6F8911D8A4000E8B6FFA
:10A4A000EFEC23F000D00101009900D00001ED5144
:10A4B00012E0BDEC5FF01E0E0001876F1E0E886F6C
:10A4C000660E896F1A0E8A6F8911D8A4000E8B6FE1
:10A4D000EFEC23F000D0010E0E6E000E106E000C9B
:10A4E0001200B7C0BCF0B8C0BDF0B9C0C0F0BAC06F
:10A4F000C1F0C0C0D9FFC1C0DAFF400EDF6E00015D
:10A50000BF6B010EBE6F000120EE01F0C051D926D5
:10A51000C151DA22BEC0DFFF000120EE02F0C051BF
:10A52000D926C151DA22BF51DF6E000120EE01F0C1
:10A53000B751D926B851DA22DF500AE0B9C0B2F0DB
:10A54000BAC0B3F0240EB46FD6EC5AF0000E12006D
:10A55000000120EE03F0C051D926C151DA22000ECD
:10A56000DF6E010E0101E26F00D0010E0001ED650A
:10A57000000CBDEC5FF0E80E0001876F170E886FCE
:10A5800020EE03F0C051D926C151DA22DF50BB6F53
:10A59000BB51896F8A6BEFEC23F0000C000C1200AA
:10A5A0000001BC6BBB6BBA6B10D0B2C0D9FFB3C09B
:10A5B000DAFFDF500001BC6F0001B24BB32B00018A
:10A5C000BC51BB270001BA2B00D00001B451BA5DC9
:10A5D000ECE30001BB1F00D0010E0001ED6532D09D
:10A5E000BDEC5FF0B5C0D9FFB6C0DAFF0001BB51CA
:10A5F000DE1804E06F0EB86F1F0E04D0710E00015C
:10A60000B86F1F0E0001B96F00D0260E0001876FD2
:10A610000E0E886FBBC089F08A6BB5C0D9FFB6C07B
:10A62000DAFFDF50B76FB7518B6F8C6BB8C08DF00E
:10A63000B9C08EF08D518E11D8A4000E8F6FEFEC43
:10A6400023F000D0B5C0D9FFB6C0DAFF0001BB517E
:10A65000DE1802E1000E1200060E120012000001C8
:10A6600020EE04F07651D9267751DA2210EE02F06E
:10A670007651E1267751E222E6CF7BF0E5CF7CF000
:10A6800076C0E1FF77C0E2FFE6CF7DF0E5CF7EF058
:10A690007D1F7E1F7D4B7E2B7B517D277C517E2332
:10A6A000DE507D1903E1DE507E1936E0000120EE18
:10A6B00002F07651D9267751DA22DECF71F0DDCF64
:10A6C00072F020EE04F07651D9267751DA22DECFEF
:10A6D00073F0DDCF74F08AEC5EF0000120EE06F03E
:10A6E0007651D9267751DA22DECF79F0DDCF7AF0B4
:10A6F00071517925D96E72517A21DA6E78C0DFFFF7
:10A70000000120EE02F07651D9267751DA22DE2AB6
:10A71000000EDD22010E1200000C1200B7C0BCF0CA
:10A72000B8C0BDF0B9C0C0F0BAC0C1F0C0C0D9FF58
:10A73000C1C0DAFF060EDF6E0001BF6B010EBE6FF7
:10A74000000120EE01F0C051D926C151DA22BEC06D
:10A75000DFFF000120EE02F0C051D926C151DA22FC
:10A76000BF51DF6E000120EE01F0B751D926B8517C
:10A77000DA22DF500AE0B9C0B2F0BAC0B3F0240E5A
:10A78000B46FD6EC5AF0000E1200000120EE03F078
:10A79000C051D926C151DA22000EDF6A99EC63F06C
:10A7A00000D0010E0001ED65000CBDEC5FF0940ED1
:10A7B0000001876F190E886F20EE03F0C051D92673
:10A7C000C151DA22DF50BB6FBB51896F8A6BEFEC4E
:10A7D00023F0000C000C12000001BA69BB697E0E68
:10A7E00037EC62F02B50010D800EF324D96E050E6C
:10A7F000F420DA6E7E0EDF6E2B2A1DD0B7C0D9FF93
:10A80000B8C0DAFFDF500001BC6F0001B74BB82BB6
:10A81000BAC071F0BBC072F0BCC073F009EC5EF05E
:10A8200071C0BAF072C0BBF00001BC51DEEC5DF04B
:10A830000001B90700D00001B951E0E10001BA1FE1
:10A84000BB1FBAC0BCF00001BC51DEEC5DF00001E2
:10A85000BB51BC6F0001BC51DEEC5DF07E0E37ECED
:10A8600062F02B50010D800EF324D96E050EF420FA
:10A87000DA6E7E0EDF6E2B2A800E0001B26F050E9F
:10A88000B36F2BC0B4F0000E1FEC57F0000E2B6A14
:10A890001200B7C0BCF0B8C0BDF0B9C0C0F0BAC0BB
:10A8A000C1F0C0C0D9FFC1C0DAFF120EDF6E0001D7
:10A8B000BF6B010EBE6F000120EE01F0C051D92622
:10A8C000C151DA22BEC0DFFF000120EE02F0C0510C
:10A8D000D926C151DA22BF51DF6E000120EE01F00E
:10A8E000B751D926B851DA22DF500AE0B9C0B2F028
:10A8F000BAC0B3F0240EB46FD6EC5AF0000E1200BA
:10A90000000120EE03F0C051D926C151DA22DF6ADE
:10A9100069EC63F000D0010E0001ED65000CBDECA8
:10A920005FF0390E0001876F150E886F20EE03F07F
:10A93000C051D926C151DA22DF50BB6FBB51896F9C
:10A940008A6BEFEC23F0000C000C12000001745134
:10A9500004E07151721173110EE1000E0001716F6C
:10A96000726F736F120007D00001742BD89073338D
:10A970007233713300D00001766B776BFE0E731566
:10A98000786F7651771178110EE0EED70CD0000178
:10A99000742B0001712B000E72237323D890733334
:10A9A0007233713300D00001766B776B7351786F1F
:10A9B00076517711781109E0EAD707D000017407C2
:10A9C000D89071377237733700D0000172BF04D04E
:10A9D000020E7461F3D700D0000174A1729F00D001
:10A9E0000001D8907433745173130001755102E063
:10A9F000738F00D071C071F072C072F073C073F0C9
:10AA000012001200010E0001816F75C07CF0000180
:10AA1000836B4CD000018351010DF3507125D96E29
:10AA2000F4507221DA6EDF507E6F8351010DF350C6
:10AA30007325D96EF4507421DA6EDF50826F0001F5
:10AA40007E5182157F6F120E0001756504D07B6BFD
:10AA5000130E7A6F04D075C07AF000017B6B7AC058
:10AA60007DF000017D51766F776B761F771F764BF7
:10AA7000772B8351786F796B7651782777517923CB
:10AA8000130E7827000E79233A0E7825D96E010E21
:10AA90007921DA6EDF508215806F00017F518019B5
:10AAA00002E0000E12000001832B00D000017C5157
:10AAB000835DB0E30001815112001200B7C0BCF009
:10AAC000B8C0BDF0B9C0C0F0BAC0C1F0C0C0D9FFB5
:10AAD000C1C0DAFF0A0EDF6E0001BF6B010EBE6F50
:10AAE000000120EE01F0C051D926C151DA22BEC0CA
:10AAF000DFFF000120EE02F0C051D926C151DA2259
:10AB0000BF51DF6E000120EE01F0B751D926B851D8
:10AB1000DA22DF500AE0B9C0B2F0BAC0B3F0240EB6
:10AB2000B46FD6EC5AF0000E1200000120EE03F0D4
:10AB3000C051D926C151DA22000EDF6E00D0010EBD
:10AB40000001ED65000CBDEC5FF0160E0001876F93
:10AB50001B0E886F20EE03F0C051D926C151DA22B6
:10AB6000DF50BB6FBB51896F8A6BEFEC23F0000C99
:10AB7000000C1200B7C0BCF0B8C0BDF0B9C0C0F046
:10AB8000BAC0C1F0C0C0D9FFC1C0DAFF030EDF6E8A
:10AB90000001BF6B010EBE6F000120EE01F0C0513D
:10ABA000D926C151DA22BEC0DFFF000120EE02F03B
:10ABB000C051D926C151DA22BF51DF6E000120EE0B
:10ABC00001F0B751D926B851DA22DF500AE0B9C0F6
:10ABD000B2F0BAC0B3F0240EB46FD6EC5AF0000E47
:10ABE0001200000120EE03F0C051D926C151DA2233
:10ABF000000EDF6E00D0010E0001ED65000CBDEC13
:10AC00005FF0550E0001876F1D0E886F20EE03F078
:10AC1000C051D926C151DA22DF50BB6FBB51896FB9
:10AC20008A6BEFEC23F0000C000C120020EE04F015
:10AC30004450D9264550DA2210EE02F04450E12665
:10AC40004550E222E6CF49F0E5CF4AF044C0E1FFAB
:10AC500045C0E2FFE6CF4BF0E5CF4CF04B1E4C1E5B
:10AC60004B4A4C2A49504B264A504C22DE504B1836
:10AC700004E1DE504C18D8B4120020EE02F044502B
:10AC8000D9264550DA22DECF3FF0DDCF40F020EE6E
:10AC900004F04450D9264550DA22DECF41F0DDCF12
:10ACA00042F0E1EC5FF020EE06F04450D92645502A
:10ACB000DA22DECF47F0DDCF48F03F504724D96E8F
:10ACC00040504820DA6E46C0DFFF20EE02F04450CC
:10ACD000D9264550DA22DE2A000EDD2212001200AB
:10ACE00011C015F012C016F013C017F014C018F000
:10ACF000156A166A176A186A200E116E6C0E126EAB
:10AD0000FB0E136E146815C0B2F016C0B3F017C076
:10AD1000B4F018C0B5F00001B21FB31FB41FB51FC7
:10AD2000B22B000EB323B423B5231150B225096E04
:10AD30001250B3210A6E1350B4210B6E1450B5217A
:10AD40000C6E00D00001ED51D8B41200BDEC5FF0E4
:10AD5000880E0001876F0A0E886F11C089F012C03B
:10AD60008AF013C08BF014C08CF015C08DF016C0A3
:10AD70008EF017C08FF018C090F009C091F00AC093
:10AD800092F00BC093F00CC094F0EFEC23F01200A3
:10AD9000120046D071C0D9FF72C0DAFFDF50000147
:10ADA000776F73C0F6FF74C0F7FF000EF86E0F0EDA
:10ADB000F76403D00800F55005D0F6CFE1FFF7CFD8
:10ADC000E2FFE7500001771925E073C0F6FF74C079
:10ADD000F7FF000EF86E0F0EF76403D00800F55071
:10ADE00005D0F6CFE1FFF7CFE2FFE7500001776F24
:10ADF000786B771F781F774B782B71C0D9FF72C0A3
:10AE0000DAFFDF50796F79517725716F000E782165
:10AE1000726F12000001714B722B734B742B00D0B8
:10AE200000017507D8A076077529B4E17629D8A462
:10AE3000B1D7000E0001726F716F000C120000019B
:10AE4000B66F0001B60512E1010E0001ED653BD0C1
:10AE5000BDEC5FF0370E0001876F1F0E886FB4C026
:10AE600089F08A6BEFEC23F02ED000D0010E0001A8
:10AE7000ED6529D0BDEC5FF0410E0001876F1F0E1C
:10AE8000886FB4C089F08A6BEFEC23F01CD000D03F
:10AE9000010E0001ED6514D08B0E876F1F0E886FB9
:10AEA000B2C0D9FFB3C0DAFFDF50B56FB551896FBB
:10AEB0008A6BEFEC23F00001B24BB32B040000D0FF
:10AEC0000001B40700D00001B45102E0E1D700D086
:10AED000010E0001ED65010C010E876F0B0E886FEE
:10AEE000EFEC23F00400120012000001B46F000127
:10AEF000B569B669B76BB86B6B8608D00400000102
:10AF0000B507000EB65BB75BB85B00D06DB008D07C
:10AF10000001B551B611B711B81102E0EFD700D05A
:10AF20000001B551B611B711B81124E1BDEC5FF0C5
:10AF3000800E0001876F170E886FEFEC23F000D0B2
:10AF40000101008100D00001ED5112E0BDEC5FF085
:10AF50002E0E0001876F1E0E886F4E0E896F1E0E1B
:10AF60008A6F8911D8A4000E8B6FEFEC23F000D00C
:10AF7000000E1200B2C0D9FFB3C0DAFF6FCFDFFFFF
:10AF800025EC63F00001B45103E063EC63F0010CC5
:10AF9000010C1200000120EE02F07651D926775103
:10AFA000DA22DECF7AF0DDCF7BF076C0D9FF77C032
:10AFB000DAFFDECF7CF0DDCF7DF07C1F7D1F7C4B88
:10AFC0007D2B7A517C277B517D237C517D1134E090
:10AFD00076C0D9FF77C0DAFFDECF71F0DDCF72F037
:10AFE00020EE04F07651D9267751DA22DECF73F0C5
:10AFF000DDCF74F08AEC5EF0000120EE06F07651B1
:10B00000D9267751DA22DECF7AF0DDCF7BF071518D
:10B010007A25D96E72517B21DA6E78C0E1FF79C052
:10B02000E2FFDFCFE7FF76C0D9FF77C0DAFFDE2A85
:10B03000000EDD22010E1200000C1200000E0001B5
:10B04000736F030E746F020E7325716F000E7421FF
:10B05000726F71C075F072C076F073C0D9FF74C0A2
:10B06000DAFF38C1DFFF000120EE01F07351D9266D
:10B070007451DA22BF0EDF6E75C0D9FF76C0DAFFD9
:10B08000810EDF6E0001754B762B75C0D9FF76C03F
:10B09000DAFFF00EDF6E0001754B762B75C0D9FF1D
:10B0A00076C0DAFF020EDF6E0001754B762B75C09D
:10B0B000D9FF76C0DAFF070EDF6E0001754B762BE5
:10B0C00075C0D9FF76C0DAFFDF6A0001754B762BB9
:10B0D0000001715100087525020FEC6F120012007B
:10B0E00020EE02F04450D9264550DA22DECF48F057
:10B0F000DDCF49F044C0D9FF45C0DAFFDECF4AF0CA
:10B10000DDCF4BF04A1E4B1E4A4A4B2A48504A2676
:10B1100049504B224A504B1033E044C0D9FF45C040
:10B12000DAFFDECF3FF0DDCF40F020EE04F04450F8
:10B13000D9264550DA22DECF41F0DDCF42F0E1ECF6
:10B140005FF020EE06F04450D9264550DA22DECFDB
:10B1500048F0DDCF49F03F504824D96E4050492097
:10B16000DA6E46C0E1FF47C0E2FFDFCFE7FF44C031
:10B17000D9FF45C0DAFFDE2A000EDD22010E1200E3
:10B18000000C1200948E949CAD9CAD9AAD98AD9637
:10B19000AD84AC8EAC9CAC88AC967E9A7E987E8654
:10B1A0007E927E907F6A560EB06E880E0001716F9F
:10B1B000010E726F000E736F070E746F766B800E48
:10B1C000756F4DEC5FF0980E0001716F010E726F9C
:10B1D000800E736F070E746F766B800E756F4DEC7B
:10B1E0005FF09D889D8A9F8A9F88000E0001786F7E
:10B1F000630E0001786502D0630C1200820E00011C
:10B20000776FDE0EE82EFED7772FFCD70001782B64
:10B21000630E7865F3D7630C12000001796B7A6BCB
:10B220007B6B7C6B0001755176117711781135E0DD
:10B23000010E7D6F08D00001D890753776377737CB
:10B2400078377D2B00D0000178BF02D0F4D700D032
:10B250000001D89079377A377B377C3700017551F8
:10B26000715D7651725977517359785174590BE366
:10B270007551715F7651725B7751735B7851745B76
:10B280000001798100D00001D8907833773376338C
:10B29000753300017D2FDCD700D079C071F07AC002
:10B2A00072F07BC073F07CC074F012000001766B0A
:10B2B000000172AF08D0716D721FD8B0722B010EF1
:10B2C0000001766F00D0000174AF05D0736D741F5C
:10B2D000D8B0742B00D000017351741121E0010E1D
:10B2E000756F06D00001D89073377437752B00D076
:10B2F000000174BF02D0F6D700D000017351715D18
:10B300007451725905E37351715F7451725B00D0CF
:10B310000001D890743373330001752FEED700D03D
:10B320000001765105E0716D721FD8B0722B00D00C
:10B3300071C071F072C072F0120012000001DD6F76
:10B340000001DE6B35D086900CD00001DF5174EC2B
:10B350004CF00001DE6F0001DE050CE002D00AD0E7
:10B3600000D0DF0E00017E6F000E7F6FE4EC62F014
:10B37000E806EBE00001DE0521E1EC511FE024507E
:10B380001DE1010E12D01AD0205018E18680000E67
:10B390000001B76F030EB86FECC0B9F0ECEC53F0DE
:10B3A000280402E1010E246E000E0001DD6F06D0BC
:10B3B0000001DD51C8E0010AE7E000D00001DD51E5
:10B3C0001200120078EC63F00001756F00017551F6
:10B3D00035E172510201A15DA251800A0001746F32
:10B3E0007351800A74590DE30201A3510001725D8B
:10B3F0007351800A746F0201A451800A00017459CC
:10B4000002E2130E1200000172510201AD1908E1AF
:10B41000000173510201AE19D8A402D0000E12002F
:10B4200072C01CF073C01DF0010E0201AF6F00016D
:10B43000EA87030E0101D66F330E12000001755129
:10B4400012001200446A40AE07D03F6C401ED8B0D4
:10B45000402A010E446E00D042AE05D0416C421E1F
:10B46000D8B0422A00D0415042101CE0010E436E79
:10B4700005D0D89041364236432A00D042BE02D091
:10B48000F8D700D041503F5C4250405805E341504E
:10B490003F5E4250405A00D0D89042324132432E53
:10B4A000F1D700D0445005E03F6C401ED8B0402A90
:10B4B00000D03FC03FF040C040F012001200000139
:10B4C00082518311841185112DE0010E866F08D001
:10B4D0000001D8908237833784378537862B00D098
:10B4E000000185BF02D0F4D700D0000182517E5DFB
:10B4F00083517F59845180598551815909E3825183
:10B500007E5F83517F5B8451805B8551815B00D07E
:10B510000001D89085338433833382330001862F32
:10B52000E4D700D07EC07EF07FC07FF080C080F086
:10B5300081C081F01200020E0001CA25CF6F000EFB
:10B54000CB21D06FCFC0D9FFD0C0DAFF0001CF4BE5
:10B55000D02B810EDE1802E0240E1200CFC0D9FFDE
:10B56000D0C0DAFFDF500001CE6F0001CF4BD02BEF
:10B57000F00E0001CE190AE1CAC0B2F0CBC0B3F0A0
:10B58000CCC0B4F070EC2EF01200240C800E000140
:10B59000CE190AE1CAC07FF0CBC080F0CCC081F0E8
:10B5A00080EC39F01200240C240C12000001B66B60
:10B5B000020EB56F000120EE01F0B251D926B35151
:10B5C000DA22B5C0DFFF000120EE02F0B251D92629
:10B5D000B351DA22B651DF6E000120EE03F0B25112
:10B5E000D926B351DA220B0EDF6E000120EE04F0F3
:10B5F000B251D926B351DA22B4C0DFFF00D0010E18
:10B600000001ED65010CBDEC5FF07C0E0001876F61
:10B61000190E886FB4C089F08A6BEFEC23F012002A
:10B6200012009EB89DA813D0980E446E010E456E70
:10B63000610E466E000E476E70EC58F0E80603E1AE
:10B6400061C0AEFF04D0ADA202D0AD9A00D09EBAC8
:10B650009DAA1CD0AFCF60F0130E000160190CE161
:10B660004E2A4EC03FF0406A426A030E416E22EC01
:10B670005AF03F504E6E00D0880E446E010E456E5B
:10B6800060C046F016EC56F09E9A00D0ACA21200B4
:10B69000AC98AC88120012000001826B8E0E816F94
:10B6A00000017CAF14D07C1F7B1F7A1F796D000EC8
:10B6B0007A237B237C23010E0001826F08D00001D6
:10B6C000D8907C337B337A337933812B00D00001DF
:10B6D0007D6B7E6B7F6B7C51806F7D517E117F1106
:10B6E0008011EDE179C071F07AC072F07BC073F027
:10B6F00081C074F082C075F0A6EC54F071C079F08E
:10B7000072C07AF073C07BF0120012009884989295
:10B7100098908690A89CA89AA898A896A8849C8E91
:10B720009C9C9C889C967C9A7C987C867C927C9045
:10B73000040E7D6E110EAB6E900E0001716F010E46
:10B74000726FC00E736F030E746F766B100E756F91
:10B750004DEC5FF0A00E0001716F010E726FD00E04
:10B76000736F030E746F766B100E756F4DEC5FF098
:10B77000A388A38AA58AA5881200C26A0F0EC16E8B
:10B780008A6A936A8168000E926E8F6E986EFE0EC2
:10B79000866EF290F292F294F296F298F29AF29CFD
:10B7A000850EF16ECD9ACD98CD86CD84CD92CD808B
:10B7B000FC0ECF6E100ECE6E9E909D80CA90CA92E7
:10B7C000CA84CA86CA88CA9ACA9CFA0ECB6E9E924E
:10B7D0009D82C2EC58F086EC5BF0D08EF28EF28C3B
:10B7E00012000001756F000E0001766F130E00014C
:10B7F000766501D022D000017651050D920EF3241A
:10B80000D96E040EF420DA6E7551DE1813E176510C
:10B81000050D020EF326000EF422920EF324D96ECB
:10B82000040EF420DA6EDECF71F0DECF72F0DDCFE1
:10B8300073F012000001762BD9D7000E0001716F52
:10B84000726F736F000C12000001716F000171A123
:10B8500003D0110E120005D0000171A302D00F0E0B
:10B860001200000171A703D0010E1200000C0001AC
:10B8700071A903D0020E1200000C000171AB03D0BD
:10B88000030E1200000C000171AD03D0140E120063
:10B89000000C000171AF03D0270E1200000C000154
:10B8A00071A5000C0E0E1200000C000C120073C0EB
:10B8B00078F074C079F075C07AF071C07BF072C016
:10B8C0007CF01ED078C0F6FF79C0F7FF7AC0F8FF91
:10B8D0007BC0D9FF7CC0DAFFF8BA03D00800F5506E
:10B8E00005D0F6CFE1FFF7CFE2FFE750DF6E0001B2
:10B8F000782B000E79237A2300017B4B7C2B00D020
:10B9000000017607D8A077077629DCE17729D8A44B
:10B91000D9D71200030074AB000400E696000500BE
:10B92000047D0006001CA7001000F6C30011001ED5
:10B93000C400120092A8000A00BCAA009000EA8C81
:10B94000004000E2A4004100568A004200B29B0081
:10B950003100528F00320098910033007E80003415
:10B9600000CC9A0007009E87000E001464000F00B0
:10B97000AA5300FF00000000000E00017A6F030EC2
:10B980007B6F020E7A25786F000E7B21796F78C06D
:10B9900076F079C077F07AC0D9FF7BC0DAFF38C182
:10B9A000DFFF000120EE01F07A51D9267B51DA2227
:10B9B000110EDF6E010E00017A25716F000E7B21E2
:10B9C000726F74C173F0A4EC61F00001785100084B
:10B9D0007625020FEC6F120012000101055102E101
:10B9E000000E120001010051011902E1000E1200C7
:10B9F0000101015100190001B26F01010151000163
:10BA0000B2150101026F00510001B2150101036F6F
:10BA1000010E0001ED65010CBDEC5FF0320E00017E
:10BA2000876F140E886F02C189F08A6B03C18BF097
:10BA30008C6BEFEC23F0010C010C1200000E0001E6
:10BA40007A6F030E7B6F020E7A25786F000E7B21D2
:10BA5000796F78C076F079C077F07AC0D9FF7BC073
:10BA6000DAFF38C1DFFF000120EE01F07A51D9265C
:10BA70007B51DA22150EDF6E010E00017A25716FFF
:10BA8000000E7B21726F74C173F0A4EC61F00001B1
:10BA9000785100087625020FEC6F1200120071C079
:10BAA00079F072C07AF073C07BF074C07CF0F8CF8C
:10BAB0007FF0F7CF7EF0F6CF7DF07BC0F8FF7AC045
:10BAC000F7FF79C0F6FF0BD0090077C0D9FF78C027
:10BAD000DAFFF5CFDFFF0001774B782B00D00001B4
:10BAE0007507D8A076077529EFE17629D8A4ECD799
:10BAF0007FC0F8FF7EC0F7FF7DC0F6FF1200010196
:10BB0000162B000E1723182319231951181117117A
:10BB100004E10A0E165DD8A012000101166B176B26
:10BB2000186B196B0101284B292BE80E285D030EB9
:10BB30002959D8A01200296B286B232A3B0E2364B5
:10BB40003B0C236A222A3B0E22643B0C226A212AE8
:10BB50000C0E21640C0C010E216E12001200000E5E
:10BB6000426E040E426402D0040C120042500C0DCE
:10BB7000090EF326000EF422AA0EF324D96E010E4C
:10BB8000F420DA6EDE50DE10DE1012E042500C0DB2
:10BB9000040EF326000EF422AA0EF324D96E010E31
:10BBA000F420DA6EDE2A000EDE22DE22DE2200D053
:10BBB000422A040E4264DAD7040C12000001806F9E
:10BBC0007D0E0001801903E07E0E801912E17D0ECA
:10BBD00037EC62F02B50010D800EF324D96E050E68
:10BBE000F420DA6E7D0EDF6E2B2A200E0001801B02
:10BBF00000D00001805137EC62F02B50010D800E17
:10BC0000F324D96E050EF420DA6E80C0DFFF2B2AF4
:10BC1000120000017351711B080E0001766F0001C4
:10BC200076511DE001D01BD0000171A10CD0D8903D
:10BC30007231756F7131746F080E7419716F840EE3
:10BC40007519726F09D0D89000017231746F71311B
:10BC5000716F74C072F000D000017607E0D771C038
:10BC600071F072C072F01200BDEC5FF0C70E0001FF
:10BC7000876F1C0E886FEFEC23F000D08BEC60F028
:10BC8000958A958C6D8E280E6C6E630E6E6E000E0E
:10BC90000001B36F630E0001B36502D0630C1200A4
:10BCA000820E0001B26FDE0EE82EFED7B22FFCD757
:10BCB0000001B32B630EB365F3D7630C1200A4B875
:10BCC000A3A813D0A00E446E010E456E610E466E01
:10BCD000000E476E70EC58F0E80603E161C0A9FF62
:10BCE00004D0A8A202D0A89A00D0A4BAA3AA0CD0CB
:10BCF000AACF60F0900E446E010E456E60C046F013
:10BD000016EC56F0A49A00D09CA212009C989C8835
:10BD10001200120000017351741121E0010E756FC1
:10BD200006D00001D89073377437752B00D000010E
:10BD300074BF02D0F6D700D000017351715D745109
:10BD4000725905E37351715F7451725B00D0000149
:10BD5000D890743373330001752FEED700D071C0C3
:10BD600071F072C072F01200E803000000000000E1
:10BD700000F881000000000000000000003CB3005B
:10BD8000640000000000000001D44000E80300004F
:10BD90000000000000D24E00000000000000000083
:10BDA00000586E005B56414C5D005B4241445D00B3
:10BDB000434341434600000174AF1AD071C075F08F
:10BDC00072C076F073C077F074C078F0751F761F7C
:10BDD000771F781F752B000E76237723782375C085
:10BDE00071F076C072F077C073F078C074F0120012
:10BDF00071C071F072C072F073C073F074C074F0EF
:10BE00001200000E0001756F030E766F020E75258D
:10BE1000736F000E7621746F73C071F074C072F08E
:10BE200075C0D9FF76C0DAFF38C1DFFF000120EE10
:10BE300001F07551D9267651DA22730EDF6E0001BA
:10BE4000735100087125020FEC6F12001200000EF2
:10BE50000001756F030E766F020E7525736F000E6D
:10BE60007621746F73C071F074C072F075C0D9FF21
:10BE700076C0DAFF38C1DFFF000120EE01F0755116
:10BE8000D9267651DA22730EDF6E00017351000855
:10BE90007125020FEC6F12001200000120EE06F077
:10BEA0007151D9267251DA2273C0DEFF74C0DDFFF2
:10BEB00071C0D9FF72C0DAFFDE6ADD6A000120EED0
:10BEC00002F07151D9267251DA22DE6ADD6A000170
:10BED00020EE04F07151D9267251DA2275C0DEFFCE
:10BEE00076C0DDFF120071C073F072C074F0000103
:10BEF000766B756B0001776B12D015D073C0D9FFCC
:10BF000074C0DAFFDE5000017527DD507623020E83
:10BF100000017327000E7423020E000177273F0EE5
:10BF200000017765EBD775C071F076C072F0120032
:10BF30004A0E0001716F040E726F7DC073F07EC0F7
:10BF400074F073517411D8A4200E756F7FC076F011
:10BF5000776B57EC5CF07FC033F100017F51010D2E
:10BF60004A0EF324D96E040EF420DA6E000EDF6E52
:10BF7000020E0101CA6F000C12000400F30E000152
:10BF8000876F190E886F95EC63F00001AF6FAF51AA
:10BF9000896F8A6B92EC63F00001B06FB0518B6FC8
:10BFA0008C6B8FEC63F00001B16FB1518D6F8E6BB4
:10BFB00087EC63F071C08FF072C090F0EFEC23F06B
:10BFC0001200415042101CE0010E436E05D0D89083
:10BFD00041364236432A00D042BE02D0F8D700D0C4
:10BFE00041503F5C4250405805E341503F5E425053
:10BFF000405A00D0D89042324132432EF1D700D07F
:10C000003FC03FF040C040F01200780E0001716F59
:10C01000010E726F000E736F080E746F010E766F53
:10C02000756B4DEC5FF001011A6B040E1B6F010E76
:10C030001C6F1D6B01012B6B2A6B01011E6B1F6BAB
:10C04000206B216B0101346B010E4D6E120076C026
:10C050007CF077C07DF000017E6B7B6B7A6B12D039
:10C0600000017E697CC073F07DC074F07EC075F005
:10C0700059EC61F0040000017C4B7D2B00017A4BF0
:10C080007B2B00D0000178517A5D79517B59E8E330
:10C09000120000017C6B00017AAF08D0796D7A1F25
:10C0A000D8B07A2B010E00017C6F00D079C071F0FE
:10C0B0007AC072F00001736B8E0E746F7CC075F0E5
:10C0C000A6EC54F071C079F072C07AF073C07BF0C6
:10C0D00012001200000179517D5D7A517E597B5129
:10C0E0007F598051800A816F7C51800A815909E211
:10C0F0007DC079F07EC07AF07FC07BF080C07CF09C
:10C10000120079C079F07AC07AF07BC07BF07CC0F5
:10C110007CF0120012006CCF72F06C6A958A959CCC
:10C120000001736B08D00BD0837C100EE82EFED775
:10C1300000D00001732B0F0E00017365F5D7958AAF
:10C14000958C72C06CFF820E0001716FDE0EE82EBE
:10C15000FED7712FFCD7120071C075F072C076F057
:10C1600004D00001754B762B00D075C0D9FF76C086
:10C17000DAFFDF50F6E171C073F072C074F00001B5
:10C18000731F741F734B742B75517325716F765128
:10C190007421726F1200120082EC63F0C00E1BEC6F
:10C1A00063F0960E1BEC63F0FF0E1BEC63F0FF0ECA
:10C1B0001BEC63F08F0E1BEC63F0010E1BEC63F0C5
:10C1C000720E1BEC63F0060E1BEC63F06E0E1BECA4
:10C1D00063F07DEF63F0120082EC63F0C00E1BECA5
:10C1E00063F0890E1BEC63F0FF0E1BEC63F0FF0E97
:10C1F0001BEC63F08F0E1BEC63F0010E1BEC63F085
:10C20000920E1BEC63F0000E1BEC63F0AE0E1BEC09
:10C2100063F07DEF63F0120000D0C8EC62F000091B
:10C22000FCE18996030E11EC63F00001745111ECEE
:10C2300063F00001735111EC63F0000E11EC63F038
:10C240000001756F8986000175511200120078ECAB
:10C2500063F00001726F010E0E6E72C010F00001EB
:10C260007251D8A412001CC0ADF21DC0AEF2000E77
:10C270000201AF6F0001EA850001EA871200120097
:10C2800082EC63F0C00E1BEC63F08B0E1BEC63F0D2
:10C29000FF0E1BEC63F0FF0E1BEC63F0000174510A
:10C2A0001BEC63F0000173511BEC63F07DEF63F056
:10C2B000120000D0C8EC62F00009FCE157EC63F01A
:10C2C0008996020E11EC63F00001745111EC63F0D9
:10C2D0000001735111EC63F00001755111EC63F032
:10C2E00089861200010100A302D00F0E1200010185
:10C2F00000A507D0A3C2ADF2A4C2AEF20001EA8548
:10C3000000D0010E0201AF6F0001EA87060E0101A5
:10C31000D66F000C120071C077F072C078F00AD0AE
:10C3200077C0D9FF78C0DAFF73C0DFFF0001774B19
:10C33000782B00D000017507D8A076077529F0E1A9
:10C340007629D8A4EDD7120073C074F0050E000151
:10C35000756F0001D8907437752FFBD771C0D9FF66
:10C3600072C0DAFFDF501F0B741171C0D9FF72C0A9
:10C37000DAFFDF6E12000001B26F010E0E6EB2C066
:10C3800010F000D0010E0001ED65010CBDEC5FF076
:10C39000A80E0001876F0C0E886FEFEC23F01200DF
:10C3A00012000001736F000E0001726F3A0E00015F
:10C3B000736106D02F0E736503D0010E726F00D02B
:10C3C00072C071F000017131120012000001715150
:10C3D0007303F3CF75F0F4CF76F071517403F3501B
:10C3E000762772517303F350762775C071F076C0CB
:10C3F00072F012001200010E0001ED65250CBDEC7B
:10C400005FF0B40E0001876F170E886F000E8A6F01
:10C41000250E896FEFEC23F0250C250C1200010E80
:10C420000001ED65250CBDEC5FF0F90E0001876F92
:10C43000160E886F000E8A6F250E896FEFEC23F0C1
:10C44000250C250C120078EC63F00001746F0001DC
:10C45000745109E172C0D9FF73C0DAFF1CC0DEFF5E
:10C460001DC0DDFF00D00001745112001200000158
:10C470007F6F00D0A00E0001766F010E776F7FC036
:10C4800078F02FEC53F00009F5E0A398A8AAA88A49
:10C49000A3881200BDEC5FF0690E0001876F1C0ECF
:10C4A000886FEFEC23F000D02A6A2B6A266A01011C
:10C4B0002C692D69000E256A1200BDEC5FF00A0E92
:10C4C0000001876F1C0E886FEFEC23F000D00F681F
:10C4D000000E0E6E000E0D6E000E106E000C12009F
:10C4E00000017F6F00D0980E0001766F010E776F0C
:10C4F0007FC078F02FEC53F00009F5E09D98ADAACD
:10C50000AD8A9D88120001010E2B000E0F2310230F
:10C510001123122B1323142315237FEC5DF001014B
:10C520000E2B000E0F23102311231200BDEC5FF021
:10C53000B50E0001876F1C0E886FEFEC23F000D062
:10C540009496949A200EC66E400EC76E9E96120068
:10C550000001D8907335746F71C0D9FF72C0DAFFD3
:10C56000DF50F10B741171C0D9FF72C0DAFFDF6EBA
:10C570001200020E0001791902E0320E1200020EC2
:10C580000101396F746B756B01EC5FF0000C1200E8
:10C590008996050E11EC63F0000E11EC63F00001BA
:10C5A000726F898600017251010B12001200BDECFE
:10C5B0005FF0EC0E0001876F1A0E886FEFEC23F02E
:10C5C00000D0929689861200900E0001766F010EBF
:10C5D000776F7EC078F07FC079F0CAEF57F0120015
:10C5E00082EC63F0C00E1BEC63F0870E1BEC63F073
:10C5F0007DEF63F0120082EC63F0C00E1BEC63F081
:10C60000860E1BEC63F07DEF63F0120082EC63F0AA
:10C61000C00E1BEC63F0850E1BEC63F07DEF63F046
:10C6200012000001716F71C0C9FF00D09EA6FED735
:10C630009E96C95012000001726F72C06FFF00D049
:10C640006DB0FED725EC63F0120000D06BCF71F017
:10C650001F0E00017117D8B46DB4F8D71200000E88
:10C660000101056F006F016F026F036F000C120074
:10C670000001716F0001D8907131070B1200120098
:10C680000001716F00017139E842070B12001200BE
:10C69000480ED36E400E9B6EA06A100EA16E120063
:10C6A0000001806F0001805170EC62F012008996E9
:10C6B000060E11EC63F0898612000101396B27EC3C
:10C6C0005FF0000C12006B9A6B8800D06BB8FED73D
:10C6D0001200010E0101056F010C1200010103514E
:10C6E00024EF5CF012000101025124EF5CF0120013
:10C6F0000101005124EF5CF012006B8400D06BB498
:10C70000FED712006B8000D06BB0FED7120028C19C
:10C7100071F029C172F0120000C101F11200235022
:10C7200012001200225012001200215012001200BA
:06C73000010112000100EE
:020000040001F9
:06FFF800A0F4C5F6F8FFBD
:00000001FF
