:0408400071EF04F060
:10084800FACF63F0FBCF64F0E9CF65F06FEF4FF0BC
:10085800D8CF2FF0E8CF30F0E0CF31F0FACF32F038
:10086800FBCF33F0E9CF34F0EACF35F0E1CF36F003
:10087800E2CF37F0D9CF38F0DACF39F0F3CF3AF00A
:10088800F4CF3BF0F6CF3CF0F7CF3DF0F8CF3EF099
:10089800F5CF3FF03FC0F5FF3EC0F8FF3DC0F7FF82
:1008A8003CC0F6FF3BC0F4FF3AC0F3FF39C0DAFFA3
:1008B80038C0D9FF37C0E2FF36C0E1FF35C0EAFFD4
:1008C80034C0E9FF33C0FBFF32C0FAFF31C0E0FF9C
:0E08D80030C0E8FF2FC0D8FF10003BEF4AF001
:1008F00020202020202044575F56312E302E3000FB
:10090000202020202048575F52313030305F410096
:1009400000010000000A00000064000000E803004D
:100950000010270000A086010040420F00809698FA
:100960000000E1F50500CA9A3B01000000100000FC
:100970000000010000001000000000010000001055
:100980000000000001000000104D4F544F523A206B
:100990004D6F766520746F20756E77696E642020C8
:1009A00020205B543D25332E3364204D3D25372ECA
:1009B000356C6420503D25372E356C6420443D2530
:1009C000372E356C645D0D0A004D4F544F523A205E
:1009D0004D6F766520746F206D61782074696C743A
:1009E00020205B543D25332E3364204D3D25372E8A
:1009F000356C6420503D25372E356C6420443D25F0
:100A0000372E356C645D0D0A004D4F544F523A201D
:100A10004D6F766520746F206C6173742074696CFF
:100A200074205B543D25332E3364204D3D25372EF5
:100A3000356C6420503D25372E356C6420443D25AF
:100A4000372E356C645D0D0A004D4F544F523A20DD
:100A50004D6F766520746F206E65772074696C74B5
:100A6000205B543D25332E3364204D3D25372E35F4
:100A70006C6420503D25372E356C6420443D25376D
:100A80002E356C645D0D0A004D4F544F523A204D87
:100A90006F766520746F20656E642073746F7020AC
:100AA000205B543D454E44204D3D25372E356C642A
:100AB00020503D25372E356C6420443D25372E359A
:100AC0006C645D0D0A002323232323232323232384
:100AD00023232323232323232323232323232323E6
:100AE00023232323232323232323232323232323D6
:100AF00023232323232323232323232323232323C6
:100B0000230D0A0076616C6964206669726D7761F5
:100B10007265206865616465723A204E616D653A60
:100B20002025732C204C656E3A20256C642C2063A4
:100B30006865636B73756D3A20307825780D0A000F
:100B40005052494D415259204E5328256429203C8A
:100B50003D3E205345434F4E44415259204E52286A
:100B600025642920202020203E204D49534D41540A
:100B700043482025735D0D0A005052494D4152599A
:100B8000204E5228256429203C3D3E205345434FAA
:100B90004E44415259204E532825642920202020BC
:100BA000203E204D49534D415443482025730D0AA2
:100BB00000504152414D3A204672657175656E6331
:100BC000792042616E645B335D20202020202573F4
:100BD000203078252E3478203078252E3478203037
:100BE00078252E34780D0A00504152414D3A206349
:100BF0006865636B73756D2063616C3A203078258E
:100C0000312E31582C206578703A20307825312EDD
:100C100031582025730D0A00656570726F6D20775D
:100C2000726974652063686B3A20616464723A206B
:100C30003078252E32582C20646174613A20307847
:100C4000252E32580D0A00656570726F6D2077721F
:100C50006974652076616C3A20616464723A203070
:100C600078252E32582C20646174613A2030782522
:100C70002E32580D0A00504152414D3A20476169C9
:100C80006E5B345D2020202020202020202020208A
:100C9000202020257320256420256420256420251C
:100CA000640D0A00504152414D3A204265616D7712
:100CB000696474685B345D2020202020202020207F
:100CC0002025732025642025642025642025640DBB
:100CD0000A005461736B5F506172616D6574657277
:100CE000732020202853454E4420434F4E46494709
:100CF000204441544120444F4E45290D0A005041A3
:100D000052414D3A204C617374204469726563749A
:100D1000696F6E2020202020202020257320444F42
:100D2000574E57415244530D0A006164643A2030D3
:100D30007825382E386C782C206C656E3A20252E5C
:100D4000356C642C2063686B3A20307825342E345F
:100D5000780D0A005B524554204D495353455320AA
:100D600041204652414D452053454E542046524F56
:100D70004D20434F4E54524F4C4C45525D005B4307
:100D80004F4E54524F4C4C4552204D4953534553AE
:100D90002041204652414D452053454E5420465255
:100DA0004F4D205245545D00504152414D3A204C28
:100DB00061737420446972656374696F6E202020CA
:100DC0002020202020257320555057415244530D98
:100DD0000A004D4F544F523A2063757272656E741B
:100DE0005F706F736974696F6E20256C642C20537B
:100DF0005445502055502025640D0A004D4F544F46
:100E0000523A2063757272656E745F706F736974A5
:100E1000696F6E20256C642C205354455020445734
:100E20002025640D0A0044454255473A20414D496A
:100E3000535F33303632345F4765745F48575F53D2
:100E400074617475732866616C7365290D0A0044BA
:100E5000454255473A20414D49535F33303632348D
:100E60005F4765745F48575F537461747573287486
:100E7000727565290D0A00436C656172696E6720A1
:100E8000656570726F6D20636F6E74656E7420613E
:100E90006E6420726573657474696E670D0A00680C
:100EA000646C635F70726F636573735F7869645FAE
:100EB0007265717565737420666F726D61742065FB
:100EC00072726F720D0A004D4F544F523A204D4FBF
:100ED00056494E4720205B25362E35642C20616311
:100EE0007475616C3A25372E356C645D0D0A004DC2
:100EF0004F544F523A205354414C4C4544205B25AB
:100F0000362E35642C2061637475616C3A25372E5A
:100F1000356C645D0D0A004D4F544F523A205354C6
:100F20004F50504544205B25362E35642C2061639C
:100F30007475616C3A25372E356C645D0D0A00447A
:100F4000454255473A20414D49535F33303632349C
:100F50005F52657365745F546F5F44656661756C5D
:100F60007428290D0A0044454255473A20414D490D
:100F7000535F33303632345F5365745F5374616C42
:100F80006C5F506172616D28290D0A00444542551D
:100F9000473A20414D49535F33303632345F536511
:100FA000745F4D6F746F725F506172616D28290DAF
:100FB0000A00504152414D3A2043616C69627261AE
:100FC000746564202020202020202020202020253F
:100FD00073205945530D0A00504152414D3A205457
:100FE000696C7420436F6E76657273696F6E202032
:100FF0002020202020257320256C640D0A00444504
:101000004255473A20414D49535F33303632345FC1
:1010100052657365745F506F736974696F6E2829C8
:101020000D0A00504152414D3A2043616C69627291
:101030006174656420202020202020202020202092
:101040002573204E4F0D0A00504152414D3A205514
:101050006E77696E64202020202020202020202010
:10106000202020202025732025640D0A00504152A5
:10107000414D3A204261636B6C61736820202020EF
:101080002020202020202020202025732025640DD2
:101090000A00504152414D3A204D696E2054696C0E
:1010A00074202020202020202020202020202025E7
:1010B000732025640D0A00504152414D3A204D6184
:1010C000782054696C7420202020202020202020AB
:1010D0002020202025732025640D0A005041524114
:1010E0004D3A2054696C7420506F736974696F6E47
:1010F00020202020202020202025732025640D0A78
:1011000000504152414D3A20416E74656E6E61202F
:1011100042656172696E672020202020202025739F
:101120002025640D0A00504152414D3A204D65631F
:1011300068616E6963616C2054696C7420202020A2
:1011400020202025732025640D0A00504152414D76
:101150003A20536563746F72204964202020202058
:10116000202020202020202025732025730D0A0018
:10117000504152414D3A20496E7374616C6C204964
:1011800064202020202020202020202020257320C3
:1011900025730D0A00504152414D3A20496E737437
:1011A000616C6C2044617465202020202020202068
:1011B000202025732025730D0A00504152414D3ADD
:1011C000204261736573746174696F6E2049642095
:1011D0002020202020202025732025730D0A005078
:1011E0004152414D3A20416E74656E6E61204D6FE3
:1011F00064656C204E756D62657220202573202514
:10120000730D0A00504152414D3A2050726F64757F
:101210006374204D6F64656C204E756D626572203D
:101220002025732025730D0A00504152414D3A206C
:10123000416E74656E6E612053657269616C204EFB
:10124000756D6265722025732025730D0A0050416B
:1012500052414D3A2050726F647563742053657229
:1012600069616C204E756D6265722025732025734F
:101270000D0A0054435020434F4D504C45544544B3
:10128000202E2E2E2053454E44494E4720414E538A
:101290005745520D0A0053656E645F436F6E666971
:1012A000675F4461746120646F6E65205B307825F0
:1012B0002E32785D0D0A0044454255473A20414D93
:1012C00049535F33303632345F486172645F537420
:1012D0006F7028290D0A00416E74656E6E6120469C
:1012E00072657175656E63792042616E6420457820
:1012F00074203078303800416E74656E6E6120461F
:1013000072657175656E63792042616E64204578FF
:1013100074203078303900636865636B73756D20B5
:101320002020202020202020202020203A2030783B
:10133000252E34780D0A004672657175656E6379E5
:101340002042616E645B305D202020203A2030789E
:10135000252E34780D0A004672657175656E6379C5
:101360002042616E645B315D202020203A2030787D
:10137000252E34780D0A004672657175656E6379A5
:101380002042616E645B325D202020203A2030785C
:10139000252E34780D0A004552524F523A20496E9C
:1013A00061637469766974792074696D65722072FD
:1013B000657365740D0A00414C41524D3A203078F6
:1013C000252E3178203078252E3178203078252E42
:1013D00031780D0A005365745F54696C74206E6F28
:1013E000206368616E6765205B3078252E32785DFA
:1013F0000D0A004765745F4465766963655F446103
:101400007461202573205B3078252E32785D0D0ABB
:10141000005365745F4465766963655F4461746118
:10142000202573205B3078252E32785D0D0A00531D
:10143000544152543A20537465707065722064723E
:101440006976657220696E69740D0A0054435020F4
:1014500041424F52544544202E2E2E2053454E4497
:10146000494E472052520D0A005475726E20526147
:1014700074696F20202020202020202020203A2066
:10148000256C640D0A0053656E645F436F6E666978
:10149000675F64617461205B3078252E32785D0D62
:1014A0000A00416C61726D5F496E646963617469C1
:1014B0006F6E205B3078252E32785D0D0A005375F3
:1014C000627363726962655F416C61726D73205B08
:1014D0003078252E32785D0D0A00556E77696E647E
:1014E0002020202020202020202020202020203AE2
:1014F0002025640D0A006C656E677468202020202A
:1015000020202020202020202020203A2025640D8B
:101510000A004761696E5B305D202020202020207A
:10152000202020202020203A2025640D0A00476139
:10153000696E5B315D20202020202020202020208B
:101540002020203A2025640D0A004761696E5B3235
:101550005D20202020202020202020202020203A34
:101560002025640D0A004761696E5B335D202020F1
:1015700020202020202020202020203A2025640D1B
:101580000A004261636B6C61736820202020202078
:10159000202020202020203A2025640D0A004D69BB
:1015A0006E2054696C7420202020202020202020D0
:1015B0002020203A2025640D0A004D6178205469CE
:1015C0006C74202020202020202020202020203A61
:1015D0002025640D0A004265616D77696474685B5B
:1015E000305D2020202020202020203A2025640D5E
:1015F0000A004265616D77696474685B315D202023
:10160000202020202020203A2025640D0A00426559
:10161000616D77696474685B325D20202020202032
:101620002020203A2025640D0A004265616D77690B
:101630006474685B335D2020202020202020203A25
:101640002025640D0A00416E74656E6E61204D6F39
:1016500064656C204E756D626572203A2025730DAD
:101660000A0050726F64756374204D6F64656C205E
:101670004E756D626572203A2025730D0A0057720F
:101680006974655F557365725F44617461205B3096
:1016900078252E32785D0D0A0056656E646F725F94
:1016A0005370656369666963205B3078252E3278F4
:1016B0005D0D0A004D4F544F523A205265616368E8
:1016C0006564206C6173742074696C740D0A005237
:1016D000455345543A20524553455420494E53549E
:1016E00052554354494F4E0D0A0053544152543AF7
:1016F000205363686564756C6572207374617274DD
:1017000065640D0A004552524F523A204932432037
:10171000726561642074696D656F75740D0A00549B
:1017200061736B5F446F776E6C6F6164202020285B
:101730005354415254290D0A00526561645F557338
:1017400065725F44617461205B3078252E32785D6C
:101750000D0A0043616C69627261746520646F6E8A
:1017600065205B3078252E32785D0D0A00446F7756
:101770006E6C6F61645F5374617274205B307825A6
:101780002E32785D0D0A00506572666F726D696E5B
:1017900067204C61796572322072657365740D0A39
:1017A000004D4F544F523A20526561636865642082
:1017B000656E642073746F700D0A004D4F544F5264
:1017C0003A2052656163686564206D6178207469B0
:1017D0006C740D0A0052455345543A205741544306
:1017E00048444F472054494D454F55540D0A004138
:1017F00063747561746F725F4A616D5F5065726D7D
:10180000616E656E740D0A004163747561746F7268
:101810005F4A616D5F54656D706F726172790D0A18
:10182000005461736B5F446F776E6C6F616420204E
:10183000202853544F50290D0A005365745F546992
:101840006C7420646F6E65205B3078252E32785D75
:101850000D0A00446F776E6C6F61645F4170706C4D
:10186000205B3078252E32785D0D0A004F7065724E
:1018700061746F7220416E74656E6E6120426561A5
:1018800072696E67004F70657261746F72204D658A
:101890006368616E6963616C2054696C74005354B1
:1018A0004152543A20504152414D455445525320E3
:1018B000696E69740D0A0053544152543A204D6FB9
:1018C000746F72207461736B20696E69740D0A0005
:1018D00053434845443A204D61696E2052756E6EFF
:1018E000696E672025640D0A00446F776E6C6F6126
:1018F000645F456E64205B3078252E32785D0D0A7A
:1019000000507265706172654572726F72205B3053
:1019100078252E32785D0D0A00436C6561725F4157
:101920006C61726D73205B3078252E32785D0D0A04
:10193000004F70657261746F7220426173657374D9
:101940006174696F6E204964004D4F544F523A20C4
:101950005265616368656420756E77696E640D0A0F
:1019600000416E74656E6E61204672657175656EBC
:1019700063792042616E64005B252E32643A252E25
:1019800032643A252E32642E252E33645D200050B9
:101990004152414D3A20557064617465642025734D
:1019A0002025640D0A0077726F6E672070726F6475
:1019B000756374206E756D6265720D0A0050415238
:1019C000414D3A2056616C69646174696E672025E7
:1019D000730D0A004F70657261746F72416E7465A9
:1019E0006E6E6142656172696E67004F706572610B
:1019F000746F724D656368616E6963616C54696C84
:101A000074004163747561746F725F4A616D5F50F9
:101A100065726D616E656E74004163747561746F9B
:101A2000725F4A616D5F54656D706F7261727900AB
:101A30004765745F416C61726D73205B3078252E51
:101A400032785D0D0A00416E74656E6E61205365DB
:101A50007269616C204E756D626572004F706572BF
:101A600061746F724261736573746174696F6E49FA
:101A7000640048575F49443A20256425642564255D
:101A800064256425640D0A0053544152543A20459C
:101A90004550524F4D20696E69740D0A0043616CC8
:101AA000696272617465205B3078252E32785D0D35
:101AB0000A0053656C665F54657374205B3078254B
:101AC0002E32785D0D0A00416E74656E6E6120499C
:101AD0006E7374616C6C204461746500416E746552
:101AE0006E6E61204D6F64656C204E756D6265721F
:101AF00000416E74656E6E614672657175656E63E8
:101B00007942616E64004765745F496E666F205B61
:101B10003078252E32785D0D0A004765745F546970
:101B20006C74205B3078252E32785D0D0A00536589
:101B3000745F54696C74205B3078252E32785D0DAB
:101B40000A004F70657261746F72496E7374616CD4
:101B50006C4461746500416E74656E6E61536572AC
:101B600069616C4E756D6265720050726F64756369
:101B70007453657269616C4E756D62657200524591
:101B80005345543A20504F57455220444F574E0D1D
:101B90000A0053544152543A204149534720696E38
:101BA00069740D0A00416E74656E6E6120496E7332
:101BB00074616C6C204964004F70657261746F725F
:101BC00020536563746F72204964004672616D65CD
:101BD000206E6F7420666F72206D650D0A004E6F67
:101BE000206D61736B20584944207363616E0D0A48
:101BF0000053544152543A2048444C4320696E6982
:101C0000740D0A00416E74656E6E614D6F64656C93
:101C10004E756D6265720050726F647563744D6FBE
:101C200064656C4E756D6265720052455345543A59
:101C30002042524F574E204F55540D0A00535441E5
:101C400052543A2053504920696E69740D0A00536A
:101C5000544152543A2049324320696E69740D0A46
:101C600000556E6B6E6F776E2044617461666965B6
:101C70006C6400416E74656E6E61204265616D77C3
:101C800069647468004F70657261746F72496E7335
:101C900074616C6C49640052455345543A20504F6E
:101CA0005745522D4F4E0D0A003031323334353600
:101CB00037383941424344454600303132333435B8
:101CC00036373839616263646566005265736574DE
:101CD000205B3078252E32785D0D0A00416E7465E8
:101CE0006E6E61204D696E2054696C7400416E7493
:101CF000656E6E61204D61782054696C7400777256
:101D00006F6E6720636865636B73756D0D0A004FB6
:101D100070657261746F72536563746F72496400A9
:101D2000416E74656E6E614265616D776964746859
:101D3000004D4F544F523A2054494D454F55540D84
:101D40000A0052455345543A20554E4B4E4F574E7C
:101D50000D0A004255494C443A2025732040202565
:101D6000730D0A006275665F636F756E743D2025A2
:101D7000750D0A00494E56414C49445F4652414D4B
:101D8000450D0A0077726F6E672076657273696F12
:101D90006E0D0A00414C41524D3A20436C72202591
:101DA000730D0A00414C41524D3A20536574202571
:101DB000730D0A0044454255473A20414354495661
:101DC000450D0A0048617264776172655F45727201
:101DD0006F72004E6F7420436F6E6669677572652F
:101DE00064004E6F745F436F6E66696775726564F9
:101DF00000416E74656E6E614D696E54696C74005D
:101E0000416E74656E6E614D617854696C74004EFC
:101E10006F745F43616C69627261746564005645FA
:101E20005253493A20252E3136730D0A004E6F74F5
:101E300043616C69627261746564004C61737444DF
:101E40006972656374696F6E00416E74656E6E6170
:101E5000204761696E0077726F6E672074797065D4
:101E60000D0A0054524143453A204442470D0A00AE
:101E700054524143453A204C4F470D0A00545241B9
:101E800043453A204552520D0A00416E74656E6E0C
:101E9000614761696E005365702033302032303104
:101EA0003600525820252E32643A200054582025FE
:101EB0002E32643A20005475726E526174696F005C
:101EC0004261636B6C6173680031313A30303A3192
:101ED0003200696E76616C696400286E756C6C29DD
:101EE00000556E77696E64004343415050002530C1
:101EF000325820000D0A2020004343000D0000004E
:101F000021EEEDF010EED4F0050EDBCFE3FFE80696
:101F1000FCE221EEF3F010EEDAF0050EDBCFE3FF8A
:101F2000E806FCE2000E05B0010E0001E06F0001C2
:101F3000E00504E0DA0EE16F000E04D0D40E0001DB
:101F4000E16F000E0001E26F00D00001E36B100EA4
:101F50000001E36501D038D00001E351010D000E0E
:101F6000F324D96E020EF420DA6EDF500AE0E3515A
:101F7000010D000EF324D96E020EF420DA6EDE2875
:101F80000CE10001E351010DB30EF324D96E000EF4
:101F9000F420DA6E200EDF6E14D00001E351010D43
:101FA000000EF324D96E020EF420DA6EE351010D17
:101FB000B30EF324E16E000EF420E26EDFCFE7FFF4
:101FC00000D00001E32BC3D70001E351010DB30E94
:101FD000F324D96E000EF420DA6EDF6A0001E32BE1
:101FE00000D0B0EC5DF04E0E0001876F120E886FCE
:101FF000E1C089F0E2C08AF089518A11D8A4200E8C
:102000008B6FB30E8C6F000E8D6F8C11D8A4200EC9
:102010008E6F77EC22F000D0000E05B2010E0001A9
:10202000E06F0001E00504E0DA0EE16F000E04D07D
:10203000D40E0001E16F000E0001E26F00D000013C
:10204000E36B0E0E0001E36501D038D00001E351CF
:10205000010D110EF324D96E020EF420DA6EDF505A
:102060000AE0E351010D110EF324D96E020EF420A3
:10207000DA6EDE280CE10001E351010DB30EF3240A
:10208000D96E000EF420DA6E200EDF6E14D000013F
:10209000E351010D110EF324D96E020EF420DA6E15
:1020A000E351010DB30EF324E16E000EF420E26E55
:1020B000DFCFE7FF00D00001E32BC3D70001E351DE
:1020C000010DB30EF324D96E000EF420DA6EDF6A30
:1020D0000001E32B00D0B0EC5DF0040E0001876F2F
:1020E000120E886FE1C089F0E2C08AF089518A112E
:1020F000D8A4200E8B6FB30E8C6F000E8D6F8C11D9
:10210000D8A4200E8E6F77EC22F000D0000E05B41C
:10211000010E0001E06F0001E00504E0DA0EE16F5E
:10212000000E04D0D40E0001E16F000E0001E26F3A
:1021300000D00001E36B100E0001E36501D038D040
:102140000001E351010D200EF324D96E020EF4209C
:10215000DA6EDF500AE0E351010D200EF324D96E50
:10216000020EF420DA6EDE280CE10001E351010DCD
:10217000B30EF324D96E000EF420DA6E200EDF6E5B
:1021800014D00001E351010D200EF324D96E020E8C
:10219000F420DA6EE351010DB30EF324E16E000E6C
:1021A000F420E26EDFCFE7FF00D00001E32BC3D7BE
:1021B0000001E351010DB30EF324D96E000EF4209B
:1021C000DA6EDF6A0001E32B00D0B0EC5DF0290E7F
:1021D0000001876F120E886FE1C089F0E2C08AF0BB
:1021E00089518A11D8A4200E8B6FB30E8C6F000E0C
:1021F0008D6F8C11D8A4200E8E6F77EC22F000D05A
:10220000000E05B6010E0001E06F0001E00504E0DC
:10221000DA0EE16F000E04D0D40E0001E16F000E63
:102220000001E26F00D00001E36B0E0E0001E365D8
:1022300001D038D00001E351010D310EF324D96EE5
:10224000020EF420DA6EDF500AE0E351010D310E88
:10225000F324D96E020EF420DA6EDE280CE10001C0
:10226000E351010DB30EF324D96E000EF420DA6EA3
:10227000200EDF6E14D00001E351010D310EF32466
:10228000D96E020EF420DA6EE351010DB30EF32481
:10229000E16E000EF420E26EDFCFE7FF00D0000118
:1022A000E32BC3D70001E351010DB30EF324D96E24
:1022B000000EF420DA6EDF6A0001E32B00D0B0ECF0
:1022C0005DF0DF0E0001876F110E886FE1C089F0AD
:1022D000E2C08AF089518A11D8A4200E8B6FB30E08
:1022E0008C6F000E8D6F8C11D8A4200E8E6F77EC42
:1022F00022F000D0000E05B8010E0001E06F0001D1
:10230000E00504E0DA0EE16F000E04D0D40E000107
:10231000E16F000E0001E26F00D00001E36B050EDB
:102320000001E36501D038D00001E351010D400EFA
:10233000F324D96E020EF420DA6EDF500AE0E35186
:10234000010D400EF324D96E020EF420DA6EDE2861
:102350000CE10001E351010DB30EF324D96E000E20
:10236000F420DA6E200EDF6E14D00001E351010D6F
:10237000400EF324D96E020EF420DA6EE351010D03
:10238000B30EF324E16E000EF420E26EDFCFE7FF20
:1023900000D00001E32BC3D70001E351010DB30EC0
:1023A000F324D96E000EF420DA6EDF6A0001E32B0D
:1023B00000D0B0EC5DF0950E0001876F110E886FB4
:1023C000E1C089F0E2C08AF089518A11D8A4200EB8
:1023D0008B6FB30E8C6F000E8D6F8C11D8A4200EF6
:1023E0008E6F77EC22F000D0000E05BA010E0001CE
:1023F000E06F0001E00504E0DA0EE16F000E04D0AA
:10240000D40E0001E16F000E0001E26F00D0000168
:10241000E36B040E0001E36501D038D00001E35105
:10242000010D460EF324D96E020EF420DA6EDF5051
:102430000AE0E351010D460EF324D96E020EF4209A
:10244000DA6EDE280CE10001E351010DB30EF32436
:10245000D96E000EF420DA6E200EDF6E14D000016B
:10246000E351010D460EF324D96E020EF420DA6E0C
:10247000E351010DB30EF324E16E000EF420E26E81
:10248000DFCFE7FF00D00001E32BC3D70001E3510A
:10249000010DB30EF324D96E000EF420DA6EDF6A5C
:1024A0000001E32B00D0B0EC5DF0700E0001876FEF
:1024B000110E886FE1C089F0E2C08AF089518A115B
:1024C000D8A4200E8B6FB30E8C6F000E8D6F8C1105
:1024D000D8A4200E8E6F77EC22F000D0000E05BC41
:1024E000010E0001E06F0001E00504E0DA0EE16F8B
:1024F000000E04D0D40E0001E16F000E0001E26F67
:1025000000D00001E36B1F0E0001E36501D038D05D
:102510000001E351010D4B0EF324D96E020EF4209D
:10252000DA6EDF500AE0E351010D4B0EF324D96E51
:10253000020EF420DA6EDE280CE10001E351010DF9
:10254000B30EF324D96E000EF420DA6E200EDF6E87
:1025500014D00001E351010D4B0EF324D96E020E8D
:10256000F420DA6EE351010DB30EF324E16E000E98
:10257000F420E26EDFCFE7FF00D00001E32BC3D7EA
:102580000001E351010DB30EF324D96E000EF420C7
:10259000DA6EDF6A0001E32B00D0B0EC5DF0BA0E1A
:1025A0000001876F110E886FE1C089F0E2C08AF0E8
:1025B00089518A11D8A4200E8B6FB30E8C6F000E38
:1025C0008D6F8C11D8A4200E8E6F77EC22F000D086
:1025D000000E05BE010E0001E06F0001E00504E001
:1025E000DA0EE16F000E04D0D40E0001E16F000E90
:1025F0000001E26F00D00001E36B1F0E0001E365F4
:1026000001D038D00001E351010D6B0EF324D96ED7
:10261000020EF420DA6EDF500AE0E351010D6B0E7A
:10262000F324D96E020EF420DA6EDE280CE10001EC
:10263000E351010DB30EF324D96E000EF420DA6ECF
:10264000200EDF6E14D00001E351010D6B0EF32458
:10265000D96E020EF420DA6EE351010DB30EF324AD
:10266000E16E000EF420E26EDFCFE7FF00D0000144
:10267000E32BC3D70001E351010DB30EF324D96E50
:10268000000EF420DA6EDF6A0001E32B00D0B0EC1C
:102690005DF04B0E0001876F110E886FE1C089F06D
:1026A000E2C08AF089518A11D8A4200E8B6FB30E34
:1026B0008C6F000E8D6F8C11D8A4200E8E6F77EC6E
:1026C00022F000D0000E06B0010E0001E06F000104
:1026D000E00504E0DA0EE16F000E04D0D40E000134
:1026E000E16F000E0001E26F00D0B0EC5DF0010E72
:1026F0000001876F110E886FE1C089F0E2C08AF097
:1027000089518A11D8A4200E8B6F8BC28CF08CC299
:102710008DF077EC22F000D0000E06B2010E000121
:10272000E06F0001E00504E0DA0EE16F000E04D076
:10273000D40E0001E16F000E0001E26F00D0B0EC9A
:102740005DF0260E0001876F110E886FE1C089F0E1
:10275000E2C08AF089518A11D8A4200E8B6F8DC2F5
:102760008CF08EC28DF077EC22F000D0000E06B413
:10277000010E0001E06F0001E00504E0DA0EE16FF8
:10278000000E04D0D40E0001E16F000E0001E26FD4
:1027900000D0B0EC5DF0B10E0001876F0B0E886FBA
:1027A000E1C089F0E2C08AF089518A11D8A4200ED4
:1027B0008B6F8FC28CF090C28DF091C28EF092C25E
:1027C0008FF093C290F094C291F077EC22F000D099
:1027D000000E06B6010E0001E06F0001E00504E006
:1027E000DA0EE16F000E04D0D40E0001E16F000E8E
:1027F0000001E26F00D0B0EC5DF0A40E0001876F25
:102800000C0E886FE1C089F0E2C08AF089518A110C
:10281000D8A4200E8B6F95C28CF096C28DF097C213
:102820008EF098C28FF099C290F09AC291F09BC23C
:1028300092F09CC293F077EC22F000D0000E06B824
:10284000010E0001E06F0001E00504E0DA0EE16F27
:10285000000E04D0D40E0001E16F000E0001E26F03
:1028600000D0B0EC5DF0760E0001876F0C0E886F23
:10287000E1C089F0E2C08AF089518A11D8A4200E03
:102880008B6F9DC28CF08D6B9EC28EF08F6B9FC242
:1028900090F0916BA0C292F0936B77EC22F000D095
:1028A000000E06BA010E0001E06F0001E00504E031
:1028B000DA0EE16F000E04D0D40E0001E16F000EBD
:1028C0000001E26F00D0B0EC5DF0B70E0001876F41
:1028D000100E886FE1C089F0E2C08AF089518A1138
:1028E000D8A4200E8B6FA1C28CF0A2C28DF077EC21
:1028F00022F000D0000E06BC010E0001E06F0001C6
:10290000E00504E0DA0EE16F000E04D0D40E000101
:10291000E16F000E0001E26F00D0B0EC5DF0920EAE
:102920000001876F100E886FE1C089F0E2C08AF065
:1029300089518A11D8A4200E8B6FA3C28CF0A4C237
:102940008DF077EC22F000D0000E06BE010E0001E3
:10295000E06F0001E00504E0DA0EE16F000E04D044
:10296000D40E0001E16F000E0001E26F00D0B0EC68
:102970005DF0D80E0001876F0F0E886FE1C089F0FF
:10298000E2C08AF089518A11D8A4200E8B6FA5C2AB
:102990008CF0A6C28DF0A7C28EF0A8C28FF077ECA3
:1029A00022F000D0000E07B0010E0001E06F000120
:1029B000E00504E0DA0EE16F000E04D0D40E000151
:1029C000E16F000E0001E26F00D0B0EC5DF06D0E23
:1029D0000001876F100E886FE1C089F0E2C08AF0B5
:1029E00089518A11D8A4200E8B6FA9C28CF0AAC27B
:1029F0008DF077EC22F000D0000E07B2010E00013E
:102A0000E06F0001E00504E0DA0EE16F000E04D093
:102A1000D40E0001E16F000E0001E26F00D0B0ECB7
:102A20005DF0480E0001876F100E886FE1C089F0DD
:102A3000E2C08AF089518A11D8A4200E8B6FABC2F4
:102A40008CF0ACC28DF077EC22F000D0000E07B60F
:102A5000010E0001E06F0001E00504E0DA0EE16F15
:102A6000000E04D0D40E0001E16F000E0001E26FF1
:102A700000D00201AF5114E1B0EC5DF0B20E0001E4
:102A8000876F0F0E886FE1C089F0E2C08AF089512C
:102A90008A11D8A4200E8B6F77EC22F014D000D0CE
:102AA000B0EC5DF0230E0001876F100E886FE1C05F
:102AB00089F0E2C08AF089518A11D8A4200E8B6F68
:102AC00077EC22F000D0000E07B4010E0001E06F99
:102AD0000001E00504E0DA0EE16F000E04D0D40E30
:102AE0000001E16F000E0001E26F00D0B0EC5DF07C
:102AF000DC0E0001876F100E886FE1C089F0E2C024
:102B00008AF089518A11D8A4200E8B6FADC28CF047
:102B1000AEC28DF077EC22F000D0000E07B8010EA7
:102B20000001E06F0001E00504E0DA0EE16F000E45
:102B300004D0D40E0001E16F000E0001E26F00D05E
:102B40000201B05114E1B0EC5DF0FE0E0001876FA0
:102B50000C0E886FE1C089F0E2C08AF089518A11B9
:102B6000D8A4200E8B6F77EC22F0120000D0B0ECCE
:102B70005DF0A80E0001876F0D0E886FE1C089F02F
:102B8000E2C08AF089518A11D8A4200E8B6F77ECAD
:102B900022F0120012000001D26F41EF1AF0000182
:102BA000E851E911EA11EB1102E155EF1AF0010EBB
:102BB0000101366F8C80010E2ED055EF1AF0000106
:102BC000E8A12DD0000E716F020E726F110E736F9F
:102BD000DF0E746F020E756FA4EC5BF00001E891DC
:102BE00000D0010E0001ED659DD3B0EC5DF08F0EBD
:102BF0000001876F190E886F6A0E896F1B0E8A6F2E
:102C00008911D8A4000E8B6F000E8D6F8C6F77EC3E
:102C100022F088D387D30001D26F55EF1AF000015C
:102C2000E8A32AD0110E716F020E726F0F0E736F30
:102C3000E00E746F020E756FA4EC5BF00001E89378
:102C400000D0010E0001ED656DD3B0EC5DF08F0E8C
:102C50000001876F190E886F170E896F1C0E8A6F1F
:102C60008911D8A4000E8B6F000E8D6F010E8C6F32
:102C700077EC22F057D356D30001E8A52AD0200ED6
:102C8000716F020E726F110E736FE10E746F020E90
:102C9000756FA4EC5BF00001E89500D0010E000117
:102CA000ED6540D3B0EC5DF08F0E0001876F190E1B
:102CB000886F560E896F1B0E8A6F8911D8A4000E7B
:102CC0008B6F000E8D6F020E8C6F77EC22F02AD383
:102CD00029D30001E8A72AD0310E716F020E726F5E
:102CE0000F0E736FE20E746F020E756FA4EC5BF043
:102CF0000001E89700D0010E0001ED6513D3B0ECA0
:102D00005DF08F0E0001876F190E886F040E896FBA
:102D10001C0E8A6F8911D8A4000E8B6F000E8D6F68
:102D2000030E8C6F77EC22F0FDD2FCD20001E8A9F3
:102D30002AD0400E716F020E726F060E736FE30E93
:102D4000746F020E756FA4EC5BF00001E89900D07F
:102D5000010E0001ED65E6D2B0EC5DF08F0E0001D2
:102D6000876F190E886F420E896F1B0E8A6F89114B
:102D7000D8A4000E8B6F000E8D6F040E8C6F77EC55
:102D800022F0D0D2CFD20001E8AB2AD0460E716F2C
:102D9000020E726F050E736FE40E746F020E756F84
:102DA000A4EC5BF00001E89B00D0010E0001ED6592
:102DB000B9D2B0EC5DF08F0E0001876F190E886FED
:102DC000850E896F1C0E8A6F8911D8A4000E8B6F37
:102DD000000E8D6F050E8C6F77EC22F0A3D2A2D27D
:102DE0000001E8AD2AD04B0E716F020E726F200EFB
:102DF000736FE50E746F020E756FA4EC5BF000014B
:102E0000E89D00D0010E0001ED658CD2B0EC5DF0C4
:102E10008F0E0001876F190E886F5C0E896F1A0E76
:102E20008A6F8911D8A4000E8B6F000E8D6F060E6D
:102E30008C6F77EC22F076D275D20001E8AF2AD001
:102E40006B0E716F020E726F200E736FE60E746F51
:102E5000020E756FA4EC5BF00001E89F00D0010E3C
:102E60000001ED655FD2B0EC5DF08F0E0001876F61
:102E7000190E886F0F0E896F1D0E8A6F8911D8A4E5
:102E8000000E8B6F000E8D6F070E8C6F77EC22F0AB
:102E900049D248D20001E9A12AD08B0E716F020EEF
:102EA000726F020E736FE70E746F020E756FA4ECF3
:102EB0005BF00001E99100D0010E0001ED6532D216
:102EC000B0EC5DF08F0E0001876F190E886FD40E85
:102ED000896F190E8A6F8911D8A4000E8B6F000EAE
:102EE0008D6F080E8C6F77EC22F01CD21BD2000184
:102EF000E9A32AD08D0E716F020E726F020E736FEE
:102F0000E80E746F020E756FA4EC5BF00001E9939C
:102F100000D0010E0001ED6505D2B0EC5DF08F0E22
:102F20000001876F190E886FEB0E896F190E8A6F7B
:102F30008911D8A4000E8B6F000E8D6F090E8C6F57
:102F400077EC22F0EFD1EED10001E9A52AD08F0E67
:102F5000716F020E726F060E736FE90E746F020EC0
:102F6000756FA4EC5BF00001E99500D0010E000143
:102F7000ED65D8D1B0EC5DF08F0E0001876F190EB2
:102F8000886FF10E896F1A0E8A6F8911D8A4000E0E
:102F90008B6F000E8D6F0A0E8C6F77EC22F0C2D112
:102FA000C1D10001E9A72AD0950E716F020E726F90
:102FB000080E736FEA0E746F020E756FA4EC5BF06F
:102FC0000001E99700D0010E0001ED65ABD1B0EC36
:102FD0005DF08F0E0001876F190E886F200E896FCC
:102FE0001D0E8A6F8911D8A4000E8B6F000E8D6F95
:102FF0000B0E8C6F77EC22F095D194D10001E9A9EA
:103000002AD09D0E716F020E726F040E736FEB0E5D
:10301000746F020E756FA4EC5BF00001E99900D0AB
:10302000010E0001ED657ED1B0EC5DF08F0E000168
:10303000876F190E886F8A0E896F1E0E8A6F89112D
:10304000D8A4000E8B6F000E8D6F0C0E8C6F77EC7A
:1030500022F068D167D10001E9AB2AD0A10E716FCF
:10306000020E726F020E736FEC0E746F020E756FAC
:10307000A4EC5BF00001E99B00D0010E0001ED65BE
:1030800051D1B0EC5DF08F0E0001876F190E886F83
:10309000000E896F1E0E8A6F8911D8A4000E8B6FE7
:1030A000000E8D6F0D0E8C6F77EC22F03BD13AD174
:1030B0000001E9AD2AD0A30E716F020E726F020EED
:1030C000736FED0E746F020E756FA4EC5BF0000170
:1030D000E99D00D0010E0001ED6524D1B0EC5DF05A
:1030E0008F0E0001876F190E886FF10E896F1D0E0C
:1030F0008A6F8911D8A4000E8B6F000E8D6F0E0E93
:103100008C6F77EC22F00ED10DD10001E9AF2AD0FF
:10311000A50E716F020E726F040E736FEE0E746F58
:10312000020E756FA4EC5BF00001E99F00D0010E68
:103130000001ED65F7D0B0EC5DF08F0E0001876FF8
:10314000190E886FB60E896F1E0E8A6F8911D8A46A
:10315000000E8B6F000E8D6F0F0E8C6F77EC22F0D0
:10316000E1D0E0D00001EAA12AD0A90E716F020ED1
:10317000726F020E736FEF0E746F020E756FA4EC18
:103180005BF00001EA9100D0010E0001ED65CAD0AC
:10319000B0EC5DF08F0E0001876F190E886FC00EC6
:1031A000896F1E0E8A6F8911D8A4000E8B6F000ED6
:1031B0008D6F100E8C6F77EC22F0B4D0B3D000017D
:1031C000EAA32AD0AB0E716F020E726F020E736FFC
:1031D000F00E746F020E756FA4EC5BF00001EA93C1
:1031E00000D0010E0001ED659DD0B0EC5DF08F0EBA
:1031F0000001876F190E886FE10E896F1E0E8A6FAE
:103200008911D8A4000E8B6F000E8D6F110E8C6F7C
:1032100077EC22F087D086D00001EAA52AD0AD0E47
:10322000716F020E726F020E736FF10E746F020EE9
:10323000756FA4EC5BF00001EA9500D0010E00016F
:10324000ED6570D0B0EC5DF08F0E0001876F190E48
:10325000886F990E896F180E8A6F8911D8A4000E95
:103260008B6F000E8D6F120E8C6F77EC22F05AD0A0
:1032700059D00001EAA72AD0AF0E716F020E726F0B
:10328000010E736FF20E746F020E756FA4EC5BF09B
:103290000001EA9700D0010E0001ED6543D0B0ECCB
:1032A0005DF08F0E0001876F190E886F2D0E896FEC
:1032B0001E0E8A6F8911D8A4000E8B6F000E8D6FC1
:1032C000130E8C6F77EC22F02DD02CD00001EAA9E0
:1032D0002BD0B00E716F020E726F010E736FF30E72
:1032E000746F020E756FA4EC5BF00001EA9900D0D8
:1032F000010E0001ED6516D0B0EC5DF08F0E0001FF
:10330000876F190E886F3B0E896F1E0E8A6F8911A9
:10331000D8A4000E8B6F000E8D6F140E8C6F77EC9F
:1033200022F000D0020E77D40001E851E911EA1131
:10333000EB1101E0A2D00101366B0101350501E07E
:103340009CD0356B0001D151AEEC5FF096D095D09A
:10335000050E61D4000E0001CF6F020ED06FCF1F9B
:10336000D01FCF4BD02B01012C510001CF25D36FA3
:1033700001012D510001D021D46F0001D76B8C8049
:103380002CC1D9FF2DC1DAFFDF500001D76F010139
:103390002C4B2D2B00D0010E0001ED6511D0B0ECAF
:1033A0005DF0470E0001876F0C0E886FD3C089F067
:1033B000D4C08AF0D7C08BF08C6B77EC22F000D0B1
:1033C000D3C073F0D4C074F0D7C075F04CEC5FF08C
:1033D00001013B0701013B5168E1030E1CD465D09C
:1033E000000E0001CF6F020ED06FCF1FD01FCF4B4A
:1033F000D02B01012A510001CF25D56F01012B519E
:103400000001D021D66F0001D86B2AC1D9FF2BC192
:10341000DAFFDF500001D86F00D0010E0001ED652A
:1034200011D0B0EC5DF0180E0001876F0C0E886FA4
:10343000D5C089F0D6C08AF0D8C08BF08C6B77EC01
:1034400022F000D0D5C073F0D6C074F0D8C075F0AB
:103450004CEC5FF0010E0001D26F8C9026D070EC26
:103460001EF00001D16F0001D15104E0D151AEEC4A
:103470005FF003D0010E0101356F000E0BEF16F067
:1034800014D00001D25102E1CFEF15F0010A02E1A0
:10349000DFEF15F0030A01E15DD7010AA1E0070A99
:1034A00001E156D7010ADBE000D00001D251120041
:1034B0001200000E0001C06F020EC16F0001BF6B51
:1034C000BE6900D0B0EC5DF09E0E0001876F180E53
:1034D000886F77EC22F000D095908C900001E86B1B
:1034E000E96BEA6BEB6B0568066807680868000122
:1034F000C36BC26B12D0C2C073F0C3C074F0FFECD8
:103500005EF0C0C0D9FFC1C0DAFFDF6E0001C04B62
:10351000C12B0001C24BC32B00D00001BE51C25DC4
:10352000BF51C35902E2E7D700D0010E0001ED659B
:1035300012D0B0EC5DF0BD0E0001876F190E886FE0
:103540006A0E896F1B0E8A6F8911D8A4000E8B6FCB
:1035500077EC22F000D0000E0001B26F020EB36FC4
:10356000110EB46FDF0EB56F020EB66F96EC50F011
:10357000000902E0059000D0010E0001ED6512D0B7
:10358000B0EC5DF0BD0E0001876F190E886F170E4D
:10359000896F1C0E8A6F8911D8A4000E8B6F77EC8F
:1035A00022F000D0110E0001B26F020EB36F0F0EA9
:1035B000B46FE00EB56F020EB66F96EC50F00009D6
:1035C00002E0059200D0010E0001ED6512D0B0ECD2
:1035D0005DF0BD0E0001876F190E886F560E896F62
:1035E0001B0E8A6F8911D8A4000E8B6F77EC22F026
:1035F00000D0200E0001B26F020EB36F110EB46F37
:10360000E10EB56F020EB66F96EC50F0000902E0C5
:10361000059400D0010E0001ED6512D0B0EC5DF014
:10362000BD0E0001876F190E886F040E896F1C0E86
:103630008A6F8911D8A4000E8B6F77EC22F000D02E
:10364000310E0001B26F020EB36F0F0EB46FE20EB7
:10365000B56F020EB66F96EC50F0000902E00596C9
:1036600000D0010E0001ED6512D0B0EC5DF0BD0E92
:103670000001876F190E886F420E896F1B0E8A6FCB
:103680008911D8A4000E8B6F77EC22F000D0400E89
:103690000001B26F020EB36F060EB46FE30EB56F8A
:1036A000020EB66F96EC50F0000902E0059800D0CB
:1036B000010E0001ED6512D0B0EC5DF0BD0E000111
:1036C000876F190E886F850E896F1C0E8A6F89119E
:1036D000D8A4000E8B6F77EC22F000D0460E0001CC
:1036E000B26F020EB36F050EB46FE40EB56F020E2B
:1036F000B66F96EC50F0000902E0059A00D0010E7A
:103700000001ED6512D0B0EC5DF0BD0E0001876FD9
:10371000190E886F5C0E896F1A0E8A6F8911D8A4F2
:10372000000E8B6F77EC22F000D04B0E0001B26FD1
:10373000020EB36F200EB46FE50EB56F020EB66FBA
:1037400096EC50F0000902E0059C00D0010E00014B
:10375000ED6512D0B0EC5DF0BD0E0001876F190E63
:10376000886F0F0E896F1D0E8A6F8911D8A4000E05
:103770008B6F77EC22F000D06B0E0001B26F020E5F
:10378000B36F200EB46FE60EB56F020EB66F96ECF7
:1037900050F0000902E0059E00D0010E0001ED6529
:1037A00012D0B0EC5DF0BD0E0001876F190E886F6E
:1037B000D40E896F190E8A6F8911D8A4000E8B6FF1
:1037C00077EC22F000D08B0E0001B26F020EB36FC7
:1037D000020EB46FE70EB56F020EB66F96EC50F0A6
:1037E000000902E0069000D0010E0001ED6512D044
:1037F000B0EC5DF0BD0E0001876F190E886FEB0E07
:10380000896F190E8A6F8911D8A4000E8B6F77EC1F
:1038100022F000D08D0E0001B26F020EB36F020EC7
:10382000B46FE80EB56F020EB66F96EC50F000095B
:1038300002E0069200D0010E0001ED6512D0B0EC5E
:103840005DF0BD0E0001876F190E886FF10E896F54
:103850001A0E8A6F8911D8A4000E8B6F77EC22F0B4
:1038600000D08F0E0001B26F020EB36F060EB46F60
:10387000E90EB56F020EB66F96EC50F0000902E04B
:10388000069400D0010E0001ED6512D0B0EC5DF0A1
:10389000BD0E0001876F190E886F200E896F1D0EF7
:1038A0008A6F8911D8A4000E8B6F77EC22F000D0BC
:1038B000950E0001B26F020EB36F080EB46FEA0EE0
:1038C000B56F020EB66F96EC50F0000902E0069656
:1038D00000D0010E0001ED6512D0B0EC5DF0BD0E20
:1038E0000001876F190E886F8A0E896F1E0E8A6F0E
:1038F0008911D8A4000E8B6F77EC22F000D09D0EBA
:103900000001B26F020EB36F040EB46FEB0EB56F11
:10391000020EB66F96EC50F0000902E0069800D057
:10392000010E0001ED6512D0B0EC5DF0BD0E00019E
:10393000876F190E886F000E896F1E0E8A6F8911AE
:10394000D8A4000E8B6F77EC22F000D0A10E0001FE
:10395000B26F020EB36F020EB46FEC0EB56F020EB3
:10396000B66F96EC50F0000902E0069A00D0010E06
:103970000001ED6512D0B0EC5DF0BD0E0001876F67
:10398000190E886FF10E896F1D0E8A6F8911D8A4E8
:10399000000E8B6F77EC22F000D0A30E0001B26F07
:1039A000020EB36F020EB46FED0EB56F020EB66F5E
:1039B00096EC50F0000902E0069C00D0010E0001D8
:1039C000ED6512D0B0EC5DF0BD0E0001876F190EF1
:1039D000886FB60E896F1E0E8A6F8911D8A4000EEB
:1039E0008B6F77EC22F000D0A50E0001B26F020EB3
:1039F000B36F040EB46FEE0EB56F020EB66F96EC99
:103A000050F0000902E0069E00D0010E0001ED65B5
:103A100012D0B0EC5DF0BD0E0001876F190E886FFB
:103A2000C00E896F1E0E8A6F8911D8A4000E8B6F8D
:103A300077EC22F000D0A90E0001B26F020EB36F36
:103A4000020EB46FEF0EB56F020EB66F96EC50F02B
:103A5000000902E0079000D0010E0001ED6512D0D0
:103A6000B0EC5DF0BD0E0001876F190E886FE10E9E
:103A7000896F1E0E8A6F8911D8A4000E8B6F77ECA8
:103A800022F000D0AB0E0001B26F020EB36F020E37
:103A9000B46FF00EB56F020EB66F96EC50F00009E1
:103AA00002E0079200D0010E0001ED6512D0B0ECEB
:103AB0005DF0BD0E0001876F190E886F990E896F3A
:103AC000180E8A6F8911D8A4000E8B6F77EC22F044
:103AD00000D0AD0E0001B26F020EB36F020EB46FD4
:103AE000F10EB56F020EB66F96EC50F0000902E0D1
:103AF000079400D0010E0001ED6512D0B0EC5DF02E
:103B0000BD0E0001876F190E886F2D0E896F1E0E76
:103B10008A6F8911D8A4000E8B6F77EC22F000D049
:103B2000AF0E0001B26F020EB36F010EB46FF20E52
:103B3000B56F020EB66F96EC50F0000902E00796E2
:103B400000D0010E0001ED6512D0B0EC5DF0BD0EAD
:103B50000001876F190E886F3B0E896F1E0E8A6FEA
:103B60008911D8A4000E8B6F77EC22F000D0B00E34
:103B70000001B26F020EB36F010EB46FF30EB56F9A
:103B8000020EB66F96EC50F0000902E0079800D0E4
:103B9000110E0001716F020E726F9FEC5EF071C02A
:103BA000C2F072C0C3F00001C35113E10F0EC25D39
:103BB00010E201D00ED0110E0001C225D96E020E06
:103BC000C321DA6E000EDF6E0001C24BC32BEBD7B0
:103BD00000D0000E0001C06F020EC16F000E000188
:103BE000C36FC26F0001C35154E1110EC25D51E2B7
:103BF00001D04FD0C0C0D9FFC1C0DAFFDE2842E0FB
:103C0000C0C0D9FFC1C0DAFFDF503CE00201A551BE
:103C1000A611A711A81119E10101008300D000012C
:103C2000ED51D8B41200B0EC5DF0A40E0001876F26
:103C30001D0E886FE20E896F1D0E8A6F8911D8A440
:103C4000000E8B6F77EC22F012000201AF05D8A4B2
:103C500012000101008500D00001ED51D8B412001E
:103C6000B0EC5DF0A40E0001876F1D0E886F0F0E83
:103C7000896F1E0E8A6F8911D8A4000E8B6F77ECA6
:103C800022F012000001C04BC12BC24BC32BAAD79C
:103C900000D0000E0001716F020E726F746B300E57
:103CA000736F766B110E756F7EEC5FF00101008310
:103CB00000D00001ED51D8B41200B0EC5DF0A40EBC
:103CC0000001876F1D0E886FE20E896F1D0E8A6FCF
:103CD0008911D8A4000E8B6F77EC22F0120012002D
:103CE00021EEF9F010EEBFF0050EDBCFE3FFE806A2
:103CF000FCE239C1C7F00001C86B4A0E0001CD6F6C
:103D0000040ECE6F0001CA6BC96BCDC0C5F0CEC02A
:103D1000C6F00001CC6BCB6B14D0C5C0D9FFC6C0B8
:103D2000DAFFDE500001C927DD50CA23020E000170
:103D3000C527000EC623020E0001CB27000ECC23A0
:103D400000D00001C751CB5DC851CC59E6E35A0EF3
:103D50000001C91905E15A0ECA1902E110D000D0BC
:103D60000001ED510AE0B0EC5DF0FE0E0001876F3E
:103D70001C0E886F77EC22F000D0060E1200CDC02A
:103D800071F0CEC072F0BF0E0001736F000E746F41
:103D9000766B050E756F8FEC54F000017151721146
:103DA0000FE00001ED510AE0B0EC5DF0560E0001AD
:103DB000876F1E0E886F77EC22F000D0220E120063
:103DC000000120EE05F0CD51D926CE51DA22020EA7
:103DD000DE180FE00001ED510AE0B0EC5DF0840E5A
:103DE0000001876F1D0E886F77EC22F000D0220E45
:103DF0001200080E0001CD25716F000ECE21726FEA
:103E0000110E736F020E746F766B0F0E756F8FEC61
:103E100054F000017151721110E00001ED510AE0FF
:103E2000B0EC5DF0A60E0001876F190E886F77EC7D
:103E300022F000D0220E120000D0010E0001ED652C
:103E400014D0B0EC5DF0F60E0001876F140E886F91
:103E500020EE06F0CD51D926CE51DA22DECF89F000
:103E6000DDCF8AF077EC22F000D0010E0001ED6585
:103E70000ED0B0EC5DF0170E0001876F130E886F47
:103E8000C9C089F0CAC08AF077EC22F000D0010ED8
:103E90000001ED6518D0B0EC5DF0620E0001876F97
:103EA000160E886F080ECD25BD6F000ECE21BE6F99
:103EB00020EE89F0BDC0DEFFBEC0DEFF200EDF6E4B
:103EC00077EC22F000D0010E0001ED6518D0B0ECC7
:103ED0005DF0460E0001876F160E886F170ECD2518
:103EE000BD6F000ECE21BE6F20EE89F0BDC0DEFF9B
:103EF000BEC0DEFF200EDF6E77EC22F000D0010E98
:103F00000001ED6514D0B0EC5DF0370E0001876F55
:103F1000130E886F20EE26F0CD51D926CE51DA222D
:103F2000DECF89F0DDCF8AF077EC22F000D0010EF1
:103F30000001ED6514D0B0EC5DF0570E0001876F05
:103F4000130E886F20EE28F0CD51D926CE51DA22FB
:103F5000DECF89F0DDCF8AF077EC22F000D0010EC1
:103F60000001ED6514D0B0EC5DF0770E0001876FB5
:103F7000130E886F20EE2AF0CD51D926CE51DA22C9
:103F8000DECF89F0DDCF8AF077EC22F000D0010E91
:103F90000001ED6514D0B0EC5DF0D60E0001876F26
:103FA000150E886F20EE2CF0CD51D926CE51DA2295
:103FB000DECF89F0DDCF8AF077EC22F000D0010E61
:103FC0000001ED6514D0B0EC5DF0F20E0001876FDA
:103FD000150E886F20EE2EF0CD51D926CE51DA2263
:103FE000DECF89F0DDCF8AF077EC22F000D0010E31
:103FF0000001ED6514D0B0EC5DF00E0E0001876F8E
:10400000160E886F20EE30F0CD51D926CE51DA222F
:10401000DECF89F0DDCF8AF077EC22F000D0010E00
:104020000001ED6514D0B0EC5DF02A0E0001876F41
:10403000160E886F20EE32F0CD51D926CE51DA22FD
:10404000DECF89F0DDCF8AF077EC22F000D0010ED0
:104050000001ED6515D0B0EC5DF0120E0001876F28
:10406000150E886F20EE34F0CD51D926CE51DA22CC
:10407000DF50BD6FBD51896F8A6B77EC22F000D0A5
:10408000010E0001ED6515D0B0EC5DF02E0E0001C3
:10409000876F150E886F20EE35F0CD51D926CE51A1
:1040A000DA22DF50BD6FBD51896F8A6B77EC22F049
:1040B00000D0010E0001ED6515D0B0EC5DF04A0EA8
:1040C0000001876F150E886F20EE36F0CD51D9268E
:1040D000CE51DA22DF50BD6FBD51896F8A6B77EC0C
:1040E00022F000D0010E0001ED6515D0B0EC5DF0BE
:1040F000660E0001876F150E886F20EE37F0CD51E8
:10410000D926CE51DA22DF50BD6FBD51896F8A6B3F
:1041100077EC22F000D0010E0001ED6514D0B0EC78
:104120005DF0BA0E0001876F150E886F20EE38F033
:10413000CD51D926CE51DA22DECF89F0DDCF8AF0FB
:1041400077EC22F000D0010E0001ED6514D0B0EC48
:104150005DF09E0E0001876F150E886F20EE3AF01D
:10416000CD51D926CE51DA22DECF89F0DDCF8AF0CB
:1041700077EC22F000D0010E0001ED6518D0B0EC14
:104180005DF0690E0001876F140E886F20EE3CF021
:10419000CD51D926CE51DA22DECF89F0DECF8AF09A
:1041A000DECF8BF0DECF8CF077EC22F000D0010E6A
:1041B0000001ED6514D0B0EC5DF0820E0001876F58
:1041C000150E886F20EE40F0CD51D926CE51DA225F
:1041D000DECF89F0DDCF8AF077EC22F000D0010E3F
:1041E0000001ED6514D0B0EC5DF0DA0E0001876FD0
:1041F000140E886F20EE42F0CD51D926CE51DA222E
:10420000DECF89F0DDCF8AF077EC22F000D0310EDE
:104210000001716F020E726F170ECD25BD6F000E7B
:10422000CE21BE6FBDC073F0BEC074F07351741167
:10423000D8A4200E756F776B0F0E766F1DEC5AF0B9
:10424000000120EE3CF0CD51D926CE51DA22DECF4E
:10425000A5F2DECFA6F2DECFA7F2DECFA8F20001F4
:1042600020EE42F0CD51D926CE51DA22DECFABF28C
:10427000DDCFACF2000120EE40F0CD51D926CE5179
:10428000DA22DECFA9F2DDCFAAF2000120EE3AF069
:10429000CD51D926CE51DA22DECFA3F2DDCFA4F262
:1042A000000120EE38F0CD51D926CE51DA22DECFF2
:1042B000A1F2DDCFA2F2000E0001CC6FCB6F0001A6
:1042C000CC5129E1030ECB5D26E201D024D0CBC036
:1042D000BDF0CCC0BEF0D8900001BD37BE37260E71
:1042E000BD27000EBE23BD51CD25D96EBE51CE21B6
:1042F000DA6ED890CB35E16ECC35E26E8F0EE126CA
:10430000020EE222DECFE6FFDDCFE5FF0001CB4B60
:10431000CC2BD5D700D0000E0001CC6FCB6F0001A5
:10432000CC5140E1040E0001CB5D3CE201D03AD01B
:10433000CBC0BDF0CCC0BEF0D8900001BD37BE37B9
:104340002C0EBD27000EBE23BD51CD25D96EBE510A
:10435000CE21DA6ED890CB35E16ECC35E26E950E7B
:10436000E126020EE222DECFE6FFDDCFE5FF340ECE
:10437000CB25BD6F000ECC21BE6FBD51CD25D96EB2
:10438000BE51CE21DA6E9D0ECB25E16E020ECC2100
:10439000E26EDFCFE7FF0001CB4BCC2B0001CC510D
:1043A00001E1C0D70001E887310E0001716F020EF4
:1043B000726FD30E736F1D0E746F11EC4CF0000111
:1043C000715172114CE1000E0201A56FA66FA76F2B
:1043D000A86F0001E98F010100830001ED5112E097
:1043E000B0EC5DF0A40E0001876F1D0E886FE20E29
:1043F000896F1D0E8A6F8911D8A4000E8B6F77EC20
:1044000022F000D0000E0001BD6F020EBE6FBD1F76
:10441000BE1FBD4BBE2B8F0EBD25CB6F020EBE2126
:10442000CC6F000E0001BD6F020EBE6F8F0EBD2758
:10443000000EBE23BD1FBE1FBD4BBE2BAB0EBD2548
:10444000C76F020EBE21C86FCBC076F0CCC077F02C
:10445000C7C078F0C8C079F01AEC5EF044D0010E05
:104460000201AF6F0001E98F0001EA830001EA81D8
:104470000001E98D0001E98B0001E9850001E98770
:104480000001E9890001EA87010100930001ED5173
:1044900012E0B0EC5DF0940E0001876F1D0E886F86
:1044A000E20E896F1D0E8A6F8911D8A4000E8B6FE2
:1044B00077EC22F000D00101008500D00001ED5121
:1044C00012E0B0EC5DF0A40E0001876F1D0E886F46
:1044D0000F0E896F1E0E8A6F8911D8A4000E8B6F84
:1044E00077EC22F000D0B1EC2AF0000C1200890E1B
:1044F0000001A36F000EA46F62D3250E0001AE1958
:1045000004E0AE5151EC61F05AD30001AB6BAA6BE1
:10451000A96B06D00001A985874B882B01D00CD050
:1045200087C0F6FF88C0F7FF000EF86E0800F55050
:10453000300AF0E001D0F4D787C0F6FF88C0F7FF5B
:10454000000EF86E0800F550C4EC5FF038E300018F
:10455000AB6BAA6B00D0AAC071F0ABC072F00001C7
:10456000746B0A0E736FD9EC5FF071C0AAF072C061
:10457000ABF0D00E0001976F986987C0F6FF88C036
:10458000F7FF000EF86E0800F550996F9A6B97517F
:10459000992798519A239951AA279A51AB23000140
:1045A000874B882B87C0F6FF88C0F7FF000EF86E98
:1045B0000800F550C4EC5FF002E3CDD700D087C00F
:1045C000F6FF88C0F7FF000EF86E0800F5502E0ABF
:1045D00034E10001874B882B0001AD6BAC6B1FD021
:1045E0000A0E0001AC03F3CF97F0F4CF98F0AD03BF
:1045F000F350982787C0F6FF88C0F7FF000EF86ECB
:104600000800F5509727000E9823D00E9725AC6F21
:10461000FF0E9821AD6F0001874B882B00D087C01B
:10462000F6FF88C0F7FF000EF86E0800F550C4ECE6
:104630005FF001E2A3D0D4D7A1D00001AD6BAC6B89
:104640009DD012000001A98999D0BAD00001A98B90
:104650000001A98FB5D0A3C0D9FFA4C0DAFFDECF77
:104660009EF0DECF9FF0DDCFA0F0030E0001A32768
:10467000000EA42300019E519F11A01109E1DA0E42
:104680009E6F1E0E9F6F9E11D8A4000EA06F00D0CB
:104690000001A26BA16B04D00001A14BA22B00D0A2
:1046A0000001A1519E25976FA2519F21986F000E86
:1046B000A021996F97C0F6FF98C0F7FF99C0F8FF47
:1046C000F8BA03D00800F55005D0F6CFE1FFF7CFD8
:1046D000E2FFE7500009E0E10001AC51AD110AE052
:1046E000A151AC5DA251AD5905E2ACC0A1F0ADC085
:1046F000A2F000D00001AA51A15DAB51A25905E280
:10470000A151AA5FA251AB5B08D00001AB6BAA6BB1
:1047100004D0200E51EC61F000D00001AA07D8A00F
:10472000AB07AA29F6E1AB291AE0F3D718D09EC04F
:10473000F6FF9FC0F7FFA0C0F8FFF8BA03D008004B
:10474000F55005D0F6CFE1FFF7CFE2FFE75051EC8F
:1047500061F000019E2B000E9F23A02300D00001DA
:10476000A107D8A0A207A129E2E1A22901E127D24D
:10477000DED725D2C00E0001A91322D087C0F6FFD4
:1047800088C0F7FF0001874B882B000EF86E0800E9
:10479000F5CFAEF0AE51D8B41200580A01E156D7A9
:1047A0003C0A0EE00D0A0CE0050A01E14BD71F0A96
:1047B00001E151D7060ADEE00D0A01E149D7FFD138
:1047C000A9C097F0C00E0001971733E1A9A90ED038
:1047D000A3C0D9FFA4C0DAFFDECFA5F0DECFA6F0DC
:1047E000DECFA7F0DECFA8F0040E0FD0A3C0D9FF14
:1047F000A4C0DAFFDECFA5F0DDCFA6F00001000EE9
:10480000A6BFFF0EA76FA86F020E0001A327000E20
:10481000A42300D00001A8AF32D0030EA9130001D9
:10482000A81FA71FA61FA56D000EA623A723A823B8
:1048300026D00001A9A90ED0A3C0D9FFA4C0DAFFD9
:10484000DECFA5F0DECFA6F0DECFA7F0DECFA8F05A
:10485000040E10D0A3C0D9FFA4C0DAFFDECF97F0BA
:10486000DDCF98F097C0A5F098C0A6F00001A76B27
:10487000A86B020E0001A327000EA42300D00001A4
:10488000AC51AD1159E1A551A611A711A81154E1E0
:10489000AC4BAD2B51D000D0010E0001AE6F0A0E13
:1048A0000001AE1952E001D050D00001AE51040D0C
:1048B000410EF324F66E090EF420F76EF86A000E2E
:1048C000F8220900F550A55D0900F550A659090028
:1048D000F550A7590900F550A85937E301D035D054
:1048E0000001AE2BDCD731D0010E0001AE6F080EF7
:1048F0000001AE192AE001D028D00001AE51040D0C
:10490000690EF324F66E090EF420F76EF86A000EB5
:10491000F8220900F550A55D0900F550A6590900D7
:10492000F550A7590900F550A8590FE301D00DD053
:104930000001AE2BDCD709D00001A951C00BACE0BF
:10494000800AD2E0400AA8E000D0800E0001AEBF8D
:104950007F0E976FAC51AE5DAD51800A975903E25F
:10496000ACC0AEF011D00001AD51800A976FAE51CE
:10497000AC5D800EAEBF7F0E975906E2AE51AC6FB4
:10498000AD6BACBFAD0700D00001AA51AB111CE06C
:10499000A9C097F0030E971717E0AA07D8A0AB0796
:1049A00013D00001AA51AC5DAD51800A976FAB5195
:1049B000800A975905E2AC51AA5FAD51AB5B04D0B8
:1049C0000001AB6BAA6B00D0800E0001AEBF7F0E62
:1049D000976FAA51AE5DAB51800A975907E2AE516D
:1049E000AA5F000EAEBFFF0EAB5B04D00001AB6B45
:1049F000AA6B00D00001A9A51BD0A9C097F0030E97
:104A0000971704E02D0E51EC61F000D00001AA517F
:104A1000AB1101E1CAD0300E51EC61F00001AA07E0
:104A2000D8A0AB07AA51AB1101E1BFD0F4D7BDD0DC
:104A30000001AA51AB110CE0200E51EC61F0000115
:104A4000AA07D8A0AB07AA51AB1102E0F5D700D056
:104A5000A9C097F0030E0001971701E1A6D02D0E13
:104A600051EC61F0A2D091D000D0ACC097F0ADC0B5
:104A700098F00001D89097379837D89097379837A3
:104A8000410E9725F66E090E9821F76EF86A000E12
:104A9000F8220900F5CF75F00900F5CF76F009008E
:104AA000F5CF77F00A00F5CF78F0A5C071F0A6C079
:104AB00072F0A7C073F0A8C074F0D3EC56F071C0C8
:104AC0007EF072C07FF073C080F074C081F00A0E77
:104AD0000001826F836B846B856B25EC58F00001BD
:104AE0007E51300FAE6F5CD0A5C071F0A6C072F0E1
:104AF000A7C073F0A8C074F0ACC097F0ADC098F038
:104B00000001D89097379837D89097379837690E23
:104B10009725F66E090E9821F76EF86A000EF822B6
:104B20000900F5CF75F00900F5CF76F00900F5CF53
:104B300077F00A00F5CF78F0D3EC56F00001715110
:104B40000F0B9B6F0001A9BB04D0BA0E9C6F1C0E0B
:104B500004D0A90E00019C6F1C0E00019D6F00D0B7
:104B600000019B51010D9CC097F09DC098F0F3503F
:104B70009727F450982397C0F6FF98C0F7FF000ED0
:104B8000F86E0800F5CFAEF00BD00001A951C00BB4
:104B900001E16BD7800AA8E0400A01E166D700D0A6
:104BA0000001AE5151EC61F000D00001AC07D8A07B
:104BB000AD07AC29EAE1AD2902E0E7D700D087C014
:104BC000F6FF88C0F7FF0001874B882B000EF86EB8
:104BD0000800F5CFAEF0AE51D8B412008ED412005A
:104BE00012000001D16F0001D15103E1D151120037
:104BF00000D0000E96EC43F0010E0001ED653DD2B1
:104C0000B0EC5DF0260E0001876F0E0E886F77EC1A
:104C100022F033D24ED2FCEC60F00CBE79D00950B9
:104C2000015C0A5002580B5003580450800A0001DE
:104C3000C36F0C50800AC35964E279697F0E7A6FA2
:104C4000000E7B6B7C6B09C0C3F00AC0C4F00BC0C4
:104C5000C5F00CC0C6F0C31FC41FC51FC61FC32BA1
:104C6000C423C523C6230150C325716F0250C4213C
:104C7000726F0350C521736F0450C621746FCEEC60
:104C80005CF071C07DF072C07EF073C07FF074C0C4
:104C900080F03CEC5EF079C0C7F07AC0C8F07BC011
:104CA000C9F07CC0CAF0C7C0CFF0C8C0D0F001C006
:104CB000CBF002C0CCF003C0CDF004C0CEF000D0E9
:104CC0000001ED5116E0B0EC5DF0D20E0001876FEF
:104CD0000D0E886F01C089F002C08AF003C08BF00E
:104CE00004C08CF0CFC08DF0D0C08EF077EC22F0F5
:104CF00000D0CFC073F0D0C074F033EC5FF081D03F
:104D000092D0000E016E026E036E046E8FD0D1D170
:104D10000150095C02500A5803500B580C50800A8D
:104D20000001C36F0450800AC359EBE279697F0E1A
:104D30007A6F000E7B6B7C6B09C0C3F00AC0C4F0B5
:104D40000BC0C5F00CC0C6F0C31FC41FC51FC61FD3
:104D5000C32BC423C523C6230150C325716F025042
:104D6000C421726F0350C521736F0450C621746F44
:104D7000CEEC5CF071C07DF072C07EF073C07FF04D
:104D800074C080F03CEC5EF079C0C7F07AC0C8F027
:104D90007BC0C9F07CC0CAF0C7C0C3F0C8C0C4F0B3
:104DA0000001C31FC41FC34BC42BC3C0CFF0C4C07A
:104DB000D0F001C0CBF002C0CCF003C0CDF004C0F5
:104DC000CEF000D00001ED5116E0B0EC5DF0FC0E2D
:104DD0000001876F0D0E886F01C089F002C08AF054
:104DE00003C08BF004C08CF0CFC08DF0D0C08EF02B
:104DF00077EC22F000D0CFC073F0D0C074F033EC69
:104E00005FF0CFC0C3F0D0C0C4F0000E0001C4BF3B
:104E1000FF0EC56FC66FC3510126C4510222C55192
:104E20000322C6510422020E02D16BD71FC0D1F05B
:104E300040D12D0E0001B96F000EBA6FAF0EBB6FDF
:104E4000010EBC6FE1EC40F001018C39E832070B38
:104E50000001C36F030EC3175DE101018BAD8CB37D
:104E600002D02ED000D00001ED5123E0B0EC5DF077
:104E7000EF0E0001876F0E0E886F2DC089F02EC0D7
:104E80008AF02DC0C3F02EC0C4F0000EC4BFFF0EC8
:104E9000C56FC66FCB51C3258B6FCC51C4218C6FAE
:104EA000CD51C5218D6FCE51C6218E6F77EC22F08A
:104EB00000D0000E016E026E036E046E67D000D04B
:104EC0000001ED5123E0B0EC5DF0170E0001876F9B
:104ED0000F0E886F2DC089F02EC08AF02DC0C3F050
:104EE0002EC0C4F0000EC4BFFF0EC56FC66FCB51FD
:104EF000C3258B6FCC51C4218C6FCD51C5218D6FD3
:104F0000CE51C6218E6F77EC22F000D0010E8FD0EB
:104F1000D0D000D00001ED5123E0B0EC5DF0C70E21
:104F20000001876F0E0E886F2DC089F02EC08AF0A9
:104F30002DC0C3F02EC0C4F0000EC4BFFF0EC56F5D
:104F4000C66FCB51C3258B6FCC51C4218C6FCD5113
:104F5000C5218D6FCE51C6218E6F77EC22F000D027
:104F60000101342B34050001C36F770EC365A1D056
:104F700000D00001ED510AE0B0EC5DF0310E00010F
:104F8000876F1D0E886F77EC22F000D01EC0D1F025
:104F900090D00101346B36EC54F0010E0001D16F5A
:104FA0000B0E1F6E070E08D0F0EC4CF0010E000146
:104FB000D16F080E11D00B0E1E6E7BD05CEC4DF045
:104FC000010E0001D16F090E07D0F5D7F4EC33F0D4
:104FD000010E0001D16F0A0E1F6EEDD70101346B77
:104FE00040EC32F0010E0001D16F040E1F6E050E71
:104FF000E3D70101008B00D00001ED5112E0B0ECCD
:105000005DF0A40E0001876F1D0E886F190E896F69
:105010001A0E8A6F8911D8A4000E8B6F77EC22F0DC
:1050200000D0010E0E6E79EC61F0106E23D00001FD
:10503000D16F3FD0D4EC4FF01DD00101008B00D0D8
:105040000001ED5112E0B0EC5DF0A40E0001876F9D
:105050001D0E886F190E896F1A0E8A6F8911D8A4D8
:10506000000E8B6F77EC22F000D01AEC5FF002D0CC
:105070001AEC5FF0000EDBD71CD00001D151010A01
:1050800001E1C9D5030A01E1D4D6010AA7E0070A64
:10509000EFE0010AD2E0030A01E17BD7010A84E0D4
:1050A0000F0A8CE0010A92E0030AC4E0010AA1E0C1
:1050B00000D00001D15112001200B7C0BCF0B8C03E
:1050C000BDF0B9C0BFF0BAC0C0F00001BE6B0001B6
:1050D000C26B010EC16FBFC0D9FFC0C0DAFF0F0E97
:1050E000DF6E000120EE01F0BF51D926C051DA2257
:1050F000C1C0DFFF000120EE02F0BF51D926C05130
:10510000DA22C251DF6E000120EE01F0B751D9263C
:10511000B851DA22DE0401E195D1B9C0B2F0BAC0CB
:10512000B3F0240EB46F9CEC58F0000E12008AD13C
:105130000001C26B0F0EC16F040E0001BF25716F1D
:10514000000EC021726F310E736F020E746F7311F7
:10515000D8A4200E756FC1C076F0C2C077F01DECE8
:105160005AF0A3D10001C26B110EC16F040E0001F1
:10517000BF25716F000EC021726F200E736F020E7B
:10518000746F7311D8A4200E756FC1C076F0C2C0C1
:1051900077F01DEC5AF089D10001C26B020EC16F8D
:1051A000040E0001BF25716F000EC021726F8F0EBB
:1051B000736F020E746F7311D8A4200E756FC1C087
:1051C00076F0C2C077F01DEC5AF06FD10001C26BCF
:1051D000020EC16F040E0001BF25716F000EC021C9
:1051E000726F910E736F020E746F7311D8A4200E3C
:1051F000756FC1C076F0C2C077F01DEC5AF055D182
:105200000001C26B020EC16F040E0001BF25716F59
:10521000000EC021726F930E736F020E746F7311C4
:10522000D8A4200E756FC1C076F0C2C077F01DEC17
:105230005AF03BD10001C26B080EC16F040E000191
:10524000BF25716F000EC021726F950E736F020E35
:10525000746F7311D8A4200E756FC1C076F0C2C0F0
:1052600077F01DEC5AF021D10001C26B040EC16F22
:10527000040E0001BF25716F000EC021726F9D0EDC
:10528000736F020E746F7311D8A4200E756FC1C0B6
:1052900076F0C2C077F01DEC5AF007D10001C26B66
:1052A000020EC16F040E0001BF25716F000EC021F8
:1052B000726FA10E736F020E746F7311D8A4200E5B
:1052C000756FC1C076F0C2C077F01DEC5AF0EDD01A
:1052D0000001C26B020EC16F040E0001BF25716F89
:1052E000000EC021726FA30E736F020E746F7311E4
:1052F000D8A4200E756FC1C076F0C2C077F01DEC47
:105300005AF0D3D00001C26B060EC16F040E00012B
:10531000BF25716F000EC021726F400E736F020EB9
:10532000746F7311D8A4200E756FC1C076F0C2C01F
:1053300077F01DEC5AF0B9D00001C26B050EC16FB9
:10534000040E0001BF25716F000EC021726F460E62
:10535000736F020E746F7311D8A4200E756FC1C0E5
:1053600076F0C2C077F01DEC5AF09FD00001C26BFE
:10537000200EC16F040E0001BF25716F000EC02109
:10538000726F4B0E736F020E746F7311D8A4200EE0
:10539000756FC1C076F0C2C077F01DEC5AF085D0B1
:1053A0000001C26B200EC16F040E0001BF25716F9A
:1053B000000EC021726F6B0E736F020E746F73114B
:1053C000D8A4200E756FC1C076F0C2C077F01DEC76
:1053D0005AF06BD00001C26B020EC16F040E0001C7
:1053E000BF25716F000EC021726F8B0E736F020E9E
:1053F000746F7311D8A4200E756FC1C076F0C2C04F
:1054000077F01DEC5AF051D00001C26B020EC16F53
:10541000040E0001BF25716F000EC021726F8D0E4A
:10542000736F020E746F7311D8A4200E756FC1C014
:1054300076F0C2C077F01DEC5AF037D01F0E000195
:10544000BE6F33D0000120EE03F0BC51D926BD5110
:10545000DA22DF50010A01E16BD6030A01E182D6AC
:10546000010A01E199D6070A01E1E4D6010A01E146
:10547000FBD6030A01E112D7010A01E129D70F0A7D
:1054800001E1A4D6010A01E1BBD6280A01E13AD71D
:10549000030A01E151D7010A01E168D7070A80E058
:1054A000010A98E0030AB0E0C9D70001C14BC22B42
:1054B000BFC0D9FFC0C0DAFF0F0EDF6E000120EEC3
:1054C00001F0BF51D926C051DA22C1C0DFFF20EE62
:1054D00002F0BF51D926C051DA22C251DF6E00015D
:1054E000BE5109E0B9C0B2F0BAC0B3F0BEC0B4F06A
:1054F0009CEC58F00AD0000120EE03F0BF51D926F1
:10550000C051DA22000EDF6E00D0010E0001ED6501
:10551000000CB0EC5DF0F30E0001876F130E886F86
:1055200020EE03F0BC51D926BD51DA22DF502EEC1B
:1055300047F020EE89F071C0DEFF72C0DEFFDD6A49
:10554000000120EE03F0BF51D926C051DA22DF500E
:10555000BB6FBB518C6F8D6B77EC22F0000C000C95
:1055600012000201A351AD5DAE51800A0001BB6F74
:105570000201A451800A0001BB5905E3ADC21CF031
:10558000AEC21DF004D0A3C21CF0A4C21DF0ADC277
:1055900032F1AEC233F122EEA3F0DECFBBF0DDCFAD
:1055A000BCF00001BB1FBC1FBB4BBC2B0201A151B7
:1055B0000001BB270201A2510001BC23BB51BC1159
:1055C0000CE1000E01010A6F0B6F0C6F0D6F226F63
:1055D000236F246F256F0F0E1200A5C279F0A6C2AB
:1055E0007AF0A7C27BF0A8C27CF012EC59F079C027
:1055F00086F07AC087F07BC088F0A9C279F0AAC291
:105600007AF05DEC5EF079C083F07AC084F07BC004
:1056100085F0BCEC48F083C091F084C092F085C066
:1056200093F022EEA3F0DECFBBF0DDCFBCF00001A3
:10563000BB1FBC1FBB4BBC2B0201A1510001BB25F2
:10564000796F0201A2510001BC217A6F5DEC5EF01E
:1056500079C094F07AC095F07BC096F0B8EC4AF02F
:10566000000193AF57D0A36BA46BBF0EA56F22EEC2
:10567000A3F0DECFBBF0DDCFBCF0BB1FBC1FBB4B2C
:10568000BC2B0201A1510001BB25796F0201A2517F
:105690000001BC217A6F5DEC5EF079C094F07AC0B5
:1056A00095F07BC096F0A5C279F0A6C27AF0A7C2A9
:1056B0007BF0A8C27CF012EC59F079C086F07AC079
:1056C00087F07BC088F0A9C279F0AAC27AF05DECBD
:1056D0005EF079C083F07AC084F07BC085F0BCECCA
:1056E00048F083C091F084C092F085C093F0B8EC8C
:1056F0004AF091C0A0F092C0A1F093C0A2F0E3ECF8
:105700003DF0A0C0ACF0A1C0ADF0A2C0AEF03EEC48
:1057100049F057D00001A36BA46B3F0EA56F22EE9A
:10572000A3F0DECFBBF0DDCFBCF0BB1FBC1FBB4B7B
:10573000BC2B0201A1510001BB25796F0201A251CE
:105740000001BC217A6F5DEC5EF079C094F07AC004
:1057500095F07BC096F0A5C279F0A6C27AF0A7C2F8
:105760007BF0A8C27CF012EC59F079C086F07AC0C8
:1057700087F07BC088F0A9C279F0AAC27AF05DEC0C
:105780005EF079C083F07AC084F07BC085F0BCEC19
:1057900048F083C091F084C092F085C093F0B8ECDB
:1057A0004AF091C0A0F092C0A1F093C0A2F0E3EC47
:1057B0003DF0A0C0ACF0A1C0ADF0A2C0AEF03EEC98
:1057C00049F0ACC00AF1ADC00BF1AEC00CF1AFC0F6
:1057D0000DF1A5C279F0A6C27AF0A7C27BF0A8C2EB
:1057E0007CF012EC59F079C086F07AC087F07BC06B
:1057F00088F0ABC279F0ACC27AF05DEC5EF079C0B3
:1058000083F07AC084F07BC085F0BCEC48F083C0A4
:1058100091F084C092F085C093F022EEA3F0DECF29
:10582000BBF0DDCFBCF00001BB1FBC1FBB4BBC2BD2
:105830000201A1510001BB25796F0201A2510001B3
:10584000BC217A6F5DEC5EF079C094F07AC095F07F
:105850007BC096F0B8EC4AF0000193AF57D0A36B31
:10586000A46BBF0EA56F22EEA3F0DECFBBF0DDCFA1
:10587000BCF0BB1FBC1FBB4BBC2B0201A1510001E4
:10588000BB25796F0201A2510001BC217A6F5DEC4A
:105890005EF079C094F07AC095F07BC096F0A5C216
:1058A00079F0A6C27AF0A7C27BF0A8C27CF012EC15
:1058B00059F079C086F07AC087F07BC088F0ABC21F
:1058C00079F0ACC27AF05DEC5EF079C083F07AC01A
:1058D00084F07BC085F0BCEC48F083C091F084C0BC
:1058E00092F085C093F0B8EC4AF091C0A0F092C05D
:1058F000A1F093C0A2F0E3EC3DF0A0C0ACF0A1C0D9
:10590000ADF0A2C0AEF03EEC49F057D00001A36B61
:10591000A46B3F0EA56F22EEA3F0DECFBBF0DDCF70
:10592000BCF0BB1FBC1FBB4BBC2B0201A151000133
:10593000BB25796F0201A2510001BC217A6F5DEC99
:105940005EF079C094F07AC095F07BC096F0A5C265
:1059500079F0A6C27AF0A7C27BF0A8C27CF012EC64
:1059600059F079C086F07AC087F07BC088F0ABC26E
:1059700079F0ACC27AF05DEC5EF079C083F07AC069
:1059800084F07BC085F0BCEC48F083C091F084C00B
:1059900092F085C093F0B8EC4AF091C0A0F092C0AC
:1059A000A1F093C0A2F0E3EC3DF0A0C0ACF0A1C028
:1059B000ADF0A2C0AEF03EEC49F0ACC022F1ADC0FB
:1059C00023F1AEC024F1AFC025F100D0000E1200CB
:1059D00012000001C26BBC6BB86BB96BC36BC46BBC
:1059E000C56BBD6BBE6BC06BBF6B020E0001B225F9
:1059F000C86F000EB321C96FC8C0D9FFC9C0DAFF94
:105A0000DF500001B66F0001C84BC92BC8C0D9FFD9
:105A1000C9C0DAFFDF500001B76F0001C84BC92BC6
:105A2000C8C0D9FFC9C0DAFFDF500001C16F000153
:105A3000C84BC92B490E0001C16507D1240E1200C5
:105A400004D1C8C0D9FFC9C0DAFFDF500001BA6F66
:105A50000001C84BC92BC8C0D9FFC9C0DAFFDF504D
:105A60000001C76FC84BC92BCAD0130E0001C76510
:105A700002D0240E12000001C66B16D00001C651E0
:105A8000010DF350C825D96EF450C921DA6EC65104
:105A9000010D540EF324E16E010EF420E26EDFCF0F
:105AA000E7FF0001C62B00D00001C751C65DE6E349
:105AB000C7C07AF1010E0001C26FBBD0130E000106
:105AC000C76502D0240E12000001C66B16D000017B
:105AD000C651010DF350C825D96EF450C921DA6EB4
:105AE000C651010D670EF324E16E010EF420E26E43
:105AF000DFCFE7FF0001C62B00D00001C751C65D14
:105B0000E6E3010E0001BC6F94D00001C70506E179
:105B1000C8C0D9FFC9C0DAFFDE0402E0240E1200BB
:105B2000010E0001B86F85D0020E0001C71910E107
:105B3000C8C0D9FFC9C0DAFF430EDE1809E120EE64
:105B400001F0C851D926C951DA22430EDE1871E09E
:105B5000240E12006ED00001C70508E1C8C0D9FFAD
:105B6000C9C0DAFF020EDF6403D000D0240E120099
:105B7000010E0001B96F5DD00001C70508E1C8C082
:105B8000D9FFC9C0DAFF030EDF6403D000D0240EB2
:105B90001200010E0001C36F4CD00001C70502E0E6
:105BA000240E1200010E0001C46F43D0020E00014A
:105BB000C71902E0240E1200010E0001C56F39D092
:105BC0000001C70506E1C8C0D9FFC9C0DAFFDE2859
:105BD00002E1240E1200C8C0D9FFC9C0DAFFDF50AD
:105BE0000001BB6F010E0001BD6F23D00001C75142
:105BF00002E0240E1200010E0001BE6F1AD0000157
:105C0000BA51010A01E131D7030ADAE0010A01E1E0
:105C100055D7070A01E179D7010ABFE0030A84E0FA
:105C2000010AE4E00E0A97E01D0AA6E0010ABEE0C0
:105C300000D00001C751010DF350C827F450C9230B
:105C40000001C751020FC15F00D00001C15101E046
:105C5000F8D60001BE051DE1010E0001ED650AD078
:105C6000B0EC5DF0870E0001876F170E886F77EC40
:105C700022F000D0B2C0D9FFB3C0DAFFDE2805E0C1
:105C8000E4EC55F0010E286E02D0FF0000D0000EAB
:105C900012000001C30504E0C40502E0C5050AE1E5
:105CA000C4C071F0C5C072F00001C3512BEC40F0CC
:105CB000000E12000001C20530E1BC052EE1010119
:105CC0003F5129E17A510FE0540E0001716F010E2E
:105CD000726F670E736F010E746F7AC175F039ECD5
:105CE00044F010D000D0010E0001ED650AD0B0ECF8
:105CF0005DF0DE0E0001876F1B0E886F77EC22F0DF
:105D000000D0010E0001C06F00D00001C00503E10A
:105D100042EC42F000D0000E12000001C20529E161
:105D2000BD0527E1670E716F010E726F746B7369A9
:105D30007AC175F0766B7EEC5FF0540E0001716FE6
:105D4000010E726F670E736F010E746F7AC175F07A
:105D50006CEC52F00001BF6F0001BF0508E1BBC051
:105D60003FF1010E0101406FB5EC47F000D0000E8D
:105D70001200240C1200050E0001E56FE66BE46BC7
:105D8000D0A0D0B205D00001E56BD080D08219D070
:105D9000D0A0D0A205D0010E0001E56FD08011D0B7
:105DA000D0B402D0020E03D0D0B604D0030E00014E
:105DB000E56F07D0D0B805D0040E0001E56FD0889C
:105DC00000D049EC61F0C09083EC59F081503F0B5A
:105DD0000001E66F00D0B0EC5DF0C60E0001876FE9
:105DE0000A0E886F77EC22F000D0B0EC5DF01E0E4A
:105DF0000001876F1E0E886FF00E896F080E8A6F84
:105E0000000E8B6F77EC22F000D0B0EC5DF0530EFB
:105E10000001876F1D0E886F960E896F1E0E8A6FA8
:105E20008911D8A4000E8B6FC90E8C6F1E0E8D6F5A
:105E30008C11D8A4000E8E6F77EC22F000D0B0EC5D
:105E40005DF0720E0001876F1A0E886F010EE6BBBF
:105E5000000E896F8A6B010EE6B9000E8B6F8C6B9A
:105E6000010EE6B7000E8D6F8E6B010EE6B5000ECB
:105E70008F6F906B010EE6B3000E916F926B010E67
:105E8000E6B1000E936F946B77EC22F000D0814462
:105E9000E846030B0001E46F030E0001E4194CE037
:105EA000B0EC5DF0B40E0001876F1D0E886F77ECCB
:105EB00022F042D000D0B0EC5DF0970E0001876F69
:105EC0001C0E886F77EC22F044D000D0B0EC5DF06F
:105ED0002A0E0001876F1C0E886F77EC22F039D0F4
:105EE00000D0B0EC5DF07E0E0001876F1B0E886F56
:105EF00077EC22F02ED000D0B0EC5DF0D50E000192
:105F0000876F170E886F77EC22F023D000D0B0ECAB
:105F10005DF0CF0E0001876F160E886F77EC22F0D0
:105F200018D000D0B0EC5DF0420E0001876F1D0E5E
:105F3000886F77EC22F00DD00001E551BCE0010A3A
:105F4000C5E0030ACEE0010AD7E0070AE0E0010A53
:105F5000E9D730EC61F089EC60F0D8EC60F059ECF6
:105F60001AF027EC5CF0C8EC4DF0CAEC60F03DECA8
:105F700060F050EC60F001013F6B0101406B410E9D
:105F80000001716F010E726FF90E736F1E0E746F48
:105F90007311D8A4000E756F776B020E766F1DEC2F
:105FA0005AF0430E0001716F010E726F000E736F95
:105FB000020E746F7311D8A4200E756F776B110EDB
:105FC000766F1DEC5AF0010E0101376FC08080EC36
:105FD0000FF000D0B0EC5DF0EA0E0001876F160EF6
:105FE000886F77EC22F000D0B0EC5DF0C60E0001B7
:105FF000876F0A0E886F77EC22F000D00400000152
:10600000E76B040E0001E76501D0F8D70001E75106
:106010000C0D090EF326000EF422B10EF324D96EF6
:10602000010EF420DA6EDE50DE10DE1066E0E7517D
:106030000C0DB10EF324D96E010EF420DA6EE75187
:106040000C0D040EF326000EF422B10EF324E16EC3
:10605000010EF420E26EDE50E65CDE50E658DE50C3
:10606000E658DE50E65849E3E7510C0D090EF326D9
:10607000000EF422B10EF324D96E010EF420DA6E74
:1060800001D818D00500FA6EDE50FD6EDE50FE6EAF
:10609000DE50FF6EFA500001E7510C0D080EF3269A
:1060A000000EF422B10EF324D96E010EF420DA6E44
:1060B000DF5012000301E06F0001E7510C0D080EE4
:1060C000F326000EF422B10EF324D96E010EF42053
:1060D000DA6EE0C3DFFF0001E7510C0D040EF3267A
:1060E000000EF422B10EF324D96E010EF420DA6E04
:1060F000DE6ADE6ADE6ADD6A00D00001E72B81D746
:106100007DD771EF04F0B7C0C2F0B8C0C3F0B9C01A
:10611000BDF0BAC0BEF00001BF6B000120EE01F07F
:10612000C251D926C351DA22DF50BB6FFF0EBB2507
:10613000C06FC16BFF0EC12311D1310E0001716F11
:10614000020E726F040EC225BB6F000EC321BC6F1E
:10615000BBC073F0BCC074F073517411D8A4200E8E
:10616000756F776B0F0E766F1DEC5AF00F0E0001F6
:10617000C019C11120E1E88725D1200E0001716FFF
:10618000020E726F040EC225BB6F000EC321BC6FDE
:10619000BBC073F0BCC074F073517411D8A4200E4E
:1061A000756F776B110E766F1DEC5AF0110E0001B2
:1061B000C019C11102E0240E25D00001E88502D1EA
:1061C00000D01D0E1FD0400E0001716F020E726FC5
:1061D000040EC225BB6F000EC321BC6FBBC073F0A1
:1061E000BCC074F073517411D8A4200E756F776B16
:1061F000060E766F1DEC5AF0060E0001C019C11193
:1062000004E0D9D70001BF6FDDD00001E889DAD002
:10621000460E0001716F020E726F040EC225BB6F35
:10622000000EC321BC6FBBC073F0BCC074F07351CF
:106230007411D8A4200E756F776B050E766F1DEC68
:106240005AF0050E0001C019C111B5E1E88BBAD0B2
:106250004B0E0001716F020E726F040EC225BB6FF0
:10626000000EC321BC6FBBC073F0BCC074F073518F
:106270007411D8A4200E756F776B200E766F1DEC0D
:106280005AF0200E0001C019C11195E1E88D9AD095
:106290006B0E0001716F020E726F040EC225BB6F90
:1062A000000EC321BC6FBBC073F0BCC074F073514F
:1062B0007411D8A4200E756F776B200E766F1DECCD
:1062C0005AF0200E0001C019C11101E074D7E88F07
:1062D00079D08B0E0001716F020E726F040EC22511
:1062E000BB6F000EC321BC6FBBC073F0BCC074F0A9
:1062F00073517411D8A4200E756F776B020E766FF0
:106300001DEC5AF0020E0001C019C11101E053D773
:10631000E98158D08D0E0001716F020E726F040E6C
:10632000C225BB6F000EC321BC6FBBC073F0BCC0E5
:1063300074F073517411D8A4200E756F776B020E30
:10634000766F1DEC5AF0020E0001C019C11101E078
:1063500032D7E98337D01F0E55D734D0000120EE55
:1063600003F0C251D926C351DA22DF50010A01E1FC
:10637000E4D6030A01E101D7010A01E122D7070AA5
:1063800001E11FD7010A01E11CD7030A01E119D776
:10639000010A01E116D70F0A01E113D7010A01E151
:1063A00010D7280A01E10FD7030A01E131D7010A0A
:1063B00001E14ED7070A01E16BD7010A8AE0030A1F
:1063C000A9E0C9D7BDC0D9FFBEC0DAFF0E0EDF6E8F
:1063D0000001C16B010EC06F000120EE01F0BD5144
:1063E000D926BE51DA22C0C0DFFF000120EE02F044
:1063F000BD51D926BE51DA22C151DF6E0001BF5115
:1064000009E0B9C0B2F0BAC0B3F0BFC0B4F09CECC0
:1064100058F00AD0000120EE03F0BD51D926BE513C
:10642000DA22000EDF6E00D0010E0001ED65000CD7
:10643000B0EC5DF0110E0001876F140E886F20EE36
:1064400003F0C251D926C351DA22DF502EEC47F0B7
:1064500020EE89F071C0DEFF72C0DEFFDD6A000150
:1064600020EE03F0BD51D926BE51DA22DF50BB6FBA
:10647000BB518C6F8D6B77EC22F0000C000C12007E
:1064800011C015F012C016F013C017F014C018F0A8
:10649000A5C279F0A6C27AF0A7C27BF0A8C27CF0B0
:1064A00012EC59F079C086F07AC087F07BC088F092
:1064B00032C1BBF033C1BCF00001BB1FBC1FBB4BE2
:1064C000BC2B1C50BB25796F1D50BC217A6F5DEC35
:1064D0005EF079C083F07AC084F07BC085F0BCECBC
:1064E00048F083C091F084C092F085C093F022EE12
:1064F000A3F0DECFBDF0DDCFBEF00001BD1FBE1F9B
:10650000BD4BBE2B0201A1510001BD25796F0201D7
:10651000A2510001BE217A6F5DEC5EF079C094F06B
:106520007AC095F07BC096F0B8EC4AF0000193AFCA
:1065300062D0A36BA46BBF0EA56F22EEA3F0DECFDB
:10654000BBF0DDCFBCF0BB1FBC1FBB4BBC2B0201A3
:10655000A1510001BB25796F0201A2510001BC21AC
:106560007A6F5DEC5EF079C094F07AC095F07BC0F4
:1065700096F0A5C279F0A6C27AF0A7C27BF0A8C2B5
:106580007CF012EC59F079C086F07AC087F07BC0BD
:1065900088F032C1BDF033C1BEF00001BD1FBE1F87
:1065A000BD4BBE2B1C50BD25796F1D50BE217A6F8F
:1065B0005DEC5EF079C083F07AC084F07BC085F03A
:1065C000BCEC48F083C091F084C092F085C093F099
:1065D000B8EC4AF091C0A0F092C0A1F093C0A2F034
:1065E000E3EC3DF0A0C0ACF0A1C0ADF0A2C0AEF0B5
:1065F0003EEC49F062D00001A36BA46B3F0EA56F87
:1066000022EEA3F0DECFBBF0DDCFBCF0BB1FBC1F82
:10661000BB4BBC2B0201A1510001BB25796F0201CC
:10662000A2510001BC217A6F5DEC5EF079C094F05C
:106630007AC095F07BC096F0A5C279F0A6C27AF038
:10664000A7C27BF0A8C27CF012EC59F079C086F0AA
:106650007AC087F07BC088F032C1BDF033C1BEF094
:106660000001BD1FBE1FBD4BBE2B1C50BD25796F49
:106670001D50BE217A6F5DEC5EF079C083F07AC068
:1066800084F07BC085F0BCEC48F083C091F084C0FE
:1066900092F085C093F0B8EC4AF091C0A0F092C09F
:1066A000A1F093C0A2F0E3EC3DF0A0C0ACF0A1C01B
:1066B000ADF0A2C0AEF03EEC49F0ACC011F0ADC000
:1066C00012F0AEC013F0AFC014F000D01C500201A5
:1066D000AD5DAE51800A0001BB6F1D50800ABB59F1
:1066E0001AE20201B0510FE129500DE101010A51F6
:1066F00011260B5112220C5113220D511422010E9E
:1067000001013C6F00D00201B00524E0010E1ED053
:106710000001EA891FD00201B00503E101013C51EB
:1067200005E00201B0510EE129040CE101010A511A
:10673000115E0B51125A0C51135A0D51145A010E7D
:10674000296E00D00201B05105E0000E0201B06FC9
:10675000DFD700D015C0BBF016C0BCF017C0BDF02D
:1067600018C0BEF00001BB1FBC1FBD1FBE1FBB2B4E
:10677000000EBC23BD23BE231150BB25096E125051
:10678000BC210A6E1350BD210B6E1450BE210C6E3D
:1067900000D00001ED51D8B41200B0EC5DF0490E0C
:1067A0000001876F0A0E886F1CC089F01DC08AF037
:1067B00011C08BF012C08CF013C08DF014C08EF09D
:1067C00015C08FF016C090F017C091F018C092F06D
:1067D00009C093F00AC094F00BC095F00CC096F07D
:1067E00077EC22F01200120011C015F012C016F062
:1067F00013C017F014C018F000D00001ED510AE0EA
:10680000B0EC5DF0BB0E0001876F170E886F77EC60
:1068100022F000D00201A351AD5DAE51800A00010B
:10682000BB6F0201A451800A0001BB5905E3ADC250
:106830001CF0AEC21DF005D0A3C21CF0A4C21DF016
:1068400000D0000E0101336F326F010E296E02017C
:10685000B05104E0B06B0001EA8900D0A5C279F024
:10686000A6C27AF0A7C27BF0A8C27CF012EC59F065
:1068700079C086F07AC087F07BC088F022EEA3F062
:10688000DECFBBF0DDCFBCF00001BB1FBC1FBB4B9C
:10689000BC2B1C50BB25796F1D50BC217A6F5DEC61
:1068A0005EF079C083F07AC084F07BC085F0BCECE8
:1068B00048F083C091F084C092F085C093F022EE3E
:1068C000A3F0DECFBDF0DDCFBEF00001BD1FBE1FC7
:1068D000BD4BBE2B0201A1510001BD25796F020104
:1068E000A2510001BE217A6F5DEC5EF079C094F098
:1068F0007AC095F07BC096F0B8EC4AF0000193AFF7
:1069000064D0A36BA46BBF0EA56F22EEA3F0DECF05
:10691000BBF0DDCFBCF0BB1FBC1FBB4BBC2B0201CF
:10692000A1510001BB25796F0201A2510001BC21D8
:106930007A6F5DEC5EF079C094F07AC095F07BC020
:1069400096F0A5C279F0A6C27AF0A7C27BF0A8C2E1
:106950007CF012EC59F079C086F07AC087F07BC0E9
:1069600088F022EEA3F0DECFBDF0DDCFBEF0000157
:10697000BD1FBE1FBD4BBE2B1C50BD25796F1D50CA
:10698000BE217A6F5DEC5EF079C083F07AC084F04E
:106990007BC085F0BCEC48F083C091F084C092F0DD
:1069A00085C093F0B8EC4AF091C0A0F092C0A1F07D
:1069B00093C0A2F0E3EC3DF0A0C0ACF0A1C0ADF0FC
:1069C000A2C0AEF03EEC49F064D00001A36BA46B12
:1069D0003F0EA56F22EEA3F0DECFBBF0DDCFBCF003
:1069E000BB1FBC1FBB4BBC2B0201A1510001BB252F
:1069F000796F0201A2510001BC217A6F5DEC5EF05B
:106A000079C094F07AC095F07BC096F0A5C279F079
:106A1000A6C27AF0A7C27BF0A8C27CF012EC59F0B3
:106A200079C086F07AC087F07BC088F022EEA3F0B0
:106A3000DECFBDF0DDCFBEF00001BD1FBE1FBD4BE0
:106A4000BE2B1C50BD25796F1D50BE217A6F5DECA9
:106A50005EF079C083F07AC084F07BC085F0BCEC36
:106A600048F083C091F084C092F085C093F0B8ECF8
:106A70004AF091C0A0F092C0A1F093C0A2F0E3EC64
:106A80003DF0A0C0ACF0A1C0ADF0A2C0AEF03EECB5
:106A900049F0ACC011F0ADC012F0AEC013F0AFC001
:106AA00014F000D001010A51115E0B51125A0C5121
:106AB000135A0D51145A15C0BBF016C0BCF017C0C4
:106AC000BDF018C0BEF00001BB1FBC1FBD1FBE1F24
:106AD000BB2B000EBC23BD23BE231150BB25096E6A
:106AE0001250BC210A6E1350BD210B6E1450BE21F2
:106AF0000C6E00D00001ED51D8B41200B0EC5DF086
:106B0000090E0001876F0A0E886F1CC089F01DC036
:106B10008AF011C08BF012C08CF013C08DF014C03D
:106B20008EF015C08FF016C090F017C091F018C00D
:106B300092F009C093F00AC094F00BC095F00CC01D
:106B400096F077EC22F0120012000001BB6F0001FA
:106B5000BA6B800EBD6F030EBE6F15D120D1F8EC5D
:106B60005DF000D0010E0001ED650AD0B0EC5DF0E3
:106B70001F0E0001876F170E886F77EC22F000D090
:106B8000030EFED00101C50501E109D102D007D1F4
:106B900000D001017F51000881250001BC6F010E6A
:106BA0000001ED650DD0B0EC5DF0640E0001876F63
:106BB0001D0E886FBCC089F08A6B77EC22F000D084
:106BC000400E0001BC6101D0B8D07F0E00017D6F86
:106BD000010E7E6F800E7F6F030E806F400E816FFF
:106BE0001CEC39F04E0470E1BDC071F0BEC072F013
:106BF000E80E0001736F1E0E746F766B050E756FD5
:106C00008FEC54F000017151721111E00001ED514F
:106C10000AE0B0EC5DF0560E0001876F1E0E886F23
:106C200077EC22F000D0010E01013A6F00D0000194
:106C300020EE05F0BD51D926BE51DA22DE0411E066
:106C40000001ED510AE0B0EC5DF0840E0001876FA9
:106C50001D0E886F77EC22F000D0010E01013A6F13
:106C600000D00001ED5130E0B0EC5DF0040E000109
:106C7000876F0B0E886F0C0EBD25B86F000EBE21FE
:106C8000B96F20EE89F0B8C0DEFFB9C0DEFF200E7C
:106C9000DF6E20EE06F0BD51D926BE51DA22DECFDE
:106CA0008CF0DECF8DF0DECF8EF0DECF8FF020EED9
:106CB0003EF0BD51D926BE51DA22DECF90F0DDCFB5
:106CC00091F077EC22F000D00101215120112AE14E
:106CD000FC0E1F5DD8B026D01AC1B2F01BC1B3F0B4
:106CE0001CC1B4F01DC1B5F0800E0001B66F030EDB
:106CF000B76F9FEC4EF04E040DE1000120EE3EF028
:106D0000BD51D926BE51DA22DECF2EF1DDCF2FF1D3
:106D10004E6A00D0400E01011A27000E1B231C23CF
:106D20001D2303D0010E01013A6F010E0001BA6F5D
:106D3000400E0001BC612DD700D00001BA052FE143
:106D4000010E0E6E000E106EBA6F29D000D0010E2B
:106D50000001ED650AD0B0EC5DF0210E0001876FF7
:106D6000180E886F77EC22F000D05A0E01012E1910
:106D700006E15A0E2F19D8A402D0010E246E000E7F
:106D80000001BB6F0CD00001BB5109E0010A01E119
:106D9000E6D6030ADCE0010A01E1F4D600D00001E6
:106DA000BB5112001200000120EE02F07D51D926E5
:106DB0007E51DA22DF50826F7DC0D9FF7EC0DAFFBC
:106DC000DF5000088225886F00018151D8B412007D
:106DD000815188C082F0836B8227000E832320EECE
:106DE00004F07D51D9267E51DA228251DE5C835136
:106DF000DE58D8A0120001D0120000018151826F2C
:106E0000836B20EE04F07D51D9267E51DA22DECF4D
:106E100084F0DDCF85F020EE02F07D51D9267E5141
:106E2000DA22DECF86F0DDCF87F0861F871F864B04
:106E3000872B84518627855187238251865D835114
:106E4000875952E320EE02F07D51D9267E51DA2295
:106E5000DECF82F0DDCF83F020EE06F07D51D92623
:106E60007E51DA22DECF84F0DDCF85F08251842599
:106E7000716F83518521726F7FC073F080C074F091
:106E800073517411D8A4200E756F81C076F0776BA2
:106E90001DEC5AF0000120EE02F07D51D9267E5102
:106EA000DA228151DE26000EDD22000120EE04F000
:106EB0007D51D9267E51DA2210EE02F07D51E12675
:106EC0007E51E222DE50E61803E1DE50E618D8A437
:106ED0001200000120EE02F07D51D9267E51DA2207
:106EE000000EDE6EDD6E1200000120EE04F07D511A
:106EF000D9267E51DA22DECF82F0DDCF83F020EE7C
:106F000002F07D51D9267E51DA22DECF84F0DDCF2A
:106F100085F0841F851F844B852B825184258B6FC0
:106F2000835185218C6F000120EE02F07D51D9261E
:106F30007E51DA22DECF82F0DDCF83F020EE06F044
:106F40007D51D9267E51DA22DECF84F0DDCF85F067
:106F500082518425716F83518521726F7FC073F0D8
:106F600080C074F073517411D8A4200E756F8BC05B
:106F700076F08CC077F01DEC5AF08BC082F08CC09C
:106F800083F00001821F831F824B832B8151822556
:106F9000896F000E83218A6F000120EE06F07D517B
:106FA000D9267E51DA22DECF71F0DDCF72F08B511F
:106FB0007F25826F8C518021836F82C073F083C0E4
:106FC00074F073517411D8A4200E756F89C076F0D7
:106FD0008AC077F01DEC5AF0000120EE02F07D51DE
:106FE000D9267E51DA2289C0DEFF8AC0DDFF120079
:106FF00012000001966B976B986B996B896B8A6B8B
:107000008B6B8C6B8D6B8E6B8F6B906B020E00019C
:107010007F259D6F000E80219E6F9DC0D9FF9EC071
:10702000DAFFDF500001916F00019D4B9E2B9DC048
:10703000D9FF9EC0DAFFDF500001926F00019D4B27
:107040009E2B9DC0D9FF9EC0DAFFDF5000019A6FD2
:1070500000019D4B9E2B490E00019A65DBD0240E4A
:107060001200D8D09DC0D9FF9EC0DAFFDF500001CA
:10707000956F00019D4B9E2B9DC0D9FF9EC0DAFFEE
:10708000DF5000019C6F9D4B9E2BACD0040E000185
:107090009C1902E0240E120000019B6B35D0000108
:1070A0009B5100089C25826FD8908237D8908237F8
:1070B000D8908237F80E82279B51010DF3509D2501
:1070C000D96EF4509E21DA6EDF50836F846B822B71
:1070D00004D0D8900001833784370001822FF9D77C
:1070E00083C085F084C086F0000E86BFFF0E876FD8
:1070F000886F8551891386518A1387518B13885164
:107100008C1300019B2B00D000019C519B5DC7E3B9
:10711000010E0001966F72D0040E00019C1902E06E
:10712000240E120000019B6B35D000019B5100081A
:107130009C25826FD8908237D8908237D89082373A
:10714000F80E82279B51010DF3509D25D96EF45006
:107150009E21DA6EDF50836F846B822B04D0D8902F
:107160000001833784370001822FF9D783C085F06F
:1071700084C086F0000E86BFFF0E876F886F855132
:107180008D1386518E1387518F13885190130001F0
:107190009B2B00D000019C519B5DC7E3010E0001B9
:1071A000976F2CD000019C0502E0240E12009DC0B8
:1071B000D9FF9EC0DAFFDF500001936F010E00017E
:1071C000986F1CD000019C0502E0240E12009DC0A7
:1071D000D9FF9EC0DAFFDF500001946F010E00015D
:1071E000996F0CD000019551050A01E14FD7030AB0
:1071F00093E0010AD7E00F0AE5E000D000019C51BE
:10720000010DF3509D27F4509E2300019C51020F65
:107210009A5F00D000019A5101E024D70001960541
:1072200009E1970507E1980505E1990503E123ECDC
:107230003BF0240C240C1200000120EE02F07D51E2
:10724000D9267E51DA22DF50826F7DC0D9FF7EC001
:10725000DAFFDF5000088225886F00018151D8B421
:1072600012008151885DD8A0120001D012000001E7
:107270008151826F836B20EE04F07D51D9267E51BF
:10728000DA22DECF84F0DDCF85F07DC0D9FF7EC06D
:10729000DAFFDECF86F0DDCF87F0861F871F864BB3
:1072A000872B84518627855187238251865D8351A0
:1072B00087594DE37FC071F080C072F07DC0D9FF67
:1072C0007EC0DAFFDECF82F0DDCF83F020EE06F065
:1072D0007D51D9267E51DA22DECF84F0DDCF85F0D4
:1072E00082518425866F83518521876F86C073F014
:1072F00087C074F073517411D8A4200E756F81C0CB
:1073000076F0776B1DEC5AF0000181517DC0D9FFFA
:107310007EC0DAFFDE26000EDD22000120EE04F042
:107320007D51D9267E51DA227DC0E1FF7EC0E2FF89
:10733000DE50E61803E1DE50E618D8A412007DC046
:10734000D9FF7EC0DAFF000EDE6EDD6E1200000196
:1073500020EE04F07D51D9267E51DA22DECF82F074
:10736000DDCF83F07DC0D9FF7EC0DAFFDECF84F0B1
:10737000DDCF85F0841F851F844B852B82518425AA
:107380008B6F835185218C6F7FC071F080C072F04C
:107390007DC0D9FF7EC0DAFFDECF82F0DDCF83F083
:1073A000000120EE06F07D51D9267E51DA22DECF93
:1073B00084F0DDCF85F082518425866F835185214D
:1073C000876F86C073F087C074F073517411D8A4AE
:1073D000200E756F8BC076F08CC077F01DEC5AF0E4
:1073E0008BC082F08CC083F00001821F831F824B10
:1073F000832B81518225896F000E83218A6F0001C2
:107400008B517F25716F8C518021726F20EE06F0B9
:107410007D51D9267E51DA22DECF82F0DDCF83F096
:1074200082C073F083C074F073517411D8A4200E1D
:10743000756F89C076F08AC077F01DEC5AF07DC078
:10744000D9FF7EC0DAFF89C0DEFF8AC0DDFF1200EF
:107450001200000E0001C86F040EC96F020E010178
:10746000401902E0320E1200000120EE01F0C4517A
:10747000D926C551DA22DF5041EC61F00001C76F17
:107480000001C75101017C1901E0AAD0B3EC5AF008
:10749000E80634E1000120EE03F0C851D926C951B5
:1074A000DA2210C0DFFF070EB7EC59F071C019F0F7
:1074B00072C01AF073C01BF019501A101B1002E1B1
:1074C000260E1200000E0001B76FB86FC8C0B9F0E9
:1074D000C9C0BAF001D80AD00500FA6E1950FD6E85
:1074E0001A50FE6E1B50FF6EFA501200C8C07DF09D
:1074F000C9C07EF082EC4CF0000E12000E500EE17E
:107500000D0409E1320E0F1803E0410E0F1803E1DC
:10751000E4EC5AF0000C82EC5AF0000C0D501AE129
:10752000320E0F1805E0410E0F1802E013D000D004
:10753000010E0001ED650AD0B0EC5DF04C0E0001CB
:10754000876F140E886F77EC22F000D082EC5AF02F
:10755000000C00D0010E0001ED650AD0B0EC5DF02A
:10756000730E0001876F120E886F77EC22F000D047
:107570000D6A0E6A000120EE03F0C851D926C951E8
:10758000DA2210C0DFFF0F50B7EC59F071C019F0CC
:1075900072C01AF073C01BF019501A101B1004E1CE
:1075A00082EC5AF0260E1200000E0001B76FB86F81
:1075B000C8C0B9F0C9C0BAF001D80AD00500FA6E47
:1075C0001950FD6E1A50FE6E1B50FF6EFA501200DD
:1075D000C8C07DF0C9C07EF082EC4CF0000C00D039
:1075E000010E0001ED6518D0B0EC5DF0790E0001E0
:1075F000876F0B0E886FC7C089F08A6B7CC18BF0D8
:107600008C6B7E0E8D6F0D0E8E6F8D11D8A4000EBB
:107610008F6F77EC22F000D027C0ECF0000E000155
:10762000716F030E726F000E736F050E746F73111E
:10763000D8A4200E756FECC076F0776B1DEC5AF075
:10764000000C000C1200000E0001736F030E746F2B
:10765000500E0001756F020E766F776B786B500ECF
:107660000001796F020E7A6F7B6B7C6B7325716FF3
:10767000000E7421726F71C07DF072C07EF073C015
:10768000D9FF74C0DAFF3FC1DFFF000120EE01F037
:107690007351D9267451DA22BF0EDF6E7DC0D9FF37
:1076A0007EC0DAFF810EDF6E00017D4B7E2B7DC038
:1076B000D9FF7EC0DAFF800EDF6E00017D4B7E2B8E
:1076C0007DC0D9FF7EC0DAFF120EDF6E00017D4B58
:1076D0007E2B7DC0D9FF7EC0DAFF050EDF6E000174
:1076E0007D4B7E2B7DC0D9FF7EC0DAFF040EDF6E9E
:1076F00000017D4B7E2B7DC0D9FF7EC0DAFF78C0B4
:10770000DFFF00017D4B7E2B7DC0D9FF7EC0DAFFFD
:1077100077C0DFFF00017D4B7E2B7DC0D9FF7EC08F
:10772000DAFF76C0DFFF00017D4B7E2B7DC0D9FFE5
:107730007EC0DAFF75C0DFFF00017D4B7E2B7DC070
:10774000D9FF7EC0DAFF060EDF6E00017D4B7E2B77
:107750007DC0D9FF7EC0DAFF040EDF6E00017D4BD5
:107760007E2B7DC0D9FF7EC0DAFF7CC0DFFF000129
:107770007D4B7E2B7DC0D9FF7EC0DAFF7BC0DFFF53
:1077800000017D4B7E2B7DC0D9FF7EC0DAFF7AC021
:10779000DFFF00017D4B7E2B7DC0D9FF7EC0DAFF6D
:1077A00079C0DFFF00017D4B7E2B7DC0D9FF7EC0FD
:1077B000DAFF070EDF6E00017D4B7E2B7DC0D9FF07
:1077C0007EC0DAFF010EDF6E00017D4B7E2B7DC097
:1077D000D9FF7EC0DAFF010EDF6E00017D4B7E2BEC
:1077E0007DC0D9FF7EC0DAFF080EDF6E00017D4B41
:1077F0007E2B7DC0D9FF7EC0DAFF010EDF6E000157
:107800007D4B7E2B7DC0D9FF7EC0DAFF010EDF6E7F
:1078100000017D4B7E2B0001715100087D25020F78
:10782000EC6F12001200020E0001C425CD6F000E95
:10783000C521CE6F000EC96F040ECA6FC651FB0F73
:10784000C86F020E0101401902E0320E1200000161
:1078500020EE01F0C451D926C551DA22DF5041ECA7
:1078600061F00001CB6F20EE01F0C451D926C55163
:10787000DA22DF5039EC61F00001CC6F0001CC510D
:1078800001017B192BE0010E0001ED6518D0B0EC71
:107890005DF0400E0001876F0B0E886FCCC089F041
:1078A0008A6B7BC18BF08C6B540E8D6F0D0E8E6FBF
:1078B0008D11D8A4000E8F6F77EC22F000D000015C
:1078C000CC2BCC51070BCC6F0001CC5101017B19A3
:1078D00005E1E4EC5AF0000E120000D00001CB519B
:1078E00001017C1932E0010E0001ED6518D0B0EC09
:1078F0005DF0790E0001876F0B0E886FCBC089F0A9
:107900008A6B7CC18BF08C6B7E0E8D6F0D0E8E6F33
:107910008D11D8A4000E8F6F77EC22F000D027C015
:10792000ECF0000E0001716F030E726F000E736FAA
:10793000050E746F7311D8A4200E756FECC076F02D
:10794000776B1DEC5AF0000E120001017B2B7B516E
:10795000070B7B6F000120EE02F0CD51D926CE51EE
:10796000DA22DF5009E120EE01F0CD51D926CE51C7
:10797000DA22C851DE1802E0240E1200CDC0D9FF71
:10798000CEC0DAFFDF50B7EC59F071C019F072C009
:107990001AF073C01BF019501A101B1002E1260ECA
:1079A0001200CDC0B7F0CEC0B8F0C9C0B9F0CAC09F
:1079B000BAF001D80AD00500FA6E1950FD6E1A50BF
:1079C000FE6E1B50FF6EFA501200330A07E0C9C06A
:1079D0007DF0CAC07EF082EC4CF0000CCDC0D9FF27
:1079E000CEC0DAFFDF500F6E010E0D6EE4EC5AF0E0
:1079F000000C000C1200B7C0BCF0B8C0BDF0B9C09C
:107A0000C0F0BAC0C1F0C0C0D9FFC1C0DAFF050ED6
:107A1000DF6E0001BF6B430EBE6F000120EE01F070
:107A2000C051D926C151DA22BEC0DFFF000120EECD
:107A300002F0C051D926C151DA22BF51DF6E0001D8
:107A400020EE01F0B751D926B851DA22DF500AE012
:107A5000B9C0B2F0BAC0B3F0240EB46F9CEC58F0C9
:107A6000000E1200000120EE04F0C051D926C151D1
:107A7000DA220F0EDF6E050E0001C025716F000EB9
:107A8000C121726F110E736F020E746F7311D8A43F
:107A9000200E756F20EE04F0C051D926C151DA22B4
:107AA000DF50BB6FBB51766F776B1DEC5AF0000156
:107AB00020EE14F0C051D926C151DA22110EDF6E2A
:107AC000150EC025716F000EC121726F000E736F0D
:107AD000020E746F7311D8A4200E756F20EE14F08F
:107AE000C051D926C151DA22DF50BB6FBB51766F2E
:107AF000776B1DEC5AF0000120EE26F0C051D9261C
:107B0000C151DA220F0EDF6E270E0001C025716F02
:107B1000000EC121726F736B090E746F756B20EECE
:107B200026F0C051D926C151DA22DF50BB6FBB51BC
:107B3000766F776B1DEC5AF0000120EE36F0C051E5
:107B4000D926C151DA220F0EDF6E370E0001C02593
:107B5000716F000EC121726FF00E736F080E746F9B
:107B6000756B20EE36F0C051D926C151DA22DF50B4
:107B7000BB6FBB51766F776B1DEC5AF0000120EEA6
:107B800003F0C051D926C151DA22000EDF6E00D0B9
:107B9000010E0001ED65000CB0EC5DF0060E000179
:107BA000876F1B0E886F20EE03F0C051D926C1519C
:107BB000DA22DF50BB6FBB51896F8A6B77EC22F002
:107BC000000C000C1200A2C0A6F00001A76BA86B6D
:107BD000A135A63701E3A7810001A651AB6FA5C06F
:107BE000A6F0A76BA86BA435A63701E3A781000117
:107BF000A651AA6F0001AB510AE0AA51AB5D0EE29B
:107C0000AB510008AA25A66F180EA66507D0A3C021
:107C1000A0F0A4C0A1F0A5C0A2F012000001AA51DA
:107C20000AE0AB51AA5D0EE2AA510008AB25A66F8F
:107C3000180EA66507D0A0C0A0F0A1C0A1F0A2C0F8
:107C4000A2F01200060E0001A96F0001A2BFA98FC9
:107C500000D00001A5BFA98DA18F0001A26BA48F48
:107C60000001A56B0001AA51AB5D1FE20001D89095
:107C7000A337A437A537AA070001AB51AA190FE013
:107C8000A907A9C0A6F0070EA61709E0EFD707D0ED
:107C90000001D890A233A133A033AB2B00D0000158
:107CA000AA51AB1925E0F4D723D00001AB51AA5D4E
:107CB0001FE20001D890A037A137A237AB0700011F
:107CC000AB51AA190FE0A907A9C0A6F0070EA61785
:107CD00009E0EFD707D00001D890A533A433A33330
:107CE000AA2B00D00001AA51AB1902E0F4D700D0B2
:107CF0000001A9AF07D0A01FA11FA21FA02B000E3B
:107D0000A123A2230001A9AD08D0A31FA41FA51F72
:107D1000A32B000EA423A52300D00001A96B000112
:107D2000A051A327A151A423A251A5230001A5AFCF
:107D30000BD0A31FA41FA51FA32B000EA423A523B4
:107D4000010E0001A96F00D0A3C071F0A4C072F0B1
:107D5000A5C073F0ABC074F0A9C075F080EC53F00F
:107D600071C0A0F072C0A1F073C0A2F012001200A6
:107D7000B7C0BCF0B8C0BDF0B9C0C0F0BAC0C1F067
:107D8000C0C0D9FFC1C0DAFF330EDF6E0001BF6B88
:107D9000010EBE6F000120EE01F0C051D926C15185
:107DA000DA22BEC0DFFF000120EE02F0C051D9266A
:107DB000C151DA22BF51DF6E0001B751B8116BE03B
:107DC00020EE01F0B751D926B851DA22020EDE18A2
:107DD0000AE0B9C0B2F0BAC0B3F0240EB46F9CECA4
:107DE00058F0000E1200000120EE03F0BC51D9261D
:107DF000BD51DA22DECF72F0DDCF73F0A8EC57F080
:107E00000001C26F00D0010E0001ED650DD0B0EC95
:107E10005DF02E0E0001876F1B0E886FC2C089F0C7
:107E20008A6B77EC22F000D00001C25118E0330ECB
:107E3000C2190AE120EE03F0C051D926C151DA225D
:107E4000000EDF6E330E1200B9C0B2F0BAC0B3F04C
:107E5000C2C0B4F09CEC58F0000E120000D0010E2D
:107E60000001ED650DD0B0EC5DF0D50E0001876F1F
:107E7000130E886FC2C089F08A6B77EC22F000D0B5
:107E8000000120EE03F0C051D926C151DA22000EC4
:107E9000DF6E000E1200000120EE03F0C051D92663
:107EA000C151DA22DF50C26F00D0010E0001ED6532
:107EB0000DD0B0EC5DF03A0E0001876F180E886FA0
:107EC000C2C089F08A6B77EC22F000D00001C25169
:107ED00009E0B9C0B2F0BAC0B3F0C2C0B4F09CECD3
:107EE00058F000D0000E120012000001B36FA8D0AD
:107EF00004002A500001ED1941E0ED2BEDC071F0B6
:107F0000726B746B030E736F1CEC57F000017151B0
:107F1000B26F2AD000D00001ED512DE0B0EC5DF041
:107F2000700E0001876F1E0E886F77EC22F023D051
:107F300000D00001ED511FE0B0EC5DF0630E0001D8
:107F4000876F1E0E886F77EC22F015D000D00001ED
:107F5000ED5111E0B0EC5DF07D0E0001876F1E0E5B
:107F6000886F77EC22F007D00001ED51010AD3E0D1
:107F7000030ADFE0ECD7B2C0EDF000D00101264BE0
:107F8000272B26C171F027C172F00001746B640EBB
:107F9000736F1CEC57F00001715172111CE1010E5E
:107FA0000001ED6518D0B0EC5DF0D00E0001876FD8
:107FB000180E886F06C189F007C18AF008C18BF0DE
:107FC00009C18CF077EC22F00101062B000E07238B
:107FD0000823092300D0720E0101261914E1060EB0
:107FE0002719D8A410D0010E0001B36F0001ED5184
:107FF0000AE0B0EC5DF0970E0001876F130E886FFA
:1080000077EC22F000D001013D0504E1276B266BDF
:108010003D6B00D0240402E0280419E1010E0001A8
:10802000B36F0001ED5113E0B0EC5DF0920E000172
:10803000876F170E886F77EC22F009D0FF0007D00A
:108040000001B35101E154D7010AF8E000D000016A
:10805000B351120012000001776F000E0001786F1B
:10806000030E796F020E00017825756F000E7921DD
:10807000766F75C07AF076C07BF078C0D9FF79C092
:10808000DAFF3FC1DFFF000120EE01F07851D92671
:108090007951DA22BF0EDF6E7AC0D9FF7BC0DAFFDA
:1080A000810EDF6E00017A4B7B2B7AC0D9FF7BC03B
:1080B000DAFFF00EDF6E00017A4B7B2B000172516C
:1080C000040DF3CF73F07151030DF3CF74F07751BA
:1080D000030DF350742573257AC0D9FF7BC0DAFFF6
:1080E000DF6E00017A4B7B2B000177051CE17AC023
:1080F000D9FF7BC0DAFF140EDF6E00017A4B7B2BB9
:108100007AC0D9FF7BC0DAFF010EDF6E00017A4B27
:108110007B2B7AC0D9FF7BC0DAFF020EDF6E000135
:108120007A4B7B2B00D0000171051CE17AC0D9FF8E
:108130007BC0DAFF050EDF6E00017A4B7B2B7AC025
:10814000D9FF7BC0DAFF010EDF6E00017A4B7B2B7B
:108150007AC0D9FF7BC0DAFF070EDF6E00017A4BD1
:108160007B2B00D00001720524E17AC0D9FF7BC0CF
:10817000DAFF150EDF6E00017A4B7B2B7AC0D9FF38
:108180007BC0DAFF020EDF6E00017A4B7B2B7AC0D8
:10819000D9FF7BC0DAFF010EDF6E00017A4B7B2B2B
:1081A0007AC0D9FF7BC0DAFFDF6A00017A4B7B2BF4
:1081B00000D00001755100087A25020FEC6F120003
:1081C000120083EC61F0C00E1CEC61F0FC0E1CECA4
:1081D00061F083EC61F0C10E1CEC61F0BF0E000198
:1081E000B26F000EB36F010E3BEC55F00001C26F91
:1081F0000001C25103E17EEC61F01200C10E0001EA
:10820000B26F000EB36F010E3BEC55F00001C26F70
:108210000001C25103E17EEC61F01200C00E0001CA
:10822000B26F000EB36F010E3BEC55F00001C26F50
:108230000001C25103E17EEC61F012000001C05167
:10824000C1C0BDF0BE6BBDC0BEF0BD6BBD13B9C03B
:10825000D9FFBAC0DAFFBDC0DEFFBEC0DDFFC10E70
:108260000001B26F000EB36F010E3BEC55F0000140
:10827000C26F0001C25103E17EEC61F01200C00E3A
:108280000001B26F000EB36F010E3BEC55F0000120
:10829000C26F0001C25103E17EEC61F012000001E7
:1082A000C051C1C0BDF0BE6BBDC0BEF0BD6BBD1343
:1082B000BBC0D9FFBCC0DAFFBDC0DEFFBEC0DDFF62
:1082C000BF0E0001B26F000EB36F010E3BEC55F014
:1082D0000001C26F0001C25103E17EEC61F01200A7
:1082E000BF0E0001B26F000EB36F010E3BEC55F0F4
:1082F0000001C26F0001C25103E17EEC61F0120087
:10830000BF0E0001B26F000EB36F000E3BEC55F0D4
:108310000001C26F0001C25103E17EEC61F0120066
:108320007EEF61F01200B9C0C2F0BAC0C3F0000124
:10833000C16BC2C0D9FFC3C0DAFF070EDF6E74EC99
:1083400061F00001BF6F6FEC61F00001C06F0001D0
:10835000BF5128E0C151020D030EF326000EF42296
:10836000F350C225D96EF450C321DA6EBFC0DFFFCF
:10837000C151020D030EF326000EF422C2C0BBF061
:10838000C3C0BCF0F350BB27F450BC23BB29D96E4B
:10839000000EBC21DA6E000EDF6E0001C05102E05B
:1083A000C12B00D00001C05124E0C151020D030EC9
:1083B000F326000EF422F350C225D96EF450C321E7
:1083C000DA6EC0C0DFFFC151020D030EF326000EAE
:1083D000F422C2C0BBF0C3C0BCF0F350BB27F450C2
:1083E000BC23BB29D96E000EBC21DA6E010EDF6EF4
:1083F00000D00001C151BB6FBC6BBB1FBC1FBB4B8E
:10840000BC2BD890BB37BC37020EBB27000EBC2359
:10841000BB1FBC1FBB4BBC2B040EBB25BD6F000E8E
:10842000BC21BE6F000120EE01F0C251D926C3511C
:10843000DA22BDC0DFFF000120EE02F0C251D926D2
:10844000C351DA22BE51DF6E8DEC61F000D0010E17
:108450000001ED65000CB0EC5DF0A20E0001876F2D
:10846000140E886F20EE03F0C251D926C351DA22D0
:10847000DF50BB6FBB51896F8A6B77EC22F0000C29
:10848000000C1200000E00017F6F030E806F020EC1
:108490007F257D6F000E80217E6F7DC081F07EC0C4
:1084A00082F07FC0D9FF80C0DAFFDF6A000120EED2
:1084B00001F07F51D9268051DA22BF0EDF6E81C0D4
:1084C000D9FF82C0DAFF810EDF6E0001814B822B63
:1084D00081C0D9FF82C0DAFFF00EDF6E0001814B50
:1084E000822B81C0D9FF82C0DAFF1C0EDF6E000133
:1084F000814B822B81C0D9FF82C0DAFF010EDF6E73
:108500000001814B822B81C0D9FF82C0DAFF130E9C
:10851000DF6E0001814B822B81C071F082C072F04E
:10852000410E0001736F010E746F7311D8A4200EF9
:10853000756F776B130E766F1DEC5AF0130E0001FA
:108540008127000E822381C0D9FF82C0DAFF060E88
:10855000DF6E0001814B822B81C0D9FF82C0DAFF20
:10856000020EDF6E0001814B822B81C071F082C050
:1085700072F0F90E0001736F1E0E746F7311D8A4A0
:10858000000E756F776B020E766F1DEC5AF0020EBF
:1085900000018127000E822381C0D9FF82C0DAFF4B
:1085A000040EDF6E0001814B822B81C0D9FF82C097
:1085B000DAFF010EDF6E0001814B822B81C0D9FFF3
:1085C00082C0DAFF010EDF6E0001814B822B0001B9
:1085D0007D5100088125020FEC6F12001200B7C018
:1085E000BEF0B8C0BFF0B9C0C1F0BAC0C2F0C1C0DF
:1085F000D9FFC2C0DAFF410EDF6E010E0001C06F6D
:10860000000120EE01F0C151D926C251DA22C0C0CA
:10861000DFFF000120EE02F0C151D926C251DA225B
:10862000DF6A0001B751B8114DE020EE01F0BE51F4
:10863000D926BF51DA22DF50C06F030E0001BE25DC
:10864000BC6F000EBF21BD6F7F0E00017D6F010E5C
:108650007E6FBCC07FF0BDC080F0C0C081F0D3ECA5
:1086600036F001013A5113E1000120EE03F0C1514F
:10867000D926C251DA22000EDF6E3F0E0001C0651E
:1086800002D0330E1200000E0D6E000E120000011B
:1086900020EE03F0C151D926C251DA22220EDF6E3C
:1086A0000D6AB9C0B2F0BAC0B3F0000120EE03F019
:1086B000C151D926C251DA22DF50B46F9CEC58F078
:1086C000000E1200000120EE03F0C151D926C25164
:1086D000DA22DF500FE0B9C0B2F0BAC0B3F020EE3A
:1086E00003F0C151D926C251DA22DF50B46F9CEC9D
:1086F00058F000D0010E0001ED6515D0B0EC5DF032
:10870000530E0001876F180E886F20EE03F0C151E1
:10871000D926C251DA22DF50BB6FBB51896F8A6BF9
:1087200077EC22F000D0000E120012000001B96FA9
:1087300083EC61F0C00E1CEC61F0810E1CEC61F06A
:1087400083EC61F0C10E1CEC61F00001BB6B070E05
:108750000001BB6501D028D0070E0001BB610CD021
:10876000BB51010D870EF324B26F010EF420B36FDD
:10877000010E3BEC55F00CD00001BB51010D870EF2
:10878000F324B26F010EF420B36F000E3BEC55F0F2
:108790000001BA6F00D00001BA5103E17EEC61F034
:1087A00012000001BB2BD3D77EEC61F00001B905AC
:1087B000D8B4120001D0120001018BAB8CB705D0E8
:1087C0008CA58CB102D027D000D00001ED510AE079
:1087D000B0EC5DF0EF0E0001876F170E886F77EC3D
:1087E00022F000D00101008900D00001ED51D8B481
:1087F0001200B0EC5DF0A40E0001876F1D0E886FB3
:10880000020E896F1A0E8A6F8911D8A4000E8B6F21
:1088100077EC22F0120001018BAF8BB903D08BA74C
:10882000120000D00001ED510AE0B0EC5DF0080E3E
:108830000001876F180E886F77EC22F000D00101DD
:10884000008B00D00001ED51D8B41200B0EC5DF007
:10885000A40E0001876F1D0E886F190E896F1A0E06
:108860008A6F8911D8A4000E8B6F77EC22F012006A
:108870001200010E00017D6F010E0001756504D02C
:108880007B6B020E7A6F04D075C07AF000017B6BAF
:108890007AC081F00001836B2CD000018351010D5F
:1088A000F3507125D96EF4507221DA6EDF507E6F6D
:1088B0008351010DF3507325D96EF4507421DA6E93
:1088C000DF50826F00017E5182157F6F000183515E
:1088D000010D410EF324D96E010EF420DA6EDF5043
:1088E0008215806F7F1902E0000E12000001832BB9
:1088F00000D000018151835DD0E3020E000181614F
:1089000002D07D51120000017551FE0F816F0001F0
:10891000836B48D000018351766F776B020E762708
:10892000000E772376517125D96E77517221DA6E58
:10893000DF507E6F8351766F776B020E7627000EC5
:10894000772376517325D96E77517421DA6EDF5013
:10895000826F00017E5182157F6F00018151766F19
:10896000776B761F771F764B772B8351786F796BF8
:108970007651782777517923130E7827000E7923C3
:10898000410E7825D96E010E7921DA6EDF507C6FA9
:108990007C518215806F7F1902E0000E12000001E9
:1089A000832B00D000018151835DB4E300017D5130
:1089B00012001200B7C0BDF0B8C0BEF0B9C0C1F01F
:1089C000BAC0C2F0000120EE01F0B751D926B8516B
:1089D000DA22200EDE1818E0776B766B796B7869F7
:1089E0001AEC5EF000D0010E0001ED650AD0B0EC8B
:1089F0005DF0770E0001876F0E0E886F77EC22F026
:108A000000D0FF00000E1200000E0001716F020E78
:108A1000726F030EBD25BB6F000EBE21BC6FBBC0C5
:108A200073F0BCC074F073517411D8A4200E756F2C
:108A3000776B110E766F1DEC5AF0110E0001716FFD
:108A4000020E726F140EBD25BB6F000EBE21BC6FEF
:108A5000BBC073F0BCC074F073517411D8A4200E65
:108A6000756F776B0F0E766F1DEC5AF00001E88181
:108A70000001E883C1C0D9FFC2C0DAFF900EDF6EEB
:108A80000001C06B010EBF6F000120EE01F0C1516B
:108A9000D926C251DA22BFC0DFFF000120EE02F06A
:108AA000C151D926C251DA22C051DF6E000120EE39
:108AB00003F0C151D926C251DA22000EDF6E00D078
:108AC000010E0001ED65000CB0EC5DF0990E0001A7
:108AD000876F160E886F20EE03F0C151D926C25160
:108AE000DA22DF50BB6FBB51896F8A6B77EC22F0C3
:108AF000000C000C1200D1C0D8F0D2C0D9F0000197
:108B0000EC6BD8C0D9FFD9C0DAFFDE2808E0D8C0A6
:108B1000D9FFD9C0DAFF01013F51DE1870E1D8C09A
:108B2000D9FFD9C0DAFFDF506AE0D8C0D9FFD9C079
:108B3000DAFFDE280AE0D8C0D9FFD9C0DAFF010188
:108B40003F51DE1802E1010E3D6F010E206E000163
:108B500020EE01F0D851D926D951DA22DF5008ECA5
:108B60004FF00001D66F2FD0D8C0CAF0D9C0CBF0DB
:108B7000D3C0CCF061EC58F023D0D8C077F0D9C086
:108B800078F0D3C079F0ACEC60F01AD0D8C077F0B0
:108B9000D9C078F0D3C079F05EEC61F011D0D8C0C4
:108BA000C4F0D9C0C5F0D3C0C6F029EC3AF008D063
:108BB000D8C0C4F0D9C0C5F0D3C0C6F013EC3CF0A7
:108BC0000001D76F0CD00001D651F2E0010AE7E0B6
:108BD000420ADCE0C00AD1E02C0AC6E000D0240E34
:108BE0000001D719D8A41200B0EC5DF09F0E00016F
:108BF000876F0E0E886F77EC22F0120000D0010E06
:108C00000001ED65010CB0EC5DF0CB0E0001876F4B
:108C10001B0E886F77EC22F012001200B7C0BBF079
:108C2000B8C0BCF0B9C0BFF0BAC0C0F0BFC0D9FF77
:108C3000C0C0DAFF310EDF6E0001BE6B010EBD6FEA
:108C4000000120EE01F0BF51D926C051DA22BDC08B
:108C5000DFFF000120EE02F0BF51D926C051DA2219
:108C6000BE51DF6E0001B751B81140E020EE01F0B7
:108C7000B751D926B851DA22DF500AE0B9C0B2F0B4
:108C8000BAC0B3F0240EB46F9CEC58F0000E120082
:108C900065EC5FF00001C16F00D0010E0001ED65D1
:108CA0000DD0B0EC5DF09D0E0001876F1A0E886F3D
:108CB000C1C089F08A6B77EC22F000D00001C1516D
:108CC0000AE0B9C0B2F0BAC0B3F0C1C0B4F09CECD5
:108CD00058F0000E1200000120EE03F0BF51D9261B
:108CE000C051DA22000EDF6E330E1200000120EEBA
:108CF00003F0BF51D926C051DA22DF50C16F00D036
:108D0000010E0001ED650DD0B0EC5DF0530E0001D9
:108D1000876F170E886FC1C089F08A6B77EC22F0DD
:108D200000D00001C15109E0B9C0B2F0BAC0B3F03F
:108D3000C1C0B4F09CEC58F000D0000E120012003C
:108D4000B7C0BBF0B8C0BCF0B9C0BFF0BAC0C0F08B
:108D5000BFC0D9FFC0C0DAFF320EDF6E0001BE6BAC
:108D6000010EBD6F000120EE01F0BF51D926C051A8
:108D7000DA22BDC0DFFF000120EE02F0BF51D9268C
:108D8000C051DA22BE51DF6E0001B751B8113CE08C
:108D9000030EBB257D6F000EBC217E6F20EE01F01F
:108DA000BB51D926BC51DA22DF507F6F8BEC5DF0CE
:108DB0000001C16F00D0010E0001ED650DD0B0ECD7
:108DC0005DF0860E0001876F140E886FC1C089F0B8
:108DD0008A6B77EC22F000D00001C1510AE0B9C0E3
:108DE000B2F0BAC0B3F0C1C0B4F09CEC58F0000EC1
:108DF0001200000120EE03F0BF51D926C051DA2243
:108E0000000EDF6E330E1200000120EE03F0BF51A2
:108E1000D926C051DA22DF50C16F00D0010E000107
:108E2000ED650DD0B0EC5DF0960E0001876F120E6F
:108E3000886FC1C089F08A6B77EC22F000D0000106
:108E4000C15109E0B9C0B2F0BAC0B3F0C1C0B4F0CA
:108E50009CEC58F000D0000E120012000001736F5D
:108E600061D0DC0E0001716F1A0E726F1200460E97
:108E70000001716F1A0E726F1200610E0001716FA6
:108E8000190E726F1200730E0001716F1C0E726F5B
:108E90001200490E0001716F1E0E726F1200ED0E6E
:108EA0000001716F1C0E726F1200DC0E0001716FF9
:108EB0001C0E726F1200D70E0001716F120E726FCE
:108EC0001200F70E0001716F120E726F1200C70EC2
:108ED0000001716F1A0E726F1200A50E0001716F02
:108EE0001B0E726F1200310E0001716F190E726F3E
:108EF0001200B80E0001716F1B0E726F12006C0E23
:108F00000001716F180E726F1200850E0001716FF3
:108F1000180E726F120000D0610E0001716F1C0EEE
:108F2000726F120000017351010A9BE0030A9FE077
:108F3000010AA3E0070AA7E0010AABE0030AAFE0D9
:108F4000010AB3E00F0AB7E0010ABBE0280ABFE05C
:108F5000030AC3E0010AC7E0070ACBE0010ACFE039
:108F6000030AD3E0D90AD8D71200000E00017F6FA0
:108F7000030E806F020E7F257D6F000E80217E6FB5
:108F80007DC081F07EC082F07FC0D9FF80C0DAFF53
:108F90003FC1DFFF000120EE01F07F51D926805153
:108FA000DA22BF0EDF6E81C0D9FF82C0DAFF810EE8
:108FB000DF6E0001814B822B81C0D9FF82C0DAFFB6
:108FC000F00EDF6E0001814B822B81C0D9FF82C081
:108FD000DAFF180EDF6E0001814B822B81C0D9FFB2
:108FE00082C0DAFF010EDF6E0001814B822B81C04F
:108FF000D9FF82C0DAFF130EDF6E0001814B822B96
:1090000081C071F082C072F0410E0001736F010ED9
:10901000746F7311D8A4200E756F776B130E766F73
:109020001DEC5AF0130E00018127000E822381C02F
:10903000D9FF82C0DAFF040EDF6E0001814B822B64
:1090400081C0D9FF82C0DAFF010EDF6E0001814BC3
:10905000822B81C0D9FF82C0DAFF010EDF6E0001D2
:10906000814B822B00017D5100088125020FEC6F9E
:1090700012001200B7C0BCF0B8C0BDF0B9C0C1F05A
:10908000BAC0C2F0C1C0D9FFC2C0DAFF040EDF6EA1
:109090000001C06B010EBF6F000120EE01F0C15155
:1090A000D926C251DA22BFC0DFFF000120EE02F054
:1090B000C151D926C251DA22C051DF6E000120EE23
:1090C00001F0B751D926B851DA22DF500AE0B9C011
:1090D000B2F0BAC0B3F0240EB46F9CEC58F0000E9E
:1090E000120079EC61F00001BE6F0001BE510DE08D
:1090F000C06B020EBF6F000120EE04F0C151D926F3
:10910000C251DA22BEC0DFFF00D0000120EE01F024
:10911000C151D926C251DA22BFC0DFFF000120EEC3
:1091200002F0C151D926C251DA22C051DF6E0001CE
:1091300020EE03F0C151D926C251DA22000EDF6EB3
:1091400000D0010E0001ED65000CB0EC5DF0300EBA
:109150000001876F1A0E886F20EE03F0C151D926E7
:10916000C251DA22DF50BB6FBB51896F8A6B77EC3B
:1091700022F0000C000C120085C089F000018A6BFF
:109180008B6B8435893701E38A81000189518C6FAB
:109190008C5105E1000E836F846F856F120088C0CB
:1091A00089F000018A6B8B6B8735893701E38A81EF
:1091B000000189518D6F8D5105E1000E836F846F21
:1091C000856F120000018D517B0F8C2785C08DF0BB
:1091D000000188518D1B800E8D170001848F0001C6
:1091E000878F0001886B00018E6B8F6B906B000185
:1091F000856B000183518603F4CFF3FFF46AF3CF4C
:109200008EF0F4CF8FF0906B000183518703F35001
:109210008E27F4508F23000E902300018451860383
:10922000F3508E27F4508F23000E902300018451B9
:109230008703F3508F27F4509023000190AF05D09F
:10924000D89090338F338E338C2B0001D89090338D
:109250008F338E338EC071F08FC072F090C073F078
:109260008CC074F08DC075F080EC53F071C083F049
:1092700072C084F073C085F012001200AEC0B0F06E
:109280000001B16BB26BAD35B03701E3B1810001C4
:10929000B051BA6FBA5106E1000EAC6FAD6FAE6F50
:1092A000AF6F1200170E0001B06FACC0B1F0ADC0CF
:1092B000B2F0AEC0B3F0B029B46F05D00001D890C1
:1092C000B333B233B1330001B42FF8D7B151B56F16
:1092D0000001AD8F0001AE6B0001AC51B66FAD5116
:1092E000B76FAE51B86FB96B8E0E0001BA5F000157
:1092F000BAAF15D0BA51800A8F0F07E2000EAC6FDB
:10930000AD6FAE6FAF6F120000D00001D890B933CF
:10931000B833B733B6330001BA3FF7D718D0170EBA
:109320000001BA650FD0000EAC6FAD6FAE6FAF6FBE
:10933000120008D00001D890B637B737B837B93720
:10934000BA0700D00001BA5102E0F4D700D0000102
:10935000B55109E0B91FB81FB71FB66D000EB7238E
:10936000B823B92300D0B6C0ACF0B7C0ADF0B8C0D8
:10937000AEF0B9C0AFF0120012000001DC6F0001C6
:10938000DB6B2B50010D800EF324D96E060EF420FA
:10939000DA6EDCC0DFFF2B2A7E0E0001DC1933E120
:1093A000250402E1256A28D0010E266425D0B80ED6
:1093B0000101301921E1F00E3119D8A41DD0800E21
:1093C0000001B26F060EB36F2BC0B4F0010EE5ECD6
:1093D00054F02B6A000E0001D16F060ED26F26C02A
:1093E000DAF0FE0EDA27DA51D36FD46B7BEC45F05E
:1093F000010E0001DB6F00D0266A0101306931697E
:109400000001DB511200255005E0256A200E000105
:10941000DC1B09D07D0E0001DC1905E1010E256E73
:10942000DB51120000D02650010D000EF324D96E3E
:10943000060EF420DA6EDCC0DFFF30C171F031C1FE
:1094400072F0DCC073F0FCEC5BF071C030F172C004
:1094500031F1262A7F0E266405D0266A0101301FCD
:10946000311F00D07F0E2B6402D0000E2B6E000146
:10947000DB511200120008EE00F011EE00F0EE6A6F
:10948000E550E150FCE1E250FAE107EE00F011EEA8
:1094900000F0EE6AE550E150FCE1E250FAE106EE40
:1094A00000F011EE00F0EE6AE550E150FCE1E25010
:1094B000FAE105EE00F011EE00F0EE6AE550E15041
:1094C000FCE1E250FAE104EE00F0920EEE6AE806EA
:1094D000FDE103EE00F0E00EEE6AE806FDE102EECB
:1094E00000F010EEFFF0EE6AE550E150FCE1E250D2
:1094F000FAE101EE00F0B10EEE6AE806FDE10001CE
:10950000ED6BEC6BEB6BEA6BE96BE86B00EE01F07B
:109510002E0EEE6AE806FDE1A00EF66EB40EF76EB2
:10952000000EF86E04EE92F010EE64F00900F5CF34
:10953000EEFFE550E150FAE14E0EF66EB90EF76E11
:10954000000EF86E01EEB1F010EE4EF00900F5CF0E
:10955000EEFFE550E150FAE1340EF66EC30EF76E01
:10956000000EF86E0900F5CF4EF00001BBEF2EF0B3
:1095700093C097F00001986B996B9235973701E390
:109580009881000197519E6F9E5105E1000E916FE9
:10959000926F936F120096C097F00001986B996BD1
:1095A0009535973701E39881000197519F6F9F513F
:1095B00005E1000E916F926F936F120000019B6B9B
:1095C0009C6B9D6B00019F51890F9E5F93C09FF024
:1095D000000196519F1B800E00019F170001928F82
:1095E0000001936B0001958F0001966B180E00012E
:1095F0009A6F00D00001D8909B379C379D370001AF
:109600009451915D955192599651935908E3945113
:10961000915F9551925B9651935B00019B81000194
:10962000D89091379237933700019A2FE3D700D023
:109630009BC071F09CC072F09DC073F09EC074F02E
:109640009FC075F080EC53F071C091F072C092F041
:1096500073C093F012001200B7C0BCF0B8C0BDF0E8
:10966000B9C0C1F0BAC0C2F0C1C0D9FFC2C0DAFFF0
:10967000340EDF6E0001BF6B030EBE6F000120EEE3
:1096800001F0C151D926C251DA22BEC0DFFF00016C
:1096900020EE02F0C151D926C251DA22BF51DF6E4D
:1096A000000120EE01F0B751D926B851DA22DF507F
:1096B0000AE0B9C0B2F0BAC0B3F0240EB46F9CECAB
:1096C00058F0000E1200040E0001C125726F000E4A
:1096D000C221736F16EC60F00001C06F0001C05131
:1096E00009E0B9C0B2F0BAC0B3F0C0C0B4F09CECAD
:1096F00058F00AD0000120EE03F0C151D926C25122
:10970000DA22000EDF6E00D0010E0001ED65000CC4
:10971000B0EC5DF01A0E0001876F1B0E886F20EE13
:1097200003F0C151D926C251DA22DF50BB6FBB51C1
:10973000896F8A6B77EC22F0000C000C1200B7C026
:10974000BCF0B8C0BDF0B9C0C0F0BAC0C1F0C0C074
:10975000D9FFC1C0DAFF420EDF6E0001BF6B010E00
:10976000BE6F000120EE01F0C051D926C151DA22AE
:10977000BEC0DFFF000120EE02F0C051D926C1516A
:10978000DA22BF51DF6E000120EE01F0B751D92679
:10979000B851DA22DF500AE0B9C0B2F0BAC0B3F073
:1097A000240EB46F9CEC58F0000E12005A0E01010A
:1097B0002E190EE15A0E2F19D8A40AD0000120EE5E
:1097C00003F0C051D926C151DA22000EDF6E0AD053
:1097D000B9C0B2F0BAC0B3F0060E0001B46F9CEC91
:1097E00058F000D0020E0101E96F00D0010E000117
:1097F000ED65000CB0EC5DF0E90E0001876F180E0E
:10980000886F20EE03F0C051D926C151DA22DF5013
:10981000BB6FBB51896F8A6B77EC22F0000C000C98
:10982000120058D073C0F6FF74C0F7FF000EF86E38
:109830000800F5CF79F00001775154E001D052D003
:10984000020E00017127000E7223795177194AE147
:1098500001D048D000012FEEFFF07151D92672518E
:10986000DA22DF50786F010E00017325756F000E4C
:109870007421766F75C0F6FF76C0F7FF000EF86EA4
:109880000800F5CF79F0000178510EE17951756F3C
:10989000766B751F761F754B762B78517525716F1A
:1098A000000E7621726F1200020E00017327000E67
:1098B0007423785179190EE07951756F766B751FA5
:1098C000761F754B762B78517525716F000E7621BA
:1098D000726F120071C0D9FF72C0DAFFDF50000151
:1098E000776FA0D700017951756F766B751F761F62
:1098F000754B762B77517525716F000E7621726F3F
:1099000012001200000E0001806F030E816F80C0F4
:10991000D9FF81C0DAFF3FC1DFFF000120EE01F077
:109920008051D9268151DA22100EDF6E010E00011E
:109930008025716F000E8121726F7BC173F097ECEF
:109940005FF0010E00018025716F000E8121726FA2
:109950007CC173F09BEC60F0020E00018025716FFA
:10996000000E8121726F7DC073F07EC074F0735160
:109970007411D8A4200E756F20EE01F07D51D92608
:109980007E51DA22DF507F6F030E7F25766F776B73
:10999000000E77231DEC5AF001017C2B7C51070B44
:1099A0007C6F000120EE01F07D51D9267E51DA2234
:1099B000DF50050FEC6FECC027F0000E0001716F57
:1099C000050E726F000E736F030E746F7311D8A4BF
:1099D000200E756FECC076F0776B1DEF5AF0120019
:1099E00011C015F012C016F013C017F014C018F013
:1099F00000D00001ED510AE0B0EC5DF0A10E0001D5
:109A0000876F170E886F77EC22F000D0156A166A00
:109A1000176A186A22C111F023C112F024C113F091
:109A200025C114F015C0B2F016C0B3F017C0B4F0E1
:109A300018C0B5F00001B21FB31FB41FB51FB22B81
:109A4000000EB323B423B5231150B225096E125072
:109A5000B3210A6E1350B4210B6E1450B5210C6E55
:109A600000D00001ED51D8B41200B0EC5DF0890EC9
:109A70000001876F090E886FABC289F0ACC28AF013
:109A800011C08BF012C08CF013C08DF014C08EF09A
:109A900015C08FF016C090F017C091F018C092F06A
:109AA00009C093F00AC094F00BC095F00CC096F07A
:109AB00077EC22F01200120011C015F012C016F05F
:109AC00013C017F014C018F000D00001ED510AE0E7
:109AD000B0EC5DF0490E0001876F190E886F77ECCE
:109AE00022F000D0156A166A176A186AA5C211F02A
:109AF000A6C212F0A7C213F0A8C214F015C0B2F0AB
:109B000016C0B3F017C0B4F018C0B5F00001B21F12
:109B1000B31FB41FB51FB22B000EB323B423B5235C
:109B20001150B225096E1250B3210A6E1350B421A0
:109B30000B6E1450B5210C6E00D00001ED51D8B45D
:109B40001200B0EC5DF0C90E0001876F090E886F3E
:109B5000A1C289F0A2C28AF011C08BF012C08CF0B1
:109B600013C08DF014C08EF015C08FF016C090F0A9
:109B700017C091F018C092F009C093F00AC094F099
:109B80000BC095F00CC096F077EC22F0120012009A
:109B9000B0EC5DF02F0E0001876F140E886F77EC2C
:109BA00022F000D007EC61F0010E0001ED650AD053
:109BB000B0EC5DF0B70E0001876F120E886F77EC86
:109BC00022F000D0F1EC60F0010E0001ED650AD04A
:109BD000B0EC5DF03F0E0001876F0F0E886F77ECE1
:109BE00022F000D0FCEC60F0010E0001ED650AD01F
:109BF000B0EC5DF0FE0E0001876F0F0E886F77EC02
:109C000022F000D0DFEC5EF0010E0001ED650AD01D
:109C1000B0EC5DF08C0E0001876F0F0E886F77EC53
:109C200022F000D0BFEC5EF0010E0001ED650AD01D
:109C3000B0EC5DF0660E0001876F0F0E886F77EC59
:109C400022F000D0010E96EC43F0010E0001ED650C
:109C5000010CB0EC5DF04F0E0001876F0E0E886FA7
:109C600077EC22F01200120000017C6B7D6B060E77
:109C70000001786FD89000017433733372337133FD
:109C8000782FF8D70001060ED890713772377337E6
:109C90007437E82EF9D771C07EF072C07FF073C0C0
:109CA00080F074C081F046D07EC079F07FC07AF039
:109CB00080C07BF0400E00017C6F16D076C0D9FFCB
:109CC00077C0DAFFDF5079C0F6FF7AC0F7FF7BC0BC
:109CD000F8FFF56E0C000001764B772B0001792B15
:109CE000000E7A237B2300D000017C077C29E6E16B
:109CF0007EC079F07FC07AF080C07BF0A684F2AE9F
:109D000004D0F29E010E00017D6F550EA76EAA0EC3
:109D1000A76EA682A69400017D5104E0F28E000198
:109D20007D6B00D0400E00017E27000E7F23802334
:109D3000812300D0000175077529B6E11200B2C079
:109D400071F0B3C072F0B4C073F0B5C074F0010E1E
:109D50000001756FB6C076F0B7C077F034EC4EF006
:109D6000400E01011E27000E1F2320232123000E79
:109D70000001716F090E726F746B736B766B400E1E
:109D8000756F7EEC5FF0B2C071F0B3C072F0B4C01A
:109D900073F0B5C074F00001766B400E756F000E65
:109DA000776F090E786F15EC5BF0000E0001716F94
:109DB000090E726F66EC5DF00001715101012E27F2
:109DC0000001725101012F2300D00001ED51D8B4E0
:109DD0001200B0EC5DF02A0E0001876F0D0E886F47
:109DE0001AC189F01BC18AF01CC18BF01DC18CF017
:109DF0001EC18DF01FC18EF020C18FF021C190F0E7
:109E00002EC191F02FC192F077EC22F012001200D7
:109E10000001B46F0001B4B102D0000E12000001C5
:109E2000B4A314D020D012D0010E1200050E1200DF
:109E300000D0B0EC5DF0740E0001876F1D0E886FCE
:109E400077EC22F000D0FF0E12000DD00001B451CB
:109E50000F0BB26FB36BB351ECE1B251010AE4E006
:109E6000040AE4E0E6D70001B4B316D02CD014D035
:109E7000AF0E1200830E1200430E120000D0B0ECA1
:109E80005DF0740E0001876F1D0E886F77EC22F075
:109E900000D0FF0E120017D00001B451EF0BB26FCB
:109EA000B36BB351ECE1B2510F0AE9E04C0AE4E0C4
:109EB000200AE5E0E00ADEE0040AE1E0280AD8E052
:109EC000400ADDD700D0B0EC5DF0740E0001876F62
:109ED0001D0E886F77EC22F0FF0CFF0C1200EACF0A
:109EE00066F0E1CF67F0E2CF68F0D9CF69F0DACF62
:109EF0006AF0F3CF6BF0F4CF6CF0F6CF6DF0F7CFE4
:109F00006EF0F8CF6FF0F5CF70F0F2B0F2909EA047
:109F100008D09E909D80FC0ECF6E320ECE6E8C7659
:109F200000D09EA220D09E9276EC60F020040CE13E
:109F30000101382B38050001626F1E0E626504D0E6
:109F4000206A0101386B00D0010137050CE13E2B7E
:109F50003E050001626F090E626505D001013E6B8E
:109F600075EC5BF000D0D7EC58F052EC5CF070C0B0
:109F7000F5FF6FC0F8FF6EC0F7FF6DC0F6FF6CC055
:109F8000F4FF6BC0F3FF6AC0DAFF69C0D9FF68C095
:109F9000E2FF67C0E1FF66C0EAFF65C0E9FF64C099
:109FA000FBFF63C0FAFF11000001ED510AE0B0ECC5
:109FB0005DF0B40E0001876F160E886F77EC22F00B
:109FC00000D0000E0201AF6F0001EA87000E010110
:109FD0003C6F0101009500D00001ED5112E0B0ECA2
:109FE0005DF0940E0001876F1D0E886F0F0E896F54
:109FF0001E0E8A6F8911D8A4000E8B6F77EC22F0A9
:10A0000000D00101009B00D00001ED5112E0B0EC46
:10A010005DF0940E0001876F1D0E886F190E896F19
:10A020001A0E8A6F8911D8A4000E8B6F77EC22F07C
:10A0300000D00101009900D00001ED5112E0B0EC18
:10A040005DF0940E0001876F1D0E886F020E896F00
:10A050001A0E8A6F8911D8A4000E8B6F77EC22F04C
:10A0600000D0010E0E6E000E106E000C1200B7C074
:10A07000BCF0B8C0BDF0B9C0C0F0BAC0C1F0C0C03B
:10A08000D9FFC1C0DAFF400EDF6E0001BF6B010EC9
:10A09000BE6F000120EE01F0C051D926C151DA2275
:10A0A000BEC0DFFF000120EE02F0C051D926C15131
:10A0B000DA22BF51DF6E000120EE01F0B751D92640
:10A0C000B851DA22DF500AE0B9C0B2F0BAC0B3F03A
:10A0D000240EB46F9CEC58F0000E1200000120EE2C
:10A0E00003F0C051D926C151DA22000EDF6E010EF5
:10A0F0000101E96F00D0010E0001ED65000CB0EC2C
:10A100005DF06D0E0001876F170E886F20EE03F073
:10A11000C051D926C151DA22DF50BB6FBB51896FC4
:10A120008A6B77EC22F0000C000C12000001BC6B73
:10A13000BB6BBA6B10D0B2C0D9FFB3C0DAFFDF502F
:10A140000001BC6F0001B24BB32B0001BC51BB2717
:10A150000001BA2B00D00001B451BA5DECE300015C
:10A16000BB1F00D0010E0001ED6532D0B0EC5DF0F8
:10A17000B5C0D9FFB6C0DAFF0001BB51DE1804E05C
:10A18000D20EB86F1E0E04D0D40E0001B86F1E0E92
:10A190000001B96F00D0E80E0001876F0B0E886FC9
:10A1A000BBC089F08A6BB5C0D9FFB6C0DAFFDF50FB
:10A1B000B76FB7518B6F8C6BB8C08DF0B9C08EF094
:10A1C0008D518E11D8A4000E8F6F77EC22F000D045
:10A1D000B5C0D9FFB6C0DAFF0001BB51DE1802E1FD
:10A1E000000E1200060E12001200000120EE04F014
:10A1F0007651D9267751DA2210EE02F07651E12617
:10A200007751E222E6CF7BF0E5CF7CF076C0E1FF2C
:10A2100077C0E2FFE6CF7DF0E5CF7EF07D1F7E1FA9
:10A220007D4B7E2B7B517D277C517E23DE507D191B
:10A2300003E1DE507E1936E0000120EE02F0765197
:10A24000D9267751DA22DECF71F0DDCF72F020EE21
:10A2500004F07651D9267751DA22DECF73F0DDCFC4
:10A2600074F07DEC5CF0000120EE06F07651D9260A
:10A270007751DA22DECF79F0DDCF7AF0715179258E
:10A28000D96E72517A21DA6E78C0DFFF000120EEBC
:10A2900002F07651D9267751DA22DE2A000EDD222D
:10A2A000010E1200000C1200B7C0BCF0B8C0BDF027
:10A2B000B9C0C0F0BAC0C1F0C0C0D9FFC1C0DAFF98
:10A2C000060EDF6E0001BF6B010EBE6F000120EEB7
:10A2D00001F0C051D926C151DA22BEC0DFFF000112
:10A2E00020EE02F0C051D926C151DA22BF51DF6EF3
:10A2F000000120EE01F0B751D926B851DA22DF5023
:10A300000AE0B9C0B2F0BAC0B3F0240EB46F9CEC4E
:10A3100058F0000E1200000120EE03F0C051D926C3
:10A32000C151DA22000EDF6A99EC61F000D0010E13
:10A330000001ED65000CB0EC5DF0190E0001876FB7
:10A34000190E886F20EE03F0C051D926C151DA22D0
:10A35000DF50BB6FBB51896F8A6B77EC22F0000C2A
:10A36000000C12000001BA69BB697E0E2AEC60F095
:10A370002C50010D800EF324D96E050EF420DA6EF8
:10A380007E0EDF6E2C2A1DD0B7C0D9FFB8C0DAFF11
:10A39000DF500001BC6F0001B74BB82BBAC071F0A1
:10A3A000BBC072F0BCC073F0FCEC5BF071C0BAF0E3
:10A3B00072C0BBF00001BC51D1EC5BF00001B907E9
:10A3C00000D00001B951E0E10001BA1FBB1FBAC0C3
:10A3D000BCF00001BC51D1EC5BF00001BB51BC6F83
:10A3E0000001BC51D1EC5BF07E0E2AEC60F02C50E9
:10A3F000010D800EF324D96E050EF420DA6E7E0E68
:10A40000DF6E2C2A800E0001B26F050EB36F2CC0D8
:10A41000B4F0000EE5EC54F0000E2C6A1200B7C048
:10A42000BCF0B8C0BDF0B9C0C0F0BAC0C1F0C0C087
:10A43000D9FFC1C0DAFF120EDF6E0001BF6B010E43
:10A44000BE6F000120EE01F0C051D926C151DA22C1
:10A45000BEC0DFFF000120EE02F0C051D926C1517D
:10A46000DA22BF51DF6E000120EE01F0B751D9268C
:10A47000B851DA22DF500AE0B9C0B2F0BAC0B3F086
:10A48000240EB46F9CEC58F0000E1200000120EE78
:10A4900003F0C051D926C151DA22DF6A6AEC61F0BB
:10A4A00000D0010E0001ED65000CB0EC5DF0BE0EB9
:10A4B0000001876F140E886F20EE03F0C051D9267B
:10A4C000C151DA22DF50BB6FBB51896F8A6B77ECC9
:10A4D00022F0000C000C1200010E0001816F75C00B
:10A4E0007CF00001836B4CD000018351010DF350CF
:10A4F0007125D96EF4507221DA6EDF507E6F835170
:10A50000010DF3507325D96EF4507421DA6EDF50CB
:10A51000826F00017E5182157F6F120E00017565FA
:10A5200004D07B6B130E7A6F04D075C07AF00001F3
:10A530007B6B7AC07DF000017D51766F776B761F63
:10A54000771F764B772B8351786F796B765178270D
:10A5500077517923130E7827000E7923410E782541
:10A56000D96E010E7921DA6EDF508215806F0001FD
:10A570007F51801902E0000E12000001832B00D0F1
:10A5800000017C51835DB0E3000181511200120093
:10A59000B7C0BCF0B8C0BDF0B9C0C0F0BAC0C1F01F
:10A5A000C0C0D9FFC1C0DAFF0A0EDF6E0001BF6B69
:10A5B000010EBE6F000120EE01F0C051D926C1513D
:10A5C000DA22BEC0DFFF000120EE02F0C051D92622
:10A5D000C151DA22BF51DF6E000120EE01F0B75108
:10A5E000D926B851DA22DF500AE0B9C0B2F0BAC0B9
:10A5F000B3F0240EB46F9CEC58F0000E1200000172
:10A6000020EE03F0C051D926C151DA22000EDF6ED0
:10A6100000D0010E0001ED65000CB0EC5DF0B20E53
:10A620000001876F1A0E886F20EE03F0C051D92603
:10A63000C151DA22DF50BB6FBB51896F8A6B77EC57
:10A6400022F0000C000C1200B7C0BCF0B8C0BDF086
:10A65000B9C0C0F0BAC0C1F0C0C0D9FFC1C0DAFFF4
:10A66000030EDF6E0001BF6B010EBE6F000120EE16
:10A6700001F0C051D926C151DA22BEC0DFFF00016E
:10A6800020EE02F0C051D926C151DA22BF51DF6E4F
:10A69000000120EE01F0B751D926B851DA22DF507F
:10A6A0000AE0B9C0B2F0BAC0B3F0240EB46F9CECAB
:10A6B00058F0000E1200000120EE03F0C051D92620
:10A6C000C151DA22000EDF6E00D0010E0001ED65EF
:10A6D000000CB0EC5DF0CB0E0001876F1C0E886F94
:10A6E00020EE03F0C051D926C151DA22DF50BB6FF2
:10A6F000BB51896F8A6B77EC22F0000C000C1200C2
:10A700000001745104E07151721173110EE1000ED9
:10A710000001716F726F736F120007D00001742B0C
:10A72000D89073337233713300D00001766B776B3E
:10A73000FE0E7315786F7651771178110EE0EED713
:10A740000CD00001742B0001712B000E72237323B7
:10A75000D89073337233713300D00001766B776B0E
:10A760007351786F76517711781109E0EAD707D0E5
:10A7700000017407D89071377237733700D0000129
:10A7800072BF04D0020E7461F3D700D0000174A12F
:10A79000729F00D00001D89074337451731300017C
:10A7A000755102E0738F00D071C071F072C072F009
:10A7B00073C073F01200120020EE04F04550D92649
:10A7C0004650DA2210EE02F04550E1264650E222D1
:10A7D000E6CF4AF0E5CF4BF045C0E1FF46C0E2FFCF
:10A7E000E6CF4CF0E5CF4DF04C1E4D1E4C4A4D2AA5
:10A7F0004A504C264B504D22DE504C1804E1DE509E
:10A800004D18D8B4120020EE02F04550D92646501B
:10A81000DA22DECF40F0DDCF41F020EE04F04550EB
:10A82000D9264650DA22DECF42F0DDCF43F0D4EC19
:10A830005DF020EE06F04550D9264650DA22DECFF4
:10A8400048F0DDCF49F040504824D96E41504920AE
:10A85000DA6E47C0DFFF20EE02F04550D9264650A1
:10A86000DA22DE2A000EDD221200120011C015F0DD
:10A8700012C016F013C017F014C018F0156A166A4B
:10A88000176A186A200E116E6C0E126EFB0E136E94
:10A89000146815C0B2F016C0B3F017C0B4F018C0F9
:10A8A000B5F00001B21FB31FB41FB51FB22B000ECD
:10A8B000B323B423B5231150B225096E1250B3212E
:10A8C0000A6E1350B4210B6E1450B5210C6E00D0DB
:10A8D0000001ED51D8B41200B0EC5DF0880E00011B
:10A8E000876F0A0E886F11C089F012C08AF013C0FA
:10A8F0008BF014C08CF015C08DF016C08EF017C010
:10A900008FF018C090F009C091F00AC092F00BC00F
:10A9100093F00CC094F077EC22F01200120046D0B5
:10A9200071C0D9FF72C0DAFFDF500001776F73C0CA
:10A93000F6FF74C0F7FF000EF86E0F0EF76403D039
:10A940000800F55005D0F6CFE1FFF7CFE2FFE75062
:10A950000001771925E073C0F6FF74C0F7FF000E01
:10A96000F86E0F0EF76403D00800F55005D0F6CF4F
:10A97000E1FFF7CFE2FFE7500001776F786B771FB9
:10A98000781F774B782B71C0D9FF72C0DAFFDF5088
:10A99000796F79517725716F000E7821726F1200EF
:10A9A0000001714B722B734B742B00D000017507A3
:10A9B000D8A076077529B4E17629D8A4B1D7000EBE
:10A9C0000001726F716F000C12000001B66F000180
:10A9D000B60512E1010E0001ED653BD0B0EC5DF073
:10A9E000A20E0001876F1E0E886FB4C089F08A6BBB
:10A9F00077EC22F02ED000D0010E0001ED6529D0B9
:10AA0000B0EC5DF0AC0E0001876F1E0E886FB4C015
:10AA100089F08A6B77EC22F01CD000D0010E000187
:10AA2000ED6514D0EE0E876F1E0E886FB2C0D9FF91
:10AA3000B3C0DAFFDF50B56FB551896F8A6B77EC21
:10AA400022F00001B24BB32B040000D00001B40788
:10AA500000D00001B45102E0E1D700D0010E0001A6
:10AA6000ED65010C010E876F0B0E886F77EC22F0FD
:10AA70000400120012000001B46F0001B569B6694C
:10AA8000B76BB86B6B8608D004000001B507000EE9
:10AA9000B65BB75BB85B00D06DB008D00001B551B4
:10AAA000B611B711B81102E0EFD700D00001B551CF
:10AAB000B611B711B81124E1B0EC5DF0050E00013C
:10AAC000876F170E886F77EC22F000D001010081AC
:10AAD00000D00001ED5112E0B0EC5DF0A40E0001D9
:10AAE000876F1D0E886FC40E896F1D0E8A6F8911C6
:10AAF000D8A4000E8B6F77EC22F000D0000E12006D
:10AB0000B2C0D9FFB3C0DAFF6FCFDFFF26EC61F030
:10AB10000001B45103E064EC61F0010C010C12007F
:10AB2000000120EE02F07651D9267751DA22DECFED
:10AB30007AF0DDCF7BF076C0D9FF77C0DAFFDECFC9
:10AB40007CF0DDCF7DF07C1F7D1F7C4B7D2B7A510F
:10AB50007C277B517D237C517D1134E076C0D9FF69
:10AB600077C0DAFFDECF71F0DDCF72F020EE04F0B7
:10AB70007651D9267751DA22DECF73F0DDCF74F02B
:10AB80007DEC5CF0000120EE06F07651D92677517D
:10AB9000DA22DECF7AF0DDCF7BF071517A25D96EE3
:10ABA00072517B21DA6E78C0E1FF79C0E2FFDFCF1E
:10ABB000E7FF76C0D9FF77C0DAFFDE2A000EDD227C
:10ABC000010E1200000C1200000E0001736F030E44
:10ABD000746F020E7325716F000E7421726F71C055
:10ABE00075F072C076F073C0D9FF74C0DAFF3FC150
:10ABF000DFFF000120EE01F07351D9267451DA22F3
:10AC0000BF0EDF6E75C0D9FF76C0DAFF810EDF6E32
:10AC10000001754B762B75C0D9FF76C0DAFFF00EB8
:10AC2000DF6E0001754B762B75C0D9FF76C0DAFF59
:10AC3000020EDF6E0001754B762B75C0D9FF76C012
:10AC4000DAFF070EDF6E0001754B762B75C0D9FF5A
:10AC500076C0DAFFDF6A0001754B762B0001715177
:10AC600000087525020FEC6F1200120020EE02F0B2
:10AC70004550D9264650DA22DECF49F0DDCF4AF0E2
:10AC800045C0D9FF46C0DAFFDECF4BF0DDCF4CF038
:10AC90004B1E4C1E4B4A4C2A49504B264A504C22C4
:10ACA0004B504C1033E045C0D9FF46C0DAFFDECF31
:10ACB00040F0DDCF41F020EE04F04550D92646505B
:10ACC000DA22DECF42F0DDCF43F0D4EC5DF020EEAF
:10ACD00006F04550D9264650DA22DECF49F0DDCFC6
:10ACE0004AF040504924D96E41504A20DA6E47C09C
:10ACF000E1FF48C0E2FFDFCFE7FF45C0D9FF46C014
:10AD0000DAFFDE2A000EDD22010E1200000C120016
:10AD1000948E949CAD9CAD9AAD98AD96AD84AC8E5E
:10AD2000AC9CAC88AC967E9A7E987E867E927E9015
:10AD30007F6A560EB06E8F0E0001716F010E726F3A
:10AD4000000E736F070E746F766B800E756F40EC9C
:10AD50005DF09F0E0001716F010E726F800E736FB8
:10AD6000070E746F766B800E756F40EC5DF09D88FA
:10AD70009D8A9F8A9F88000E0001786F630E0001F4
:10AD8000786502D0630C1200820E0001776FDE0E30
:10AD9000E82EFED7772FFCD70001782B630E78655D
:10ADA000F3D7630C12000001796B7A6B7B6B7C6BC1
:10ADB0000001755176117711781135E0010E7D6F24
:10ADC00008D00001D89075377637773778377D2BE4
:10ADD00000D0000178BF02D0F4D700D00001D89095
:10ADE00079377A377B377C3700017551715D765141
:10ADF000725977517359785174590BE37551715FDA
:10AE00007651725B7751735B7851745B0001798185
:10AE100000D00001D8907833773376337533000152
:10AE20007D2FDCD700D079C071F07AC072F07BC082
:10AE300073F07CC074F012000001766B000172AFF9
:10AE400008D0716D721FD8B0722B010E0001766FA1
:10AE500000D0000174AF05D0736D741FD8B0742B8F
:10AE600000D000017351741121E0010E756F06D0FE
:10AE70000001D89073377437752B00D0000174BF70
:10AE800002D0F6D700D000017351715D7451725930
:10AE900005E37351715F7451725B00D00001D8906B
:10AEA000743373330001752FEED700D00001765153
:10AEB00005E0716D721FD8B0722B00D071C071F0B7
:10AEC00072C072F0120012000001DD6F0001DE6B33
:10AED00035D086900CD00001DF51BDEC49F0000167
:10AEE000DE6F0001DE050CE002D00AD000D0DF0EDC
:10AEF00000017E6F000E7F6FE5EC60F0E806EBE08E
:10AF00000001DE0521E1EC511FE024501DE1010E9E
:10AF100012D01AD0205018E18680000E0001B76FC1
:10AF2000030EB86FECC0B9F0B2EC51F0280402E1A6
:10AF3000010E246E000E0001DD6F06D00001DD5110
:10AF4000C8E0010AE7E000D00001DD511200120064
:10AF500079EC61F00001756F0001755135E17251B6
:10AF60000201A15DA251800A0001746F7351800A31
:10AF700074590DE30201A3510001725D7351800AFF
:10AF8000746F0201A451800A0001745902E2130E89
:10AF90001200000172510201AD1908E10001735164
:10AFA0000201AE19D8A402D0000E120072C01CF02B
:10AFB00073C01DF0010E0201AF6F0001EA87030E9E
:10AFC0000101DD6F330E12000001755112001200F5
:10AFD000456A41AE07D0406C411ED8B0412A010EEF
:10AFE000456E00D043AE05D0426C431ED8B0432A14
:10AFF00000D0425043101CE0010E446E05D0D890A2
:10B0000042364336442A00D043BE02D0F8D700D09F
:10B010004250405C4350415805E34250405E43502B
:10B02000415A00D0D89043324232442EF1D700D05A
:10B03000455005E0406C411ED8B0412A00D040C0C8
:10B0400040F041C041F01200120000018251831112
:10B05000841185112DE0010E866F08D00001D89073
:10B060008237833784378537862B00D0000185BF30
:10B0700002D0F4D700D0000182517E5D83517F5908
:10B08000845180598551815909E382517E5F8351F2
:10B090007F5B8451805B8551815B00D00001D8903B
:10B0A00085338433833382330001862FE4D700D085
:10B0B0007EC07EF07FC07FF080C080F081C081F0D4
:10B0C0001200020E0001CA25CF6F000ECB21D06FF7
:10B0D000CFC0D9FFD0C0DAFF0001CF4BD02B810EFB
:10B0E000DE1802E0240E1200CFC0D9FFD0C0DAFF74
:10B0F000DF500001CE6F0001CF4BD02BF00E0001CE
:10B10000CE190AE1CAC0B2F0CBC0B3F0CCC0B4F0E3
:10B11000E9EC2CF01200240C800E0001CE190AE19B
:10B12000CAC07FF0CBC080F0CCC081F0F9EC37F022
:10B130001200240C240C12000001B66B020EB56F35
:10B14000000120EE01F0B251D926B351DA22B5C088
:10B15000DFFF000120EE02F0B251D926B351DA220E
:10B16000B651DF6E000120EE03F0B251D926B35183
:10B17000DA220B0EDF6E000120EE04F0B251D92668
:10B18000B351DA22B4C0DFFF00D0010E0001ED653B
:10B19000010CB0EC5DF0010E0001876F190E886F95
:10B1A000B4C089F08A6B77EC22F0120012009EB8CE
:10B1B0009DA813D09F0E456E010E466E610E476E20
:10B1C000000E486E36EC56F0E80603E161C0AEFFB3
:10B1D00004D0ADA202D0AD9A00D09EBA9DAA1CD0D8
:10B1E000AFCF60F0130E000160190CE12A2A2AC0CB
:10B1F00040F0416A436A030E426EE8EC57F040505B
:10B200002A6E00D08F0E456E010E466E60C047F06C
:10B21000DCEC53F09E9A00D0ACA21200AC98AC8843
:10B22000120012000001826B8E0E816F00017CAF54
:10B2300014D07C1F7B1F7A1F796D000E7A237B232D
:10B240007C23010E0001826F08D00001D8907C336E
:10B250007B337A337933812B00D000017D6B7E6B99
:10B260007F6B7C51806F7D517E117F118011EDE1EC
:10B2700079C071F07AC072F07BC073F081C074F055
:10B2800082C075F080EC53F071C079F072C07AF032
:10B2900073C07BF012001200988498929890869068
:10B2A000A89CA89AA898A896A8849C8E9C9C9C88E8
:10B2B0009C967C9A7C987C867C927C90040E7D6E19
:10B2C000110EAB6E970E0001716F010E726FC00E02
:10B2D000736F030E746F766B100E756F40EC5DF03C
:10B2E000A70E0001716F010E726FD00E736F030E07
:10B2F000746F766B100E756F40EC5DF0A388A38AB7
:10B30000A58AA5881200C26A0F0EC16E8A6A936A66
:10B310008168000E926E8F6E986EFE0E866EF290B1
:10B32000F292F294F296F298F29AF29C850EF16EF5
:10B33000CD9ACD98CD86CD84CD92CD80FC0ECF6EAA
:10B34000100ECE6E9E909D80CA90CA92CA84CA8604
:10B35000CA88CA9ACA9CFA0ECB6E9E929D8288ECCD
:10B3600056F04CEC59F0D08EF28EF28C12000001A7
:10B37000756F000E0001766F130E0001766501D027
:10B3800022D000017651050D920EF324D96E040EE1
:10B39000F420DA6E7551DE1813E17651050D020EB8
:10B3A000F326000EF422920EF324D96E040EF4203C
:10B3B000DA6EDECF71F0DECF72F0DDCF73F0120007
:10B3C0000001762BD9D7000E0001716F726F736F79
:10B3D000000C12000001716F000171A103D0110E69
:10B3E000120005D0000171A302D00F0E120000015F
:10B3F00071A703D0010E1200000C000171A903D047
:10B40000020E1200000C000171AB03D0030E1200FB
:10B41000000C000171AD03D0140E1200000C0001ED
:10B4200071AF03D0270E1200000C000171A5000CB3
:10B430000E0E1200000C000C120073C078F074C0E5
:10B4400079F075C07AF071C07BF072C07CF01ED0CC
:10B4500078C0F6FF79C0F7FF7AC0F8FF7BC0D9FF4C
:10B460007CC0DAFFF8BA03D00800F55005D0F6CF5B
:10B47000E1FFF7CFE2FFE750DF6E0001782B000E0F
:10B4800079237A2300017B4B7C2B00D000017607C7
:10B49000D8A077077629DCE17729D8A4D9D712007C
:10B4A000030048A60004007490000500F679000629
:10B4B00000A8A2001000DCBF00110004C0001200B0
:10B4C0001EA4000A0090A5009000B4890040006E00
:10B4D000A0004100DE850042003E970031001C8C38
:10B4E000003200408D003300707D0034005896001B
:10B4F00007002683000E000661000F00BA5000FF0F
:10B5000000000000000E00017A6F030E7B6F020E38
:10B510007A25786F000E7B21796F78C076F079C03C
:10B5200077F07AC0D9FF7BC0DAFF3FC1DFFF0001AF
:10B5300020EE01F07A51D9267B51DA22110EDF6E0E
:10B54000010E00017A25716F000E7B21726F7BC1A5
:10B5500073F097EC5FF00001785100087625020F38
:10B56000EC6F120012000101055102E1000E120001
:10B5700001010051011902E1000E12000101015107
:10B5800000190001B26F010101510001B215010162
:10B59000026F00510001B2150101036F010E00019D
:10B5A000ED65010CB0EC5DF0B70E0001876F130E76
:10B5B000886F02C189F08A6B03C18BF08C6B77ECCA
:10B5C00022F0010C010C1200000E00017A6F030E34
:10B5D0007B6F020E7A25786F000E7B21796F78C021
:10B5E00076F079C077F07AC0D9FF7BC0DAFF3FC12F
:10B5F000DFFF000120EE01F07A51D9267B51DA22DB
:10B60000150EDF6E010E00017A25716F000E7B2191
:10B61000726F7BC173F097EC5FF000017851000806
:10B620007625020FEC6F1200120071C079F072C023
:10B630007AF073C07BF074C07CF0F8CF7FF0F7CF66
:10B640007EF0F6CF7DF07BC0F8FF7AC0F7FF79C0BF
:10B65000F6FF0BD0090077C0D9FF78C0DAFFF5CF2D
:10B66000DFFF0001774B782B00D000017507D8A0D1
:10B6700076077529EFE17629D8A4ECD77FC0F8FFCB
:10B680007EC0F7FF7DC0F6FF12000101162B000EF1
:10B6900017231823192319511811171104E10A0E41
:10B6A000165DD8A012000101166B176B186B196B91
:10B6B0000101284B292BE80E285D030E2959D8A03B
:10B6C0001200296B286B232A3B0E23643B0C236A50
:10B6D000222A3B0E22643B0C226A212A0C0E216492
:10B6E0000C0C010E216E12001200000E436E040EAF
:10B6F000436402D0040C120043500C0D090EF326D3
:10B70000000EF422B10EF324D96E010EF420DA6E8D
:10B71000DE50DE10DE1012E043500C0D040EF32656
:10B72000000EF422B10EF324D96E010EF420DA6E6D
:10B73000DE2A000EDE22DE22DE2200D0432A040EA4
:10B740004364DAD7040C12000001786B776B71C088
:10B750002CF172C02DF173C03BF174C02AF175C099
:10B760002BF10001766B10D071C0D9FF72C0DAFFE7
:10B77000DF500001786F0001714B722B000178518E
:10B7800077270001762B00D000017351765DECE342
:10B790000001771D74C0D9FF75C0DAFFDF6E12009B
:10B7A00012000001806F7D0E0001801903E07E0E03
:10B7B000801912E17D0E2AEC60F02C50010D800EF4
:10B7C000F324D96E050EF420DA6E7D0EDF6E2C2A7E
:10B7D000200E0001801B00D0000180512AEC60F097
:10B7E0002C50010D800EF324D96E050EF420DA6E74
:10B7F00080C0DFFF2C2A120000017351711B080E5C
:10B800000001766F000176511DE001D01BD00001D0
:10B8100071A10CD0D8907231756F7131746F080EB0
:10B820007419716F840E7519726F09D0D890000168
:10B830007231746F7131716F74C072F000D0000199
:10B840007607E0D771C071F072C072F01200B0ECF0
:10B850005DF04F0E0001876F1C0E886F77EC22F0B1
:10B8600000D07EEC5EF0958A958C6D8E280E6C6E05
:10B87000630E6E6E000E0001B36F630E0001B365C0
:10B8800002D0630C1200820E0001B26FDE0EE82EB1
:10B89000FED7B22FFCD70001B32B630EB365F3D7ED
:10B8A000630C1200A4B8A3A813D0A70E456E010E16
:10B8B000466E610E476E000E486E36EC56F0E80696
:10B8C00003E161C0A9FF04D0A8A202D0A89A00D0C9
:10B8D000A4BAA3AA0CD0AACF60F0970E456E010EB1
:10B8E000466E60C047F0DCEC53F0A49A00D09CA2F6
:10B8F00012009C989C881200120000017351741170
:10B9000021E0010E756F06D00001D89073377437AF
:10B91000752B00D0000174BF02D0F6D700D0000113
:10B920007351715D7451725905E37351715F7451B4
:10B93000725B00D00001D890743373330001752F0F
:10B94000EED700D071C071F072C072F012006400C6
:10B9500000000000000000EA7E000000000000007F
:10B96000000000C8AE0001000000000000000096CA
:10B970002B00E80300000000000000E24B00000084
:10B98000000000000000004A6B005B56414C5D0067
:10B990005B4241445D00434341434600000174AFB4
:10B9A0001AD071C075F072C076F073C077F074C0B1
:10B9B00078F0751F761F771F781F752B000E762382
:10B9C0007723782375C071F076C072F077C073F07A
:10B9D00078C074F0120071C071F072C072F073C060
:10B9E00073F074C074F01200000E0001756F030E46
:10B9F000766F020E7525736F000E7621746F73C01B
:10BA000071F074C072F075C0D9FF76C0DAFF3FC123
:10BA1000DFFF000120EE01F07551D9267651DA22C0
:10BA2000730EDF6E0001735100087125020FEC6F79
:10BA300012001200000E0001756F030E766F020EE9
:10BA40007525736F000E7621746F73C071F074C02A
:10BA500072F075C0D9FF76C0DAFF3FC1DFFF000189
:10BA600020EE01F07551D9267651DA22730EDF6E81
:10BA70000001735100087125020FEC6F12001200D3
:10BA8000000120EE06F07151D9267251DA2273C0FE
:10BA9000DEFF74C0DDFF71C0D9FF72C0DAFFDE6A5D
:10BAA000DD6A000120EE02F07151D9267251DA22CE
:10BAB000DE6ADD6A000120EE04F07151D926725170
:10BAC000DA2275C0DEFF76C0DDFF120071C073F0B0
:10BAD00072C074F00001766B756B0001776B12D049
:10BAE00015D073C0D9FF74C0DAFFDE50000175278E
:10BAF000DD507623020E00017327000E7423020E20
:10BB0000000177273F0E00017765EBD775C071F014
:10BB100076C072F012004A0E0001716F040E726F4F
:10BB20007DC073F07EC074F073517411D8A4200EE0
:10BB3000756F7FC076F0776B1DEC5AF07FC039F1DE
:10BB400000017F51010D4A0EF324D96E040EF4203A
:10BB5000DA6E000EDF6E040E0101D16F000C1200D0
:10BB60000400780E0001876F190E886F96EC61F063
:10BB70000001AF6FAF51896F8A6B93EC61F00001E8
:10BB8000B06FB0518B6F8C6B90EC61F00001B16FB6
:10BB9000B1518D6F8E6B88EC61F071C08FF072C007
:10BBA00090F077EC22F01200425043101CE0010E9E
:10BBB000446E05D0D89042364336442A00D043BE66
:10BBC00002D0F8D700D04250405C4350415805E3C2
:10BBD0004250405E4350415A00D0D89043324232E6
:10BBE000442EF1D700D040C040F041C041F01200D7
:10BBF0007F0E0001716F010E726F000E736F080EE1
:10BC0000746F010E766F756B40EC5DF001011A6B7D
:10BC1000040E1B6F010E1C6F1D6B01012F6B2E6B31
:10BC200001011E6B1F6B206B216B01013A6B010E32
:10BC30004E6E120076C07CF077C07DF000017E6B06
:10BC40007B6B7A6B12D000017E697CC073F07DC083
:10BC500074F07EC075F04CEC5FF0040000017C4B8A
:10BC60007D2B00017A4B7B2B00D0000178517A5D4F
:10BC700079517B59E8E31200000179517D5D7A51D9
:10BC80007E597B517F598051800A816F7C51800A97
:10BC9000815909E27DC079F07EC07AF07FC07BF0E7
:10BCA00080C07CF0120079C079F07AC07AF07BC055
:10BCB0007BF07CC07CF01200120000017C6B000164
:10BCC0007AAF08D0796D7A1FD8B07A2B010E0001B7
:10BCD0007C6F00D079C071F07AC072F00001736B94
:10BCE0008E0E746F7CC075F080EC53F071C079F0EB
:10BCF00072C07AF073C07BF0120012006CCF72F049
:10BD00006C6A958A959C0001736B08D00BD0837C7C
:10BD1000100EE82EFED700D00001732B0F0E00018D
:10BD20007365F5D7958A958C72C06CFF820E000101
:10BD3000716FDE0EE82EFED7712FFCD7120071C096
:10BD400075F072C076F004D00001754B762B00D0F0
:10BD500075C0D9FF76C0DAFFDF50F6E171C073F02D
:10BD600072C074F00001731F741F734B742B7551F4
:10BD70007325716F76517421726F1200120083EC7B
:10BD800061F0C00E1CEC61F0960E1CEC61F0FF0E31
:10BD90001CEC61F0FF0E1CEC61F08F0E1CEC61F0EE
:10BDA000A10E1CEC61F0720E1CEC61F00F0E1CEC8D
:10BDB00061F06E0E1CEC61F07EEF61F0120083EC1E
:10BDC00061F0C00E1CEC61F0890E1CEC61F0FF0EFE
:10BDD0001CEC61F0FF0E1CEC61F08F0E1CEC61F0AE
:10BDE000A10E1CEC61F0920E1CEC61F0000E1CEC3C
:10BDF00061F0AE0E1CEC61F07EEF61F0120000D03D
:10BE0000BBEC60F00009FCE18996030E12EC61F0D6
:10BE10000001745112EC61F00001735112EC61F0F9
:10BE2000000E12EC61F00001756F898600017551FA
:10BE30001200120079EC61F00001726F010E0E6EBB
:10BE400072C010F000017251D8A412001CC0ADF2F3
:10BE50001DC0AEF2000E0201AF6F0001EA850001C5
:10BE6000EA871200120083EC61F0C00E1CEC61F056
:10BE70008B0E1CEC61F0FF0E1CEC61F0FF0E1CEC55
:10BE800061F0000174511CEC61F0000173511CEC75
:10BE900061F07EEF61F0120000D0BBEC60F00009B1
:10BEA000FCE158EC61F08996020E12EC61F00001A1
:10BEB000745112EC61F00001735112EC61F0000159
:10BEC000755112EC61F089861200010100A302D0C5
:10BED0000F0E1200010100A507D0A3C2ADF2A4C24B
:10BEE000AEF20001EA8500D0010E0201AF6F000141
:10BEF000EA87060E0101DD6F000C120071C077F0B9
:10BF000072C078F00AD077C0D9FF78C0DAFF73C06A
:10BF1000DFFF0001774B782B00D000017507D8A018
:10BF200076077529F0E17629D8A4EDD7120073C001
:10BF300074F0050E0001756F0001D8907437752FED
:10BF4000FBD771C0D9FF72C0DAFFDF501F0B74112D
:10BF500071C0D9FF72C0DAFFDF6E12000001B26F4C
:10BF6000010E0E6EB2C010F000D0010E0001ED65A2
:10BF7000010CB0EC5DF0D20E0001876F0C0E886FE3
:10BF800077EC22F0120012000001736F000E000126
:10BF9000726F3A0E0001736106D02F0E736503D0E5
:10BFA000010E726F00D072C071F000017131120089
:10BFB0001200000171517303F3CF75F0F4CF76F0E6
:10BFC00071517403F350762772517303F35076273F
:10BFD00075C071F076C072F012001200010E0001FF
:10BFE000ED65250CB0EC5DF0390E0001876F170E82
:10BFF000886F000E8A6F250E896F77EC22F0250C72
:10C00000250C1200010E0001ED65250CB0EC5DF071
:10C010007E0E0001876F160E886F000E8A6F250E48
:10C02000896F77EC22F0250C250C120079EC61F079
:10C030000001746F0001745109E172C0D9FF73C02F
:10C04000DAFF1CC0DEFF1DC0DDFF00D0000174510F
:10C050001200120000017F6F00D0A70E0001766F62
:10C06000010E776F7FC078F0F5EC50F00009F5E035
:10C07000A398A8AAA88AA3881200B0EC5DF0F10EDC
:10C080000001876F1B0E886F77EC22F000D02B6ABF
:10C090002C6A266A010130693169000E256A120096
:10C0A000B0EC5DF0920E0001876F1B0E886F77EC8D
:10C0B00022F000D00F68000E0E6E000E0D6E000E06
:10C0C000106E000C120000017F6F00D09F0E000167
:10C0D000766F010E776F7FC078F0F5EC50F00009B5
:10C0E000F5E09D98ADAAAD8A9D88120001010E2B46
:10C0F000000E0F2310231123122B132314231523B7
:10C1000045EC5BF001010E2B000E0F2310231123D1
:10C110001200B0EC5DF03D0E0001876F1C0E886FC1
:10C1200077EC22F000D09496949A200EC66E400EC2
:10C13000C76E9E9612000001D8907335746F71C05F
:10C14000D9FF72C0DAFFDF50F10B741171C0D9FF53
:10C1500072C0DAFFDF6E1200020E0001791902E0F0
:10C16000320E1200020E0101406F7B6B7C6BF4EC0F
:10C170005CF0000C12008996050E12EC61F0000EC6
:10C1800012EC61F00001726F898600017251010B9F
:10C1900012001200B0EC5DF0B70E0001876F180EB0
:10C1A000886F77EC22F0B1EF2AF0B1EF2AF012009D
:10C1B000B0EC5DF0880E0001876F1A0E886F77EC87
:10C1C00022F000D0929689861200970E0001766FB9
:10C1D000010E776F7EC078F07FC079F090EF55F058
:10C1E000120083EC61F0C00E1CEC61F0870E1CECB9
:10C1F00061F07EEF61F0120083EC61F0C00E1CEC88
:10C2000061F0860E1CEC61F07EEF61F0120083ECB1
:10C2100061F0C00E1CEC61F0850E1CEC61F07EEF4D
:10C2200061F012000001716F71C0C9FF00D09EA6BD
:10C23000FED79E96C95012000001726F72C06FFF48
:10C2400000D06DB0FED726EC61F0120000D06BCFAD
:10C2500071F01F0E00017117D8B46DB4F8D7120039
:10C26000000E0101056F006F016F026F036F000C7C
:10C2700012000001716F0001D8907131070B12009C
:10C2800012000001716F00017139E842070B1200C2
:10C290001200480ED36E400E9B6EA06A100EA16E67
:10C2A00012000001806F0001805163EC60F0120009
:10C2B0008996060E12EC61F0898612000101406B2E
:10C2C0001AEC5DF0000C12006B9A6B8800D06BB812
:10C2D000FED71200010E0101056F010C12000101D1
:10C2E0000351EAEF59F0120001010251EAEF59F04F
:10C2F000120001010051EAEF59F012006B8400D0E6
:10C300006BB4FED712006B8000D06BB0FED712006A
:10C3100028C171F029C172F0120000C101F11200B0
:10C32000235012001200225012001200215012005D
:06C33000120012000100E2
:020000040001F9
:06FFF800A0F4C5F6F8FFBD
:00000001FF
