:0404000051EF02F0C6
:10040800FACF23F0FBCF24F0E9CF25F09FED27F0BA
:10041800D8CF01F0E8CF02F0E0CF03F0FACF04F034
:10042800FBCF05F0E9CF06F0EACF07F0E1CF08F0FF
:10043800E2CF09F0D9CF0AF0DACF0BF0F3CF0CF006
:10044800F4CF0DF0F6CF0EF0F7CF0FF0F8CF10F095
:10045800F5CF11F011C0F5FF10C0F8FF0FC0F7FF7E
:100468000EC0F6FF0DC0F4FF0CC0F3FF0BC0DAFF9F
:100478000AC0D9FF09C0E2FF08C0E1FF07C0EAFFD0
:1004880006C0E9FF05C0FBFF04C0FAFF03C0E0FF98
:0E04980002C0E8FF01C0D8FF100023EF1EF0E5
:1004B00053575F5245545F3136303131345F31002C
:1004C00020202035363131303520526576204200EB
:1004D000003030303030303030303030303030304C
:1004E0003030004E6F7420436F6E666967757265B9
:1004F0006400434300000001CB6F0001CB5102E1D7
:1005000021D223D2000EF1EC27F001D21BD24D6A8A
:10051000AFC188F0B0C189F097EC2FF088C090F09F
:1005200089C091F08AC092F021EE30F0DECFF5F173
:10053000DDCFF6F10101F51FF61FF54BF62B4B5001
:10054000F5250001886F4C500101F6210001896FEB
:1005500097EC2FF088C08DF089C08EF08AC08FF0A4
:10056000A3EC1DF08DC09BF08EC09CF08FC09DF061
:1005700021EE30F0DECFF7F1DDCFF8F10101F71F0A
:10058000F81FF74BF82B2E51F7250001886F01015A
:100590002F51F8210001896F97EC2FF088C09EF051
:1005A00089C09FF08AC0A0F005EC20F000019DAF4B
:1005B00063D0AD6BAE6BBF0EAF6F21EE30F0DECF10
:1005C000F5F1DDCFF6F10101F51FF61FF54BF62B26
:1005D0002E51F5250001886F01012F51F6210001F0
:1005E000896F97EC2FF088C09EF089C09FF08AC079
:1005F000A0F0AFC188F0B0C189F097EC2FF088C0AF
:1006000090F089C091F08AC092F021EE30F0DECFF8
:10061000F7F1DDCFF8F10101F71FF81FF74BF82BC9
:100620004B50F7250001886F4C500101F821000163
:10063000896F97EC2FF088C08DF089C08EF08AC04A
:100640008FF0A3EC1DF08DC09BF08EC09CF08FC08E
:100650009DF005EC20F09BC0AAF09CC0ABF09DC0C3
:10066000ACF0E9EC15F0AAC0B6F0ABC0B7F0ACC086
:10067000B8F019EC1FF063D00001AD6BAE6B3F0E0C
:10068000AF6F21EE30F0DECFF5F1DDCFF6F10101F5
:10069000F51FF61FF54BF62B2E51F5250001886F3F
:1006A00001012F51F6210001896F97EC2FF088C0CE
:1006B0009EF089C09FF08AC0A0F0AFC188F0B0C1A1
:1006C00089F097EC2FF088C090F089C091F08AC033
:1006D00092F021EE30F0DECFF7F1DDCFF8F101013D
:1006E000F71FF81FF74BF82B4B50F7250001886FC9
:1006F0004C500101F8210001896F97EC2FF088C060
:100700008DF089C08EF08AC08FF0A3EC1DF08DC0F3
:100710009BF08EC09CF08FC09DF005EC20F09BC03C
:10072000AAF09CC0ABF09DC0ACF0E9EC15F0AAC0FB
:10073000B6F0ABC0B7F0ACC0B8F019EC1FF0B6C063
:1007400043F0B7C044F000D049C0F5F14AC0F6F11B
:100750000101F51FF61FF54BF62B4350F525456EAD
:100760004450F621466E43500101B35DB451800AF6
:10077000F56F4450800AF55910E2B75109E1515024
:1007800007E14150452642504622010E526E00D0EC
:10079000010E29D00101BC8B2FD00101B351435C64
:1007A0004450800AF56FB451800AF5591FE2B7052D
:1007B00002E1525005E00101B75114E1510412E188
:1007C00041C0F5F142C0F6F10101F51FF61FF54BEE
:1007D000F62B4550F525456E4650F621466E010E26
:1007E000516E00D0000E0101B76FD4D7030E000187
:1007F000CB6FA8D0AAD000D045C082F046C083F00D
:10080000C9EC30F0020E0001CB6F4D6A9BD059BC91
:1008100002D05AA203D0318A040E13D0B7EC31F0C3
:10082000E80602E1030E0DD04D2A4D040101F56FDB
:100830003B0EF56587D0F0D785D04D6A58EC30F087
:1008400063D00001CB6F7ED04D6A58EC30F05CD0A5
:10085000000E4D6AD1EC31F000094AE1060EF1D7E5
:1008600047D070D0B7EC31F0E8063BE108EC13F06C
:1008700000093EE1070EE5D73BD064D032D062D00C
:1008800059AC5AB212D0B7EC31F0E8062AE113ECB9
:1008900031F000092DE1080ED4D72AD053D021D051
:1008A00051D059BC02D05AA202D0318AB5D7B7EC88
:1008B00031F0E80616E150EC0DF0000919E1090EDF
:1008C000C0D716D03FD00DD03DD059BC02D05AA2CF
:1008D00002D0318A0DD0B7EC31F0E80602E10A0E01
:1008E000B0D74D2A4D040101F56F3B0EF5652AD0B6
:1008F0000B0EA7D727D0010E3C6E77EC32F03E6E80
:1009000003D04D6A8AEC31F0000E9BD71BD000015A
:10091000CB51010A01E1FBD5030A01E178D7010AB5
:1009200093E0070A8AE0010A93E0030A9BE0010AC8
:10093000A7E00F0AB6E0010AC8E0030AE2E0010AF4
:10094000DAE000D00001CB5100D0120020EEFAF026
:1009500010EE93F0050EDBCFE3FFE806FCE2D4C017
:1009600099F000019A6B4A0E0001A16F030EA26F6D
:1009700000019E6B9D6BA1C09BF0A2C09CF000018A
:10098000A06B9F6B14D09BC0D9FF9CC0DAFFDE50D8
:1009900000019D27DD509E23020E00019B27000EC3
:1009A0009C23020E00019F27000EA02300D000010F
:1009B00099519F5D9A51A059E6E35A0E00019D1985
:1009C00003E15A0E9E1902E0060EB2D1A1C080F0DA
:1009D000A2C081F0930E0001826F000E836F856BC1
:1009E000050E846FA8EC2AF000018051811102E00D
:1009F00028D09ED1000120EE05F0A151D926A251A8
:100A0000DA22DE0402E01DD093D1000120EE06F0D0
:100A1000A151D926A251DA22DFA016D0090EA125B4
:100A2000806F000EA221816F320E826F010E836FE4
:100A3000856B0F0E846FA8EC2AF0000180518111A4
:100A400003E0220E75D100D0000E0001806F010E70
:100A5000816F180EA125916F000EA221926F91C097
:100A600082F092C083F082518311D8A4200E846F4B
:100A7000866B0F0E856FF6EC2BF0000120EE39F03F
:100A8000A151D926A251DA22DECFAFF1DDCFB0F1EC
:100A9000000120EE3DF0A151D926A251DA22DF500B
:100AA0000101B86F000120EE3BF0A151D926A251FF
:100AB000DA22DECFB5F1DDCFB6F1000120EE37F05E
:100AC000A151D926A251DA22DECF30F1DDCF31F1AA
:100AD000000120EE35F0A151D926A251DA22DECF55
:100AE0002EF1DDCF2FF1000120EE27F0A151D92604
:100AF000A251DA22DECF20F1DDCF21F1000E00017C
:100B0000A06F9F6F0001A05140E1040E00019F5DA6
:100B10003CE201D03AD09FC091F0A0C092F0D890B2
:100B2000000191379237290E9127000E922391519F
:100B3000A125D96E9251A221DA6ED8909F35E16E2F
:100B4000A035E26E220EE126010EE222DECFE6FFA4
:100B5000DDCFE5FF310E9F25916F000EA021926F32
:100B60009151A125D96E9251A221DA6E2A0E9F25AC
:100B7000E16E010EA021E26EDFCFE7FF00019F4B87
:100B8000A02B0001A05101E1C0D70101BA81BAA197
:100B90000CD0000E0001846F010E856F0F0E866F62
:100BA000E1EC29F00101BA9100D0000E0001806F44
:100BB000010E816FE30E826F040E836F69EC23F0E8
:100BC00000018051811113E10101AE69BC81BCA11A
:100BD0000CD0AE0E0001846F010E856F010E866F82
:100BE000E1EC29F00101BC9100D031829FD00F0EC1
:100BF0000101AE6F0101BC830101BCA30CD0AF0E9B
:100C00000001846F010E856F020E866FE1EC29F002
:100C10000101BC9300D00101BC8D0101BCAD0CD021
:100C2000B80E0001846F010E856F010E866FE1EC36
:100C300029F00101BC9D00D00101BC890101BCA9C2
:100C40000CD0B50E0001846F010E856F020E866F09
:100C5000E1EC29F00101BC9900D00101BA8D01013C
:100C6000BAAD0CD0300E0001846F010E856F020EFC
:100C7000866FE1EC29F00101BA9D00D00101BA8B29
:100C80000101BAAB0CD02E0E0001846F010E856FEE
:100C9000020E866FE1EC29F00101BA9B00D0010140
:100CA000BA850101BAA50CD0200E0001846F010E97
:100CB000856F020E866FE1EC29F00101BA9500D034
:100CC0000101BA870101BAA70CD0220E0001846F7E
:100CD000010E856F080E866FE1EC29F00101BA97CD
:100CE00000D00101BA890101BAA90CD02A0E000175
:100CF000846F010E856F040E866FE1EC29F001010F
:100D0000BA9900D00101BC810101BCA10CD0AE0E8A
:100D10000001846F010E856F010E866FE1EC29F0F2
:100D20000101BC9100D03192318400D0000E00D07E
:100D300012009CC0A1F09DC0A2F09EC0A4F09FC074
:100D4000A5F00001A36B0001A76B010EA66FA4C064
:100D5000D9FFA5C0DAFF0F0EDF6E000120EE01F013
:100D6000A451D926A551DA22A6C0DFFF000120EE4A
:100D700002F0A451D926A551DA22A751DF6E000155
:100D800020EE01F09C51D9269D51DA22DE0401E1CA
:100D900061D19EC080F09FC081F0240E826FF0EC84
:100DA0002DF0B4D1B5D156D10001A76B0F0EA66FAF
:100DB000040E0001A425806F000EA521816F000E96
:100DC000826F010E836F8211D8A4200E846FA6C09B
:100DD00085F0A7C086F0F6EC2BF069D10001A76B77
:100DE000110EA66F040E0001A425806F000EA52130
:100DF000816F410E826F010E836F8211D8A4200E85
:100E0000846FA6C085F0A7C086F0F6EC2BF04FD11A
:100E10000001A76B020EA66F040E0001A425806FCF
:100E2000000EA521816F200E826F010E836F82114B
:100E3000D8A4200E846FA6C085F0A7C086F0F6EC7B
:100E40002BF035D10001A76B080EA66F040E000130
:100E5000A425806F000EA521816F220E826F010EE6
:100E6000836F8211D8A4200E846FA6C085F0A7C01E
:100E700086F0F6EC2BF01BD10001A76B040EA66FD9
:100E8000040E0001A425806F000EA521816F2A0E9B
:100E9000826F010E836F8211D8A4200E846FA6C0CA
:100EA00085F0A7C086F0F6EC2BF001D10001A76B0E
:100EB000020EA66F040E0001A425806F000EA5216E
:100EC000816F2E0E826F010E836F8211D8A4200EC7
:100ED000846FA6C085F0A7C086F0F6EC2BF0E7D0B3
:100EE0000001A76B020EA66F040E0001A425806FFF
:100EF000000EA521816F300E826F010E836F82116B
:100F0000D8A4200E846FA6C085F0A7C086F0F6ECAA
:100F10002BF0CDD00001A76B060EA66F040E0001CA
:100F2000A425806F000EA521816F5E0E826F010ED9
:100F3000836F8211D8A4200E846FA6C085F0A7C04D
:100F400086F0F6EC2BF0B3D00001A76B050EA66F70
:100F5000040E0001A425806F000EA521816F640E90
:100F6000826F010E836F8211D8A4200E846FA6C0F9
:100F700085F0A7C086F0F6EC2BF099D00001A76BA6
:100F8000200EA66F040E0001A425806F000EA5217F
:100F9000816F690E826F010E836F8211D8A4200EBB
:100FA000846FA6C085F0A7C086F0F6EC2BF07FD04A
:100FB0000001A76B200EA66F040E0001A425806F10
:100FC000000EA521816F890E826F010E836F821141
:100FD000D8A4200E846FA6C085F0A7C086F0F6ECDA
:100FE0002BF065D00001A76B020EA66F040E000166
:100FF000A425806F000EA521816FA90E826F010EBE
:10100000836F8211D8A4200E846FA6C085F0A7C07C
:1010100086F0F6EC2BF04BD00001A76B020EA66F0A
:10102000040E0001A425806F000EA521816FAB0E78
:10103000826F010E836F8211D8A4200E846FA6C028
:1010400085F0A7C086F0F6EC2BF031D01F0E000122
:10105000A36F2DD0000120EE03F0A151D926A2519B
:10106000DA22DF50010A01E19FD6030A01E1B6D678
:10107000010A01E1CDD6070A01E1E4D6010A01E146
:10108000FBD6030A01E112D7010A01E129D7260A9A
:1010900001E140D7030A01E157D7010A01E16ED708
:1010A000070A86E0010A9EE0030AB6E0CFD70001F6
:1010B000A64BA72BA4C0D9FFA5C0DAFF0F0EDF6E89
:1010C000000120EE01F0A451D926A551DA22A6C0D4
:1010D000DFFF20EE02F0A451D926A551DA22A75154
:1010E000DF6E0001A35109E09EC080F09FC081F037
:1010F000A3C082F0F0EC2DF009D0000120EE03F047
:10110000A451D926A551DA22DF6A00D0000E00D002
:1011100012000001A36B9D6B996B9A6BA46BA56B7E
:10112000A66B9E6B9F6BA16BA06B020E00019325BB
:10113000A96F000E9421AA6FA9C0D9FFAAC0DAFF37
:10114000DF500001976F0001A94BAA2BA9C0D9FF5E
:10115000AAC0DAFFDF500001986F0001A94BAA2B4B
:10116000A9C0D9FFAAC0DAFFDF500001A26F0001B9
:10117000A94BAA2B490E0001A2650ED185D186D1BB
:101180000BD1A9C0D9FFAAC0DAFFDF5000019B6FC5
:101190000001A94BAA2BA9C0D9FFAAC0DAFFDF50D2
:1011A0000001A86FA94BAA2BD0D0130E0001A8658F
:1011B00002D06AD16BD10001A76B16D00001A751F4
:1011C000010DF350A925D96EF450AA21DA6EA7516A
:1011D000010D950EF324E16E020EF420E26EDFCFD6
:1011E000E7FF0001A72B00D00001A851A75DE6E3AF
:1011F000A8C0BBF2010E0001A36FC2D0130E000104
:10120000A86502D041D142D10001A76B16D00001E0
:10121000A751010DF350A925D96EF450AA21DA6E19
:10122000A751010DA80EF324E16E020EF420E26E28
:10123000DFCFE7FF0001A72B00D00001A851A75D79
:10124000E6E3010E00019D6F9BD00001A80501E0BF
:101250001BD1A9C0D9FFAAC0DAFFDE0402E014D175
:1012600015D1010E0001996F8BD0020E0001A81953
:1012700001E00AD1A9C0D9FFAAC0DAFF430EDE18E7
:1012800001E002D120EE01F0A951D926AA51DA22BB
:10129000430EDE1875E0F8D0F9D072D00001A80531
:1012A00001E0F2D0A9C0D9FFAAC0DAFF020EDF64C4
:1012B00003D0EAD0E9D0EAD0010E00019A6F60D0E5
:1012C0000001A80501E0E0D0A9C0D9FFAAC0DAFF5B
:1012D000030EDF6403D0D8D0D7D0D8D0010E0001E0
:1012E000A46F4ED00001A80502E0CED0CFD0010EF1
:1012F0000001A56F45D0020E0001A81902E0C4D07C
:10130000C5D0010E0001A66F3BD00001A80501E089
:10131000BBD0A9C0D9FFAAC0DAFFDE2802E1B4D051
:10132000B5D0A9C0D9FFAAC0DAFFDF5000019C6F79
:10133000010E00019E6F24D00001A85102E0A4D04C
:10134000A5D0010E00019F6F1BD000019B51010A27
:1013500001E12BD7030AD9E0010A01E14FD7070ABF
:1013600001E173D7010ABEE0030A01E17ED7010A59
:10137000E3E00E0A93E01D0AA3E0010ABCE000D0FE
:101380000001A851010DF350A927F450AA23000130
:10139000A851020FA25F00D00001A25101E0F1D6D6
:1013A00000019F0510E193C0D9FF94C0DAFFDE2849
:1013B00006E04DEC27F0010E0001DB6F63D0FF006B
:1013C00061D060D063D00001A40504E0A50502E06F
:1013D000A6050AE1A5C080F0A6C081F00001A451D5
:1013E00046EC18F04FD052D00001A30521E19D0535
:1013F0001FE10201805146E1BB510EE0950E000154
:10140000806F020E816FA80E826F020E836FBBC2C7
:1014100084F0EEEC1AF001D0010E0001A16F00D0B3
:101420000001A1052FE1ABEC19F02CD02BD02ED070
:101430000001A30529E19E0527E1A80E806F020E99
:10144000816F836B8269BBC284F0856BE3EC30F003
:10145000950E0001806F020E816FA80E826F020E42
:10146000836FBBC284F087EC24F00001A06F000101
:10147000A00508E19CC080F2010E0201816F1EEC04
:101480001DF000D0000E02D0240E00D012009CC02F
:10149000A5F09DC0A6F09EC0A2F09FC0A3F00001E1
:1014A000A46B000120EE01F0A551D926A651DA2245
:1014B000DF50A06FFF0EA025A76FA86BFF0EA8231B
:1014C00017D1000E0001806F010E816F040EA5255B
:1014D000A06F000EA621A16FA0C082F0A1C083F072
:1014E00082518311D8A4200E846F866B0F0E856FF6
:1014F000F6EC2BF00F0E0001A719A81121E1010154
:10150000BA8124D1410E0001806F010E816F040E5B
:10151000A525A06F000EA621A16FA0C082F0A1C0DA
:1015200083F082518311D8A4200E846F866B110E34
:10153000856FF6EC2BF0110E0001A719A81102E03F
:10154000240E25D00101BB8101D100D01D0E1FD07A
:101550005E0E0001806F010E816F040EA525A06F45
:10156000000EA621A16FA0C082F0A1C083F082511D
:101570008311D8A4200E846F866B060E856FF6EC5F
:101580002BF0060E0001A719A81104E0D9D700011D
:10159000A46FDCD00101BB83D9D0640E0001806F41
:1015A000010E816F040EA525A06F000EA621A16F6C
:1015B000A0C082F0A1C083F082518311D8A4200E74
:1015C000846F866B050E856FF6EC2BF0050E00011F
:1015D000A719A811B5E10101BB85B8D0690E0001BA
:1015E000806F010E816F040EA525A06F000EA6214D
:1015F000A16FA0C082F0A1C083F082518311D8A452
:10160000200E846F866B200E856FF6EC2BF0200E7B
:101610000001A719A81194E10101BB8797D0890E99
:101620000001806F010E816F040EA525A06F000ED2
:10163000A621A16FA0C082F0A1C083F082518311C6
:10164000D8A4200E846F866B200E856FF6EC2BF0ED
:10165000200E0001A719A81101E072D70101BB8972
:1016600075D0A90E0001806F010E816F040EA525B3
:10167000A06F000EA621A16FA0C082F0A1C083F0D0
:1016800082518311D8A4200E846F866B020E856F61
:10169000F6EC2BF0020E0001A719A81101E050D7BB
:1016A0000101BB8B53D0AB0E0001806F010E816F27
:1016B000040EA525A06F000EA621A16FA0C082F088
:1016C000A1C083F082518311D8A4200E846F866B51
:1016D000020E856FF6EC2BF0020E0001A719A8117F
:1016E00001E02ED70101BB8D31D01F0E50D72ED077
:1016F000000120EE03F0A551D926A651DA22DF50D1
:10170000010A01E1DED6030A01E1FCD6010A01E18A
:101710001DD7070A01E11AD7010A01E117D7030A09
:1017200001E114D7010A01E111D7260A01E110D71E
:10173000030A01E132D7010A01E150D7070A01E1AA
:101740006ED7010A8EE0030AAEE0CFD7A2C0D9FF60
:10175000A3C0DAFF0E0EDF6E0001A86B010EA76FAB
:10176000000120EE01F0A251D926A351DA22A7C030
:10177000DFFF000120EE02F0A251D926A351DA22A8
:10178000A851DF6E0001A45109E09EC080F09FC007
:1017900081F0A4C082F0F0EC2DF009D0000120EE21
:1017A00003F0A251D926A351DA22DF6A00D0000E3D
:1017B00000D012000001A46F63D10101BA51BB1126
:1017C000BC11BD1101E168D1010E57D165D10101F4
:1017D000BAA10CD0000E0001846F010E856F0F0EB0
:1017E000866FE1EC29F00101BA9100D00101BAA3A2
:1017F0000CD00F0E0001846F010E856F110E866FE5
:10180000E1EC29F00101BA9300D00101BAA50CD096
:10181000200E0001846F010E856F020E866FE1ECD1
:1018200029F00101BA9500D00101BAA70CD0220E0F
:101830000001846F010E856F080E866FE1EC29F0C0
:101840000101BA9700D00101BAA90CD02A0E0001FB
:10185000846F010E856F040E866FE1EC29F00101A3
:10186000BA9900D00101BAAB0CD02E0E0001846FE2
:10187000010E856F020E866FE1EC29F00101BA9B23
:1018800000D00101BAAD0CD0300E0001846F010E02
:10189000856F020E866FE1EC29F00101BA9D00D040
:1018A0000101BAAF0CD0320E0001846F010E856FBA
:1018B0000F0E866FE1EC29F00101BA9F00D0010103
:1018C000BBA10CD0410E0001846F010E856F110E7B
:1018D000866FE1EC29F00101BB9100D00101BBA3AF
:1018E0000CD05E0E0001846F010E856F060E866FB0
:1018F000E1EC29F00101BB9300D00101BBA50CD0A4
:10190000640E0001846F010E856F050E866FE1EC99
:1019100029F00101BB9500D00101BBA70CD0690ED5
:101920000001846F010E856F200E866FE1EC29F0B7
:101930000101BB9700D00101BBA90CD0890E0001A9
:10194000846F010E856F200E866FE1EC29F0010196
:10195000BB9900D00101BBAB0CD0A90E0001846F74
:10196000010E856F020E866FE1EC29F00101BB9B31
:1019700000D00101BBAD0CD0AB0E0001846F010E95
:10198000856F020E866FE1EC29F00101BB9D00D04E
:101990000101BCA10CD0AE0E0001846F010E856F59
:1019A000010E866FE1EC29F00101BC9100D001012C
:1019B000BCA30CD0AF0E0001846F010E856F020E28
:1019C000866FE1EC29F00101BC9300D00101BCA5B8
:1019D0000CD0B10E0001846F010E856F020E866F70
:1019E000E1EC29F00101BC9500D00101BCA70CD0AD
:1019F000B30E0001846F010E856F020E866FE1EC5D
:101A000029F00101BC9700D00101BCA90CD0B50E92
:101A10000001846F010E856F020E866FE1EC29F0E4
:101A20000101BC9900D00101BCAB0CD0B70E000184
:101A3000846F010E856F010E866FE1EC29F00101C4
:101A4000BC9B00D00101BCAD17D0B80E0001846F63
:101A5000010E856F010E866FE1EC29F00101BC9D3E
:101A60000BD00AD0030E09D0A6EC04F00001A36F3E
:101A70000001A3512BEC32F0000E0001A46F0CD03A
:101A80000001A45101E199D6010A01E1A0D6030A9F
:101A9000E9E0010AE9E000D00001A45100D0120001
:101AA00059BC02D05AA203D0318A030E48D1010199
:101AB0003051B15DB251800A0001C56F0101315151
:101AC000800A0001C55905E3B1C14BF0B2C14CF029
:101AD00005D030C14BF031C14CF000D0010E516E39
:101AE0000101B76B0101BC8BAFC188F0B0C189F0B7
:101AF00097EC2FF088C090F089C091F08AC092F0E6
:101B000021EE30F0DECFC5F0DDCFC6F00001C51FFD
:101B1000C61FC54BC62B4B50C525886F4C50C621E0
:101B2000896F97EC2FF088C08DF089C08EF08AC045
:101B30008FF0A3EC1DF08DC09BF08EC09CF08FC089
:101B40009DF021EE30F0DECFC7F0DDCFC8F0000110
:101B5000C71FC81FC74BC82B01012E510001C72545
:101B6000886F01012F510001C821896F97EC2FF078
:101B700088C09EF089C09FF08AC0A0F005EC20F0DC
:101B800000019DAF60D0AD6BAE6BBF0EAF6F21EEAD
:101B900030F0DECFC5F0DDCFC6F0C51FC61FC54B88
:101BA000C62B01012E510001C525886F01012F515F
:101BB0000001C621896F97EC2FF088C09EF089C084
:101BC0009FF08AC0A0F0AFC188F0B0C189F097EC57
:101BD0002FF088C090F089C091F08AC092F021EE79
:101BE00030F0DECFC7F0DDCFC8F00001C71FC81F3F
:101BF000C74BC82B4B50C725886F4C50C821896FE5
:101C000097EC2FF088C08DF089C08EF08AC08FF0DD
:101C1000A3EC1DF08DC09BF08EC09CF08FC09DF09A
:101C200005EC20F09BC0AAF09CC0ABF09DC0ACF0CE
:101C3000E9EC15F0AAC0B6F0ABC0B7F0ACC0B8F094
:101C400019EC1FF060D00001AD6BAE6B3F0EAF6FB3
:101C500021EE30F0DECFC5F0DDCFC6F0C51FC61FC8
:101C6000C54BC62B01012E510001C525886F01010E
:101C70002F510001C621896F97EC2FF088C09EF08C
:101C800089C09FF08AC0A0F0AFC188F0B0C189F0D0
:101C900097EC2FF088C090F089C091F08AC092F044
:101CA00021EE30F0DECFC7F0DDCFC8F00001C71F56
:101CB000C81FC74BC82B4B50C725886F4C50C82135
:101CC000896F97EC2FF088C08DF089C08EF08AC0A4
:101CD0008FF0A3EC1DF08DC09BF08EC09CF08FC0E8
:101CE0009DF005EC20F09BC0AAF09CC0ABF09DC01D
:101CF000ACF0E9EC15F0AAC0B6F0ABC0B7F0ACC0E0
:101D0000B8F019EC1FF0B6C0C9F0B7C0CAF000D0E7
:101D100041C0C5F042C0C6F00001C51FC61FC54B7B
:101D2000C62BC951C525456ECA51C621466E45C050
:101D300082F046C083F0C9EC30F0000E00D01200F3
:101D4000000120EE02F08C51D9268D51DA22DF50AD
:101D5000916F8CC0D9FF8DC0DAFFDF50000891254C
:101D6000976F0001905101E110D1905197C091F00F
:101D7000926B9127000E922320EE04F08C51D9260D
:101D80008D51DA229151DE5C9251DE5801E2FDD094
:101D900001D0FBD000019051916F926B20EE04F0C6
:101DA0008C51D9268D51DA22DECF93F0DDCF94F01D
:101DB00020EE02F08C51D9268D51DA22DECF95F03B
:101DC000DDCF96F0951F961F954B962B9351952737
:101DD000945196239151955D9251965952E320EE7C
:101DE00002F08C51D9268D51DA22DECF91F0DDCF71
:101DF00092F020EE06F08C51D9268D51DA22DECFFA
:101E000093F0DDCF94F091519325806F92519421FE
:101E1000816F8EC082F08FC083F082518311D8A46D
:101E2000200E846F90C085F0866BF6EC2BF00001DD
:101E300020EE02F08C51D9268D51DA229051DE2607
:101E4000000EDD22000120EE04F08C51D9268D51C8
:101E5000DA2210EE02F08C51E1268D51E222DE50A2
:101E6000E61803E1DE50E618D8A48FD0000120EE7A
:101E700002F08C51D9268D51DA22000EDE6ADD6A1D
:101E800084D0000120EE04F08C51D9268D51DA2245
:101E9000DECF91F0DDCF92F020EE02F08C51D9260A
:101EA0008D51DA22DECF93F0DDCF94F0931F941F93
:101EB000934B942B915193259A6F925194219B6F40
:101EC000000120EE02F08C51D9268D51DA22DECFAE
:101ED00091F0DDCF92F020EE06F08C51D9268D5195
:101EE000DA22DECF93F0DDCF94F091519325806F0D
:101EF00092519421816F8EC082F08FC083F0825105
:101F00008311D8A4200E846F9AC085F09BC086F000
:101F1000F6EC2BF09AC091F09BC092F00001911F5B
:101F2000921F914B922B90519125986F000E922108
:101F3000996F000120EE06F08C51D9268D51DA22DE
:101F4000DECF80F0DDCF81F09A518E25916F9B51CD
:101F50008F21926F91C082F092C083F082518311E1
:101F6000D8A4200E846F98C085F099C086F0F6EC56
:101F70002BF0000120EE02F08C51D9268D51DA228F
:101F800098C0DEFF99C0DDFF00D012000001A56BF4
:101F9000A66BA76BA86B986B996B9A6B9B6B9C6BF2
:101FA0009D6B9E6B9F6B020E00018E25AC6F000E29
:101FB0008F21AD6FACC0D9FFADC0DAFFDF5000019B
:101FC000A06F0001AC4BAD2BACC0D9FFADC0DAFFA8
:101FD000DF500001A16F0001AC4BAD2BACC0D9FFAD
:101FE000ADC0DAFFDF500001A96F0001AC4BAD2B93
:101FF000490E0001A965DBD0EAD0EBD0D8D0ACC047
:10200000D9FFADC0DAFFDF500001A46F0001AC4B77
:10201000AD2BACC0D9FFADC0DAFFDF500001AB6F14
:10202000AC4BAD2BACD0040E0001AB1902E0CFD00D
:10203000D0D00001AA6B35D00001AA510008AB2511
:10204000916FD8909137D8909137D8909137F80EFA
:102050009127AA51010DF350AC25D96EF450AD2152
:10206000DA6EDF50926F936B912B04D0D890000101
:10207000923793370001912FF9D792C094F093C013
:1020800095F0000E95BFFF0E966F976F94519813C1
:102090009551991396519A1397519B130001AA2BAE
:1020A00000D00001AB51AA5DC7E3010E0001A56F8E
:1020B00072D0040E0001AB1902E089D08AD0000171
:1020C000AA6B35D00001AA510008AB25916FD890BA
:1020D0009137D8909137D8909137F80E9127AA511F
:1020E000010DF350AC25D96EF450AD21DA6EDF50FE
:1020F000926F936B912B04D0D89000019237933755
:102100000001912FF9D792C094F093C095F0000E82
:1021100095BFFF0E966F976F94519C1395519D1329
:1021200096519E1397519F130001AA2B00D00001D6
:10213000AB51AA5DC7E3010E0001A66F2CD00001D0
:10214000AB0502E044D045D0ACC0D9FFADC0DAFF4A
:10215000DF500001A26F010E0001A76F1CD000012B
:10216000AB0502E034D035D0ACC0D9FFADC0DAFF4A
:10217000DF500001A36F010E0001A86F0CD0000119
:10218000A451050A01E14FD7030A93E0010AD7E001
:102190000F0AE5E000D00001AB51010DF350AC2770
:1021A000F450AD230001AB51020FA95F00D0000134
:1021B000A95101E024D70001A50509E1A60507E121
:1021C000A70505E1A80503E10DEC14F000D0240EED
:1021D00000D01200DDEC31F001013051B15DB2519F
:1021E000800A0001C56F01013151800A0001C55903
:1021F00005E3B1C14BF0B2C14CF005D030C14BF09A
:1022000031C14CF000D00101B32902E1B42905E04D
:10221000B3C149F0B4C14AF000D0AFC188F0B0C139
:1022200089F097EC2FF088C090F089C091F08AC0B7
:1022300092F0B5C188F0B6C189F097EC2FF088C054
:102240008DF089C08EF08AC08FF0A3EC1DF08DC098
:102250009BF08EC09CF08FC09DF021EE30F0DECF61
:10226000C5F0DDCFC6F00001C51FC61FC54BC62B8C
:1022700001012E510001C525886F01012F51000178
:10228000C621896F97EC2FF088C09EF089C09FF01F
:102290008AC0A0F005EC20F000019DAF53D0AD6BDB
:1022A000AE6BBF0EAF6F21EE30F0DECFC5F0DDCFED
:1022B000C6F0C51FC61FC54BC62B01012E5100011C
:1022C000C525886F01012F510001C621896F97EC48
:1022D0002FF088C09EF089C09FF08AC0A0F0AFC1E7
:1022E00088F0B0C189F097EC2FF088C090F089C0D9
:1022F00091F08AC092F0B5C188F0B6C189F097EC30
:102300002FF088C08DF089C08EF08AC08FF0A3ECCA
:102310001DF08DC09BF08EC09CF08FC09DF005EC31
:1023200020F09BC0AAF09CC0ABF09DC0ACF0E9ECE3
:1023300015F0AAC0B6F0ABC0B7F0ACC0B8F019EC5D
:102340001FF053D00001AD6BAE6B3F0EAF6F21EEAF
:1023500030F0DECFC5F0DDCFC6F0C51FC61FC54BC0
:10236000C62B01012E510001C525886F01012F5197
:102370000001C621896F97EC2FF088C09EF089C0BC
:102380009FF08AC0A0F0AFC188F0B0C189F097EC8F
:102390002FF088C090F089C091F08AC092F0B5C14A
:1023A00088F0B6C189F097EC2FF088C08DF089C015
:1023B0008EF08AC08FF0A3EC1DF08DC09BF08EC014
:1023C0009CF08FC09DF005EC20F09BC0AAF09CC053
:1023D000ABF09DC0ACF0E9EC15F0AAC0B6F0ABC014
:1023E000B7F0ACC0B8F019EC1FF0B6C041F0B7C000
:1023F00042F000D01200000120EE02F08C51D926EC
:102400008D51DA22DF50916F8CC0D9FF8DC0DAFF79
:10241000DF5000089125976F0001905101E1F7D03E
:102420009051975D01E2F3D001D0F1D000019051BD
:10243000916F926B20EE04F08C51D9268D51DA22E7
:10244000DECF93F0DDCF94F08CC0D9FF8DC0DAFFE2
:10245000DECF95F0DDCF96F0951F961F954B962B0E
:1024600093519527945196239151955D9251965988
:102470004DE38EC080F08FC081F08CC0D9FF8DC03D
:10248000DAFFDECF91F0DDCF92F020EE06F08C5136
:10249000D9268D51DA22DECF93F0DDCF94F0915121
:1024A0009325956F92519421966F95C082F096C0B6
:1024B00083F082518311D8A4200E846F90C085F0E0
:1024C000866BF6EC2BF0000190518CC0D9FF8DC0CB
:1024D000DAFFDE26000EDD22000120EE04F08C5132
:1024E000D9268D51DA228CC0E1FF8DC0E2FFDE508B
:1024F000E61803E1DE50E618D8A489D08CC0D9FFD5
:102500008DC0DAFF000EDE6ADD6A81D0000120EEA8
:1025100004F08C51D9268D51DA22DECF91F0DDCF37
:1025200092F08CC0D9FF8DC0DAFFDECF93F0DDCF03
:1025300094F0931F941F934B942B915193259A6F72
:10254000925194219B6F8EC080F08FC081F08CC01F
:10255000D9FF8DC0DAFFDECF91F0DDCF92F0000120
:1025600020EE06F08C51D9268D51DA22DECF93F081
:10257000DDCF94F091519325956F92519421966FF0
:1025800095C082F096C083F082518311D8A4200EAA
:10259000846F9AC085F09BC086F0F6EC2BF09AC051
:1025A00091F09BC092F00001911F921F914B922BD2
:1025B00090519125986F000E9221996F00019A51C8
:1025C0008E25806F9B518F21816F20EE06F08C51FC
:1025D000D9268D51DA22DECF91F0DDCF92F091C075
:1025E00082F092C083F082518311D8A4200E846FB0
:1025F00098C085F099C086F0F6EC2BF08CC0D9FF1E
:102600008DC0DAFF98C0DEFF99C0DDFF00D0120058
:1026100059BC02D05AA20CD0F60E0001836F000EF6
:10262000846FF80E856F000E866F3FEC25F003D0A7
:10263000318A030EF1D0F5EC31F0AFC188F0B0C1B2
:1026400089F097EC2FF088C090F089C091F08AC093
:1026500092F00101B8511AEC30F088C08DF089C0B9
:102660008EF08AC08FF0A3EC1DF08DC09BF08EC061
:102670009CF08FC09DF021EE30F0DECFC5F0DDCFB5
:10268000C6F00001C51FC61FC54BC62B01012E5148
:102690000001C525886F01012F510001C621896FF6
:1026A00097EC2FF088C09EF089C09FF08AC0A0F000
:1026B00005EC20F000019DAF51D0AD6BAE6BBF0EAD
:1026C000AF6F21EE30F0DECFC5F0DDCFC6F0C51F15
:1026D000C61FC54BC62B01012E510001C525886FB1
:1026E00001012F510001C621896F97EC2FF088C09E
:1026F0009EF089C09FF08AC0A0F0AFC188F0B0C141
:1027000089F097EC2FF088C090F089C091F08AC0D2
:1027100092F00101B8511AEC30F088C08DF089C0F8
:102720008EF08AC08FF0A3EC1DF08DC09BF08EC0A0
:102730009CF08FC09DF005EC20F09BC0AAF09CC0DF
:10274000ABF09DC0ACF0E9EC15F0AAC0B6F0ABC0A0
:10275000B7F0ACC0B8F019EC1FF051D00001AD6B70
:10276000AE6B3F0EAF6F21EE30F0DECFC5F0DDCFA8
:10277000C6F0C51FC61FC54BC62B01012E51000157
:10278000C525886F01012F510001C621896F97EC83
:102790002FF088C09EF089C09FF08AC0A0F0AFC122
:1027A00088F0B0C189F097EC2FF088C090F089C014
:1027B00091F08AC092F00101B8511AEC30F088C053
:1027C0008DF089C08EF08AC08FF0A3EC1DF08DC013
:1027D0009BF08EC09CF08FC09DF005EC20F09BC05C
:1027E000AAF09CC0ABF09DC0ACF0E9EC15F0AAC01B
:1027F000B6F0ABC0B7F0ACC0B8F019EC1FF0B6C083
:10280000C7F0B7C0C8F000D0C7C082F0C8C083F01E
:10281000C9EC30F0000E00D01200000E0001826FF3
:10282000020E836F500E0001846F020E856F866B5F
:10283000876B500E0001886F020E896F8A6B8B6B5D
:102840008225806F000E8321816F80C08CF081C053
:102850008DF082C0D9FF83C0DAFF80C2DFFF0001A4
:1028600020EE01F08251D9268351DA22BF0EDF6EAD
:102870008CC0D9FF8DC0DAFF810EDF6E00018C4B5A
:102880008D2B8CC0D9FF8DC0DAFF800EDF6E00016A
:102890008C4B8D2B8CC0D9FF8DC0DAFF120EDF6EF2
:1028A00000018C4B8D2B8CC0D9FF8DC0DAFF050E3B
:1028B000DF6E00018C4B8D2B8CC0D9FF8DC0DAFFF1
:1028C000040EDF6E00018C4B8D2B8CC0D9FF8DC0A8
:1028D000DAFF87C0DFFF00018C4B8D2B8CC0D9FF46
:1028E0008DC0DAFF86C0DFFF00018C4B8D2B8CC0C2
:1028F000D9FF8DC0DAFF85C0DFFF00018C4B8D2B27
:102900008CC0D9FF8DC0DAFF84C0DFFF00018C4B83
:102910008D2B8CC0D9FF8DC0DAFF060EDF6E000153
:102920008C4B8D2B8CC0D9FF8DC0DAFF040EDF6E6F
:1029300000018C4B8D2B8CC0D9FF8DC0DAFF8BC072
:10294000DFFF00018C4B8D2B8CC0D9FF8DC0DAFFCF
:102950008AC0DFFF00018C4B8D2B8CC0D9FF8DC04E
:10296000DAFF89C0DFFF00018C4B8D2B8CC0D9FFB3
:102970008DC0DAFF88C0DFFF00018C4B8D2B8CC02F
:10298000D9FF8DC0DAFF070EDF6E00018C4B8D2B57
:102990008CC0D9FF8DC0DAFF010EDF6E00018C4BB9
:1029A0008D2B8CC0D9FF8DC0DAFF010EDF6E0001C8
:1029B0008C4B8D2B8CC0D9FF8DC0DAFF080EDF6EDB
:1029C00000018C4B8D2B8CC0D9FF8DC0DAFF010E1E
:1029D000DF6E00018C4B8D2B8CC0D9FF8DC0DAFFD0
:1029E000010EDF6E00018C4B8D2B00018051000821
:1029F0008C25020FD96F00D012000001CC6B53EC74
:102A000032F0D1901AEC2EF04BEC32F07FEC1BF050
:102A1000D0A0D0B206D0D080D082D0880001CC81A6
:102A200000D0D0A0D0A206D0D080D082D088000123
:102A3000CC8300D0D0B403D00001CC8500D0D0B678
:102A400003D00001CC8700D0D0B803D00001CC89DE
:102A500000D039EC30F043EC32F0010EF1EC27F00D
:102A600021EC32F05AEC32F0EAEC10F00201806B0B
:102A70000201816B820E0001806F020E816FF20EE7
:102A8000826F040E836F8211D8A4000E846F866B50
:102A9000020E856FF6EC2BF0840E0001806F020EA3
:102AA000816F0F0E826F010E836F8211D8A4200EEA
:102AB000846F866B110E856FF6EC2BF0010E4E6E57
:102AC000D18004000001CD6B040E0001CD6501D062
:102AD000F8D70001CD510B0D090EF326000EF4229C
:102AE000BE0EF324D96E010EF420DA6EDE50DE1035
:102AF0006AE0CD510B0DBE0EF324D96E010EF42009
:102B0000DA6ECD510B0D040EF326000EF422BE0E2C
:102B1000F324E16E010EF420E26EDE50E65CDE503E
:102B2000E658DE50E658DE50E6584DE3CD510B0D29
:102B3000090EF326000EF422BE0EF324D96E010E08
:102B4000F420DA6EDECFE2F3DDCFE3F301D818D064
:102B50000500FA6E0301E251FD6EE351FE6EFF6A5D
:102B6000FA500001CD510B0D080EF326000EF42291
:102B7000BE0EF324D96E010EF420DA6EDF5012007F
:102B80000301E46F0001CD510B0D080EF326000E7A
:102B9000F422BE0EF324D96E010EF420DA6EE4C3E3
:102BA000DFFF0001CD510B0D040EF326000EF422C1
:102BB000BE0EF324D96E010EF420DA6EDE6ADE6AF0
:102BC000DE6ADD6A00D00001CD2B7ED77AD751EFC7
:102BD00002F0ACC0B0F00001B16BB26BAB35B037F6
:102BE00001E3B1810001B051B56FAFC0B0F0B16B7E
:102BF000B26BAE35B03701E3B1810001B051B46FB3
:102C00000001B5510AE0B451B55D0EE2B5510008BE
:102C1000B425B06F180EB06507D0ADC0AAF0AEC035
:102C2000ABF0AFC0ACF0A9D00001B4510AE0B5518F
:102C3000B45D0EE2B4510008B525B06F180EB06552
:102C400007D0AAC0AAF0ABC0ABF0ACC0ACF095D036
:102C5000060E0001B36F0001ACBFB38F00D00001BE
:102C6000AFBFB38DAB8F0001AC6BAE8F0001AF6B0C
:102C70000001B451B55D1FE20001D890AD37AE3709
:102C8000AF37B4070001B551B4190FE0B307B3C0B3
:102C9000B0F0070EB01709E0EFD707D00001D890C9
:102CA000AC33AB33AA33B52B00D00001B451B51906
:102CB00025E0F4D723D00001B551B45D1FE2000137
:102CC000D890AA37AB37AC37B5070001B551B41966
:102CD0000FE0B307B3C0B0F0070EB01709E0EFD7AD
:102CE00007D00001D890AF33AE33AD33B42B00D052
:102CF0000001B451B51902E0F4D700D00001B3AF20
:102D000007D0AA1FAB1FAC1FAA2B000EAB23AC230E
:102D10000001B3AD08D0AD1FAE1FAF1FAD2B000E2D
:102D2000AE23AF2300D00001B36B0001AA51AD2741
:102D3000AB51AE23AC51AF230001AFAF0BD0AD1FF1
:102D4000AE1FAF1FAD2B000EAE23AF23010E00014F
:102D5000B36F00D0ADC080F0AEC081F0AFC082F0E4
:102D6000B5C083F0B3C084F0E3EC24F080C0AAF0D7
:102D700081C0ABF082C0ACF000D012009CC0A1F0CA
:102D80009DC0A2F09EC0A5F09FC0A6F0A5C0D9FF2F
:102D9000A6C0DAFF050EDF6E0001A46B430EA36F21
:102DA000000120EE01F0A551D926A651DA22A3C0D8
:102DB000DFFF000120EE02F0A551D926A651DA224C
:102DC000A451DF6E000120EE01F09C51D9269D51E7
:102DD000DA22DF500AE09EC080F09FC081F0240E0E
:102DE000826FF0EC2DF096D097D0000120EE04F029
:102DF000A551D926A651DA220F0EDF6E050E00016D
:102E0000A525806F000EA621816F320E826F010E04
:102E1000836F8211D8A4200E846F20EE04F0A55198
:102E2000D926A651DA22DF50A06FA051856F866B9C
:102E3000F6EC2BF0000120EE14F0A551D926A65196
:102E4000DA22110EDF6E150EA525806F000EA62169
:102E5000816F0F0E826F010E836F8211D8A4200E36
:102E6000846F20EE14F0A551D926A651DA22DF5046
:102E7000A06FA051856F866BF6EC2BF0000120EE61
:102E800026F0A551D926A651DA220F0EDF6E270EA5
:102E90000001A525806F000EA621816FC00E826FF4
:102EA000040E836F846B20EE26F0A551D926A6511F
:102EB000DA22DF50A06FA051856F866BF6EC2BF005
:102EC000000120EE36F0A551D926A651DA220F0EC8
:102ED000DF6E370E0001A525806F000EA621816FE1
:102EE000B00E826F040E836F846B20EE36F0A55116
:102EF000D926A651DA22DF50A06FA051856F866BCC
:102F0000F6EC2BF0000120EE03F0A551D926A651D6
:102F1000DA22DF6A000E00D01200000E0001AD6F51
:102F2000030EAE6F020E0201811901E0AED001D096
:102F3000ACD0000120EE01F0A951D926AA51DA2225
:102F4000DF503BEC32F00001AC6F0001AC510201EC
:102F5000BD1901E085D029EC31F0E80632E100012D
:102F600020EE03F0AD51D926AE51DA223EC0DFFF8C
:102F7000070EECEC2CF080C0D0F081C0D1F0000145
:102F8000D051D11101E181D001D07FD0000E0001DC
:102F90009C6B9D6BADC09EF0AEC09FF001D80AD077
:102FA0000500FA6E0001D051FD6ED151FE6EFF6A30
:102FB000FA501200ADC08CF0AEC08DF0E6EC20F0FF
:102FC00064D03C500EE13B0409E1320E3D1803E0B1
:102FD000410E3D1803E15AEC2CF057D029EC2CF0AF
:102FE00054D03B5009E1320E3D1803E0410E3D182C
:102FF00003E129EC2CF049D03B6A3C6A000120EE49
:1030000003F0AD51D926AE51DA223EC0DFFF3D506C
:10301000ECEC2CF080C0D0F081C0D1F00001D05198
:10302000D11103E129EC2CF030D0000E00019C6B93
:103030009D6BADC09EF0AEC09FF001D80AD00500D8
:10304000FA6E0001D051FD6ED151FE6EFF6AFA504A
:103050001200ADC08CF0AEC08DF0E6EC20F015D0C3
:10306000DAC0D9F0000E0001806F020E816F000EF1
:10307000826F040E836F8211D8A4200E846FD9C092
:1030800085F0866BF6EC2BF000D012000001866F05
:10309000000E0001876F020E886F020E0001872567
:1030A000846F000E8821856F84C089F085C08AF006
:1030B00087C0D9FF88C0DAFF80C2DFFF000120EEA1
:1030C00001F08751D9268851DA22BF0EDF6E89C000
:1030D000D9FF8AC0DAFF810EDF6E0001894B8A2B8F
:1030E00089C0D9FF8AC0DAFFF00EDF6E0001894B7C
:1030F0008A2B00018151040DF3CF82F08051030D22
:10310000F3CF83F08651030DF3508325822589C0C8
:10311000D9FF8AC0DAFFDF6E0001894B8A2B0001DC
:1031200086051CE189C0D9FF8AC0DAFF140EDF6E64
:103130000001894B8A2B89C0D9FF8AC0DAFF010EB2
:10314000DF6E0001894B8A2B89C0D9FF8AC0DAFF64
:10315000020EDF6E0001894B8A2B00D00001800532
:103160001CE189C0D9FF8AC0DAFF050EDF6E0001BD
:10317000894B8A2B89C0D9FF8AC0DAFF010EDF6E26
:103180000001894B8A2B89C0D9FF8AC0DAFF070E5C
:10319000DF6E0001894B8A2B00D00001810524E1FC
:1031A00089C0D9FF8AC0DAFF150EDF6E0001894B96
:1031B0008A2B89C0D9FF8AC0DAFF020EDF6E0001B8
:1031C000894B8A2B89C0D9FF8AC0DAFF010EDF6ED6
:1031D0000001894B8A2B89C0D9FF8AC0DAFFDF6AD8
:1031E0000001894B8A2B00D00001845100088925F9
:1031F000020FD96F00D01200020E0001A925B26F94
:10320000000EAA21B36F000EAF6F030EB06FAB516B
:10321000FB0FAE6F020E0201811901E09BD001D0BD
:1032200099D0000120EE01F0A951D926AA51DA2245
:10323000DF503BEC32F00001AD6F20EE01F0A95100
:10324000D926AA51DA22DF5033EC32F00001B16FF7
:103250000001B1510201BC190FE001D00DD00001F5
:10326000B12BB151070BB16FB1510201BC1904E18F
:103270005AEC2CF06FD000D00001AD510201BD1905
:1032800017E001D015D0DAC0D9F0000E0001806F30
:10329000020E816F000E826F040E836F8211D8A41C
:1032A000200E846FD9C085F0866BF6EC2BF052D0DF
:1032B0000201BC2BBC51070BBC6F000120EE02F0D9
:1032C000B251D926B351DA22DF5044E120EE01F0A9
:1032D000B251D926B351DA22AE51DE183BE101D00A
:1032E00039D0B2C0D9FFB3C0DAFFDF50ECEC2CF01C
:1032F00080C0D0F081C0D1F00001D051D1112AE0BE
:1033000001D028D0B2C09CF0B3C09DF0AFC09EF0F9
:10331000B0C09FF001D80AD00500FA6E0001D0516C
:10332000FD6ED151FE6EFF6AFA501200330A07E0BB
:10333000AFC08CF0B0C08DF0E6EC20F00BD0B2C086
:10334000D9FFB3C0DAFFDF503D6E010E3B6E5AEC81
:103350002CF000D01200000E00018E6F020E8F6F55
:10336000020E8E258C6F000E8F218D6F8CC090F019
:103370008DC091F08EC0D9FF8FC0DAFFDF6A0001E7
:1033800020EE01F08E51D9268F51DA22BF0EDF6E6A
:1033900090C0D9FF91C0DAFF810EDF6E0001904B23
:1033A000912B90C0D9FF91C0DAFFF00EDF6E0001C3
:1033B000904B912B90C0D9FF91C0DAFF1C0EDF6EAD
:1033C0000001904B912B90C0D9FF91C0DAFF010E04
:1033D000DF6E0001904B912B90C0D9FF91C0DAFFB6
:1033E000130EDF6E0001904B912B90C080F091C0C6
:1033F00081F0820E0001826F020E836F8211D8A4C9
:10340000200E846F866B130E856FF6EC2BF0130E77
:1034100000019027000E912390C0D9FF91C0DAFFE0
:10342000060EDF6E0001904B912B90C0D9FF91C02A
:10343000DAFF020EDF6E0001904B912B90C080F0FE
:1034400091C081F0F20E0001826F040E836F821131
:10345000D8A4000E846F866B020E856FF6EC2BF0FD
:10346000020E00019027000E912390C0D9FF91C059
:10347000DAFF040EDF6E0001904B912B90C0D9FF54
:1034800091C0DAFF010EDF6E0001904B912B90C0CE
:10349000D9FF91C0DAFF010EDF6E0001904B912B36
:1034A00000018C5100089025020FD96F00D0120046
:1034B0009EC0A7F09FC0A8F00001A66BA7C0D9FFCF
:1034C000A8C0DAFF070EDF6E72EC32F00001A46FC5
:1034D0006DEC32F00001A56F0001A45128E0A65167
:1034E000020D030EF326000EF422F350A725D96E29
:1034F000F450A821DA6EA4C0DFFFA651020D030E1E
:10350000F326000EF422A7C0A0F0A8C0A1F0F3504B
:10351000A027F450A123A029D96E000EA121DA6EB4
:10352000000EDF6E0001A55102E0A62B00D00001C5
:10353000A55124E0A651020D030EF326000EF4223D
:10354000F350A725D96EF450A821DA6EA5C0DFFF8D
:10355000A651020D030EF326000EF422A7C0A0F020
:10356000A8C0A1F0F350A027F450A123A029D96E40
:10357000000EA121DA6E010EDF6E00D00001A6510F
:10358000A06FA16BA01FA11FA04BA12BD890A037AB
:10359000A137020EA027000EA123A01FA11FA04B40
:1035A000A12B040EA025A26F000EA121A36F000184
:1035B00020EE01F0A751D926A851DA22A2C0DFFFE0
:1035C000000120EE02F0A751D926A851DA22A3511A
:1035D000DF6E97EC32F0000E00D01200010E0001F9
:1035E000896F010E0001846504D0886B020E876F1D
:1035F00004D084C087F00001886B87C08DF0000183
:103600008F6B2CD000018F51010DF3508025D96EA6
:10361000F4508121DA6EDF508A6F8F51010DF35023
:103620008225D96EF4508321DA6EDF508E6F00014F
:103630008A518E158B6F00018F51010D820EF3247C
:10364000D96E020EF420DA6EDF508E158C6F8B1956
:1036500002E048D053D000018F2B00D000018D51E3
:103660008F5DD0E3020E00018D6102D044D046D0C0
:1036700000018451FE0F8D6F00018F6B38D0000167
:103680008F51856F866B020E8527000E862385512C
:103690008025D96E86518121DA6EDF508A6F8F5175
:1036A000856F866B020E8527000E86238551822545
:1036B000D96E86518321DA6EDF508E6F00018A51F8
:1036C0008E158B6F00018F51010D0F0EF324D96EF3
:1036D000010EF420DA6EDF508E158C6F00018B51D5
:1036E0008C1902E0000E0AD000018F2B00D00001DF
:1036F0008D518F5DC4E30001895100D01200000E8E
:1037000000018F6F010E906F00018E6BBA0E8D6FEE
:103710000101BA6BBB6BBC6BBD6B0001926B916B13
:1037200012D091C080F092C081F0A9EC31F08FC02E
:10373000D9FF90C0DAFFDF6E00018F4B902B0001A4
:10374000914B922B00D000018D51915D8E51925979
:10375000E8E3320E0001806F010E816FFAEC2FF06A
:1037600080C091F081C092F00001925113E10F0EE0
:10377000915D10E201D00ED0320E00019125D96E7C
:10378000010E9221DA6E000EDF6E0001914B922B3A
:10379000EBD700D00F0E00018F6F010E906F000E5F
:1037A0000001926F916F0001925123E1110E915D22
:1037B00020E201D01ED08FC0D9FF90C0DAFFDE28F2
:1037C00011E08FC0D9FF90C0DAFFDF500BE001019C
:1037D000AE2902E120D021D00F0E0101AE191DE16A
:1037E00031841BD000018F4B902B914B922BDBD758
:1037F00000D00F0E0001806F010E816FD10E826F1D
:10380000040E836F8211D8A4000E846F866B110E94
:10381000856FF6EC2BF0318200D012009CC0A2F034
:103820009DC0A3F09EC0A5F09FC0A6F0A5C0D9FF83
:10383000A6C0DAFF410EDF6E010E0001A46F000189
:1038400020EE01F0A551D926A651DA22A4C0DFFF4F
:10385000000120EE02F0A551D926A651DA22DF6A36
:1038600000019C519D114AE020EE01F0A251D926A1
:10387000A351DA22DF50A46F030E0001A225A06F2E
:10388000000EA321A16FDE0E00018C6F000E8D6F64
:10389000A0C08EF0A1C08FF0A4C090F0A0EC0EF0FC
:1038A0000001D65110E120EE03F0A551D926A65112
:1038B000DA22DF6A3F0E0001A46502D0330E38D051
:1038C0003B6A34D035D0000120EE03F0A551D92653
:1038D000A651DA22220EDF6E3B6A9EC080F09FC0A6
:1038E00081F0000120EE03F0A551D926A651DA227D
:1038F000DF50826FF0EC2DF019D01AD0000120EECD
:1039000003F0A551D926A651DA22DF500FE09EC060
:1039100080F09FC081F020EE03F0A551D926A6517A
:10392000DA22DF50826FF0EC2DF000D0000E00D0D4
:1039300012000001BF6F0001BE6B0001DD51010DDF
:10394000800EF324D96E050EF420DA6EBFC0DFFFBF
:103950000001DD2B7E0E0001BF1934E1D70502E125
:10396000D76B29D0010E0001D86525D0B80ED21929
:1039700022E1F00ED319D8A41ED0800E0001806F72
:10398000050E816FDDC082F0010E9DEC32F000016A
:10399000DD6B000E0001B56F050EB66FD8C0BDF02F
:1039A000FE0EBD27BD51B76FB86B91EC1FF0010E35
:1039B0000001BE6F00D00001D86B0001D269D3694D
:1039C00039D03BD00001D75105E0D76B200E000164
:1039D000BF1B09D07D0E0001BF1905E1010ED76F95
:1039E00029D02BD000D00001D851010D000EF324B6
:1039F000D96E050EF420DA6EBFC0DFFFD2C080F0B2
:103A0000D3C081F0BFC082F046EC2DF080C0D2F070
:103A100081C0D3F00001D82B7F0E0001D86505D0FE
:103A2000D86B0001D21FD31F00D07F0E0001DD65CF
:103A300001D0DD6B0001BE5100D01200000E00016C
:103A40008E6F020E8F6F020E8E258C6F000E8F21EF
:103A50008D6F8CC090F08DC091F08EC0D9FF8FC05B
:103A6000DAFF80C2DFFF000120EE01F08E51D9267F
:103A70008F51DA22BF0EDF6E90C0D9FF91C0DAFFFE
:103A8000810EDF6E0001904B912B90C0D9FF91C049
:103A9000DAFFF00EDF6E0001904B912B90C0D9FF42
:103AA00091C0DAFF180EDF6E0001904B912B90C091
:103AB000D9FF91C0DAFF010EDF6E0001904B912B10
:103AC00090C0D9FF91C0DAFF130EDF6E0001904B5A
:103AD000912B90C080F091C081F0820E0001826F26
:103AE000020E836F8211D8A4200E846F866B130E92
:103AF000856FF6EC2BF0130E00019027000E91233A
:103B000090C0D9FF91C0DAFF040EDF6E0001904B28
:103B1000912B90C0D9FF91C0DAFF010EDF6E00013A
:103B2000904B912B90C0D9FF91C0DAFF010EDF6E50
:103B30000001904B912B00018C5100089025020F41
:103B4000D96F00D012008FC093F00001946B956B79
:103B50008E35933701E3948100019351966F96510E
:103B600002E10FD06FD092C093F00001946B956B7F
:103B70009135933701E3948100019351976F9751E9
:103B800006E1000E00018D6B8E6B8F6B5BD0000128
:103B900097517B0F96278FC097F000019251971B8A
:103BA000800E971700018E8F0001918F0001926B9C
:103BB0000001986B996B9A6B00018F6B00018D511E
:103BC0009003F4CFF3FFF46AF3CF98F0F4CF99F0B9
:103BD0009A6B00018D519103F3509827F45099236B
:103BE000000E9A2300018E519003F3509827F45051
:103BF0009923000E9A2300018E519103F3509927C7
:103C0000F4509A2300019AAF05D0D8909A33993393
:103C10009833962B0001D8909A339933983398C0F3
:103C200080F099C081F09AC082F096C083F097C06E
:103C300084F0E3EC24F080C08DF081C08EF082C06F
:103C40008FF000D0120007EE00F011EE00F0EE6AE7
:103C5000E550E150FCE1E250FAE106EE00F011EE31
:103C600000F0EE6AE550E150FCE1E250FAE105EEC9
:103C700000F011EE00F0EE6AE550E150FCE1E25098
:103C8000FAE104EE00F011EE00F0EE6AE550E150CA
:103C9000FCE1E250FAE103EE00F0920EEE6AE80673
:103CA000FDE102EE00F011EE00F0EE6AE550E150A9
:103CB000FCE1E250FAE101EE00F0BE0EEE6AE80629
:103CC000FDE100EECEF02C0EEE6AE806FDE100EE1E
:103CD00031F02C0EEE6AE806FDE1D80EF66E5C0EB1
:103CE000F76E000EF86E03EE92F010EE50F0090041
:103CF000F5CFEEFFE550E150FAE1240EF66E610ECD
:103D0000F76E000EF86E01EEBEF010EE37F009000F
:103D1000F5CFEEFFE550E150FAE11C0EF66E650EB0
:103D2000F76E000EF86E00EEFAF010EE06F00900E5
:103D3000F5CFEEFFE550E150FAE10001FDEF14F0A0
:103D40009CC0A1F09DC0A2F09EC0A6F09FC0A7F0AD
:103D5000A6C0D9FFA7C0DAFF330EDF6E0001A46B47
:103D6000010EA36F000120EE01F0A651D926A75144
:103D7000DA22A3C0DFFF000120EE02F0A651D9260F
:103D8000A751DA22A451DF6E00019C519D1139E048
:103D900020EE01F09C51D9269D51DA22020EDE1848
:103DA0000AE09EC080F09FC081F0240E826FF0EC8C
:103DB0002DF03CD03DD0000120EE03F0A151D926DA
:103DC000A251DA22DECF81F0DDCF82F08BEC2CF035
:103DD0000001A56F0001A5510AE09EC080F09FC0C0
:103DE00081F0A5C082F0F0EC2DF020D021D00001B0
:103DF00020EE03F0A651D926A751DA22DF6A330E4E
:103E000017D0000120EE03F0A651D926A751DA22DF
:103E1000DF50A56F0001A55109E09EC080F09FC052
:103E200081F0A5C082F0F0EC2DF000D0000E00D0A3
:103E30001200B8C0BAF00001BB6BBC6BB735BA3723
:103E400001E3BB810001BA51C46FC45102E13ED00D
:103E500067D0170E0001BA6FB6C0BBF0B7C0BCF098
:103E6000B8C0BDF0BA29BE6F05D00001D890BD33EF
:103E7000BC33BB330001BE2FF8D7BB51BF6F00016D
:103E8000B78F0001B86B0001B651C06FB751C16F59
:103E9000B851C26FC36B8E0E0001C45F0001C4AF86
:103EA00011D0C451800A8F0F03E210D039D000D056
:103EB0000001D890C333C233C133C0330001C43FC3
:103EC000F7D719D0170E0001C46510D0000E0001FD
:103ED000B66BB76BB86BB96B23D008D00001D89024
:103EE000C037C137C237C337C40700D00001C4513F
:103EF00002E0F4D700D00001BF5109E0C31FC21F88
:103F0000C11FC06D000EC123C223C32300D0C0C097
:103F1000B6F0C1C0B7F0C2C0B8F0C3C0B9F000D0AD
:103F20001200B5C0BBF0B6C0BCF00001D96BBBC07D
:103F3000D9FFBCC0DAFFDE2808E0BBC0D9FFBCC097
:103F4000DAFF02018051DE185FE1BBC0D9FFBCC0BF
:103F5000DAFFDF5059E0BBC0D9FFBCC0DAFFDE2872
:103F60000BE0BBC0D9FFBCC0DAFF02018051DE18F4
:103F700003E1010E0001DC6F010E506E000120EE26
:103F800001F0BB51D926BC51DA22DF5040EC28F0B9
:103F90000001BA6F2DD0BBC0AEF0BCC0AFF0B7C04F
:103FA000B0F053EC2BF030D0BBC086F0BCC087F033
:103FB000B7C088F09AEC31F027D0BBC086F0BCC007
:103FC00087F0B7C088F067EC32F01ED0BBC0A9F014
:103FD000BCC0AAF0B7C0ABF08DEC17F015D0BBC0D9
:103FE000A9F0BCC0AAF0B7C0ABF0FCEC18F00CD044
:103FF0000001BA51F4E0010AE9E0420ADEE0C00A39
:10400000D3E02C0AC8E000D012009DC0A1F000014E
:10401000A26BA36B9C35A13701E3A2810001A151E2
:10402000A86FA85102E10FD061D0A0C0A1F000019B
:10403000A26BA36B9F35A13701E3A2810001A151BF
:10404000A96FA95106E1000E00019B6B9C6B9D6B53
:104050004DD00001A56BA66BA76B0001A951890F7C
:10406000A85F9DC0A9F00001A051A91B800E00010E
:10407000A91700019C8F00019D6B00019F8F00011B
:10408000A06B180E0001A46F00D00001D890A537D6
:10409000A637A73700019E519B5D9F519C59A051A7
:1040A0009D5908E39E519B5F9F519C5BA0519D5B76
:1040B0000001A5810001D8909B379C379D370001F6
:1040C000A42FE3D700D0A5C080F0A6C081F0A7C080
:1040D00082F0A8C083F0A9C084F0E3EC24F080C093
:1040E0009BF081C09CF082C09DF000D012000001C6
:1040F0009E6F00019C6B5CD065D076EC30F0030EB7
:1041000054D00101D1055EE002D05CD000D00001A6
:10411000DE510008E0259D6F400E9D6101D031D039
:10412000DE0E00018C6F000E8D6FC00E8E6F020EC2
:104130008F6F400E906FFBEC11F07D0E485C16E225
:1041400037C095F038C096F039C097F03AC098F073
:10415000C00E0001996F020E9A6F1BEC2BF0400EFF
:104160003726000E382239223A2203D0010E0001F0
:10417000D66F010E00019C6F400E00019D61C7D7F4
:1041800000D000019C051EE1010E3C6E3E6A9C6B56
:1041900019D05A0E0001CE1907E15A0ECF19D8A432
:1041A00003D0010E0001D56F000E00019E6F0AD0F2
:1041B00000019E5107E0010AA0E0030AEAE0010ABB
:1041C000A0E000D000019E5100D01200000E0001BE
:1041D0008F6F020E906F8FC0D9FF90C0DAFF80C240
:1041E000DFFF000120EE01F08F51D9269051DA2235
:1041F000100EDF6E010E00018F25806F000E9021E2
:10420000816FBCC282F0FCEC30F0010E00018F2502
:10421000806F000E9021816FBDC282F079EC31F089
:10422000020E00018F25806F000E9021816F8CC0DF
:1042300082F08DC083F082518311D8A4200E846F48
:1042400020EE01F08C51D9268D51DA22DF508E6F8D
:10425000030E8E25856F866B000E8623F6EC2BF001
:104260000201BD2BBD51070BBD6F000120EE01F017
:104270008C51D9268D51DA22DF50050FD96FD9C064
:10428000DAF0000E0001806F040E816F000E826F65
:10429000020E836F8211D8A4200E846FD9C085F0DE
:1042A000866BF6EC2BF000D012009CC0A0F09DC0F5
:1042B000A1F09EC0A5F09FC0A6F0A5C0D9FFA6C0E2
:1042C000DAFF310EDF6E0001A36B010EA26F000159
:1042D00020EE01F0A551D926A651DA22A2C0DFFFB7
:1042E000000120EE02F0A551D926A651DA22A351F1
:1042F000DF6E00019C519D112DE020EE01F09C51DC
:10430000D9269D51DA22DF500AE09EC080F09FC07E
:1043100081F0240E826FF0EC2DF032D033D0AEEC71
:1043200030F00001A46F0001A4510AE09EC080F0AB
:104330009FC081F0A4C082F0F0EC2DF021D022D0FB
:10434000000120EE03F0A551D926A651DA22DF6A3A
:10435000330E18D0000120EE03F0A551D926A65146
:10436000DA22DF50A46F0001A45109E09EC080F062
:104370009FC081F0A4C082F0F0EC2DF000D0319607
:10438000000E00D0120000018B6B8C6B060E00013A
:10439000876FD89000018333823381338033872F36
:1043A000F8D70001060ED8908037813782378337DF
:1043B000E82EF9D780C08DF081C08EF082C08FF0DA
:1043C00083C090F048D08DC088F08EC089F08FC037
:1043D0008AF0400E00018B6F16D085C0D9FF86C0D1
:1043E000DAFFDF5088C0F6FF89C0F7FF8AC0F8FF08
:1043F000F56E0C000001854B862B0001882B000E0A
:1044000089238A2300D000018B078B29E6E18DC028
:1044100088F08EC089F08FC08AF0A68EA69CA684F4
:10442000F2AE04D0F29E010E00018C6F550EA76E05
:10443000AA0EA76EA682A69400018C5104E0F28E0B
:1044400000018C6B00D0400E00018D27000E8E23E2
:104450008F23902300D0000184078429B4E1120047
:104460009CC0A0F09DC0A1F09EC0A5F09FC0A6F08A
:10447000A5C0D9FFA6C0DAFF320EDF6E0001A36B24
:10448000010EA26F000120EE01F0A551D926A65120
:10449000DA22A2C0DFFF000120EE02F0A551D926EA
:1044A000A651DA22A351DF6E00019C519D112CE030
:1044B000030EA0258C6F000EA1218D6F20EE01F060
:1044C000A051D926A151DA22DF508E6F2BEC2FF0AC
:1044D0000001A46F000E0001A46F0001A4510AE0C6
:1044E0009EC080F09FC081F0A4C082F0F0EC2DF05F
:1044F00020D021D0000120EE03F0A551D926A651ED
:10450000DA22DF6A330E17D0000120EE03F0A55146
:10451000D926A651DA22DF50A46F0001A45109E088
:104520009EC080F09FC081F0A4C082F0F0EC2DF01E
:1045300000D0000E00D012009CC0A0F09DC0A1F0E1
:104540009EC0A5F09FC0A6F0A5C0D9FFA6C0DAFF07
:10455000040EDF6E0001A46B010EA36F000120EEBC
:1045600001F0A551D926A651DA22A3C0DFFF000130
:1045700020EE02F0A551D926A651DA22A451DF6E11
:10458000000120EE01F09C51D9269D51DA22DF5026
:104590000AE09EC080F09FC081F0240E826FF0EC94
:1045A0002DF02FD030D077EC32F00001A26F000157
:1045B000A2510DE0A46B020EA36F000120EE04F0E7
:1045C000A551D926A651DA22A2C0DFFF00D00001F2
:1045D00020EE01F0A551D926A651DA22A3C0DFFFB3
:1045E000000120EE02F0A551D926A651DA22A451ED
:1045F000DF6E000120EE03F0A551D926A651DA2284
:10460000DF6A000E00D012009CC0A2F09DC0A3F093
:104610009EC0A6F09FC0A7F00F0E0001806F010E94
:10462000816F030EA225A06F000EA321A16FA0C071
:1046300082F0A1C083F082518311D8A4200E846F30
:10464000866B110E856FF6EC2BF0320E0001806F39
:10465000010E816F140EA225A06F000EA321A16F81
:10466000A0C082F0A1C083F082518311D8A4200E93
:10467000846F866B0F0E856FF6EC2BF00101BA8309
:104680000101BA8FA6C0D9FFA7C0DAFF900EDF6E76
:104690000001A56B010EA46F000120EE01F0A651F0
:1046A000D926A751DA22A4C0DFFF000120EE02F0D4
:1046B000A651D926A751DA22A551DF6E000120EEBE
:1046C00003F0A651D926A751DA22DF6A000E00D0E6
:1046D000120047D082C0F6FF83C0F7FFF86A0800D7
:1046E000F5CF88F00001865144E001D042D0020E9F
:1046F00000018027000E8123885186193AE101D0FC
:1047000038D000012FEEFFF08051D9268151DA22F6
:10471000DF50876F010E00018225846F000E832118
:10472000856F84C0F6FF85C0F7FFF86A0800F5CFF3
:1047300088F00001875102E109D02BD0020E000160
:104740008227000E8323875188190BE000018851CE
:10475000846F856B841F851F844B852B875112D0F6
:1047600018D080C0D9FF81C0DAFFDF500001866F0A
:10477000B1D700018851846F856B841F851F844BDE
:10478000852B865100018425806F000E8521816F65
:1047900000D01200000120EE04F08551D926865188
:1047A000DA2210EE02F08551E1268651E222E6CFB0
:1047B0008AF0E5CF8BF085C0E1FF86C0E2FFE6CF4F
:1047C0008CF0E5CF8DF08C1F8D1F8C4B8D2B8A517B
:1047D0008C278B518D23DE508C1903E1DE508D190F
:1047E00036E0000120EE02F08551D9268651DA220A
:1047F000DECF80F0DDCF81F020EE04F08551D926A8
:104800008651DA22DECF82F0DDCF83F0C6EC2DF0C8
:10481000000120EE06F08551D9268651DA22DECF3E
:1048200088F0DDCF89F080518825D96E81518921AA
:10483000DA6E87C0DFFF000120EE02F08551D92635
:104840008651DA22DE2A000EDD22010E02D0000E91
:1048500000D012000001936994697E0E66EC31F07D
:104860005450010D800EF324D96E040EF420DA6E3C
:104870007E0EDF6E542A1DD090C0D9FF91C0DAFFA2
:10488000DF500001956F0001904B912B93C080F099
:1048900094C081F095C082F046EC2DF080C093F07A
:1048A00081C094F0000195511BEC2DF0000192079E
:1048B00000D000019251E0E10001931F941F93C0CA
:1048C00095F0000195511BEC2DF000019451956F6E
:1048D000000195511BEC2DF07E0E66EC31F054502A
:1048E000010D800EF324D96E040EF420DA6E7E0ED4
:1048F000DF6E542A800E0001806F040E816F54C059
:1049000082F0000E9DEC32F0000E546A1200010E8F
:1049100000018E6F84C089F00001926B4CD00001C1
:104920009251010DF3508025D96EF4508121DA6E39
:10493000DF508B6F9251010DF3508225D96EF450E8
:104940008321DA6EDF50916F00018B5191158C6FCE
:10495000120E0001846504D0906B130E8F6F04D08B
:1049600084C08FF00001906B8FC08AF000018A51E3
:10497000856F866B851F861F854B862B9251876FAF
:10498000886B8551872786518823130E8727000E51
:104990008823820E8725D96E020E8821DA6EDF50B9
:1049A00091158D6F00018C518D1902E0000E0AD017
:1049B0000001922B00D000018951925DB0E300010B
:1049C0008E5100D012000001835104E0805181110A
:1049D00082110EE1000E0001806B816B826B4ED064
:1049E00007D00001832BD89082338133803300D0ED
:1049F0000001856B866BFE0E8215876F85518611CF
:104A000087110EE0EED70CD00001832B0001802B24
:104A1000000E81238223D89082338133803300D0EB
:104A20000001856B866B8251876F855186118711D6
:104A300009E0EAD707D000018307D8908037813793
:104A4000823700D0000181BF04D0020E8361F3D70A
:104A500000D0000183A1819F00D00001D890833352
:104A6000835182130001845102E0828F00D080C004
:104A700080F081C081F082C082F000D0120081EC11
:104A800032F0C00E0DEC32F0FC0E0DEC32F081EC89
:104A900032F0C10E0DEC32F0010E3EEC31F00001AF
:104AA000896F010E3EEC31F000018B6F010E3EEC80
:104AB00031F000018A6F00018A518BC087F0886B4A
:104AC00087C088F0876B871383C0D9FF84C0DAFF63
:104AD00087C0DEFF88C0DDFF010E3EEC31F0000133
:104AE0008B6F010E3EEC31F000018A6F00018A519C
:104AF0008BC087F0886B87C088F0876B871385C071
:104B0000D9FF86C0DAFF87C0DEFF88C0DDFF010E57
:104B10003EEC31F00001896F010E3EEC31F00001F6
:104B2000896F000E3EEC31F00001896F7CEC32F0B1
:104B300000D012009CC0A0F09DC0A1F09EC0A5F0C6
:104B40009FC0A6F0A5C0D9FFA6C0DAFF340EDF6E65
:104B50000001A36B030EA26F000120EE01F0A5512E
:104B6000D926A651DA22A2C0DFFF000120EE02F012
:104B7000A551D926A651DA22A351DF6E000120EEFD
:104B800001F09C51D9269D51DA22DF500AE09EC0E7
:104B900080F09FC081F0240E826FF0EC2DF021D0C8
:104BA00022D0040E0001A525816F000EA621826F80
:104BB00052EC31F00001A46F0001A45109E09EC045
:104BC00080F09FC081F0A4C082F0F0EC2DF009D0FD
:104BD000000120EE03F0A551D926A651DA22DF6AA2
:104BE00000D0000E00D0120020EE04F01750D9269D
:104BF0001850DA2210EE02F01750E1261850E22287
:104C0000E6CF1CF0E5CF1DF017C0E1FF18C0E2FFB2
:104C1000E6CF1EF0E5CF1FF01E1E1F1E1E4A1F2AE4
:104C20001C501E261D501F22DE501E1803E1DE50B0
:104C30001F1832E020EE02F01750D9261850DA2261
:104C4000DECF12F0DDCF13F020EE04F01750D9269E
:104C50001850DA22DECF14F0DDCF15F050EC2FF033
:104C600020EE06F01750D9261850DA22DECF1AF0BF
:104C7000DDCF1BF012501A24D96E13501B20DA6EB0
:104C800019C0DFFF20EE02F01750D9261850DA22A3
:104C9000DE2A000EDD2200D012009CC0A0F09DC0D4
:104CA000A1F09EC0A4F09FC0A5F0A4C0D9FFA5C0EC
:104CB000DAFF420EDF6E0001A36B010EA26F00014E
:104CC00020EE01F0A451D926A551DA22A2C0DFFFBF
:104CD000000120EE02F0A451D926A551DA22A351F9
:104CE000DF6E000120EE01F09C51D9269D51DA22A1
:104CF000DF500AE09EC080F09FC081F0240E826FDA
:104D0000F0EC2DF01FD020D05A0E0001CE190DE18D
:104D10005A0ECF19D8A409D0000120EE03F0A451F7
:104D2000D926A551DA22DF6A0AD09EC080F09FC042
:104D300081F0060E0001826FF0EC2DF000D0020E23
:104D40000101F26F000E00D01200000120EE02F00F
:104D50008551D9268651DA22DECF89F0DDCF8AF05F
:104D600085C0D9FF86C0DAFFDECF8BF0DDCF8CF0B7
:104D70008B1F8C1F8B4B8C2B89518B278A518C233B
:104D80008B518C1134E085C0D9FF86C0DAFFDECFAD
:104D900080F0DDCF81F020EE04F08551D9268651D8
:104DA000DA22DECF82F0DDCF83F0C6EC2DF00001F9
:104DB00020EE06F08551D9268651DA22DECF89F021
:104DC000DDCF8AF080518925D96E81518A21DA6E32
:104DD00087C0E1FF88C0E2FFDFCFE7FF85C0D9FFD2
:104DE00086C0DAFFDE2A000EDD22010E02D0000EA0
:104DF00000D0120020EE02F01750D9261850DA2207
:104E0000DECF1BF0DDCF1CF017C0D9FF18C0DAFFD2
:104E1000DECF1DF0DDCF1EF01D1E1E1E1D4A1E2AF8
:104E20001B501D261C501E221D501E1033E017C0A3
:104E3000D9FF18C0DAFFDECF12F0DDCF13F020EE7D
:104E400004F01750D9261850DA22DECF14F0DDCF47
:104E500015F050EC2FF020EE06F01750D926185020
:104E6000DA22DECF1BF0DDCF1CF012501B24D96EEE
:104E700013501C20DA6E19C0E1FF1AC0E2FFDFCF29
:104E8000E7FF17C0D9FF18C0DAFFDE2A000EDD22C7
:104E9000010E02D0000E00D01200000E0001826F41
:104EA000020E836F020E8225806F000E8321816FB8
:104EB00080C084F081C085F082C0D9FF83C0DAFF52
:104EC00080C2DFFF000120EE01F08251D92683511C
:104ED000DA22BF0EDF6E84C0D9FF85C0DAFF810EF3
:104EE000DF6E0001844B852B84C0D9FF85C0DAFFBB
:104EF000F00EDF6E0001844B852B84C0D9FF85C086
:104F0000DAFF020EDF6E0001844B852B84C0D9FFCF
:104F100085C0DAFF070EDF6E0001844B852B84C04D
:104F2000D9FF85C0DAFFDF6A0001844B852B0001C1
:104F3000805100088425020FD96F00D012000600AE
:104F4000EACF26F0E1CF27F0E2CF28F0D9CF29F041
:104F5000DACF2AF0F3CF2BF0F4CF2CF0F6CF2DF0F0
:104F6000F7CF2EF0F8CF2FF0F5CF30F0F2B0F2906F
:104F70009EA218D0500409E14F2A4F04226E1E0E43
:104F8000226403D0506A4F6A00D09E924E040AE118
:104F9000532A5304226E090E226404D0536A43EC50
:104FA0002EF000D071EC2DF030C0F5FF2FC0F8FFCF
:104FB0002EC0F7FF2DC0F6FF2CC0F4FF2BC0F3FF6F
:104FC0002AC0DAFF29C0D9FF28C0E2FF27C0E1FFCD
:104FD00026C0EAFF25C0E9FF24C0FBFF23C0FAFF7B
:104FE00011000001836F81EC32F0C00E0DEC32F045
:104FF000810E0DEC32F081EC32F0C10E0DEC32F08E
:105000000001846B070E0001846501D021D0070EDA
:10501000000184610CD08451010D550EF324D96E2A
:10502000000EF420DA6E010E3EEC31F00CD00001DF
:105030008451010D550EF324D96E000EF420DA6E62
:10504000000E3EEC31F0DF6E00D00001842BDAD789
:105050007CEC32F00001830512E001D010D059AA97
:105060005AB604D05AB402D05AA002D0318807D020
:1050700059AE59B802D059A602D0318A00D01200D8
:105080000001826F000182B102D0000E40D0000109
:1050900082A309D015D007D0010E39D0050E37D024
:1050A00034D035D00DD0000182510F0B806F816B51
:1050B00081512BE18051010AEFE0040AEFE025D095
:1050C000000182B30CD021D00AD0AF0E20D0830EC5
:1050D0001ED0430E1CD019D018D019D016D0000104
:1050E0008251EF0B806F816B81510FE180510F0A6C
:1050F0000CE04C0AEEE0200A08E0E00AE8E0040ACE
:1051000004E0280AE2E0400A00D0FF0E00D01200BE
:10511000010E0801406F000E0001806F080E816FC4
:10512000836B826B856B400E846FE3EC30F090C034
:1051300080F091C081F092C082F093C083F00001B2
:10514000856B400E846F000E866F080E876FBCEC77
:105150002CF0000E0001806F080E816F06EC2FF01E
:1051600000018051CE278151CF230801416B3F0EB2
:105170000801416501D011D008014151010D000E17
:10518000F324D96E080EF420DA6EDE2803E0000E58
:10519000406B03D00801412BEAD712000001C06F19
:1051A0000001C16B36D0829A0CD00001C25199EC3B
:1051B0001CF00001C16F0001C1050CE002D00AD053
:1051C00000D0C20E00018D6F000E8E6FC4EC31F066
:1051D000E806EBE00001C10522E1D95120E0D551FC
:1051E0001EE1010E13D01BD0505019E1828A000E2F
:1051F0000001906F020E916FD9C092F02AEC24F05A
:105200000001DB0502E1010ED56F000E0001C06F49
:1052100006D00001C051C7E0010AE6E000D000015D
:10522000C05100D012009CC0A0F09DC0A1F09EC053
:10523000A4F09FC0A5F0A4C0D9FFA5C0DAFF400E1E
:10524000DF6E0001A36B010EA26F000120EE01F0E2
:10525000A451D926A551DA22A2C0DFFF000120EE19
:1052600002F0A451D926A551DA22A351DF6E000124
:1052700020EE01F09C51D9269D51DA22DF500AE040
:105280009EC080F09FC081F0240E826FF0EC2DF064
:105290000CD00DD0000120EE03F0A451D926A55169
:1052A000DA22DF6A010E0101F26F000E00D0120057
:1052B0009CC0A0F09DC0A1F09EC0A4F09FC0A5F02E
:1052C000A4C0D9FFA5C0DAFF060EDF6E0001A36BF4
:1052D000010EA26F000120EE01F0A451D926A551C4
:1052E000DA22A2C0DFFF000120EE02F0A451D9268D
:1052F000A551DA22A351DF6E000120EE01F09C518E
:10530000D9269D51DA22DF500AE09EC080F09FC06E
:1053100081F0240E826FF0EC2DF00CD00DD0000146
:1053200020EE03F0A451D926A551DA22000EDF6A3F
:105330009EEC32F0000E00D012009CC0A0F09DC088
:10534000A1F09EC0A4F09FC0A5F0A4C0D9FFA5C045
:10535000DAFF120EDF6E0001A36B010EA26F0001D7
:1053600020EE01F0A451D926A551DA22A2C0DFFF18
:10537000000120EE02F0A451D926A551DA22A35152
:10538000DF6E000120EE01F09C51D9269D51DA22FA
:10539000DF500AE09EC080F09FC081F0240E826F33
:1053A000F0EC2DF00BD00CD0000120EE03F0A45156
:1053B000D926A551DA22DF6A8AEC32F0000E00D03D
:1053C0001200000E0001876F010E886F896B8A6BD7
:1053D000871F881F891F8A1F872B000E8823892318
:1053E0008A23845187258C6F855188218D6F000E0B
:1053F00089218E6F000E8A218F6F0001906B000152
:105400008B6B1DD084C0D9FF85C0DAFFDF5000014F
:10541000906F86EC32F08CC080F08DC081F090C02F
:1054200082F074EC2FF00001844B852B00018C2B53
:10543000000E8D238E238F2300018B2B00D00001C3
:1054400086518B5DDFE312009CC0A0F09DC0A1F0EF
:105450009EC0A4F09FC0A5F0A4C0D9FFA5C0DAFFEC
:105460000A0EDF6E0001A36B010EA26F000120EE99
:1054700001F0A451D926A551DA22A2C0DFFF000114
:1054800020EE02F0A451D926A551DA22A351DF6EF5
:10549000000120EE01F09C51D9269D51DA22DF5007
:1054A0000AE09EC080F09FC081F0240E826FF0EC75
:1054B0002DF009D00AD0000120EE03F0A451D92626
:1054C000A551DA22DF6A000E00D012009CC0A0F0C5
:1054D0009DC0A1F09EC0A4F09FC0A5F0A4C0D9FFBC
:1054E000A5C0DAFF030EDF6E0001A36B010EA26FF1
:1054F000000120EE01F0A451D926A551DA22A2C064
:10550000DFFF000120EE02F0A451D926A551DA22D6
:10551000A351DF6E000120EE01F09C51D9269D5170
:10552000DA22DF500AE09EC080F09FC081F0240E96
:10553000826FF0EC2DF009D00AD0000120EE03F0CC
:10554000A451D926A551DA22DF6A000E00D012003C
:105550002AD082C0D9FF83C0DAFF80C0E1FF81C0BA
:10556000E2FFDE50E61819E082C0D9FF83C0DAFFFF
:10557000DF500001866F876B861F871F864B872B46
:1055800080C0D9FF81C0DAFFDF50886F885186253F
:10559000806F000E8721816F14D00001804B812B1A
:1055A000824B832B00D000018407D8A08507842973
:1055B000D0E18529D8A4CDD7000E0001816B806B86
:1055C00000D01200948E949C949A829AAC9CAC9ACF
:1055D000AC98AC96AC84AB8EAB9CAB88AB96B89ACF
:1055E000B898B896B892B890B06A400EAF6EE60E12
:1055F0000001806F000E816F000E826F060E836FB8
:10560000856B800E846FE0EC2EF0EE0E0001806F53
:10561000000E816F800E826F060E836F856B800E89
:10562000846FE0EC2EF09D889D8A9F8A9F88D08EA3
:10563000F28EF28C120095C080F096C081F097C077
:1056400082F098C083F0400E00019525846F000E13
:105650009621856F000E9721866F000E9821876F27
:105660008BEC2BF095C080F096C081F097C082F053
:1056700098C083F0010E0001846F99C085F09AC034
:1056800086F0C3EC21F0400E4726000E482295C05C
:1056900090F096C091F097C092F098C093F088EC8B
:1056A00028F000D01200020E0001AE25B36F000EEC
:1056B000AF21B46FB3C0D9FFB4C0DAFF0001B34B60
:1056C000B42B810EDE1826E101D024D0B3C0D9FF5F
:1056D000B4C0DAFFDF500001B26F0001B34BB42B4E
:1056E000F00E0001B21909E1AEC093F0AFC094F022
:1056F000B0C095F089EC08F00DD0800E0001B21911
:1057000009E1AEC08EF0AFC08FF0B0C090F0C6EC33
:105710000FF000D012000001886B80C089F081C0BA
:105720008AF082C08BF083C08CF021D08BC0F8FF50
:105730008AC0F7FF89C0F6FFA68EA69CA684A6881D
:10574000F2AE04D0F29E010E0001886F550EA76ED6
:10575000AA0EA76EA6820001885102E0F28E00D048
:10576000400E00018927000E8A238B238C23000121
:105770008451895D85518A5986518B5987518C593D
:10578000D5E312000001806F000180A103D0110E4B
:105790002CD005D0000180A302D00F0E26D000012E
:1057A00080A703D0010E21D01ED0000180A903D014
:1057B000020E1BD018D0000180AB03D0030E15D011
:1057C00012D0000180AD03D0140E0FD00CD0000118
:1057D00080AF03D0270E09D006D0000180A503D0EA
:1057E0000E0E03D000D0000E00D0120082C087F051
:1057F00083C088F084C089F080C08AF081C08BF0BB
:105800001ED087C0F6FF88C0F7FF89C0F8FF8AC0A6
:10581000D9FF8BC0DAFFF8BA03D00800F55005D0E5
:10582000F6CFE9FFF7CFEAFFEF50DF6E0001872BDD
:10583000000E8823892300018A4B8B2B00D00001A6
:105840008507D8A086078529DCE18629D8A4D9D781
:105850001200000E0001896F020E8A6F020E892568
:10586000876F000E8A21886F87C085F088C086F018
:1058700089C0D9FF8AC0DAFF80C2DFFF000120EEB5
:1058800001F08951D9268A51DA22110EDF6E010EFC
:1058900000018925806F000E8A21816FBCC282F0D1
:1058A000FCEC30F00001875100088525020FD96F0C
:1058B00000D01200000E0001896F020E8A6F020EE6
:1058C0008925876F000E8A21886F87C085F088C080
:1058D00086F089C0D9FF8AC0DAFF80C2DFFF0001ED
:1058E00020EE01F08951D9268A51DA22150EDF6E99
:1058F000010E00018925806F000E8A21816FBCC2D4
:1059000082F0FCEC30F00001875100088525020F81
:10591000D96F00D012000001815101012E5D2F517D
:10592000800A0001836F8251800A83590DE30101CF
:1059300030510001815D8251800A836F0101315134
:10594000800A0001835902E2130E15D077EC32F081
:105950000001846F000184510BE181C04BF082C0D3
:105960004CF00F0E0101AE6F0101BC81010EE76F1B
:105970000001845100D0120080C088F081C089F0FD
:1059800082C08AF083C08BF0F8CF8EF0F7CF8DF015
:10599000F6CF8CF08AC0F8FF89C0F7FF88C0F6FF09
:1059A0000BD0090086C0D9FF87C0DAFFF5CFDFFF33
:1059B0000001864B872B00D000018407D8A0850703
:1059C0008429EFE18529D8A4ECD78EC0F8FF8DC0DB
:1059D000F7FF8CC0F6FF12000001836F0001846B9B
:1059E000130E0001846501D020D000018451040D04
:1059F000920EF324D96E030EF420DA6E8351DE1872
:105A000011E18451040D020EF326000EF422920ED1
:105A1000F324D96E030EF420DA6EDECF80F0DDCFF2
:105A200081F008D00001842BDBD7000E0001806BD1
:105A3000816B00D0120000018F6F7D0E00018F1965
:105A400003E07E0E8F1912E17D0E66EC31F05450AA
:105A5000010D800EF324D96E040EF420DA6E7D0E53
:105A6000DF6E542A200E00018F1B00D000018F51E1
:105A700066EC31F05450010D800EF324D96E040E03
:105A8000F420DA6E8FC0DFFF542A12000001825129
:105A9000801B080E0001856F000185511DE001D0BB
:105AA0001BD0000180A10CD0D8908131846F80314F
:105AB000836F080E8319806F840E8419816F09D05B
:105AC000D89000018131836F8031806F83C081F075
:105AD00000D000018507E0D780C080F081C081F050
:105AE00012009EB89DA813D0EE0E176E000E186E11
:105AF000210E196E000E1A6EFAEC26F0E80603E18C
:105B000021C0ADFF04D0ACA202D0AC9A00D09EBAA6
:105B10009DAA0CD0AECF20F0E60E176E000E186EC8
:105B200020C019F0F4EC25F09E9A00D0ABA203D06F
:105B3000AB98AB8800D012000001806F1DD004002C
:105B40003F4A402AB40E3F18401004E1010E000104
:105B5000806F00D00001DC0504E1406A3F6ADC6B25
:105B600000D00001D50502E0DB050CE1010E0001CB
:105B7000806F08D0FF0006D000018051E0E0010AEC
:105B8000F9E000D00001805100D0120000018251E4
:105B9000831121E0010E846F06D00001D890823776
:105BA0008337842B00D0000183BF02D0F6D700D00A
:105BB00000018251805D8351815905E38251805FEC
:105BC0008351815B00D00001D89083338233000180
:105BD000842FEED700D080C080F081C081F0120009
:105BE0000001846B020E836F000120EE01F08051F2
:105BF000D9268151DA2283C0DFFF000120EE02F0B6
:105C00008051D9268151DA228451DF6E000120EEC5
:105C100003F08051D9268151DA220B0EDF6E00018C
:105C200020EE04F08051D9268151DA2282C0DFFFB4
:105C300000D01200000EC26E0F0EC16E000EC06EBC
:105C4000380E8A6EC00E936E380E816E000E926E04
:105C5000F290F292F294F296F298F29AF29C850EF9
:105C6000F16ED08ECA90CA92CA84CA96CA98CA9A4D
:105C7000CA9CFA0ECB6E9E929D82F28C9AEC32F008
:105C8000E2EC2AF01200146A040E146401D023D04E
:105C900014500B0D090EF326000EF422BE0EF32451
:105CA000D96E010EF420DA6EDE50DE1012E01450D0
:105CB0000B0D040EF326000EF422BE0EF324D96E53
:105CC000010EF420DA6EDE2A000EDE22DE22DE2253
:105CD00000D0142AD9D712000300CC540400384550
:105CE00005007C2D0600B0521000226511002865C9
:105CF00012003A530A0048549000084640002652C9
:105D000041001C3842009A4C3100AA4232006044E3
:105D10003300403D3400344B0700B0340E008E1485
:105D20000F00320DFF000000000E0001846F020E14
:105D3000856F020E8425826F000E8521836F82C0DD
:105D400080F083C081F084C0D9FF85C0DAFF80C2B3
:105D5000DFFF000120EE01F08451D9268551DA22BF
:105D6000730EDF6E0001825100088025020FD96F8B
:105D700000D01200000E0001846F020E856F020E2B
:105D80008425826F000E8521836F82C080F083C0DE
:105D900081F084C0D9FF85C0DAFF80C2DFFF000137
:105DA00020EE01F08451D9268551DA22730EDF6E80
:105DB0000001825100088025020FD96F00D0120027
:105DC000000120EE06F08051D9268151DA2282C0EE
:105DD000DEFF83C0DDFF80C0D9FF81C0DAFFDE6A4D
:105DE000DD6A000120EE02F08051D9268151DA22CD
:105DF000DE6ADD6A000120EE04F08051D92681516F
:105E0000DA2284C0DEFF85C0DDFF120080C082F090
:105E100081C083F00001856B846B0001866B12D01A
:105E200015D082C0D9FF83C0DAFFDE50000184277D
:105E3000DD508523020E00018227000E8323020E0F
:105E4000000186273F0E00018665EBD784C080F0F5
:105E500085C081F012004A0E0001806F030E816F31
:105E60008CC082F08DC083F082518311D8A4200EA3
:105E7000846F8EC085F0866BF6EC2BF08EC0D4F06C
:105E800000018E51010D4A0EF324D96E030EF42049
:105E9000DA6EDF6A020E0101DC6F000E00D0120024
:105EA000145015101CE0010E166E05D0D890143653
:105EB0001536162A00D015BE02D0F8D700D01450DF
:105EC000125C1550135805E31450125E1550135A06
:105ED00000D0D89015321432162EF1D700D012C04F
:105EE00012F013C013F012000001836B0001815106
:105EF000030BAA6E80C0A9FF82C0A8FFA69EA69C25
:105F0000A684000EF2BE010E0001836FF29E550EB4
:105F1000A76EAA0EA76EA68200D0A6B2FED7000179
:105F200083B102D0F29E01D0F28EA694120000013D
:105F30008B6B000189AF08D0886D891FD8B0892B81
:105F4000010E00018B6F00D088C080F089C081F005
:105F50000001826B8E0E836F8BC084F0E3EC24F023
:105F600080C088F081C089F082C08AF000D0120021
:105F700081EC32F0C00E0DEC32F0960E0DEC32F0EA
:105F8000FF0E0DEC32F0FF0E0DEC32F08F0E0DEC2B
:105F900032F0010E0DEC32F0720E0DEC32F0060E06
:105FA0000DEC32F06E0E0DEC32F07CEC32F000D0E5
:105FB000120081EC32F0C00E0DEC32F0890E0DECC7
:105FC00032F0FF0E0DEC32F0FF0E0DEC32F08F0EC2
:105FD0000DEC32F0010E0DEC32F0920E0DEC32F0C1
:105FE000000E0DEC32F0AE0E0DEC32F07CEC32F027
:105FF00000D0120080C084F081C085F004D0000180
:10600000844B852B00D084C0D9FF85C0DAFFDF50D8
:10601000F6E180C082F081C083F00001821F831FFF
:10602000824B832B84518225806F85518321816F20
:1060300000D0120000018C6F00018B6B00018CAF4F
:1060400005D08C6D010E00018B6F00D000018C51CA
:10605000806F816B826B8E0E836F8BC084F0E3EC5C
:1060600024F080C088F081C089F082C08AF000D01E
:106070001200C6CF81F0C66A94960001826B07D0E9
:106080000AD08276040EE82EFED70001822B0F0E76
:1060900000018265F6D7948681C0C6FF210E0001FB
:1060A000806F760EE82EFED7802FFCD700D012002E
:1060B00077EC32F00001816F010E3C6E81C03EF042
:1060C0000001815112E143C0B3F144C0B4F14BC0AF
:1060D000B1F14CC0B2F1000E0101AE6B0101BC8701
:1060E0000101BC850101BC8100D01200DE0E00015F
:1060F000806F000E816F000E826F070E836F010E9E
:10610000856F846BE0EC2EF0376A810E386E396A49
:106110003A6A0001CF6BCE6B486A476A000E0001F5
:10612000D66B1200E80300000000000000385B009E
:1061300000000000000000009C516400000000000E
:10614000000001B417E80300000000000000F6049E
:10615000000000000000000000EE400031A202D06C
:106160000F0E16D031A40BD030C1B1F131C1B2F154
:106170000101B46BB36B0101BC850101BC870F0E3B
:106180000101AE6F0101BC81050EE76F000E00D06A
:10619000120081EC32F0C00E0DEC32F08B0E0DECE3
:1061A00032F0FF0E0DEC32F0FF0E0DEC32F000017C
:1061B00083510DEC32F0000182510DEC32F07CEC99
:1061C00032F000D0120080C086F081C087F00AD083
:1061D00086C0D9FF87C0DAFF82C0DFFF0001864B8F
:1061E000872B00D000018407D8A085078429F0E11F
:1061F0008529D8A4EDD7120082C083F0050E0001D6
:10620000846F0001D8908337842FFBD780C0D9FFDB
:1062100081C0DAFFDF501F0B831180C0D9FF81C01E
:10622000DAFFDF6E120059BC02D05AA203D0318AC5
:10623000030E0ED0F5EC31F0AFC184F0B0C185F0A3
:1062400084C082F085C083F0C9EC30F0000E00D02D
:106250001200365002E104D010D03150321802E161
:10626000000E0BD0325031180001806F3214336EA3
:1062700031508015346E010E00D012000001816F84
:10628000C58600D0C7A0FED7C9CF82F017EC32F088
:106290000001815103E061EC32F000D00001825135
:1062A00000D0120077EC32F00001836F00018351BF
:1062B00009E181C0D9FF82C0DAFF4BC0DEFF4CC0CC
:1062C000DDFF00D00001835100D0120000018E6F6D
:1062D00000D0EE0E0001856F000E866F8EC087F035
:1062E000CAEC23F00009F5E09D98ACAAAC8A9D8821
:1062F00012000001D8908235836F80C0D9FF81C021
:10630000DAFFDF50F10B831180C0D9FF81C0DAFFC3
:10631000DF6E12000101AE6B0101BC814A6A496A5D
:10632000526A3194319A3198010E3C6E000E3E6AE9
:1063300000D01200020E000188190AE101D008D035
:10634000020E0201816FBC6BBD6B94EC2EF000D08D
:10635000120000018151030BAA6E80C0A9FFA69C08
:10636000A69EA68000F000F0A85000D012005A3877
:10637000E832070B0001806F030E801702E0000E69
:1063800002D0010E00D01200E60E0001856F000E53
:10639000866F8DC087F08EC088F0A5EC26F000D007
:1063A0001200F5EC31F0800E0001836F000E826B5D
:1063B000C9EC30F0000E00D0120001EC32F0E9EC34
:1063C00031F0F5EC31F0D9EC2FF0B8EC2FF000D033
:1063D000120081EC32F0C00E0DEC32F0870E0DECA5
:1063E00032F07CEC32F000D0120081EC32F0C00EC2
:1063F0000DEC32F0860E0DEC32F07CEC32F000D079
:10640000120081EC32F0C00E0DEC32F0850E0DEC76
:1064100032F07CEC32F000D012000001816F81C0BC
:10642000C9FF00D0C7B0FED717EC32F0120000D081
:10643000C5CF80F01F0E00018017D8B4C7B4F8D7BD
:1064400012000001DD6B546AD86B0001D269D36978
:10645000000ED76B12000001806F010E3C6E80C0F1
:106460003EF000D012000001806F0001D890803112
:10647000070B00D012000001806F00018039E84254
:10648000070B00D0120094869488C78E280EC66E23
:10649000280EC86E1200000E366A316A326A336AFC
:1064A000346A00D01200480ED36E9B6AA06A100EA8
:1064B000A16E12003D68000E3C6A3B6A3E6A00D045
:1064C0001200C59AC58800D0C5B8FED712000201D7
:1064D000816BBAEC2EF000D012003450C2EC2BF0DD
:1064E00000D012003350C2EC2BF000D0120031501B
:1064F000C2EC2BF000D01200C58400D0C5B4FED78A
:106500001200C58000D0C5B0FED7120000D0A6B2E0
:10651000FED71200010E366E00D0120043434143F5
:106520004600250E00D01200250E00D0120031C00A
:0E65300032F0120093928192120012001200BB
:020000040020DA
:08000000FFFFFFFFFFFFFFFF00
:020000040030CA
:0E000000FFC2110DFF8780FF0FC00FE00F4001
:00000001FF
